{
	"contracts/loops.sol": {
		"Loops": {
			"abi": [
				{
					"anonymous": false,
					"inputs": [
						{
							"indexed": false,
							"internalType": "uint256",
							"name": "date",
							"type": "uint256"
						},
						{
							"indexed": false,
							"internalType": "address",
							"name": "add",
							"type": "address"
						},
						{
							"indexed": false,
							"internalType": "uint256",
							"name": "number",
							"type": "uint256"
						},
						{
							"indexed": false,
							"internalType": "uint256",
							"name": "i",
							"type": "uint256"
						}
					],
					"name": "Number",
					"type": "event"
				},
				{
					"inputs": [
						{
							"internalType": "uint256",
							"name": "number",
							"type": "uint256"
						},
						{
							"internalType": "uint256",
							"name": "amount",
							"type": "uint256"
						}
					],
					"name": "doWhileLoopNumbers",
					"outputs": [],
					"stateMutability": "nonpayable",
					"type": "function"
				},
				{
					"inputs": [
						{
							"internalType": "uint256",
							"name": "number",
							"type": "uint256"
						},
						{
							"internalType": "uint256",
							"name": "amount",
							"type": "uint256"
						}
					],
					"name": "showNumbers",
					"outputs": [],
					"stateMutability": "nonpayable",
					"type": "function"
				},
				{
					"inputs": [
						{
							"internalType": "uint256",
							"name": "number",
							"type": "uint256"
						},
						{
							"internalType": "uint256",
							"name": "amount",
							"type": "uint256"
						}
					],
					"name": "showNumbersWithBreak",
					"outputs": [],
					"stateMutability": "nonpayable",
					"type": "function"
				},
				{
					"inputs": [
						{
							"internalType": "uint256",
							"name": "number",
							"type": "uint256"
						},
						{
							"internalType": "uint256",
							"name": "amount",
							"type": "uint256"
						}
					],
					"name": "whileLoopNumbers",
					"outputs": [],
					"stateMutability": "nonpayable",
					"type": "function"
				}
			],
			"devdoc": {
				"kind": "dev",
				"methods": {},
				"version": 1
			},
			"evm": {
				"assembly": "    /* \"contracts/loops.sol\":74:1361  contract Loops {\r... */\n  mstore(0x40, 0x80)\n  callvalue\n  dup1\n  iszero\n  tag_1\n  jumpi\n  0x00\n  dup1\n  revert\ntag_1:\n  pop\n  dataSize(sub_0)\n  dup1\n  dataOffset(sub_0)\n  0x00\n  codecopy\n  0x00\n  return\nstop\n\nsub_0: assembly {\n        /* \"contracts/loops.sol\":74:1361  contract Loops {\r... */\n      mstore(0x40, 0x80)\n      callvalue\n      dup1\n      iszero\n      tag_1\n      jumpi\n      0x00\n      dup1\n      revert\n    tag_1:\n      pop\n      jumpi(tag_2, lt(calldatasize, 0x04))\n      shr(0xe0, calldataload(0x00))\n      dup1\n      0x022d18c4\n      eq\n      tag_3\n      jumpi\n      dup1\n      0x0fc34d5d\n      eq\n      tag_4\n      jumpi\n      dup1\n      0xc50be469\n      eq\n      tag_5\n      jumpi\n      dup1\n      0xc8846751\n      eq\n      tag_6\n      jumpi\n    tag_2:\n      0x00\n      dup1\n      revert\n        /* \"contracts/loops.sol\":659:983  function whileLoopNumbers(uint number, uint amount) public {\r... */\n    tag_3:\n      tag_7\n      0x04\n      dup1\n      calldatasize\n      sub\n      dup2\n      add\n      swap1\n      tag_8\n      swap2\n      swap1\n      tag_9\n      jump\t// in\n    tag_8:\n      tag_10\n      jump\t// in\n    tag_7:\n      stop\n        /* \"contracts/loops.sol\":396:651  function showNumbersWithBreak(uint number, uint amount) public {\r... */\n    tag_4:\n      tag_11\n      0x04\n      dup1\n      calldatasize\n      sub\n      dup2\n      add\n      swap1\n      tag_12\n      swap2\n      swap1\n      tag_9\n      jump\t// in\n    tag_12:\n      tag_13\n      jump\t// in\n    tag_11:\n      stop\n        /* \"contracts/loops.sol\":991:1358  function doWhileLoopNumbers(uint number, uint amount) public {\r... */\n    tag_5:\n      tag_14\n      0x04\n      dup1\n      calldatasize\n      sub\n      dup2\n      add\n      swap1\n      tag_15\n      swap2\n      swap1\n      tag_9\n      jump\t// in\n    tag_15:\n      tag_16\n      jump\t// in\n    tag_14:\n      stop\n        /* \"contracts/loops.sol\":207:388  function showNumbers(uint number, uint amount) public {\r... */\n    tag_6:\n      tag_17\n      0x04\n      dup1\n      calldatasize\n      sub\n      dup2\n      add\n      swap1\n      tag_18\n      swap2\n      swap1\n      tag_9\n      jump\t// in\n    tag_18:\n      tag_19\n      jump\t// in\n    tag_17:\n      stop\n        /* \"contracts/loops.sol\":659:983  function whileLoopNumbers(uint number, uint amount) public {\r... */\n    tag_10:\n        /* \"contracts/loops.sol\":729:739  bool check */\n      0x00\n        /* \"contracts/loops.sol\":768:774  uint i */\n      dup1\n        /* \"contracts/loops.sol\":791:976  while(!check){\r... */\n    tag_21:\n        /* \"contracts/loops.sol\":798:803  check */\n      dup2\n        /* \"contracts/loops.sol\":791:976  while(!check){\r... */\n      tag_22\n      jumpi\n        /* \"contracts/loops.sol\":824:870  Number(block.timestamp, msg.sender, number, i) */\n      0x7f01e027002983a61fc732573dbcd5ca1d39361dc45033701f7ed61cee22e61e\n        /* \"contracts/loops.sol\":831:846  block.timestamp */\n      timestamp\n        /* \"contracts/loops.sol\":848:858  msg.sender */\n      caller\n        /* \"contracts/loops.sol\":860:866  number */\n      dup7\n        /* \"contracts/loops.sol\":868:869  i */\n      dup5\n        /* \"contracts/loops.sol\":824:870  Number(block.timestamp, msg.sender, number, i) */\n      mload(0x40)\n      tag_23\n      swap5\n      swap4\n      swap3\n      swap2\n      swap1\n      tag_24\n      jump\t// in\n    tag_23:\n      mload(0x40)\n      dup1\n      swap2\n      sub\n      swap1\n      log1\n        /* \"contracts/loops.sol\":885:888  i++ */\n      dup1\n      dup1\n      tag_25\n      swap1\n      tag_26\n      jump\t// in\n    tag_25:\n      swap2\n      pop\n      pop\n        /* \"contracts/loops.sol\":911:917  amount */\n      dup3\n        /* \"contracts/loops.sol\":906:907  i */\n      dup2\n        /* \"contracts/loops.sol\":906:917  i == amount */\n      eq\n        /* \"contracts/loops.sol\":903:965  if(i == amount){\r... */\n      iszero\n      tag_27\n      jumpi\n        /* \"contracts/loops.sol\":945:949  true */\n      0x01\n        /* \"contracts/loops.sol\":937:949  check = true */\n      swap2\n      pop\n        /* \"contracts/loops.sol\":903:965  if(i == amount){\r... */\n    tag_27:\n        /* \"contracts/loops.sol\":791:976  while(!check){\r... */\n      jump(tag_21)\n    tag_22:\n        /* \"contracts/loops.sol\":718:983  {\r... */\n      pop\n      pop\n        /* \"contracts/loops.sol\":659:983  function whileLoopNumbers(uint number, uint amount) public {\r... */\n      pop\n      pop\n      jump\t// out\n        /* \"contracts/loops.sol\":396:651  function showNumbersWithBreak(uint number, uint amount) public {\r... */\n    tag_13:\n        /* \"contracts/loops.sol\":474:480  uint i */\n      0x00\n        /* \"contracts/loops.sol\":470:644  for(uint i = 0; i< amount; i++){\r... */\n    tag_29:\n        /* \"contracts/loops.sol\":489:495  amount */\n      dup2\n        /* \"contracts/loops.sol\":486:487  i */\n      dup2\n        /* \"contracts/loops.sol\":486:495  i< amount */\n      lt\n        /* \"contracts/loops.sol\":470:644  for(uint i = 0; i< amount; i++){\r... */\n      iszero\n      tag_30\n      jumpi\n        /* \"contracts/loops.sol\":525:526  5 */\n      0x05\n        /* \"contracts/loops.sol\":521:522  i */\n      dup2\n        /* \"contracts/loops.sol\":521:526  i > 5 */\n      gt\n        /* \"contracts/loops.sol\":518:567  if(i > 5){\r... */\n      iszero\n      tag_32\n      jumpi\n        /* \"contracts/loops.sol\":546:551  break */\n      jump(tag_30)\n        /* \"contracts/loops.sol\":518:567  if(i > 5){\r... */\n    tag_32:\n        /* \"contracts/loops.sol\":586:632  Number(block.timestamp, msg.sender, number, i) */\n      0x7f01e027002983a61fc732573dbcd5ca1d39361dc45033701f7ed61cee22e61e\n        /* \"contracts/loops.sol\":593:608  block.timestamp */\n      timestamp\n        /* \"contracts/loops.sol\":610:620  msg.sender */\n      caller\n        /* \"contracts/loops.sol\":622:628  number */\n      dup6\n        /* \"contracts/loops.sol\":630:631  i */\n      dup5\n        /* \"contracts/loops.sol\":586:632  Number(block.timestamp, msg.sender, number, i) */\n      mload(0x40)\n      tag_33\n      swap5\n      swap4\n      swap3\n      swap2\n      swap1\n      tag_24\n      jump\t// in\n    tag_33:\n      mload(0x40)\n      dup1\n      swap2\n      sub\n      swap1\n      log1\n        /* \"contracts/loops.sol\":497:500  i++ */\n      dup1\n      dup1\n      tag_34\n      swap1\n      tag_26\n      jump\t// in\n    tag_34:\n      swap2\n      pop\n      pop\n        /* \"contracts/loops.sol\":470:644  for(uint i = 0; i< amount; i++){\r... */\n      jump(tag_29)\n    tag_30:\n      pop\n        /* \"contracts/loops.sol\":396:651  function showNumbersWithBreak(uint number, uint amount) public {\r... */\n      pop\n      pop\n      jump\t// out\n        /* \"contracts/loops.sol\":991:1358  function doWhileLoopNumbers(uint number, uint amount) public {\r... */\n    tag_16:\n        /* \"contracts/loops.sol\":1080:1081  0 */\n      0x00\n        /* \"contracts/loops.sol\":1071:1077  amount */\n      dup2\n        /* \"contracts/loops.sol\":1071:1081  amount > 0 */\n      gt\n        /* \"contracts/loops.sol\":1063:1082  require(amount > 0) */\n      tag_36\n      jumpi\n      0x00\n      dup1\n      revert\n    tag_36:\n        /* \"contracts/loops.sol\":1093:1103  bool check */\n      0x00\n        /* \"contracts/loops.sol\":1124:1130  uint i */\n      dup1\n        /* \"contracts/loops.sol\":1147:1351  do{\r... */\n    tag_37:\n        /* \"contracts/loops.sol\":1169:1215  Number(block.timestamp, msg.sender, number, i) */\n      0x7f01e027002983a61fc732573dbcd5ca1d39361dc45033701f7ed61cee22e61e\n        /* \"contracts/loops.sol\":1176:1191  block.timestamp */\n      timestamp\n        /* \"contracts/loops.sol\":1193:1203  msg.sender */\n      caller\n        /* \"contracts/loops.sol\":1205:1211  number */\n      dup7\n        /* \"contracts/loops.sol\":1213:1214  i */\n      dup5\n        /* \"contracts/loops.sol\":1169:1215  Number(block.timestamp, msg.sender, number, i) */\n      mload(0x40)\n      tag_40\n      swap5\n      swap4\n      swap3\n      swap2\n      swap1\n      tag_24\n      jump\t// in\n    tag_40:\n      mload(0x40)\n      dup1\n      swap2\n      sub\n      swap1\n      log1\n        /* \"contracts/loops.sol\":1230:1233  i++ */\n      dup1\n      dup1\n      tag_41\n      swap1\n      tag_26\n      jump\t// in\n    tag_41:\n      swap2\n      pop\n      pop\n        /* \"contracts/loops.sol\":1261:1262  0 */\n      0x00\n        /* \"contracts/loops.sol\":1251:1257  amount */\n      dup4\n        /* \"contracts/loops.sol\":1251:1262  amount == 0 */\n      eq\n        /* \"contracts/loops.sol\":1251:1277  amount == 0 || i == amount */\n      dup1\n      tag_42\n      jumpi\n      pop\n        /* \"contracts/loops.sol\":1271:1277  amount */\n      dup3\n        /* \"contracts/loops.sol\":1266:1267  i */\n      dup2\n        /* \"contracts/loops.sol\":1266:1277  i == amount */\n      eq\n        /* \"contracts/loops.sol\":1251:1277  amount == 0 || i == amount */\n    tag_42:\n        /* \"contracts/loops.sol\":1248:1325  if(amount == 0 || i == amount){\r... */\n      iszero\n      tag_43\n      jumpi\n        /* \"contracts/loops.sol\":1305:1309  true */\n      0x01\n        /* \"contracts/loops.sol\":1297:1309  check = true */\n      swap2\n      pop\n        /* \"contracts/loops.sol\":1248:1325  if(amount == 0 || i == amount){\r... */\n    tag_43:\n        /* \"contracts/loops.sol\":1344:1349  check */\n      dup2\n        /* \"contracts/loops.sol\":1343:1349  !check */\n      iszero\n        /* \"contracts/loops.sol\":1147:1351  do{\r... */\n      tag_37\n      jumpi\n        /* \"contracts/loops.sol\":1052:1358  {\r... */\n      pop\n      pop\n        /* \"contracts/loops.sol\":991:1358  function doWhileLoopNumbers(uint number, uint amount) public {\r... */\n      pop\n      pop\n      jump\t// out\n        /* \"contracts/loops.sol\":207:388  function showNumbers(uint number, uint amount) public {\r... */\n    tag_19:\n        /* \"contracts/loops.sol\":276:282  uint i */\n      0x00\n        /* \"contracts/loops.sol\":272:381  for(uint i = 0; i< amount; i++){\r... */\n    tag_45:\n        /* \"contracts/loops.sol\":291:297  amount */\n      dup2\n        /* \"contracts/loops.sol\":288:289  i */\n      dup2\n        /* \"contracts/loops.sol\":288:297  i< amount */\n      lt\n        /* \"contracts/loops.sol\":272:381  for(uint i = 0; i< amount; i++){\r... */\n      iszero\n      tag_46\n      jumpi\n        /* \"contracts/loops.sol\":323:369  Number(block.timestamp, msg.sender, number, i) */\n      0x7f01e027002983a61fc732573dbcd5ca1d39361dc45033701f7ed61cee22e61e\n        /* \"contracts/loops.sol\":330:345  block.timestamp */\n      timestamp\n        /* \"contracts/loops.sol\":347:357  msg.sender */\n      caller\n        /* \"contracts/loops.sol\":359:365  number */\n      dup6\n        /* \"contracts/loops.sol\":367:368  i */\n      dup5\n        /* \"contracts/loops.sol\":323:369  Number(block.timestamp, msg.sender, number, i) */\n      mload(0x40)\n      tag_48\n      swap5\n      swap4\n      swap3\n      swap2\n      swap1\n      tag_24\n      jump\t// in\n    tag_48:\n      mload(0x40)\n      dup1\n      swap2\n      sub\n      swap1\n      log1\n        /* \"contracts/loops.sol\":299:302  i++ */\n      dup1\n      dup1\n      tag_49\n      swap1\n      tag_26\n      jump\t// in\n    tag_49:\n      swap2\n      pop\n      pop\n        /* \"contracts/loops.sol\":272:381  for(uint i = 0; i< amount; i++){\r... */\n      jump(tag_45)\n    tag_46:\n      pop\n        /* \"contracts/loops.sol\":207:388  function showNumbers(uint number, uint amount) public {\r... */\n      pop\n      pop\n      jump\t// out\n        /* \"#utility.yul\":7:146   */\n    tag_51:\n        /* \"#utility.yul\":53:58   */\n      0x00\n        /* \"#utility.yul\":91:97   */\n      dup2\n        /* \"#utility.yul\":78:98   */\n      calldataload\n        /* \"#utility.yul\":69:98   */\n      swap1\n      pop\n        /* \"#utility.yul\":107:140   */\n      tag_53\n        /* \"#utility.yul\":134:139   */\n      dup2\n        /* \"#utility.yul\":107:140   */\n      tag_54\n      jump\t// in\n    tag_53:\n        /* \"#utility.yul\":7:146   */\n      swap3\n      swap2\n      pop\n      pop\n      jump\t// out\n        /* \"#utility.yul\":152:626   */\n    tag_9:\n        /* \"#utility.yul\":220:226   */\n      0x00\n        /* \"#utility.yul\":228:234   */\n      dup1\n        /* \"#utility.yul\":277:279   */\n      0x40\n        /* \"#utility.yul\":265:274   */\n      dup4\n        /* \"#utility.yul\":256:263   */\n      dup6\n        /* \"#utility.yul\":252:275   */\n      sub\n        /* \"#utility.yul\":248:280   */\n      slt\n        /* \"#utility.yul\":245:364   */\n      iszero\n      tag_56\n      jumpi\n        /* \"#utility.yul\":283:362   */\n      tag_57\n      tag_58\n      jump\t// in\n    tag_57:\n        /* \"#utility.yul\":245:364   */\n    tag_56:\n        /* \"#utility.yul\":403:404   */\n      0x00\n        /* \"#utility.yul\":428:481   */\n      tag_59\n        /* \"#utility.yul\":473:480   */\n      dup6\n        /* \"#utility.yul\":464:470   */\n      dup3\n        /* \"#utility.yul\":453:462   */\n      dup7\n        /* \"#utility.yul\":449:471   */\n      add\n        /* \"#utility.yul\":428:481   */\n      tag_51\n      jump\t// in\n    tag_59:\n        /* \"#utility.yul\":418:481   */\n      swap3\n      pop\n        /* \"#utility.yul\":374:491   */\n      pop\n        /* \"#utility.yul\":530:532   */\n      0x20\n        /* \"#utility.yul\":556:609   */\n      tag_60\n        /* \"#utility.yul\":601:608   */\n      dup6\n        /* \"#utility.yul\":592:598   */\n      dup3\n        /* \"#utility.yul\":581:590   */\n      dup7\n        /* \"#utility.yul\":577:599   */\n      add\n        /* \"#utility.yul\":556:609   */\n      tag_51\n      jump\t// in\n    tag_60:\n        /* \"#utility.yul\":546:609   */\n      swap2\n      pop\n        /* \"#utility.yul\":501:619   */\n      pop\n        /* \"#utility.yul\":152:626   */\n      swap3\n      pop\n      swap3\n      swap1\n      pop\n      jump\t// out\n        /* \"#utility.yul\":632:750   */\n    tag_61:\n        /* \"#utility.yul\":719:743   */\n      tag_63\n        /* \"#utility.yul\":737:742   */\n      dup2\n        /* \"#utility.yul\":719:743   */\n      tag_64\n      jump\t// in\n    tag_63:\n        /* \"#utility.yul\":714:717   */\n      dup3\n        /* \"#utility.yul\":707:744   */\n      mstore\n        /* \"#utility.yul\":632:750   */\n      pop\n      pop\n      jump\t// out\n        /* \"#utility.yul\":756:874   */\n    tag_65:\n        /* \"#utility.yul\":843:867   */\n      tag_67\n        /* \"#utility.yul\":861:866   */\n      dup2\n        /* \"#utility.yul\":843:867   */\n      tag_68\n      jump\t// in\n    tag_67:\n        /* \"#utility.yul\":838:841   */\n      dup3\n        /* \"#utility.yul\":831:868   */\n      mstore\n        /* \"#utility.yul\":756:874   */\n      pop\n      pop\n      jump\t// out\n        /* \"#utility.yul\":880:1433   */\n    tag_24:\n        /* \"#utility.yul\":1057:1061   */\n      0x00\n        /* \"#utility.yul\":1095:1098   */\n      0x80\n        /* \"#utility.yul\":1084:1093   */\n      dup3\n        /* \"#utility.yul\":1080:1099   */\n      add\n        /* \"#utility.yul\":1072:1099   */\n      swap1\n      pop\n        /* \"#utility.yul\":1109:1180   */\n      tag_70\n        /* \"#utility.yul\":1177:1178   */\n      0x00\n        /* \"#utility.yul\":1166:1175   */\n      dup4\n        /* \"#utility.yul\":1162:1179   */\n      add\n        /* \"#utility.yul\":1153:1159   */\n      dup8\n        /* \"#utility.yul\":1109:1180   */\n      tag_65\n      jump\t// in\n    tag_70:\n        /* \"#utility.yul\":1190:1262   */\n      tag_71\n        /* \"#utility.yul\":1258:1260   */\n      0x20\n        /* \"#utility.yul\":1247:1256   */\n      dup4\n        /* \"#utility.yul\":1243:1261   */\n      add\n        /* \"#utility.yul\":1234:1240   */\n      dup7\n        /* \"#utility.yul\":1190:1262   */\n      tag_61\n      jump\t// in\n    tag_71:\n        /* \"#utility.yul\":1272:1344   */\n      tag_72\n        /* \"#utility.yul\":1340:1342   */\n      0x40\n        /* \"#utility.yul\":1329:1338   */\n      dup4\n        /* \"#utility.yul\":1325:1343   */\n      add\n        /* \"#utility.yul\":1316:1322   */\n      dup6\n        /* \"#utility.yul\":1272:1344   */\n      tag_65\n      jump\t// in\n    tag_72:\n        /* \"#utility.yul\":1354:1426   */\n      tag_73\n        /* \"#utility.yul\":1422:1424   */\n      0x60\n        /* \"#utility.yul\":1411:1420   */\n      dup4\n        /* \"#utility.yul\":1407:1425   */\n      add\n        /* \"#utility.yul\":1398:1404   */\n      dup5\n        /* \"#utility.yul\":1354:1426   */\n      tag_65\n      jump\t// in\n    tag_73:\n        /* \"#utility.yul\":880:1433   */\n      swap6\n      swap5\n      pop\n      pop\n      pop\n      pop\n      pop\n      jump\t// out\n        /* \"#utility.yul\":1520:1616   */\n    tag_64:\n        /* \"#utility.yul\":1557:1564   */\n      0x00\n        /* \"#utility.yul\":1586:1610   */\n      tag_77\n        /* \"#utility.yul\":1604:1609   */\n      dup3\n        /* \"#utility.yul\":1586:1610   */\n      tag_78\n      jump\t// in\n    tag_77:\n        /* \"#utility.yul\":1575:1610   */\n      swap1\n      pop\n        /* \"#utility.yul\":1520:1616   */\n      swap2\n      swap1\n      pop\n      jump\t// out\n        /* \"#utility.yul\":1622:1748   */\n    tag_78:\n        /* \"#utility.yul\":1659:1666   */\n      0x00\n        /* \"#utility.yul\":1699:1741   */\n      0xffffffffffffffffffffffffffffffffffffffff\n        /* \"#utility.yul\":1692:1697   */\n      dup3\n        /* \"#utility.yul\":1688:1742   */\n      and\n        /* \"#utility.yul\":1677:1742   */\n      swap1\n      pop\n        /* \"#utility.yul\":1622:1748   */\n      swap2\n      swap1\n      pop\n      jump\t// out\n        /* \"#utility.yul\":1754:1831   */\n    tag_68:\n        /* \"#utility.yul\":1791:1798   */\n      0x00\n        /* \"#utility.yul\":1820:1825   */\n      dup2\n        /* \"#utility.yul\":1809:1825   */\n      swap1\n      pop\n        /* \"#utility.yul\":1754:1831   */\n      swap2\n      swap1\n      pop\n      jump\t// out\n        /* \"#utility.yul\":1837:2070   */\n    tag_26:\n        /* \"#utility.yul\":1876:1879   */\n      0x00\n        /* \"#utility.yul\":1899:1923   */\n      tag_82\n        /* \"#utility.yul\":1917:1922   */\n      dup3\n        /* \"#utility.yul\":1899:1923   */\n      tag_68\n      jump\t// in\n    tag_82:\n        /* \"#utility.yul\":1890:1923   */\n      swap2\n      pop\n        /* \"#utility.yul\":1945:2011   */\n      0xffffffffffffffffffffffffffffffffffffffffffffffffffffffffffffffff\n        /* \"#utility.yul\":1938:1943   */\n      dup3\n        /* \"#utility.yul\":1935:2012   */\n      eq\n        /* \"#utility.yul\":1932:2035   */\n      iszero\n      tag_83\n      jumpi\n        /* \"#utility.yul\":2015:2033   */\n      tag_84\n      tag_85\n      jump\t// in\n    tag_84:\n        /* \"#utility.yul\":1932:2035   */\n    tag_83:\n        /* \"#utility.yul\":2062:2063   */\n      0x01\n        /* \"#utility.yul\":2055:2060   */\n      dup3\n        /* \"#utility.yul\":2051:2064   */\n      add\n        /* \"#utility.yul\":2044:2064   */\n      swap1\n      pop\n        /* \"#utility.yul\":1837:2070   */\n      swap2\n      swap1\n      pop\n      jump\t// out\n        /* \"#utility.yul\":2076:2256   */\n    tag_85:\n        /* \"#utility.yul\":2124:2201   */\n      0x4e487b7100000000000000000000000000000000000000000000000000000000\n        /* \"#utility.yul\":2121:2122   */\n      0x00\n        /* \"#utility.yul\":2114:2202   */\n      mstore\n        /* \"#utility.yul\":2221:2225   */\n      0x11\n        /* \"#utility.yul\":2218:2219   */\n      0x04\n        /* \"#utility.yul\":2211:2226   */\n      mstore\n        /* \"#utility.yul\":2245:2249   */\n      0x24\n        /* \"#utility.yul\":2242:2243   */\n      0x00\n        /* \"#utility.yul\":2235:2250   */\n      revert\n        /* \"#utility.yul\":2385:2502   */\n    tag_58:\n        /* \"#utility.yul\":2494:2495   */\n      0x00\n        /* \"#utility.yul\":2491:2492   */\n      dup1\n        /* \"#utility.yul\":2484:2496   */\n      revert\n        /* \"#utility.yul\":2508:2630   */\n    tag_54:\n        /* \"#utility.yul\":2581:2605   */\n      tag_91\n        /* \"#utility.yul\":2599:2604   */\n      dup2\n        /* \"#utility.yul\":2581:2605   */\n      tag_68\n      jump\t// in\n    tag_91:\n        /* \"#utility.yul\":2574:2579   */\n      dup2\n        /* \"#utility.yul\":2571:2606   */\n      eq\n        /* \"#utility.yul\":2561:2624   */\n      tag_92\n      jumpi\n        /* \"#utility.yul\":2620:2621   */\n      0x00\n        /* \"#utility.yul\":2617:2618   */\n      dup1\n        /* \"#utility.yul\":2610:2622   */\n      revert\n        /* \"#utility.yul\":2561:2624   */\n    tag_92:\n        /* \"#utility.yul\":2508:2630   */\n      pop\n      jump\t// out\n\n    auxdata: 0xa2646970667358221220fdd1f7b4b25ca0e9e676c8ae948f7ed981ab7e46ad07e3aba793cbe21e3679d364736f6c63430008070033\n}\n",
				"bytecode": {
					"linkReferences": {},
					"object": "608060405234801561001057600080fd5b50610439806100206000396000f3fe608060405234801561001057600080fd5b506004361061004c5760003560e01c8063022d18c4146100515780630fc34d5d1461006d578063c50be46914610089578063c8846751146100a5575b600080fd5b61006b60048036038101906100669190610290565b6100c1565b005b61008760048036038101906100829190610290565b61012d565b005b6100a3600480360381019061009e9190610290565b61019b565b005b6100bf60048036038101906100ba9190610290565b61021b565b005b6000805b81610127577f7f01e027002983a61fc732573dbcd5ca1d39361dc45033701f7ed61cee22e61e423386846040516100ff94939291906102ee565b60405180910390a180806101129061036f565b9150508281141561012257600191505b6100c5565b50505050565b60005b8181101561019657600581111561014657610196565b7f7f01e027002983a61fc732573dbcd5ca1d39361dc45033701f7ed61cee22e61e4233858460405161017b94939291906102ee565b60405180910390a1808061018e9061036f565b915050610130565b505050565b600081116101a857600080fd5b6000805b7f7f01e027002983a61fc732573dbcd5ca1d39361dc45033701f7ed61cee22e61e423386846040516101e194939291906102ee565b60405180910390a180806101f49061036f565b915050600083148061020557508281145b1561020f57600191505b81156101ac5750505050565b60005b81811015610276577f7f01e027002983a61fc732573dbcd5ca1d39361dc45033701f7ed61cee22e61e4233858460405161025b94939291906102ee565b60405180910390a1808061026e9061036f565b91505061021e565b505050565b60008135905061028a816103ec565b92915050565b600080604083850312156102a7576102a66103e7565b5b60006102b58582860161027b565b92505060206102c68582860161027b565b9150509250929050565b6102d981610333565b82525050565b6102e881610365565b82525050565b600060808201905061030360008301876102df565b61031060208301866102d0565b61031d60408301856102df565b61032a60608301846102df565b95945050505050565b600061033e82610345565b9050919050565b600073ffffffffffffffffffffffffffffffffffffffff82169050919050565b6000819050919050565b600061037a82610365565b91507fffffffffffffffffffffffffffffffffffffffffffffffffffffffffffffffff8214156103ad576103ac6103b8565b5b600182019050919050565b7f4e487b7100000000000000000000000000000000000000000000000000000000600052601160045260246000fd5b600080fd5b6103f581610365565b811461040057600080fd5b5056fea2646970667358221220fdd1f7b4b25ca0e9e676c8ae948f7ed981ab7e46ad07e3aba793cbe21e3679d364736f6c63430008070033",
					"opcodes": "PUSH1 0x80 PUSH1 0x40 MSTORE CALLVALUE DUP1 ISZERO PUSH2 0x10 JUMPI PUSH1 0x0 DUP1 REVERT JUMPDEST POP PUSH2 0x439 DUP1 PUSH2 0x20 PUSH1 0x0 CODECOPY PUSH1 0x0 RETURN INVALID PUSH1 0x80 PUSH1 0x40 MSTORE CALLVALUE DUP1 ISZERO PUSH2 0x10 JUMPI PUSH1 0x0 DUP1 REVERT JUMPDEST POP PUSH1 0x4 CALLDATASIZE LT PUSH2 0x4C JUMPI PUSH1 0x0 CALLDATALOAD PUSH1 0xE0 SHR DUP1 PUSH4 0x22D18C4 EQ PUSH2 0x51 JUMPI DUP1 PUSH4 0xFC34D5D EQ PUSH2 0x6D JUMPI DUP1 PUSH4 0xC50BE469 EQ PUSH2 0x89 JUMPI DUP1 PUSH4 0xC8846751 EQ PUSH2 0xA5 JUMPI JUMPDEST PUSH1 0x0 DUP1 REVERT JUMPDEST PUSH2 0x6B PUSH1 0x4 DUP1 CALLDATASIZE SUB DUP2 ADD SWAP1 PUSH2 0x66 SWAP2 SWAP1 PUSH2 0x290 JUMP JUMPDEST PUSH2 0xC1 JUMP JUMPDEST STOP JUMPDEST PUSH2 0x87 PUSH1 0x4 DUP1 CALLDATASIZE SUB DUP2 ADD SWAP1 PUSH2 0x82 SWAP2 SWAP1 PUSH2 0x290 JUMP JUMPDEST PUSH2 0x12D JUMP JUMPDEST STOP JUMPDEST PUSH2 0xA3 PUSH1 0x4 DUP1 CALLDATASIZE SUB DUP2 ADD SWAP1 PUSH2 0x9E SWAP2 SWAP1 PUSH2 0x290 JUMP JUMPDEST PUSH2 0x19B JUMP JUMPDEST STOP JUMPDEST PUSH2 0xBF PUSH1 0x4 DUP1 CALLDATASIZE SUB DUP2 ADD SWAP1 PUSH2 0xBA SWAP2 SWAP1 PUSH2 0x290 JUMP JUMPDEST PUSH2 0x21B JUMP JUMPDEST STOP JUMPDEST PUSH1 0x0 DUP1 JUMPDEST DUP2 PUSH2 0x127 JUMPI PUSH32 0x7F01E027002983A61FC732573DBCD5CA1D39361DC45033701F7ED61CEE22E61E TIMESTAMP CALLER DUP7 DUP5 PUSH1 0x40 MLOAD PUSH2 0xFF SWAP5 SWAP4 SWAP3 SWAP2 SWAP1 PUSH2 0x2EE JUMP JUMPDEST PUSH1 0x40 MLOAD DUP1 SWAP2 SUB SWAP1 LOG1 DUP1 DUP1 PUSH2 0x112 SWAP1 PUSH2 0x36F JUMP JUMPDEST SWAP2 POP POP DUP3 DUP2 EQ ISZERO PUSH2 0x122 JUMPI PUSH1 0x1 SWAP2 POP JUMPDEST PUSH2 0xC5 JUMP JUMPDEST POP POP POP POP JUMP JUMPDEST PUSH1 0x0 JUMPDEST DUP2 DUP2 LT ISZERO PUSH2 0x196 JUMPI PUSH1 0x5 DUP2 GT ISZERO PUSH2 0x146 JUMPI PUSH2 0x196 JUMP JUMPDEST PUSH32 0x7F01E027002983A61FC732573DBCD5CA1D39361DC45033701F7ED61CEE22E61E TIMESTAMP CALLER DUP6 DUP5 PUSH1 0x40 MLOAD PUSH2 0x17B SWAP5 SWAP4 SWAP3 SWAP2 SWAP1 PUSH2 0x2EE JUMP JUMPDEST PUSH1 0x40 MLOAD DUP1 SWAP2 SUB SWAP1 LOG1 DUP1 DUP1 PUSH2 0x18E SWAP1 PUSH2 0x36F JUMP JUMPDEST SWAP2 POP POP PUSH2 0x130 JUMP JUMPDEST POP POP POP JUMP JUMPDEST PUSH1 0x0 DUP2 GT PUSH2 0x1A8 JUMPI PUSH1 0x0 DUP1 REVERT JUMPDEST PUSH1 0x0 DUP1 JUMPDEST PUSH32 0x7F01E027002983A61FC732573DBCD5CA1D39361DC45033701F7ED61CEE22E61E TIMESTAMP CALLER DUP7 DUP5 PUSH1 0x40 MLOAD PUSH2 0x1E1 SWAP5 SWAP4 SWAP3 SWAP2 SWAP1 PUSH2 0x2EE JUMP JUMPDEST PUSH1 0x40 MLOAD DUP1 SWAP2 SUB SWAP1 LOG1 DUP1 DUP1 PUSH2 0x1F4 SWAP1 PUSH2 0x36F JUMP JUMPDEST SWAP2 POP POP PUSH1 0x0 DUP4 EQ DUP1 PUSH2 0x205 JUMPI POP DUP3 DUP2 EQ JUMPDEST ISZERO PUSH2 0x20F JUMPI PUSH1 0x1 SWAP2 POP JUMPDEST DUP2 ISZERO PUSH2 0x1AC JUMPI POP POP POP POP JUMP JUMPDEST PUSH1 0x0 JUMPDEST DUP2 DUP2 LT ISZERO PUSH2 0x276 JUMPI PUSH32 0x7F01E027002983A61FC732573DBCD5CA1D39361DC45033701F7ED61CEE22E61E TIMESTAMP CALLER DUP6 DUP5 PUSH1 0x40 MLOAD PUSH2 0x25B SWAP5 SWAP4 SWAP3 SWAP2 SWAP1 PUSH2 0x2EE JUMP JUMPDEST PUSH1 0x40 MLOAD DUP1 SWAP2 SUB SWAP1 LOG1 DUP1 DUP1 PUSH2 0x26E SWAP1 PUSH2 0x36F JUMP JUMPDEST SWAP2 POP POP PUSH2 0x21E JUMP JUMPDEST POP POP POP JUMP JUMPDEST PUSH1 0x0 DUP2 CALLDATALOAD SWAP1 POP PUSH2 0x28A DUP2 PUSH2 0x3EC JUMP JUMPDEST SWAP3 SWAP2 POP POP JUMP JUMPDEST PUSH1 0x0 DUP1 PUSH1 0x40 DUP4 DUP6 SUB SLT ISZERO PUSH2 0x2A7 JUMPI PUSH2 0x2A6 PUSH2 0x3E7 JUMP JUMPDEST JUMPDEST PUSH1 0x0 PUSH2 0x2B5 DUP6 DUP3 DUP7 ADD PUSH2 0x27B JUMP JUMPDEST SWAP3 POP POP PUSH1 0x20 PUSH2 0x2C6 DUP6 DUP3 DUP7 ADD PUSH2 0x27B JUMP JUMPDEST SWAP2 POP POP SWAP3 POP SWAP3 SWAP1 POP JUMP JUMPDEST PUSH2 0x2D9 DUP2 PUSH2 0x333 JUMP JUMPDEST DUP3 MSTORE POP POP JUMP JUMPDEST PUSH2 0x2E8 DUP2 PUSH2 0x365 JUMP JUMPDEST DUP3 MSTORE POP POP JUMP JUMPDEST PUSH1 0x0 PUSH1 0x80 DUP3 ADD SWAP1 POP PUSH2 0x303 PUSH1 0x0 DUP4 ADD DUP8 PUSH2 0x2DF JUMP JUMPDEST PUSH2 0x310 PUSH1 0x20 DUP4 ADD DUP7 PUSH2 0x2D0 JUMP JUMPDEST PUSH2 0x31D PUSH1 0x40 DUP4 ADD DUP6 PUSH2 0x2DF JUMP JUMPDEST PUSH2 0x32A PUSH1 0x60 DUP4 ADD DUP5 PUSH2 0x2DF JUMP JUMPDEST SWAP6 SWAP5 POP POP POP POP POP JUMP JUMPDEST PUSH1 0x0 PUSH2 0x33E DUP3 PUSH2 0x345 JUMP JUMPDEST SWAP1 POP SWAP2 SWAP1 POP JUMP JUMPDEST PUSH1 0x0 PUSH20 0xFFFFFFFFFFFFFFFFFFFFFFFFFFFFFFFFFFFFFFFF DUP3 AND SWAP1 POP SWAP2 SWAP1 POP JUMP JUMPDEST PUSH1 0x0 DUP2 SWAP1 POP SWAP2 SWAP1 POP JUMP JUMPDEST PUSH1 0x0 PUSH2 0x37A DUP3 PUSH2 0x365 JUMP JUMPDEST SWAP2 POP PUSH32 0xFFFFFFFFFFFFFFFFFFFFFFFFFFFFFFFFFFFFFFFFFFFFFFFFFFFFFFFFFFFFFFFF DUP3 EQ ISZERO PUSH2 0x3AD JUMPI PUSH2 0x3AC PUSH2 0x3B8 JUMP JUMPDEST JUMPDEST PUSH1 0x1 DUP3 ADD SWAP1 POP SWAP2 SWAP1 POP JUMP JUMPDEST PUSH32 0x4E487B7100000000000000000000000000000000000000000000000000000000 PUSH1 0x0 MSTORE PUSH1 0x11 PUSH1 0x4 MSTORE PUSH1 0x24 PUSH1 0x0 REVERT JUMPDEST PUSH1 0x0 DUP1 REVERT JUMPDEST PUSH2 0x3F5 DUP2 PUSH2 0x365 JUMP JUMPDEST DUP2 EQ PUSH2 0x400 JUMPI PUSH1 0x0 DUP1 REVERT JUMPDEST POP JUMP INVALID LOG2 PUSH5 0x6970667358 0x22 SLT KECCAK256 REVERT 0xD1 0xF7 0xB4 0xB2 0x5C LOG0 0xE9 0xE6 PUSH23 0xC8AE948F7ED981AB7E46AD07E3ABA793CBE21E3679D364 PUSH20 0x6F6C634300080700330000000000000000000000 "
				},
				"gasEstimates": {
					"creation": {
						"codeDepositCost": "216200",
						"executionCost": "257",
						"totalCost": "216457"
					},
					"external": {
						"doWhileLoopNumbers(uint256,uint256)": "infinite",
						"showNumbers(uint256,uint256)": "infinite",
						"showNumbersWithBreak(uint256,uint256)": "infinite",
						"whileLoopNumbers(uint256,uint256)": "infinite"
					}
				},
				"methodIdentifiers": {
					"doWhileLoopNumbers(uint256,uint256)": "c50be469",
					"showNumbers(uint256,uint256)": "c8846751",
					"showNumbersWithBreak(uint256,uint256)": "0fc34d5d",
					"whileLoopNumbers(uint256,uint256)": "022d18c4"
				}
			},
			"storageLayout": {
				"storage": [],
				"types": null
			},
			"userdoc": {
				"kind": "user",
				"methods": {},
				"version": 1
			}
		}
	}
}