{
	"contracts/loops.sol": {
		"Loops": {
			"abi": [
				{
					"anonymous": false,
					"inputs": [
						{
							"indexed": false,
							"internalType": "uint256",
							"name": "date",
							"type": "uint256"
						},
						{
							"indexed": false,
							"internalType": "address",
							"name": "add",
							"type": "address"
						},
						{
							"indexed": false,
							"internalType": "uint256",
							"name": "number",
							"type": "uint256"
						}
					],
					"name": "Number",
					"type": "event"
				},
				{
					"inputs": [
						{
							"internalType": "uint256",
							"name": "number",
							"type": "uint256"
						},
						{
							"internalType": "uint256",
							"name": "amount",
							"type": "uint256"
						}
					],
					"name": "showNumbers",
					"outputs": [],
					"stateMutability": "nonpayable",
					"type": "function"
				},
				{
					"inputs": [
						{
							"internalType": "uint256",
							"name": "number",
							"type": "uint256"
						},
						{
							"internalType": "uint256",
							"name": "amount",
							"type": "uint256"
						}
					],
					"name": "showNumbersWithBreak",
					"outputs": [],
					"stateMutability": "nonpayable",
					"type": "function"
				}
			],
			"devdoc": {
				"kind": "dev",
				"methods": {},
				"version": 1
			},
			"evm": {
				"assembly": "    /* \"contracts/loops.sol\":74:631  contract Loops {\r... */\n  mstore(0x40, 0x80)\n  callvalue\n  dup1\n  iszero\n  tag_1\n  jumpi\n  0x00\n  dup1\n  revert\ntag_1:\n  pop\n  dataSize(sub_0)\n  dup1\n  dataOffset(sub_0)\n  0x00\n  codecopy\n  0x00\n  return\nstop\n\nsub_0: assembly {\n        /* \"contracts/loops.sol\":74:631  contract Loops {\r... */\n      mstore(0x40, 0x80)\n      callvalue\n      dup1\n      iszero\n      tag_1\n      jumpi\n      0x00\n      dup1\n      revert\n    tag_1:\n      pop\n      jumpi(tag_2, lt(calldatasize, 0x04))\n      shr(0xe0, calldataload(0x00))\n      dup1\n      0x0fc34d5d\n      eq\n      tag_3\n      jumpi\n      dup1\n      0xc8846751\n      eq\n      tag_4\n      jumpi\n    tag_2:\n      0x00\n      dup1\n      revert\n        /* \"contracts/loops.sol\":376:628  function showNumbersWithBreak(uint number, uint amount) public {\r... */\n    tag_3:\n      tag_5\n      0x04\n      dup1\n      calldatasize\n      sub\n      dup2\n      add\n      swap1\n      tag_6\n      swap2\n      swap1\n      tag_7\n      jump\t// in\n    tag_6:\n      tag_8\n      jump\t// in\n    tag_5:\n      stop\n        /* \"contracts/loops.sol\":190:368  function showNumbers(uint number, uint amount) public {\r... */\n    tag_4:\n      tag_9\n      0x04\n      dup1\n      calldatasize\n      sub\n      dup2\n      add\n      swap1\n      tag_10\n      swap2\n      swap1\n      tag_7\n      jump\t// in\n    tag_10:\n      tag_11\n      jump\t// in\n    tag_9:\n      stop\n        /* \"contracts/loops.sol\":376:628  function showNumbersWithBreak(uint number, uint amount) public {\r... */\n    tag_8:\n        /* \"contracts/loops.sol\":454:460  uint i */\n      0x00\n        /* \"contracts/loops.sol\":450:621  for(uint i = 0; i< amount; i++){\r... */\n    tag_13:\n        /* \"contracts/loops.sol\":469:475  amount */\n      dup2\n        /* \"contracts/loops.sol\":466:467  i */\n      dup2\n        /* \"contracts/loops.sol\":466:475  i< amount */\n      lt\n        /* \"contracts/loops.sol\":450:621  for(uint i = 0; i< amount; i++){\r... */\n      iszero\n      tag_14\n      jumpi\n        /* \"contracts/loops.sol\":505:506  5 */\n      0x05\n        /* \"contracts/loops.sol\":501:502  i */\n      dup2\n        /* \"contracts/loops.sol\":501:506  i > 5 */\n      gt\n        /* \"contracts/loops.sol\":498:547  if(i > 5){\r... */\n      iszero\n      tag_16\n      jumpi\n        /* \"contracts/loops.sol\":526:531  break */\n      jump(tag_14)\n        /* \"contracts/loops.sol\":498:547  if(i > 5){\r... */\n    tag_16:\n        /* \"contracts/loops.sol\":566:609  Number(block.timestamp, msg.sender, number) */\n      0x5a49942a999b4b357c8c4593cf2d42eea475e2c09962c77439de55757370a02b\n        /* \"contracts/loops.sol\":573:588  block.timestamp */\n      timestamp\n        /* \"contracts/loops.sol\":590:600  msg.sender */\n      caller\n        /* \"contracts/loops.sol\":602:608  number */\n      dup6\n        /* \"contracts/loops.sol\":566:609  Number(block.timestamp, msg.sender, number) */\n      mload(0x40)\n      tag_17\n      swap4\n      swap3\n      swap2\n      swap1\n      tag_18\n      jump\t// in\n    tag_17:\n      mload(0x40)\n      dup1\n      swap2\n      sub\n      swap1\n      log1\n        /* \"contracts/loops.sol\":477:480  i++ */\n      dup1\n      dup1\n      tag_19\n      swap1\n      tag_20\n      jump\t// in\n    tag_19:\n      swap2\n      pop\n      pop\n        /* \"contracts/loops.sol\":450:621  for(uint i = 0; i< amount; i++){\r... */\n      jump(tag_13)\n    tag_14:\n      pop\n        /* \"contracts/loops.sol\":376:628  function showNumbersWithBreak(uint number, uint amount) public {\r... */\n      pop\n      pop\n      jump\t// out\n        /* \"contracts/loops.sol\":190:368  function showNumbers(uint number, uint amount) public {\r... */\n    tag_11:\n        /* \"contracts/loops.sol\":259:265  uint i */\n      0x00\n        /* \"contracts/loops.sol\":255:361  for(uint i = 0; i< amount; i++){\r... */\n    tag_22:\n        /* \"contracts/loops.sol\":274:280  amount */\n      dup2\n        /* \"contracts/loops.sol\":271:272  i */\n      dup2\n        /* \"contracts/loops.sol\":271:280  i< amount */\n      lt\n        /* \"contracts/loops.sol\":255:361  for(uint i = 0; i< amount; i++){\r... */\n      iszero\n      tag_23\n      jumpi\n        /* \"contracts/loops.sol\":306:349  Number(block.timestamp, msg.sender, number) */\n      0x5a49942a999b4b357c8c4593cf2d42eea475e2c09962c77439de55757370a02b\n        /* \"contracts/loops.sol\":313:328  block.timestamp */\n      timestamp\n        /* \"contracts/loops.sol\":330:340  msg.sender */\n      caller\n        /* \"contracts/loops.sol\":342:348  number */\n      dup6\n        /* \"contracts/loops.sol\":306:349  Number(block.timestamp, msg.sender, number) */\n      mload(0x40)\n      tag_25\n      swap4\n      swap3\n      swap2\n      swap1\n      tag_18\n      jump\t// in\n    tag_25:\n      mload(0x40)\n      dup1\n      swap2\n      sub\n      swap1\n      log1\n        /* \"contracts/loops.sol\":282:285  i++ */\n      dup1\n      dup1\n      tag_26\n      swap1\n      tag_20\n      jump\t// in\n    tag_26:\n      swap2\n      pop\n      pop\n        /* \"contracts/loops.sol\":255:361  for(uint i = 0; i< amount; i++){\r... */\n      jump(tag_22)\n    tag_23:\n      pop\n        /* \"contracts/loops.sol\":190:368  function showNumbers(uint number, uint amount) public {\r... */\n      pop\n      pop\n      jump\t// out\n        /* \"#utility.yul\":7:146   */\n    tag_28:\n        /* \"#utility.yul\":53:58   */\n      0x00\n        /* \"#utility.yul\":91:97   */\n      dup2\n        /* \"#utility.yul\":78:98   */\n      calldataload\n        /* \"#utility.yul\":69:98   */\n      swap1\n      pop\n        /* \"#utility.yul\":107:140   */\n      tag_30\n        /* \"#utility.yul\":134:139   */\n      dup2\n        /* \"#utility.yul\":107:140   */\n      tag_31\n      jump\t// in\n    tag_30:\n        /* \"#utility.yul\":7:146   */\n      swap3\n      swap2\n      pop\n      pop\n      jump\t// out\n        /* \"#utility.yul\":152:626   */\n    tag_7:\n        /* \"#utility.yul\":220:226   */\n      0x00\n        /* \"#utility.yul\":228:234   */\n      dup1\n        /* \"#utility.yul\":277:279   */\n      0x40\n        /* \"#utility.yul\":265:274   */\n      dup4\n        /* \"#utility.yul\":256:263   */\n      dup6\n        /* \"#utility.yul\":252:275   */\n      sub\n        /* \"#utility.yul\":248:280   */\n      slt\n        /* \"#utility.yul\":245:364   */\n      iszero\n      tag_33\n      jumpi\n        /* \"#utility.yul\":283:362   */\n      tag_34\n      tag_35\n      jump\t// in\n    tag_34:\n        /* \"#utility.yul\":245:364   */\n    tag_33:\n        /* \"#utility.yul\":403:404   */\n      0x00\n        /* \"#utility.yul\":428:481   */\n      tag_36\n        /* \"#utility.yul\":473:480   */\n      dup6\n        /* \"#utility.yul\":464:470   */\n      dup3\n        /* \"#utility.yul\":453:462   */\n      dup7\n        /* \"#utility.yul\":449:471   */\n      add\n        /* \"#utility.yul\":428:481   */\n      tag_28\n      jump\t// in\n    tag_36:\n        /* \"#utility.yul\":418:481   */\n      swap3\n      pop\n        /* \"#utility.yul\":374:491   */\n      pop\n        /* \"#utility.yul\":530:532   */\n      0x20\n        /* \"#utility.yul\":556:609   */\n      tag_37\n        /* \"#utility.yul\":601:608   */\n      dup6\n        /* \"#utility.yul\":592:598   */\n      dup3\n        /* \"#utility.yul\":581:590   */\n      dup7\n        /* \"#utility.yul\":577:599   */\n      add\n        /* \"#utility.yul\":556:609   */\n      tag_28\n      jump\t// in\n    tag_37:\n        /* \"#utility.yul\":546:609   */\n      swap2\n      pop\n        /* \"#utility.yul\":501:619   */\n      pop\n        /* \"#utility.yul\":152:626   */\n      swap3\n      pop\n      swap3\n      swap1\n      pop\n      jump\t// out\n        /* \"#utility.yul\":632:750   */\n    tag_38:\n        /* \"#utility.yul\":719:743   */\n      tag_40\n        /* \"#utility.yul\":737:742   */\n      dup2\n        /* \"#utility.yul\":719:743   */\n      tag_41\n      jump\t// in\n    tag_40:\n        /* \"#utility.yul\":714:717   */\n      dup3\n        /* \"#utility.yul\":707:744   */\n      mstore\n        /* \"#utility.yul\":632:750   */\n      pop\n      pop\n      jump\t// out\n        /* \"#utility.yul\":756:874   */\n    tag_42:\n        /* \"#utility.yul\":843:867   */\n      tag_44\n        /* \"#utility.yul\":861:866   */\n      dup2\n        /* \"#utility.yul\":843:867   */\n      tag_45\n      jump\t// in\n    tag_44:\n        /* \"#utility.yul\":838:841   */\n      dup3\n        /* \"#utility.yul\":831:868   */\n      mstore\n        /* \"#utility.yul\":756:874   */\n      pop\n      pop\n      jump\t// out\n        /* \"#utility.yul\":880:1322   */\n    tag_18:\n        /* \"#utility.yul\":1029:1033   */\n      0x00\n        /* \"#utility.yul\":1067:1069   */\n      0x60\n        /* \"#utility.yul\":1056:1065   */\n      dup3\n        /* \"#utility.yul\":1052:1070   */\n      add\n        /* \"#utility.yul\":1044:1070   */\n      swap1\n      pop\n        /* \"#utility.yul\":1080:1151   */\n      tag_47\n        /* \"#utility.yul\":1148:1149   */\n      0x00\n        /* \"#utility.yul\":1137:1146   */\n      dup4\n        /* \"#utility.yul\":1133:1150   */\n      add\n        /* \"#utility.yul\":1124:1130   */\n      dup7\n        /* \"#utility.yul\":1080:1151   */\n      tag_42\n      jump\t// in\n    tag_47:\n        /* \"#utility.yul\":1161:1233   */\n      tag_48\n        /* \"#utility.yul\":1229:1231   */\n      0x20\n        /* \"#utility.yul\":1218:1227   */\n      dup4\n        /* \"#utility.yul\":1214:1232   */\n      add\n        /* \"#utility.yul\":1205:1211   */\n      dup6\n        /* \"#utility.yul\":1161:1233   */\n      tag_38\n      jump\t// in\n    tag_48:\n        /* \"#utility.yul\":1243:1315   */\n      tag_49\n        /* \"#utility.yul\":1311:1313   */\n      0x40\n        /* \"#utility.yul\":1300:1309   */\n      dup4\n        /* \"#utility.yul\":1296:1314   */\n      add\n        /* \"#utility.yul\":1287:1293   */\n      dup5\n        /* \"#utility.yul\":1243:1315   */\n      tag_42\n      jump\t// in\n    tag_49:\n        /* \"#utility.yul\":880:1322   */\n      swap5\n      swap4\n      pop\n      pop\n      pop\n      pop\n      jump\t// out\n        /* \"#utility.yul\":1409:1505   */\n    tag_41:\n        /* \"#utility.yul\":1446:1453   */\n      0x00\n        /* \"#utility.yul\":1475:1499   */\n      tag_53\n        /* \"#utility.yul\":1493:1498   */\n      dup3\n        /* \"#utility.yul\":1475:1499   */\n      tag_54\n      jump\t// in\n    tag_53:\n        /* \"#utility.yul\":1464:1499   */\n      swap1\n      pop\n        /* \"#utility.yul\":1409:1505   */\n      swap2\n      swap1\n      pop\n      jump\t// out\n        /* \"#utility.yul\":1511:1637   */\n    tag_54:\n        /* \"#utility.yul\":1548:1555   */\n      0x00\n        /* \"#utility.yul\":1588:1630   */\n      0xffffffffffffffffffffffffffffffffffffffff\n        /* \"#utility.yul\":1581:1586   */\n      dup3\n        /* \"#utility.yul\":1577:1631   */\n      and\n        /* \"#utility.yul\":1566:1631   */\n      swap1\n      pop\n        /* \"#utility.yul\":1511:1637   */\n      swap2\n      swap1\n      pop\n      jump\t// out\n        /* \"#utility.yul\":1643:1720   */\n    tag_45:\n        /* \"#utility.yul\":1680:1687   */\n      0x00\n        /* \"#utility.yul\":1709:1714   */\n      dup2\n        /* \"#utility.yul\":1698:1714   */\n      swap1\n      pop\n        /* \"#utility.yul\":1643:1720   */\n      swap2\n      swap1\n      pop\n      jump\t// out\n        /* \"#utility.yul\":1726:1959   */\n    tag_20:\n        /* \"#utility.yul\":1765:1768   */\n      0x00\n        /* \"#utility.yul\":1788:1812   */\n      tag_58\n        /* \"#utility.yul\":1806:1811   */\n      dup3\n        /* \"#utility.yul\":1788:1812   */\n      tag_45\n      jump\t// in\n    tag_58:\n        /* \"#utility.yul\":1779:1812   */\n      swap2\n      pop\n        /* \"#utility.yul\":1834:1900   */\n      0xffffffffffffffffffffffffffffffffffffffffffffffffffffffffffffffff\n        /* \"#utility.yul\":1827:1832   */\n      dup3\n        /* \"#utility.yul\":1824:1901   */\n      eq\n        /* \"#utility.yul\":1821:1924   */\n      iszero\n      tag_59\n      jumpi\n        /* \"#utility.yul\":1904:1922   */\n      tag_60\n      tag_61\n      jump\t// in\n    tag_60:\n        /* \"#utility.yul\":1821:1924   */\n    tag_59:\n        /* \"#utility.yul\":1951:1952   */\n      0x01\n        /* \"#utility.yul\":1944:1949   */\n      dup3\n        /* \"#utility.yul\":1940:1953   */\n      add\n        /* \"#utility.yul\":1933:1953   */\n      swap1\n      pop\n        /* \"#utility.yul\":1726:1959   */\n      swap2\n      swap1\n      pop\n      jump\t// out\n        /* \"#utility.yul\":1965:2145   */\n    tag_61:\n        /* \"#utility.yul\":2013:2090   */\n      0x4e487b7100000000000000000000000000000000000000000000000000000000\n        /* \"#utility.yul\":2010:2011   */\n      0x00\n        /* \"#utility.yul\":2003:2091   */\n      mstore\n        /* \"#utility.yul\":2110:2114   */\n      0x11\n        /* \"#utility.yul\":2107:2108   */\n      0x04\n        /* \"#utility.yul\":2100:2115   */\n      mstore\n        /* \"#utility.yul\":2134:2138   */\n      0x24\n        /* \"#utility.yul\":2131:2132   */\n      0x00\n        /* \"#utility.yul\":2124:2139   */\n      revert\n        /* \"#utility.yul\":2274:2391   */\n    tag_35:\n        /* \"#utility.yul\":2383:2384   */\n      0x00\n        /* \"#utility.yul\":2380:2381   */\n      dup1\n        /* \"#utility.yul\":2373:2385   */\n      revert\n        /* \"#utility.yul\":2397:2519   */\n    tag_31:\n        /* \"#utility.yul\":2470:2494   */\n      tag_67\n        /* \"#utility.yul\":2488:2493   */\n      dup2\n        /* \"#utility.yul\":2470:2494   */\n      tag_45\n      jump\t// in\n    tag_67:\n        /* \"#utility.yul\":2463:2468   */\n      dup2\n        /* \"#utility.yul\":2460:2495   */\n      eq\n        /* \"#utility.yul\":2450:2513   */\n      tag_68\n      jumpi\n        /* \"#utility.yul\":2509:2510   */\n      0x00\n        /* \"#utility.yul\":2506:2507   */\n      dup1\n        /* \"#utility.yul\":2499:2511   */\n      revert\n        /* \"#utility.yul\":2450:2513   */\n    tag_68:\n        /* \"#utility.yul\":2397:2519   */\n      pop\n      jump\t// out\n\n    auxdata: 0xa2646970667358221220409f3eba97cb0f2ae3b27057c2a0de57355bdd118f8784c3e655f5a104b2466e64736f6c63430008070033\n}\n",
				"bytecode": {
					"linkReferences": {},
					"object": "608060405234801561001057600080fd5b506102ed806100206000396000f3fe608060405234801561001057600080fd5b50600436106100365760003560e01c80630fc34d5d1461003b578063c884675114610057575b600080fd5b61005560048036038101906100509190610152565b610073565b005b610071600480360381019061006c9190610152565b6100df565b005b60005b818110156100da57600581111561008c576100da565b7f5a49942a999b4b357c8c4593cf2d42eea475e2c09962c77439de55757370a02b4233856040516100bf939291906101b0565b60405180910390a180806100d290610223565b915050610076565b505050565b60005b81811015610138577f5a49942a999b4b357c8c4593cf2d42eea475e2c09962c77439de55757370a02b42338560405161011d939291906101b0565b60405180910390a1808061013090610223565b9150506100e2565b505050565b60008135905061014c816102a0565b92915050565b600080604083850312156101695761016861029b565b5b60006101778582860161013d565b92505060206101888582860161013d565b9150509250929050565b61019b816101e7565b82525050565b6101aa81610219565b82525050565b60006060820190506101c560008301866101a1565b6101d26020830185610192565b6101df60408301846101a1565b949350505050565b60006101f2826101f9565b9050919050565b600073ffffffffffffffffffffffffffffffffffffffff82169050919050565b6000819050919050565b600061022e82610219565b91507fffffffffffffffffffffffffffffffffffffffffffffffffffffffffffffffff8214156102615761026061026c565b5b600182019050919050565b7f4e487b7100000000000000000000000000000000000000000000000000000000600052601160045260246000fd5b600080fd5b6102a981610219565b81146102b457600080fd5b5056fea2646970667358221220409f3eba97cb0f2ae3b27057c2a0de57355bdd118f8784c3e655f5a104b2466e64736f6c63430008070033",
					"opcodes": "PUSH1 0x80 PUSH1 0x40 MSTORE CALLVALUE DUP1 ISZERO PUSH2 0x10 JUMPI PUSH1 0x0 DUP1 REVERT JUMPDEST POP PUSH2 0x2ED DUP1 PUSH2 0x20 PUSH1 0x0 CODECOPY PUSH1 0x0 RETURN INVALID PUSH1 0x80 PUSH1 0x40 MSTORE CALLVALUE DUP1 ISZERO PUSH2 0x10 JUMPI PUSH1 0x0 DUP1 REVERT JUMPDEST POP PUSH1 0x4 CALLDATASIZE LT PUSH2 0x36 JUMPI PUSH1 0x0 CALLDATALOAD PUSH1 0xE0 SHR DUP1 PUSH4 0xFC34D5D EQ PUSH2 0x3B JUMPI DUP1 PUSH4 0xC8846751 EQ PUSH2 0x57 JUMPI JUMPDEST PUSH1 0x0 DUP1 REVERT JUMPDEST PUSH2 0x55 PUSH1 0x4 DUP1 CALLDATASIZE SUB DUP2 ADD SWAP1 PUSH2 0x50 SWAP2 SWAP1 PUSH2 0x152 JUMP JUMPDEST PUSH2 0x73 JUMP JUMPDEST STOP JUMPDEST PUSH2 0x71 PUSH1 0x4 DUP1 CALLDATASIZE SUB DUP2 ADD SWAP1 PUSH2 0x6C SWAP2 SWAP1 PUSH2 0x152 JUMP JUMPDEST PUSH2 0xDF JUMP JUMPDEST STOP JUMPDEST PUSH1 0x0 JUMPDEST DUP2 DUP2 LT ISZERO PUSH2 0xDA JUMPI PUSH1 0x5 DUP2 GT ISZERO PUSH2 0x8C JUMPI PUSH2 0xDA JUMP JUMPDEST PUSH32 0x5A49942A999B4B357C8C4593CF2D42EEA475E2C09962C77439DE55757370A02B TIMESTAMP CALLER DUP6 PUSH1 0x40 MLOAD PUSH2 0xBF SWAP4 SWAP3 SWAP2 SWAP1 PUSH2 0x1B0 JUMP JUMPDEST PUSH1 0x40 MLOAD DUP1 SWAP2 SUB SWAP1 LOG1 DUP1 DUP1 PUSH2 0xD2 SWAP1 PUSH2 0x223 JUMP JUMPDEST SWAP2 POP POP PUSH2 0x76 JUMP JUMPDEST POP POP POP JUMP JUMPDEST PUSH1 0x0 JUMPDEST DUP2 DUP2 LT ISZERO PUSH2 0x138 JUMPI PUSH32 0x5A49942A999B4B357C8C4593CF2D42EEA475E2C09962C77439DE55757370A02B TIMESTAMP CALLER DUP6 PUSH1 0x40 MLOAD PUSH2 0x11D SWAP4 SWAP3 SWAP2 SWAP1 PUSH2 0x1B0 JUMP JUMPDEST PUSH1 0x40 MLOAD DUP1 SWAP2 SUB SWAP1 LOG1 DUP1 DUP1 PUSH2 0x130 SWAP1 PUSH2 0x223 JUMP JUMPDEST SWAP2 POP POP PUSH2 0xE2 JUMP JUMPDEST POP POP POP JUMP JUMPDEST PUSH1 0x0 DUP2 CALLDATALOAD SWAP1 POP PUSH2 0x14C DUP2 PUSH2 0x2A0 JUMP JUMPDEST SWAP3 SWAP2 POP POP JUMP JUMPDEST PUSH1 0x0 DUP1 PUSH1 0x40 DUP4 DUP6 SUB SLT ISZERO PUSH2 0x169 JUMPI PUSH2 0x168 PUSH2 0x29B JUMP JUMPDEST JUMPDEST PUSH1 0x0 PUSH2 0x177 DUP6 DUP3 DUP7 ADD PUSH2 0x13D JUMP JUMPDEST SWAP3 POP POP PUSH1 0x20 PUSH2 0x188 DUP6 DUP3 DUP7 ADD PUSH2 0x13D JUMP JUMPDEST SWAP2 POP POP SWAP3 POP SWAP3 SWAP1 POP JUMP JUMPDEST PUSH2 0x19B DUP2 PUSH2 0x1E7 JUMP JUMPDEST DUP3 MSTORE POP POP JUMP JUMPDEST PUSH2 0x1AA DUP2 PUSH2 0x219 JUMP JUMPDEST DUP3 MSTORE POP POP JUMP JUMPDEST PUSH1 0x0 PUSH1 0x60 DUP3 ADD SWAP1 POP PUSH2 0x1C5 PUSH1 0x0 DUP4 ADD DUP7 PUSH2 0x1A1 JUMP JUMPDEST PUSH2 0x1D2 PUSH1 0x20 DUP4 ADD DUP6 PUSH2 0x192 JUMP JUMPDEST PUSH2 0x1DF PUSH1 0x40 DUP4 ADD DUP5 PUSH2 0x1A1 JUMP JUMPDEST SWAP5 SWAP4 POP POP POP POP JUMP JUMPDEST PUSH1 0x0 PUSH2 0x1F2 DUP3 PUSH2 0x1F9 JUMP JUMPDEST SWAP1 POP SWAP2 SWAP1 POP JUMP JUMPDEST PUSH1 0x0 PUSH20 0xFFFFFFFFFFFFFFFFFFFFFFFFFFFFFFFFFFFFFFFF DUP3 AND SWAP1 POP SWAP2 SWAP1 POP JUMP JUMPDEST PUSH1 0x0 DUP2 SWAP1 POP SWAP2 SWAP1 POP JUMP JUMPDEST PUSH1 0x0 PUSH2 0x22E DUP3 PUSH2 0x219 JUMP JUMPDEST SWAP2 POP PUSH32 0xFFFFFFFFFFFFFFFFFFFFFFFFFFFFFFFFFFFFFFFFFFFFFFFFFFFFFFFFFFFFFFFF DUP3 EQ ISZERO PUSH2 0x261 JUMPI PUSH2 0x260 PUSH2 0x26C JUMP JUMPDEST JUMPDEST PUSH1 0x1 DUP3 ADD SWAP1 POP SWAP2 SWAP1 POP JUMP JUMPDEST PUSH32 0x4E487B7100000000000000000000000000000000000000000000000000000000 PUSH1 0x0 MSTORE PUSH1 0x11 PUSH1 0x4 MSTORE PUSH1 0x24 PUSH1 0x0 REVERT JUMPDEST PUSH1 0x0 DUP1 REVERT JUMPDEST PUSH2 0x2A9 DUP2 PUSH2 0x219 JUMP JUMPDEST DUP2 EQ PUSH2 0x2B4 JUMPI PUSH1 0x0 DUP1 REVERT JUMPDEST POP JUMP INVALID LOG2 PUSH5 0x6970667358 0x22 SLT KECCAK256 BLOCKHASH SWAP16 RETURNDATACOPY 0xBA SWAP8 0xCB 0xF 0x2A 0xE3 0xB2 PUSH17 0x57C2A0DE57355BDD118F8784C3E655F5A1 DIV 0xB2 CHAINID PUSH15 0x64736F6C6343000807003300000000 "
				},
				"gasEstimates": {
					"creation": {
						"codeDepositCost": "149800",
						"executionCost": "196",
						"totalCost": "149996"
					},
					"external": {
						"showNumbers(uint256,uint256)": "infinite",
						"showNumbersWithBreak(uint256,uint256)": "infinite"
					}
				},
				"methodIdentifiers": {
					"showNumbers(uint256,uint256)": "c8846751",
					"showNumbersWithBreak(uint256,uint256)": "0fc34d5d"
				}
			},
			"storageLayout": {
				"storage": [],
				"types": null
			},
			"userdoc": {
				"kind": "user",
				"methods": {},
				"version": 1
			}
		}
	}
}