{
	"contracts/dynamic_array.sol": {
		"DynamicArray": {
			"abi": [
				{
					"inputs": [
						{
							"internalType": "uint256",
							"name": "_index",
							"type": "uint256"
						}
					],
					"name": "getElement",
					"outputs": [
						{
							"internalType": "uint256",
							"name": "",
							"type": "uint256"
						}
					],
					"stateMutability": "view",
					"type": "function"
				},
				{
					"inputs": [],
					"name": "getLength",
					"outputs": [
						{
							"internalType": "uint256",
							"name": "",
							"type": "uint256"
						}
					],
					"stateMutability": "view",
					"type": "function"
				},
				{
					"inputs": [
						{
							"internalType": "uint256",
							"name": "",
							"type": "uint256"
						}
					],
					"name": "numbers",
					"outputs": [
						{
							"internalType": "uint256",
							"name": "",
							"type": "uint256"
						}
					],
					"stateMutability": "view",
					"type": "function"
				},
				{
					"inputs": [],
					"name": "popNumber",
					"outputs": [],
					"stateMutability": "nonpayable",
					"type": "function"
				},
				{
					"inputs": [
						{
							"internalType": "uint256",
							"name": "_number",
							"type": "uint256"
						}
					],
					"name": "pushNumber",
					"outputs": [],
					"stateMutability": "nonpayable",
					"type": "function"
				}
			],
			"devdoc": {
				"kind": "dev",
				"methods": {},
				"version": 1
			},
			"evm": {
				"assembly": "    /* \"contracts/dynamic_array.sol\":74:564  contract DynamicArray{\r... */\n  mstore(0x40, 0x80)\n  callvalue\n  dup1\n  iszero\n  tag_1\n  jumpi\n  0x00\n  dup1\n  revert\ntag_1:\n  pop\n  dataSize(sub_0)\n  dup1\n  dataOffset(sub_0)\n  0x00\n  codecopy\n  0x00\n  return\nstop\n\nsub_0: assembly {\n        /* \"contracts/dynamic_array.sol\":74:564  contract DynamicArray{\r... */\n      mstore(0x40, 0x80)\n      callvalue\n      dup1\n      iszero\n      tag_1\n      jumpi\n      0x00\n      dup1\n      revert\n    tag_1:\n      pop\n      jumpi(tag_2, lt(calldatasize, 0x04))\n      shr(0xe0, calldataload(0x00))\n      dup1\n      0x2705f37f\n      eq\n      tag_3\n      jumpi\n      dup1\n      0x2bfe1805\n      eq\n      tag_4\n      jumpi\n      dup1\n      0x3a7d22bc\n      eq\n      tag_5\n      jumpi\n      dup1\n      0xbe1c766b\n      eq\n      tag_6\n      jumpi\n      dup1\n      0xd39fa233\n      eq\n      tag_7\n      jumpi\n    tag_2:\n      0x00\n      dup1\n      revert\n        /* \"contracts/dynamic_array.sol\":495:555  function popNumber() public {\r... */\n    tag_3:\n      tag_8\n      tag_9\n      jump\t// in\n    tag_8:\n      stop\n        /* \"contracts/dynamic_array.sol\":226:306  function pushNumber(uint _number) public{\r... */\n    tag_4:\n      tag_10\n      0x04\n      dup1\n      calldatasize\n      sub\n      dup2\n      add\n      swap1\n      tag_11\n      swap2\n      swap1\n      tag_12\n      jump\t// in\n    tag_11:\n      tag_13\n      jump\t// in\n    tag_10:\n      stop\n        /* \"contracts/dynamic_array.sol\":314:487  function getElement(uint _index) public view returns(uint){\r... */\n    tag_5:\n      tag_14\n      0x04\n      dup1\n      calldatasize\n      sub\n      dup2\n      add\n      swap1\n      tag_15\n      swap2\n      swap1\n      tag_12\n      jump\t// in\n    tag_15:\n      tag_16\n      jump\t// in\n    tag_14:\n      mload(0x40)\n      tag_17\n      swap2\n      swap1\n      tag_18\n      jump\t// in\n    tag_17:\n      mload(0x40)\n      dup1\n      swap2\n      sub\n      swap1\n      return\n        /* \"contracts/dynamic_array.sol\":132:218  function getLength() public view returns(uint){\r... */\n    tag_6:\n      tag_19\n      tag_20\n      jump\t// in\n    tag_19:\n      mload(0x40)\n      tag_21\n      swap2\n      swap1\n      tag_18\n      jump\t// in\n    tag_21:\n      mload(0x40)\n      dup1\n      swap2\n      sub\n      swap1\n      return\n        /* \"contracts/dynamic_array.sol\":102:123  uint[] public numbers */\n    tag_7:\n      tag_22\n      0x04\n      dup1\n      calldatasize\n      sub\n      dup2\n      add\n      swap1\n      tag_23\n      swap2\n      swap1\n      tag_12\n      jump\t// in\n    tag_23:\n      tag_24\n      jump\t// in\n    tag_22:\n      mload(0x40)\n      tag_25\n      swap2\n      swap1\n      tag_18\n      jump\t// in\n    tag_25:\n      mload(0x40)\n      dup1\n      swap2\n      sub\n      swap1\n      return\n        /* \"contracts/dynamic_array.sol\":495:555  function popNumber() public {\r... */\n    tag_9:\n        /* \"contracts/dynamic_array.sol\":534:541  numbers */\n      0x00\n        /* \"contracts/dynamic_array.sol\":534:547  numbers.pop() */\n      dup1\n      sload\n      dup1\n      tag_27\n      jumpi\n      tag_28\n      tag_29\n      jump\t// in\n    tag_28:\n    tag_27:\n      0x01\n      swap1\n      sub\n      dup2\n      dup2\n      swap1\n      0x00\n      mstore\n      keccak256(0x00, 0x20)\n      add\n      0x00\n      swap1\n      sstore\n      swap1\n      sstore\n        /* \"contracts/dynamic_array.sol\":495:555  function popNumber() public {\r... */\n      jump\t// out\n        /* \"contracts/dynamic_array.sol\":226:306  function pushNumber(uint _number) public{\r... */\n    tag_13:\n        /* \"contracts/dynamic_array.sol\":277:284  numbers */\n      0x00\n        /* \"contracts/dynamic_array.sol\":290:297  _number */\n      dup2\n        /* \"contracts/dynamic_array.sol\":277:298  numbers.push(_number) */\n      swap1\n      dup1\n      0x01\n      dup2\n      sload\n      add\n      dup1\n      dup3\n      sstore\n      dup1\n      swap2\n      pop\n      pop\n      0x01\n      swap1\n      sub\n      swap1\n      0x00\n      mstore\n      keccak256(0x00, 0x20)\n      add\n      0x00\n      swap1\n      swap2\n      swap1\n      swap2\n      swap1\n      swap2\n      pop\n      sstore\n        /* \"contracts/dynamic_array.sol\":226:306  function pushNumber(uint _number) public{\r... */\n      pop\n      jump\t// out\n        /* \"contracts/dynamic_array.sol\":314:487  function getElement(uint _index) public view returns(uint){\r... */\n    tag_16:\n        /* \"contracts/dynamic_array.sol\":367:371  uint */\n      0x00\n        /* \"contracts/dynamic_array.sol\":395:402  numbers */\n      dup1\n        /* \"contracts/dynamic_array.sol\":395:409  numbers.length */\n      dup1\n      sload\n      swap1\n      pop\n        /* \"contracts/dynamic_array.sol\":386:392  _index */\n      dup3\n        /* \"contracts/dynamic_array.sol\":386:409  _index < numbers.length */\n      lt\n        /* \"contracts/dynamic_array.sol\":383:459  if(_index < numbers.length){\r... */\n      iszero\n      tag_34\n      jumpi\n        /* \"contracts/dynamic_array.sol\":432:439  numbers */\n      0x00\n        /* \"contracts/dynamic_array.sol\":440:446  _index */\n      dup3\n        /* \"contracts/dynamic_array.sol\":432:447  numbers[_index] */\n      dup2\n      sload\n      dup2\n      lt\n      tag_35\n      jumpi\n      tag_36\n      tag_37\n      jump\t// in\n    tag_36:\n    tag_35:\n      swap1\n      0x00\n      mstore\n      keccak256(0x00, 0x20)\n      add\n      sload\n        /* \"contracts/dynamic_array.sol\":425:447  return numbers[_index] */\n      swap1\n      pop\n      jump(tag_33)\n        /* \"contracts/dynamic_array.sol\":383:459  if(_index < numbers.length){\r... */\n    tag_34:\n        /* \"contracts/dynamic_array.sol\":478:479  0 */\n      0x00\n        /* \"contracts/dynamic_array.sol\":471:479  return 0 */\n      swap1\n      pop\n        /* \"contracts/dynamic_array.sol\":314:487  function getElement(uint _index) public view returns(uint){\r... */\n    tag_33:\n      swap2\n      swap1\n      pop\n      jump\t// out\n        /* \"contracts/dynamic_array.sol\":132:218  function getLength() public view returns(uint){\r... */\n    tag_20:\n        /* \"contracts/dynamic_array.sol\":173:177  uint */\n      0x00\n        /* \"contracts/dynamic_array.sol\":196:203  numbers */\n      dup1\n        /* \"contracts/dynamic_array.sol\":196:210  numbers.length */\n      dup1\n      sload\n      swap1\n      pop\n        /* \"contracts/dynamic_array.sol\":189:210  return numbers.length */\n      swap1\n      pop\n        /* \"contracts/dynamic_array.sol\":132:218  function getLength() public view returns(uint){\r... */\n      swap1\n      jump\t// out\n        /* \"contracts/dynamic_array.sol\":102:123  uint[] public numbers */\n    tag_24:\n      0x00\n      dup2\n      dup2\n      sload\n      dup2\n      lt\n      tag_40\n      jumpi\n      0x00\n      dup1\n      revert\n    tag_40:\n      swap1\n      0x00\n      mstore\n      keccak256(0x00, 0x20)\n      add\n      0x00\n      swap2\n      pop\n      swap1\n      pop\n      sload\n      dup2\n      jump\t// out\n        /* \"#utility.yul\":7:146   */\n    tag_43:\n        /* \"#utility.yul\":53:58   */\n      0x00\n        /* \"#utility.yul\":91:97   */\n      dup2\n        /* \"#utility.yul\":78:98   */\n      calldataload\n        /* \"#utility.yul\":69:98   */\n      swap1\n      pop\n        /* \"#utility.yul\":107:140   */\n      tag_45\n        /* \"#utility.yul\":134:139   */\n      dup2\n        /* \"#utility.yul\":107:140   */\n      tag_46\n      jump\t// in\n    tag_45:\n        /* \"#utility.yul\":7:146   */\n      swap3\n      swap2\n      pop\n      pop\n      jump\t// out\n        /* \"#utility.yul\":152:481   */\n    tag_12:\n        /* \"#utility.yul\":211:217   */\n      0x00\n        /* \"#utility.yul\":260:262   */\n      0x20\n        /* \"#utility.yul\":248:257   */\n      dup3\n        /* \"#utility.yul\":239:246   */\n      dup5\n        /* \"#utility.yul\":235:258   */\n      sub\n        /* \"#utility.yul\":231:263   */\n      slt\n        /* \"#utility.yul\":228:347   */\n      iszero\n      tag_48\n      jumpi\n        /* \"#utility.yul\":266:345   */\n      tag_49\n      tag_50\n      jump\t// in\n    tag_49:\n        /* \"#utility.yul\":228:347   */\n    tag_48:\n        /* \"#utility.yul\":386:387   */\n      0x00\n        /* \"#utility.yul\":411:464   */\n      tag_51\n        /* \"#utility.yul\":456:463   */\n      dup5\n        /* \"#utility.yul\":447:453   */\n      dup3\n        /* \"#utility.yul\":436:445   */\n      dup6\n        /* \"#utility.yul\":432:454   */\n      add\n        /* \"#utility.yul\":411:464   */\n      tag_43\n      jump\t// in\n    tag_51:\n        /* \"#utility.yul\":401:464   */\n      swap2\n      pop\n        /* \"#utility.yul\":357:474   */\n      pop\n        /* \"#utility.yul\":152:481   */\n      swap3\n      swap2\n      pop\n      pop\n      jump\t// out\n        /* \"#utility.yul\":487:605   */\n    tag_52:\n        /* \"#utility.yul\":574:598   */\n      tag_54\n        /* \"#utility.yul\":592:597   */\n      dup2\n        /* \"#utility.yul\":574:598   */\n      tag_55\n      jump\t// in\n    tag_54:\n        /* \"#utility.yul\":569:572   */\n      dup3\n        /* \"#utility.yul\":562:599   */\n      mstore\n        /* \"#utility.yul\":487:605   */\n      pop\n      pop\n      jump\t// out\n        /* \"#utility.yul\":611:833   */\n    tag_18:\n        /* \"#utility.yul\":704:708   */\n      0x00\n        /* \"#utility.yul\":742:744   */\n      0x20\n        /* \"#utility.yul\":731:740   */\n      dup3\n        /* \"#utility.yul\":727:745   */\n      add\n        /* \"#utility.yul\":719:745   */\n      swap1\n      pop\n        /* \"#utility.yul\":755:826   */\n      tag_57\n        /* \"#utility.yul\":823:824   */\n      0x00\n        /* \"#utility.yul\":812:821   */\n      dup4\n        /* \"#utility.yul\":808:825   */\n      add\n        /* \"#utility.yul\":799:805   */\n      dup5\n        /* \"#utility.yul\":755:826   */\n      tag_52\n      jump\t// in\n    tag_57:\n        /* \"#utility.yul\":611:833   */\n      swap3\n      swap2\n      pop\n      pop\n      jump\t// out\n        /* \"#utility.yul\":920:997   */\n    tag_55:\n        /* \"#utility.yul\":957:964   */\n      0x00\n        /* \"#utility.yul\":986:991   */\n      dup2\n        /* \"#utility.yul\":975:991   */\n      swap1\n      pop\n        /* \"#utility.yul\":920:997   */\n      swap2\n      swap1\n      pop\n      jump\t// out\n        /* \"#utility.yul\":1003:1183   */\n    tag_29:\n        /* \"#utility.yul\":1051:1128   */\n      0x4e487b7100000000000000000000000000000000000000000000000000000000\n        /* \"#utility.yul\":1048:1049   */\n      0x00\n        /* \"#utility.yul\":1041:1129   */\n      mstore\n        /* \"#utility.yul\":1148:1152   */\n      0x31\n        /* \"#utility.yul\":1145:1146   */\n      0x04\n        /* \"#utility.yul\":1138:1153   */\n      mstore\n        /* \"#utility.yul\":1172:1176   */\n      0x24\n        /* \"#utility.yul\":1169:1170   */\n      0x00\n        /* \"#utility.yul\":1162:1177   */\n      revert\n        /* \"#utility.yul\":1189:1369   */\n    tag_37:\n        /* \"#utility.yul\":1237:1314   */\n      0x4e487b7100000000000000000000000000000000000000000000000000000000\n        /* \"#utility.yul\":1234:1235   */\n      0x00\n        /* \"#utility.yul\":1227:1315   */\n      mstore\n        /* \"#utility.yul\":1334:1338   */\n      0x32\n        /* \"#utility.yul\":1331:1332   */\n      0x04\n        /* \"#utility.yul\":1324:1339   */\n      mstore\n        /* \"#utility.yul\":1358:1362   */\n      0x24\n        /* \"#utility.yul\":1355:1356   */\n      0x00\n        /* \"#utility.yul\":1348:1363   */\n      revert\n        /* \"#utility.yul\":1498:1615   */\n    tag_50:\n        /* \"#utility.yul\":1607:1608   */\n      0x00\n        /* \"#utility.yul\":1604:1605   */\n      dup1\n        /* \"#utility.yul\":1597:1609   */\n      revert\n        /* \"#utility.yul\":1621:1743   */\n    tag_46:\n        /* \"#utility.yul\":1694:1718   */\n      tag_67\n        /* \"#utility.yul\":1712:1717   */\n      dup2\n        /* \"#utility.yul\":1694:1718   */\n      tag_55\n      jump\t// in\n    tag_67:\n        /* \"#utility.yul\":1687:1692   */\n      dup2\n        /* \"#utility.yul\":1684:1719   */\n      eq\n        /* \"#utility.yul\":1674:1737   */\n      tag_68\n      jumpi\n        /* \"#utility.yul\":1733:1734   */\n      0x00\n        /* \"#utility.yul\":1730:1731   */\n      dup1\n        /* \"#utility.yul\":1723:1735   */\n      revert\n        /* \"#utility.yul\":1674:1737   */\n    tag_68:\n        /* \"#utility.yul\":1621:1743   */\n      pop\n      jump\t// out\n\n    auxdata: 0xa2646970667358221220aa809d88573d6fca03343d60f3e93cc9a91ef10b3043c3a7f589959d4fa36cc164736f6c63430008070033\n}\n",
				"bytecode": {
					"linkReferences": {},
					"object": "608060405234801561001057600080fd5b506102ea806100206000396000f3fe608060405234801561001057600080fd5b50600436106100575760003560e01c80632705f37f1461005c5780632bfe1805146100665780633a7d22bc14610082578063be1c766b146100b2578063d39fa233146100d0575b600080fd5b610064610100565b005b610080600480360381019061007b91906101d9565b61012a565b005b61009c600480360381019061009791906101d9565b610156565b6040516100a99190610215565b60405180910390f35b6100ba610194565b6040516100c79190610215565b60405180910390f35b6100ea60048036038101906100e591906101d9565b6101a0565b6040516100f79190610215565b60405180910390f35b60008054806101125761011161023a565b5b60019003818190600052602060002001600090559055565b600081908060018154018082558091505060019003906000526020600020016000909190919091505550565b6000808054905082101561018a576000828154811061017857610177610269565b5b9060005260206000200154905061018f565b600090505b919050565b60008080549050905090565b600081815481106101b057600080fd5b906000526020600020016000915090505481565b6000813590506101d38161029d565b92915050565b6000602082840312156101ef576101ee610298565b5b60006101fd848285016101c4565b91505092915050565b61020f81610230565b82525050565b600060208201905061022a6000830184610206565b92915050565b6000819050919050565b7f4e487b7100000000000000000000000000000000000000000000000000000000600052603160045260246000fd5b7f4e487b7100000000000000000000000000000000000000000000000000000000600052603260045260246000fd5b600080fd5b6102a681610230565b81146102b157600080fd5b5056fea2646970667358221220aa809d88573d6fca03343d60f3e93cc9a91ef10b3043c3a7f589959d4fa36cc164736f6c63430008070033",
					"opcodes": "PUSH1 0x80 PUSH1 0x40 MSTORE CALLVALUE DUP1 ISZERO PUSH2 0x10 JUMPI PUSH1 0x0 DUP1 REVERT JUMPDEST POP PUSH2 0x2EA DUP1 PUSH2 0x20 PUSH1 0x0 CODECOPY PUSH1 0x0 RETURN INVALID PUSH1 0x80 PUSH1 0x40 MSTORE CALLVALUE DUP1 ISZERO PUSH2 0x10 JUMPI PUSH1 0x0 DUP1 REVERT JUMPDEST POP PUSH1 0x4 CALLDATASIZE LT PUSH2 0x57 JUMPI PUSH1 0x0 CALLDATALOAD PUSH1 0xE0 SHR DUP1 PUSH4 0x2705F37F EQ PUSH2 0x5C JUMPI DUP1 PUSH4 0x2BFE1805 EQ PUSH2 0x66 JUMPI DUP1 PUSH4 0x3A7D22BC EQ PUSH2 0x82 JUMPI DUP1 PUSH4 0xBE1C766B EQ PUSH2 0xB2 JUMPI DUP1 PUSH4 0xD39FA233 EQ PUSH2 0xD0 JUMPI JUMPDEST PUSH1 0x0 DUP1 REVERT JUMPDEST PUSH2 0x64 PUSH2 0x100 JUMP JUMPDEST STOP JUMPDEST PUSH2 0x80 PUSH1 0x4 DUP1 CALLDATASIZE SUB DUP2 ADD SWAP1 PUSH2 0x7B SWAP2 SWAP1 PUSH2 0x1D9 JUMP JUMPDEST PUSH2 0x12A JUMP JUMPDEST STOP JUMPDEST PUSH2 0x9C PUSH1 0x4 DUP1 CALLDATASIZE SUB DUP2 ADD SWAP1 PUSH2 0x97 SWAP2 SWAP1 PUSH2 0x1D9 JUMP JUMPDEST PUSH2 0x156 JUMP JUMPDEST PUSH1 0x40 MLOAD PUSH2 0xA9 SWAP2 SWAP1 PUSH2 0x215 JUMP JUMPDEST PUSH1 0x40 MLOAD DUP1 SWAP2 SUB SWAP1 RETURN JUMPDEST PUSH2 0xBA PUSH2 0x194 JUMP JUMPDEST PUSH1 0x40 MLOAD PUSH2 0xC7 SWAP2 SWAP1 PUSH2 0x215 JUMP JUMPDEST PUSH1 0x40 MLOAD DUP1 SWAP2 SUB SWAP1 RETURN JUMPDEST PUSH2 0xEA PUSH1 0x4 DUP1 CALLDATASIZE SUB DUP2 ADD SWAP1 PUSH2 0xE5 SWAP2 SWAP1 PUSH2 0x1D9 JUMP JUMPDEST PUSH2 0x1A0 JUMP JUMPDEST PUSH1 0x40 MLOAD PUSH2 0xF7 SWAP2 SWAP1 PUSH2 0x215 JUMP JUMPDEST PUSH1 0x40 MLOAD DUP1 SWAP2 SUB SWAP1 RETURN JUMPDEST PUSH1 0x0 DUP1 SLOAD DUP1 PUSH2 0x112 JUMPI PUSH2 0x111 PUSH2 0x23A JUMP JUMPDEST JUMPDEST PUSH1 0x1 SWAP1 SUB DUP2 DUP2 SWAP1 PUSH1 0x0 MSTORE PUSH1 0x20 PUSH1 0x0 KECCAK256 ADD PUSH1 0x0 SWAP1 SSTORE SWAP1 SSTORE JUMP JUMPDEST PUSH1 0x0 DUP2 SWAP1 DUP1 PUSH1 0x1 DUP2 SLOAD ADD DUP1 DUP3 SSTORE DUP1 SWAP2 POP POP PUSH1 0x1 SWAP1 SUB SWAP1 PUSH1 0x0 MSTORE PUSH1 0x20 PUSH1 0x0 KECCAK256 ADD PUSH1 0x0 SWAP1 SWAP2 SWAP1 SWAP2 SWAP1 SWAP2 POP SSTORE POP JUMP JUMPDEST PUSH1 0x0 DUP1 DUP1 SLOAD SWAP1 POP DUP3 LT ISZERO PUSH2 0x18A JUMPI PUSH1 0x0 DUP3 DUP2 SLOAD DUP2 LT PUSH2 0x178 JUMPI PUSH2 0x177 PUSH2 0x269 JUMP JUMPDEST JUMPDEST SWAP1 PUSH1 0x0 MSTORE PUSH1 0x20 PUSH1 0x0 KECCAK256 ADD SLOAD SWAP1 POP PUSH2 0x18F JUMP JUMPDEST PUSH1 0x0 SWAP1 POP JUMPDEST SWAP2 SWAP1 POP JUMP JUMPDEST PUSH1 0x0 DUP1 DUP1 SLOAD SWAP1 POP SWAP1 POP SWAP1 JUMP JUMPDEST PUSH1 0x0 DUP2 DUP2 SLOAD DUP2 LT PUSH2 0x1B0 JUMPI PUSH1 0x0 DUP1 REVERT JUMPDEST SWAP1 PUSH1 0x0 MSTORE PUSH1 0x20 PUSH1 0x0 KECCAK256 ADD PUSH1 0x0 SWAP2 POP SWAP1 POP SLOAD DUP2 JUMP JUMPDEST PUSH1 0x0 DUP2 CALLDATALOAD SWAP1 POP PUSH2 0x1D3 DUP2 PUSH2 0x29D JUMP JUMPDEST SWAP3 SWAP2 POP POP JUMP JUMPDEST PUSH1 0x0 PUSH1 0x20 DUP3 DUP5 SUB SLT ISZERO PUSH2 0x1EF JUMPI PUSH2 0x1EE PUSH2 0x298 JUMP JUMPDEST JUMPDEST PUSH1 0x0 PUSH2 0x1FD DUP5 DUP3 DUP6 ADD PUSH2 0x1C4 JUMP JUMPDEST SWAP2 POP POP SWAP3 SWAP2 POP POP JUMP JUMPDEST PUSH2 0x20F DUP2 PUSH2 0x230 JUMP JUMPDEST DUP3 MSTORE POP POP JUMP JUMPDEST PUSH1 0x0 PUSH1 0x20 DUP3 ADD SWAP1 POP PUSH2 0x22A PUSH1 0x0 DUP4 ADD DUP5 PUSH2 0x206 JUMP JUMPDEST SWAP3 SWAP2 POP POP JUMP JUMPDEST PUSH1 0x0 DUP2 SWAP1 POP SWAP2 SWAP1 POP JUMP JUMPDEST PUSH32 0x4E487B7100000000000000000000000000000000000000000000000000000000 PUSH1 0x0 MSTORE PUSH1 0x31 PUSH1 0x4 MSTORE PUSH1 0x24 PUSH1 0x0 REVERT JUMPDEST PUSH32 0x4E487B7100000000000000000000000000000000000000000000000000000000 PUSH1 0x0 MSTORE PUSH1 0x32 PUSH1 0x4 MSTORE PUSH1 0x24 PUSH1 0x0 REVERT JUMPDEST PUSH1 0x0 DUP1 REVERT JUMPDEST PUSH2 0x2A6 DUP2 PUSH2 0x230 JUMP JUMPDEST DUP2 EQ PUSH2 0x2B1 JUMPI PUSH1 0x0 DUP1 REVERT JUMPDEST POP JUMP INVALID LOG2 PUSH5 0x6970667358 0x22 SLT KECCAK256 0xAA DUP1 SWAP14 DUP9 JUMPI RETURNDATASIZE PUSH16 0xCA03343D60F3E93CC9A91EF10B3043C3 0xA7 CREATE2 DUP10 SWAP6 SWAP14 0x4F LOG3 PUSH13 0xC164736F6C6343000807003300 "
				},
				"gasEstimates": {
					"creation": {
						"codeDepositCost": "149200",
						"executionCost": "196",
						"totalCost": "149396"
					},
					"external": {
						"getElement(uint256)": "infinite",
						"getLength()": "2489",
						"numbers(uint256)": "infinite",
						"popNumber()": "29423",
						"pushNumber(uint256)": "46829"
					}
				},
				"methodIdentifiers": {
					"getElement(uint256)": "3a7d22bc",
					"getLength()": "be1c766b",
					"numbers(uint256)": "d39fa233",
					"popNumber()": "2705f37f",
					"pushNumber(uint256)": "2bfe1805"
				}
			},
			"storageLayout": {
				"storage": [
					{
						"astId": 4,
						"contract": "contracts/dynamic_array.sol:DynamicArray",
						"label": "numbers",
						"offset": 0,
						"slot": "0",
						"type": "t_array(t_uint256)dyn_storage"
					}
				],
				"types": {
					"t_array(t_uint256)dyn_storage": {
						"base": "t_uint256",
						"encoding": "dynamic_array",
						"label": "uint256[]",
						"numberOfBytes": "32"
					},
					"t_uint256": {
						"encoding": "inplace",
						"label": "uint256",
						"numberOfBytes": "32"
					}
				}
			},
			"userdoc": {
				"kind": "user",
				"methods": {},
				"version": 1
			}
		}
	}
}