{
	"contracts/events.sol": {
		"Events": {
			"abi": [
				{
					"anonymous": false,
					"inputs": [
						{
							"indexed": true,
							"internalType": "uint256",
							"name": "date",
							"type": "uint256"
						},
						{
							"indexed": true,
							"internalType": "address",
							"name": "sender",
							"type": "address"
						},
						{
							"indexed": false,
							"internalType": "uint256",
							"name": "number",
							"type": "uint256"
						}
					],
					"name": "Address_info",
					"type": "event"
				},
				{
					"inputs": [],
					"name": "emit_event",
					"outputs": [],
					"stateMutability": "nonpayable",
					"type": "function"
				}
			],
			"devdoc": {
				"kind": "dev",
				"methods": {},
				"version": 1
			},
			"evm": {
				"assembly": "    /* \"contracts/events.sol\":74:322  contract Events{\r... */\n  mstore(0x40, 0x80)\n  callvalue\n  dup1\n  iszero\n  tag_1\n  jumpi\n  0x00\n  dup1\n  revert\ntag_1:\n  pop\n  dataSize(sub_0)\n  dup1\n  dataOffset(sub_0)\n  0x00\n  codecopy\n  0x00\n  return\nstop\n\nsub_0: assembly {\n        /* \"contracts/events.sol\":74:322  contract Events{\r... */\n      mstore(0x40, 0x80)\n      callvalue\n      dup1\n      iszero\n      tag_1\n      jumpi\n      0x00\n      dup1\n      revert\n    tag_1:\n      pop\n      jumpi(tag_2, lt(calldatasize, 0x04))\n      shr(0xe0, calldataload(0x00))\n      dup1\n      0xb583a204\n      eq\n      tag_3\n      jumpi\n    tag_2:\n      0x00\n      dup1\n      revert\n        /* \"contracts/events.sol\":219:319  function emit_event() external {\r... */\n    tag_3:\n      tag_4\n      tag_5\n      jump\t// in\n    tag_4:\n      stop\n    tag_5:\n        /* \"contracts/events.sol\":296:306  msg.sender */\n      caller\n        /* \"contracts/events.sol\":266:311  Address_info(block.timestamp, msg.sender, 55) */\n      0xffffffffffffffffffffffffffffffffffffffff\n      and\n        /* \"contracts/events.sol\":279:294  block.timestamp */\n      timestamp\n        /* \"contracts/events.sol\":266:311  Address_info(block.timestamp, msg.sender, 55) */\n      0xdceabb6a4a96d45aa6bd79278fb2c8f63d06b3d7cc21e1213dcd0a2fcb572a9f\n        /* \"contracts/events.sol\":308:310  55 */\n      0x37\n        /* \"contracts/events.sol\":266:311  Address_info(block.timestamp, msg.sender, 55) */\n      mload(0x40)\n      tag_7\n      swap2\n      swap1\n      tag_8\n      jump\t// in\n    tag_7:\n      mload(0x40)\n      dup1\n      swap2\n      sub\n      swap1\n      log3\n        /* \"contracts/events.sol\":219:319  function emit_event() external {\r... */\n      jump\t// out\n        /* \"#utility.yul\":7:156   */\n    tag_10:\n        /* \"#utility.yul\":103:149   */\n      tag_12\n        /* \"#utility.yul\":143:148   */\n      dup2\n        /* \"#utility.yul\":103:149   */\n      tag_13\n      jump\t// in\n    tag_12:\n        /* \"#utility.yul\":98:101   */\n      dup3\n        /* \"#utility.yul\":91:150   */\n      mstore\n        /* \"#utility.yul\":7:156   */\n      pop\n      pop\n      jump\t// out\n        /* \"#utility.yul\":162:402   */\n    tag_8:\n        /* \"#utility.yul\":264:268   */\n      0x00\n        /* \"#utility.yul\":302:304   */\n      0x20\n        /* \"#utility.yul\":291:300   */\n      dup3\n        /* \"#utility.yul\":287:305   */\n      add\n        /* \"#utility.yul\":279:305   */\n      swap1\n      pop\n        /* \"#utility.yul\":315:395   */\n      tag_15\n        /* \"#utility.yul\":392:393   */\n      0x00\n        /* \"#utility.yul\":381:390   */\n      dup4\n        /* \"#utility.yul\":377:394   */\n      add\n        /* \"#utility.yul\":368:374   */\n      dup5\n        /* \"#utility.yul\":315:395   */\n      tag_10\n      jump\t// in\n    tag_15:\n        /* \"#utility.yul\":162:402   */\n      swap3\n      swap2\n      pop\n      pop\n      jump\t// out\n        /* \"#utility.yul\":408:485   */\n    tag_16:\n        /* \"#utility.yul\":445:452   */\n      0x00\n        /* \"#utility.yul\":474:479   */\n      dup2\n        /* \"#utility.yul\":463:479   */\n      swap1\n      pop\n        /* \"#utility.yul\":408:485   */\n      swap2\n      swap1\n      pop\n      jump\t// out\n        /* \"#utility.yul\":491:613   */\n    tag_13:\n        /* \"#utility.yul\":550:559   */\n      0x00\n        /* \"#utility.yul\":583:607   */\n      tag_19\n        /* \"#utility.yul\":601:606   */\n      dup3\n        /* \"#utility.yul\":583:607   */\n      tag_16\n      jump\t// in\n    tag_19:\n        /* \"#utility.yul\":570:607   */\n      swap1\n      pop\n        /* \"#utility.yul\":491:613   */\n      swap2\n      swap1\n      pop\n      jump\t// out\n\n    auxdata: 0xa2646970667358221220847ffb3c873c433f2a27567a801cc65c59ff97c86c9560d07d5cc10fb154fdac64736f6c63430008070033\n}\n",
				"bytecode": {
					"linkReferences": {},
					"object": "608060405234801561001057600080fd5b5060fb8061001f6000396000f3fe6080604052348015600f57600080fd5b506004361060285760003560e01c8063b583a20414602d575b600080fd5b60336035565b005b3373ffffffffffffffffffffffffffffffffffffffff16427fdceabb6a4a96d45aa6bd79278fb2c8f63d06b3d7cc21e1213dcd0a2fcb572a9f6037604051607b91906092565b60405180910390a3565b608c8160b5565b82525050565b600060208201905060a560008301846085565b92915050565b6000819050919050565b600060be8260ab565b905091905056fea2646970667358221220847ffb3c873c433f2a27567a801cc65c59ff97c86c9560d07d5cc10fb154fdac64736f6c63430008070033",
					"opcodes": "PUSH1 0x80 PUSH1 0x40 MSTORE CALLVALUE DUP1 ISZERO PUSH2 0x10 JUMPI PUSH1 0x0 DUP1 REVERT JUMPDEST POP PUSH1 0xFB DUP1 PUSH2 0x1F PUSH1 0x0 CODECOPY PUSH1 0x0 RETURN INVALID PUSH1 0x80 PUSH1 0x40 MSTORE CALLVALUE DUP1 ISZERO PUSH1 0xF JUMPI PUSH1 0x0 DUP1 REVERT JUMPDEST POP PUSH1 0x4 CALLDATASIZE LT PUSH1 0x28 JUMPI PUSH1 0x0 CALLDATALOAD PUSH1 0xE0 SHR DUP1 PUSH4 0xB583A204 EQ PUSH1 0x2D JUMPI JUMPDEST PUSH1 0x0 DUP1 REVERT JUMPDEST PUSH1 0x33 PUSH1 0x35 JUMP JUMPDEST STOP JUMPDEST CALLER PUSH20 0xFFFFFFFFFFFFFFFFFFFFFFFFFFFFFFFFFFFFFFFF AND TIMESTAMP PUSH32 0xDCEABB6A4A96D45AA6BD79278FB2C8F63D06B3D7CC21E1213DCD0A2FCB572A9F PUSH1 0x37 PUSH1 0x40 MLOAD PUSH1 0x7B SWAP2 SWAP1 PUSH1 0x92 JUMP JUMPDEST PUSH1 0x40 MLOAD DUP1 SWAP2 SUB SWAP1 LOG3 JUMP JUMPDEST PUSH1 0x8C DUP2 PUSH1 0xB5 JUMP JUMPDEST DUP3 MSTORE POP POP JUMP JUMPDEST PUSH1 0x0 PUSH1 0x20 DUP3 ADD SWAP1 POP PUSH1 0xA5 PUSH1 0x0 DUP4 ADD DUP5 PUSH1 0x85 JUMP JUMPDEST SWAP3 SWAP2 POP POP JUMP JUMPDEST PUSH1 0x0 DUP2 SWAP1 POP SWAP2 SWAP1 POP JUMP JUMPDEST PUSH1 0x0 PUSH1 0xBE DUP3 PUSH1 0xAB JUMP JUMPDEST SWAP1 POP SWAP2 SWAP1 POP JUMP INVALID LOG2 PUSH5 0x6970667358 0x22 SLT KECCAK256 DUP5 PUSH32 0xFB3C873C433F2A27567A801CC65C59FF97C86C9560D07D5CC10FB154FDAC6473 PUSH16 0x6C634300080700330000000000000000 "
				},
				"gasEstimates": {
					"creation": {
						"codeDepositCost": "50200",
						"executionCost": "99",
						"totalCost": "50299"
					},
					"external": {
						"emit_event()": "2116"
					}
				},
				"methodIdentifiers": {
					"emit_event()": "b583a204"
				}
			},
			"storageLayout": {
				"storage": [],
				"types": null
			},
			"userdoc": {
				"kind": "user",
				"methods": {},
				"version": 1
			}
		}
	}
}