{
	"contracts/visibility.sol": {
		"C": {
			"abi": [
				{
					"inputs": [],
					"name": "a",
					"outputs": [
						{
							"internalType": "address",
							"name": "",
							"type": "address"
						}
					],
					"stateMutability": "view",
					"type": "function"
				},
				{
					"inputs": [],
					"name": "contract_a",
					"outputs": [
						{
							"internalType": "contract A",
							"name": "",
							"type": "address"
						}
					],
					"stateMutability": "view",
					"type": "function"
				},
				{
					"inputs": [],
					"name": "xa",
					"outputs": [
						{
							"internalType": "uint256",
							"name": "",
							"type": "uint256"
						}
					],
					"stateMutability": "view",
					"type": "function"
				}
			],
			"devdoc": {
				"kind": "dev",
				"methods": {},
				"version": 1
			},
			"evm": {
				"assembly": "    /* \"contracts/visibility.sol\":763:899  contract C {\r... */\n  mstore(0x40, 0x80)\n    /* \"contracts/visibility.sol\":803:810  new A() */\n  mload(0x40)\n  tag_1\n  swap1\n  tag_2\n  jump\t// in\ntag_1:\n  mload(0x40)\n  dup1\n  swap2\n  sub\n  swap1\n  0x00\n  create\n  dup1\n  iszero\n  dup1\n  iszero\n  tag_3\n  jumpi\n  returndatasize\n  0x00\n  dup1\n  returndatacopy\n  revert(0x00, returndatasize)\ntag_3:\n  pop\n    /* \"contracts/visibility.sol\":781:810  A public contract_a = new A() */\n  0x00\n  dup1\n  0x0100\n  exp\n  dup2\n  sload\n  dup2\n  0xffffffffffffffffffffffffffffffffffffffff\n  mul\n  not\n  and\n  swap1\n  dup4\n  0xffffffffffffffffffffffffffffffffffffffff\n  and\n  mul\n  or\n  swap1\n  sstore\n  pop\n    /* \"contracts/visibility.sol\":844:854  contract_a */\n  0x00\n  dup1\n  sload\n  swap1\n  0x0100\n  exp\n  swap1\n  div\n  0xffffffffffffffffffffffffffffffffffffffff\n  and\n    /* \"contracts/visibility.sol\":817:855  address public a = address(contract_a) */\n  0x01\n  exp(0x0100, 0x00)\n  dup2\n  sload\n  dup2\n  0xffffffffffffffffffffffffffffffffffffffff\n  mul\n  not\n  and\n  swap1\n  dup4\n  0xffffffffffffffffffffffffffffffffffffffff\n  and\n  mul\n  or\n  swap1\n  sstore\n  pop\n    /* \"contracts/visibility.sol\":879:889  contract_a */\n  0x00\n  dup1\n  sload\n  swap1\n  0x0100\n  exp\n  swap1\n  div\n  0xffffffffffffffffffffffffffffffffffffffff\n  and\n    /* \"contracts/visibility.sol\":879:892  contract_a.f4 */\n  0xffffffffffffffffffffffffffffffffffffffff\n  and\n  0xc3f90202\n    /* \"contracts/visibility.sol\":879:894  contract_a.f4() */\n  mload(0x40)\n  dup2\n  0xffffffff\n  and\n  0xe0\n  shl\n  dup2\n  mstore\n  0x04\n  add\n  0x20\n  mload(0x40)\n  dup1\n  dup4\n  sub\n  dup2\n  dup7\n  dup1\n  extcodesize\n  iszero\n  dup1\n  iszero\n  tag_4\n  jumpi\n  0x00\n  dup1\n  revert\ntag_4:\n  pop\n  gas\n  staticcall\n  iszero\n  dup1\n  iszero\n  tag_6\n  jumpi\n  returndatasize\n  0x00\n  dup1\n  returndatacopy\n  revert(0x00, returndatasize)\ntag_6:\n  pop\n  pop\n  pop\n  pop\n  mload(0x40)\n  returndatasize\n  not(0x1f)\n  0x1f\n  dup3\n  add\n  and\n  dup3\n  add\n  dup1\n  0x40\n  mstore\n  pop\n  dup2\n  add\n  swap1\n  tag_7\n  swap2\n  swap1\n  tag_8\n  jump\t// in\ntag_7:\n    /* \"contracts/visibility.sol\":862:894  uint public xa = contract_a.f4() */\n  0x02\n  sstore\n    /* \"contracts/visibility.sol\":763:899  contract C {\r... */\n  callvalue\n  dup1\n  iszero\n  tag_9\n  jumpi\n  0x00\n  dup1\n  revert\ntag_9:\n  pop\n  jump(tag_10)\ntag_2:\n  dataSize(sub_1)\n  dup1\n  dataOffset(sub_1)\n  dup4\n  codecopy\n  add\n  swap1\n  jump\t// out\n    /* \"#utility.yul\":7:150   */\ntag_12:\n    /* \"#utility.yul\":64:69   */\n  0x00\n    /* \"#utility.yul\":95:101   */\n  dup2\n    /* \"#utility.yul\":89:102   */\n  mload\n    /* \"#utility.yul\":80:102   */\n  swap1\n  pop\n    /* \"#utility.yul\":111:144   */\n  tag_14\n    /* \"#utility.yul\":138:143   */\n  dup2\n    /* \"#utility.yul\":111:144   */\n  tag_15\n  jump\t// in\ntag_14:\n    /* \"#utility.yul\":7:150   */\n  swap3\n  swap2\n  pop\n  pop\n  jump\t// out\n    /* \"#utility.yul\":156:507   */\ntag_8:\n    /* \"#utility.yul\":226:232   */\n  0x00\n    /* \"#utility.yul\":275:277   */\n  0x20\n    /* \"#utility.yul\":263:272   */\n  dup3\n    /* \"#utility.yul\":254:261   */\n  dup5\n    /* \"#utility.yul\":250:273   */\n  sub\n    /* \"#utility.yul\":246:278   */\n  slt\n    /* \"#utility.yul\":243:362   */\n  iszero\n  tag_17\n  jumpi\n    /* \"#utility.yul\":281:360   */\n  tag_18\n  tag_19\n  jump\t// in\ntag_18:\n    /* \"#utility.yul\":243:362   */\ntag_17:\n    /* \"#utility.yul\":401:402   */\n  0x00\n    /* \"#utility.yul\":426:490   */\n  tag_20\n    /* \"#utility.yul\":482:489   */\n  dup5\n    /* \"#utility.yul\":473:479   */\n  dup3\n    /* \"#utility.yul\":462:471   */\n  dup6\n    /* \"#utility.yul\":458:480   */\n  add\n    /* \"#utility.yul\":426:490   */\n  tag_12\n  jump\t// in\ntag_20:\n    /* \"#utility.yul\":416:490   */\n  swap2\n  pop\n    /* \"#utility.yul\":372:500   */\n  pop\n    /* \"#utility.yul\":156:507   */\n  swap3\n  swap2\n  pop\n  pop\n  jump\t// out\n    /* \"#utility.yul\":594:671   */\ntag_23:\n    /* \"#utility.yul\":631:638   */\n  0x00\n    /* \"#utility.yul\":660:665   */\n  dup2\n    /* \"#utility.yul\":649:665   */\n  swap1\n  pop\n    /* \"#utility.yul\":594:671   */\n  swap2\n  swap1\n  pop\n  jump\t// out\n    /* \"#utility.yul\":800:917   */\ntag_19:\n    /* \"#utility.yul\":909:910   */\n  0x00\n    /* \"#utility.yul\":906:907   */\n  dup1\n    /* \"#utility.yul\":899:911   */\n  revert\n    /* \"#utility.yul\":923:1045   */\ntag_15:\n    /* \"#utility.yul\":996:1020   */\n  tag_29\n    /* \"#utility.yul\":1014:1019   */\n  dup2\n    /* \"#utility.yul\":996:1020   */\n  tag_23\n  jump\t// in\ntag_29:\n    /* \"#utility.yul\":989:994   */\n  dup2\n    /* \"#utility.yul\":986:1021   */\n  eq\n    /* \"#utility.yul\":976:1039   */\n  tag_30\n  jumpi\n    /* \"#utility.yul\":1035:1036   */\n  0x00\n    /* \"#utility.yul\":1032:1033   */\n  dup1\n    /* \"#utility.yul\":1025:1037   */\n  revert\n    /* \"#utility.yul\":976:1039   */\ntag_30:\n    /* \"#utility.yul\":923:1045   */\n  pop\n  jump\t// out\n    /* \"contracts/visibility.sol\":763:899  contract C {\r... */\ntag_10:\n  dataSize(sub_0)\n  dup1\n  dataOffset(sub_0)\n  0x00\n  codecopy\n  0x00\n  return\nstop\n\nsub_0: assembly {\n        /* \"contracts/visibility.sol\":763:899  contract C {\r... */\n      mstore(0x40, 0x80)\n      callvalue\n      dup1\n      iszero\n      tag_1\n      jumpi\n      0x00\n      dup1\n      revert\n    tag_1:\n      pop\n      jumpi(tag_2, lt(calldatasize, 0x04))\n      shr(0xe0, calldataload(0x00))\n      dup1\n      0x0dbe671f\n      eq\n      tag_3\n      jumpi\n      dup1\n      0x605b85ad\n      eq\n      tag_4\n      jumpi\n      dup1\n      0xef84b88e\n      eq\n      tag_5\n      jumpi\n    tag_2:\n      0x00\n      dup1\n      revert\n        /* \"contracts/visibility.sol\":817:855  address public a = address(contract_a) */\n    tag_3:\n      tag_6\n      tag_7\n      jump\t// in\n    tag_6:\n      mload(0x40)\n      tag_8\n      swap2\n      swap1\n      tag_9\n      jump\t// in\n    tag_8:\n      mload(0x40)\n      dup1\n      swap2\n      sub\n      swap1\n      return\n        /* \"contracts/visibility.sol\":781:810  A public contract_a = new A() */\n    tag_4:\n      tag_10\n      tag_11\n      jump\t// in\n    tag_10:\n      mload(0x40)\n      tag_12\n      swap2\n      swap1\n      tag_13\n      jump\t// in\n    tag_12:\n      mload(0x40)\n      dup1\n      swap2\n      sub\n      swap1\n      return\n        /* \"contracts/visibility.sol\":862:894  uint public xa = contract_a.f4() */\n    tag_5:\n      tag_14\n      tag_15\n      jump\t// in\n    tag_14:\n      mload(0x40)\n      tag_16\n      swap2\n      swap1\n      tag_17\n      jump\t// in\n    tag_16:\n      mload(0x40)\n      dup1\n      swap2\n      sub\n      swap1\n      return\n        /* \"contracts/visibility.sol\":817:855  address public a = address(contract_a) */\n    tag_7:\n      0x01\n      0x00\n      swap1\n      sload\n      swap1\n      0x0100\n      exp\n      swap1\n      div\n      0xffffffffffffffffffffffffffffffffffffffff\n      and\n      dup2\n      jump\t// out\n        /* \"contracts/visibility.sol\":781:810  A public contract_a = new A() */\n    tag_11:\n      0x00\n      dup1\n      sload\n      swap1\n      0x0100\n      exp\n      swap1\n      div\n      0xffffffffffffffffffffffffffffffffffffffff\n      and\n      dup2\n      jump\t// out\n        /* \"contracts/visibility.sol\":862:894  uint public xa = contract_a.f4() */\n    tag_15:\n      sload(0x02)\n      dup2\n      jump\t// out\n        /* \"#utility.yul\":7:125   */\n    tag_19:\n        /* \"#utility.yul\":94:118   */\n      tag_21\n        /* \"#utility.yul\":112:117   */\n      dup2\n        /* \"#utility.yul\":94:118   */\n      tag_22\n      jump\t// in\n    tag_21:\n        /* \"#utility.yul\":89:92   */\n      dup3\n        /* \"#utility.yul\":82:119   */\n      mstore\n        /* \"#utility.yul\":7:125   */\n      pop\n      pop\n      jump\t// out\n        /* \"#utility.yul\":131:278   */\n    tag_23:\n        /* \"#utility.yul\":226:271   */\n      tag_25\n        /* \"#utility.yul\":265:270   */\n      dup2\n        /* \"#utility.yul\":226:271   */\n      tag_26\n      jump\t// in\n    tag_25:\n        /* \"#utility.yul\":221:224   */\n      dup3\n        /* \"#utility.yul\":214:272   */\n      mstore\n        /* \"#utility.yul\":131:278   */\n      pop\n      pop\n      jump\t// out\n        /* \"#utility.yul\":284:402   */\n    tag_27:\n        /* \"#utility.yul\":371:395   */\n      tag_29\n        /* \"#utility.yul\":389:394   */\n      dup2\n        /* \"#utility.yul\":371:395   */\n      tag_30\n      jump\t// in\n    tag_29:\n        /* \"#utility.yul\":366:369   */\n      dup3\n        /* \"#utility.yul\":359:396   */\n      mstore\n        /* \"#utility.yul\":284:402   */\n      pop\n      pop\n      jump\t// out\n        /* \"#utility.yul\":408:630   */\n    tag_9:\n        /* \"#utility.yul\":501:505   */\n      0x00\n        /* \"#utility.yul\":539:541   */\n      0x20\n        /* \"#utility.yul\":528:537   */\n      dup3\n        /* \"#utility.yul\":524:542   */\n      add\n        /* \"#utility.yul\":516:542   */\n      swap1\n      pop\n        /* \"#utility.yul\":552:623   */\n      tag_32\n        /* \"#utility.yul\":620:621   */\n      0x00\n        /* \"#utility.yul\":609:618   */\n      dup4\n        /* \"#utility.yul\":605:622   */\n      add\n        /* \"#utility.yul\":596:602   */\n      dup5\n        /* \"#utility.yul\":552:623   */\n      tag_19\n      jump\t// in\n    tag_32:\n        /* \"#utility.yul\":408:630   */\n      swap3\n      swap2\n      pop\n      pop\n      jump\t// out\n        /* \"#utility.yul\":636:874   */\n    tag_13:\n        /* \"#utility.yul\":737:741   */\n      0x00\n        /* \"#utility.yul\":775:777   */\n      0x20\n        /* \"#utility.yul\":764:773   */\n      dup3\n        /* \"#utility.yul\":760:778   */\n      add\n        /* \"#utility.yul\":752:778   */\n      swap1\n      pop\n        /* \"#utility.yul\":788:867   */\n      tag_34\n        /* \"#utility.yul\":864:865   */\n      0x00\n        /* \"#utility.yul\":853:862   */\n      dup4\n        /* \"#utility.yul\":849:866   */\n      add\n        /* \"#utility.yul\":840:846   */\n      dup5\n        /* \"#utility.yul\":788:867   */\n      tag_23\n      jump\t// in\n    tag_34:\n        /* \"#utility.yul\":636:874   */\n      swap3\n      swap2\n      pop\n      pop\n      jump\t// out\n        /* \"#utility.yul\":880:1102   */\n    tag_17:\n        /* \"#utility.yul\":973:977   */\n      0x00\n        /* \"#utility.yul\":1011:1013   */\n      0x20\n        /* \"#utility.yul\":1000:1009   */\n      dup3\n        /* \"#utility.yul\":996:1014   */\n      add\n        /* \"#utility.yul\":988:1014   */\n      swap1\n      pop\n        /* \"#utility.yul\":1024:1095   */\n      tag_36\n        /* \"#utility.yul\":1092:1093   */\n      0x00\n        /* \"#utility.yul\":1081:1090   */\n      dup4\n        /* \"#utility.yul\":1077:1094   */\n      add\n        /* \"#utility.yul\":1068:1074   */\n      dup5\n        /* \"#utility.yul\":1024:1095   */\n      tag_27\n      jump\t// in\n    tag_36:\n        /* \"#utility.yul\":880:1102   */\n      swap3\n      swap2\n      pop\n      pop\n      jump\t// out\n        /* \"#utility.yul\":1108:1204   */\n    tag_22:\n        /* \"#utility.yul\":1145:1152   */\n      0x00\n        /* \"#utility.yul\":1174:1198   */\n      tag_38\n        /* \"#utility.yul\":1192:1197   */\n      dup3\n        /* \"#utility.yul\":1174:1198   */\n      tag_39\n      jump\t// in\n    tag_38:\n        /* \"#utility.yul\":1163:1198   */\n      swap1\n      pop\n        /* \"#utility.yul\":1108:1204   */\n      swap2\n      swap1\n      pop\n      jump\t// out\n        /* \"#utility.yul\":1210:1336   */\n    tag_39:\n        /* \"#utility.yul\":1247:1254   */\n      0x00\n        /* \"#utility.yul\":1287:1329   */\n      0xffffffffffffffffffffffffffffffffffffffff\n        /* \"#utility.yul\":1280:1285   */\n      dup3\n        /* \"#utility.yul\":1276:1330   */\n      and\n        /* \"#utility.yul\":1265:1330   */\n      swap1\n      pop\n        /* \"#utility.yul\":1210:1336   */\n      swap2\n      swap1\n      pop\n      jump\t// out\n        /* \"#utility.yul\":1342:1419   */\n    tag_30:\n        /* \"#utility.yul\":1379:1386   */\n      0x00\n        /* \"#utility.yul\":1408:1413   */\n      dup2\n        /* \"#utility.yul\":1397:1413   */\n      swap1\n      pop\n        /* \"#utility.yul\":1342:1419   */\n      swap2\n      swap1\n      pop\n      jump\t// out\n        /* \"#utility.yul\":1425:1559   */\n    tag_26:\n        /* \"#utility.yul\":1483:1492   */\n      0x00\n        /* \"#utility.yul\":1516:1553   */\n      tag_43\n        /* \"#utility.yul\":1547:1552   */\n      dup3\n        /* \"#utility.yul\":1516:1553   */\n      tag_44\n      jump\t// in\n    tag_43:\n        /* \"#utility.yul\":1503:1553   */\n      swap1\n      pop\n        /* \"#utility.yul\":1425:1559   */\n      swap2\n      swap1\n      pop\n      jump\t// out\n        /* \"#utility.yul\":1565:1691   */\n    tag_44:\n        /* \"#utility.yul\":1615:1624   */\n      0x00\n        /* \"#utility.yul\":1648:1685   */\n      tag_46\n        /* \"#utility.yul\":1679:1684   */\n      dup3\n        /* \"#utility.yul\":1648:1685   */\n      tag_47\n      jump\t// in\n    tag_46:\n        /* \"#utility.yul\":1635:1685   */\n      swap1\n      pop\n        /* \"#utility.yul\":1565:1691   */\n      swap2\n      swap1\n      pop\n      jump\t// out\n        /* \"#utility.yul\":1697:1810   */\n    tag_47:\n        /* \"#utility.yul\":1747:1756   */\n      0x00\n        /* \"#utility.yul\":1780:1804   */\n      tag_49\n        /* \"#utility.yul\":1798:1803   */\n      dup3\n        /* \"#utility.yul\":1780:1804   */\n      tag_39\n      jump\t// in\n    tag_49:\n        /* \"#utility.yul\":1767:1804   */\n      swap1\n      pop\n        /* \"#utility.yul\":1697:1810   */\n      swap2\n      swap1\n      pop\n      jump\t// out\n\n    auxdata: 0xa264697066735822122079a184186fa7faa6f9376de1d291951061ec7fc8ad49eba5a730d477258f187e64736f6c63430008070033\n}\n\nsub_1: assembly {\n        /* \"contracts/visibility.sol\":74:666  contract A {\r... */\n      mstore(0x40, 0x80)\n        /* \"contracts/visibility.sol\":108:110  25 */\n      0x19\n        /* \"contracts/visibility.sol\":92:110  uint public x = 25 */\n      0x00\n      sstore\n        /* \"contracts/visibility.sol\":126:128  12 */\n      0x0c\n        /* \"contracts/visibility.sol\":117:128  uint y = 12 */\n      0x01\n      sstore\n        /* \"contracts/visibility.sol\":74:666  contract A {\r... */\n      callvalue\n      dup1\n      iszero\n      tag_1\n      jumpi\n      0x00\n      dup1\n      revert\n    tag_1:\n      pop\n      dataSize(sub_0)\n      dup1\n      dataOffset(sub_0)\n      0x00\n      codecopy\n      0x00\n      return\n    stop\n\n    sub_0: assembly {\n            /* \"contracts/visibility.sol\":74:666  contract A {\r... */\n          mstore(0x40, 0x80)\n          callvalue\n          dup1\n          iszero\n          tag_1\n          jumpi\n          0x00\n          dup1\n          revert\n        tag_1:\n          pop\n          jumpi(tag_2, lt(calldatasize, 0x04))\n          shr(0xe0, calldataload(0x00))\n          dup1\n          0x0c55699c\n          eq\n          tag_3\n          jumpi\n          dup1\n          0x28d69c6d\n          eq\n          tag_4\n          jumpi\n          dup1\n          0x9942ec6f\n          eq\n          tag_5\n          jumpi\n          dup1\n          0xc3f90202\n          eq\n          tag_6\n          jumpi\n        tag_2:\n          0x00\n          dup1\n          revert\n            /* \"contracts/visibility.sol\":92:110  uint public x = 25 */\n        tag_3:\n          tag_7\n          tag_8\n          jump\t// in\n        tag_7:\n          mload(0x40)\n          tag_9\n          swap2\n          swap1\n          tag_10\n          jump\t// in\n        tag_9:\n          mload(0x40)\n          dup1\n          swap2\n          sub\n          swap1\n          return\n            /* \"contracts/visibility.sol\":137:206  function get_y() public view returns(uint){\r... */\n        tag_4:\n          tag_11\n          tag_12\n          jump\t// in\n        tag_11:\n          mload(0x40)\n          tag_13\n          swap2\n          swap1\n          tag_10\n          jump\t// in\n        tag_13:\n          mload(0x40)\n          dup1\n          swap2\n          sub\n          swap1\n          return\n            /* \"contracts/visibility.sol\":289:379  function f2() public view returns(uint){\r... */\n        tag_5:\n          tag_14\n          tag_15\n          jump\t// in\n        tag_14:\n          mload(0x40)\n          tag_16\n          swap2\n          swap1\n          tag_10\n          jump\t// in\n        tag_16:\n          mload(0x40)\n          dup1\n          swap2\n          sub\n          swap1\n          return\n            /* \"contracts/visibility.sol\":595:663  function f4() external view returns(uint){\r... */\n        tag_6:\n          tag_17\n          tag_18\n          jump\t// in\n        tag_17:\n          mload(0x40)\n          tag_19\n          swap2\n          swap1\n          tag_10\n          jump\t// in\n        tag_19:\n          mload(0x40)\n          dup1\n          swap2\n          sub\n          swap1\n          return\n            /* \"contracts/visibility.sol\":92:110  uint public x = 25 */\n        tag_8:\n          sload(0x00)\n          dup2\n          jump\t// out\n            /* \"contracts/visibility.sol\":137:206  function get_y() public view returns(uint){\r... */\n        tag_12:\n            /* \"contracts/visibility.sol\":174:178  uint */\n          0x00\n            /* \"contracts/visibility.sol\":197:198  y */\n          sload(0x01)\n            /* \"contracts/visibility.sol\":190:198  return y */\n          swap1\n          pop\n            /* \"contracts/visibility.sol\":137:206  function get_y() public view returns(uint){\r... */\n          swap1\n          jump\t// out\n            /* \"contracts/visibility.sol\":289:379  function f2() public view returns(uint){\r... */\n        tag_15:\n            /* \"contracts/visibility.sol\":323:327  uint */\n          0x00\n            /* \"contracts/visibility.sol\":339:345  uint a */\n          dup1\n            /* \"contracts/visibility.sol\":348:352  f1() */\n          tag_22\n            /* \"contracts/visibility.sol\":348:350  f1 */\n          tag_23\n            /* \"contracts/visibility.sol\":348:352  f1() */\n          jump\t// in\n        tag_22:\n            /* \"contracts/visibility.sol\":339:352  uint a = f1() */\n          swap1\n          pop\n            /* \"contracts/visibility.sol\":370:371  a */\n          dup1\n            /* \"contracts/visibility.sol\":363:371  return a */\n          swap2\n          pop\n          pop\n            /* \"contracts/visibility.sol\":289:379  function f2() public view returns(uint){\r... */\n          swap1\n          jump\t// out\n            /* \"contracts/visibility.sol\":595:663  function f4() external view returns(uint){\r... */\n        tag_18:\n            /* \"contracts/visibility.sol\":631:635  uint */\n          0x00\n            /* \"contracts/visibility.sol\":654:655  x */\n          dup1\n          sload\n            /* \"contracts/visibility.sol\":647:655  return x */\n          swap1\n          pop\n            /* \"contracts/visibility.sol\":595:663  function f4() external view returns(uint){\r... */\n          swap1\n          jump\t// out\n            /* \"contracts/visibility.sol\":214:281  function f1() private view returns(uint){\r... */\n        tag_23:\n            /* \"contracts/visibility.sol\":249:253  uint */\n          0x00\n            /* \"contracts/visibility.sol\":272:273  x */\n          dup1\n          sload\n            /* \"contracts/visibility.sol\":265:273  return x */\n          swap1\n          pop\n            /* \"contracts/visibility.sol\":214:281  function f1() private view returns(uint){\r... */\n          swap1\n          jump\t// out\n            /* \"#utility.yul\":7:125   */\n        tag_27:\n            /* \"#utility.yul\":94:118   */\n          tag_29\n            /* \"#utility.yul\":112:117   */\n          dup2\n            /* \"#utility.yul\":94:118   */\n          tag_30\n          jump\t// in\n        tag_29:\n            /* \"#utility.yul\":89:92   */\n          dup3\n            /* \"#utility.yul\":82:119   */\n          mstore\n            /* \"#utility.yul\":7:125   */\n          pop\n          pop\n          jump\t// out\n            /* \"#utility.yul\":131:353   */\n        tag_10:\n            /* \"#utility.yul\":224:228   */\n          0x00\n            /* \"#utility.yul\":262:264   */\n          0x20\n            /* \"#utility.yul\":251:260   */\n          dup3\n            /* \"#utility.yul\":247:265   */\n          add\n            /* \"#utility.yul\":239:265   */\n          swap1\n          pop\n            /* \"#utility.yul\":275:346   */\n          tag_32\n            /* \"#utility.yul\":343:344   */\n          0x00\n            /* \"#utility.yul\":332:341   */\n          dup4\n            /* \"#utility.yul\":328:345   */\n          add\n            /* \"#utility.yul\":319:325   */\n          dup5\n            /* \"#utility.yul\":275:346   */\n          tag_27\n          jump\t// in\n        tag_32:\n            /* \"#utility.yul\":131:353   */\n          swap3\n          swap2\n          pop\n          pop\n          jump\t// out\n            /* \"#utility.yul\":359:436   */\n        tag_30:\n            /* \"#utility.yul\":396:403   */\n          0x00\n            /* \"#utility.yul\":425:430   */\n          dup2\n            /* \"#utility.yul\":414:430   */\n          swap1\n          pop\n            /* \"#utility.yul\":359:436   */\n          swap2\n          swap1\n          pop\n          jump\t// out\n\n        auxdata: 0xa2646970667358221220863d2915107d1c540c0e76ed297a842b06a5da11eac8bd432643433b1dfbcddc64736f6c63430008070033\n    }\n}\n",
				"bytecode": {
					"linkReferences": {},
					"object": "608060405260405161001090610180565b604051809103906000f08015801561002c573d6000803e3d6000fd5b506000806101000a81548173ffffffffffffffffffffffffffffffffffffffff021916908373ffffffffffffffffffffffffffffffffffffffff16021790555060008054906101000a900473ffffffffffffffffffffffffffffffffffffffff16600160006101000a81548173ffffffffffffffffffffffffffffffffffffffff021916908373ffffffffffffffffffffffffffffffffffffffff16021790555060008054906101000a900473ffffffffffffffffffffffffffffffffffffffff1673ffffffffffffffffffffffffffffffffffffffff1663c3f902026040518163ffffffff1660e01b815260040160206040518083038186803b15801561013357600080fd5b505afa158015610147573d6000803e3d6000fd5b505050506040513d601f19601f8201168201806040525081019061016b91906101a2565b60025534801561017a57600080fd5b506101f5565b6101938061041a83390190565b60008151905061019c816101de565b92915050565b6000602082840312156101b8576101b76101d9565b5b60006101c68482850161018d565b91505092915050565b6000819050919050565b600080fd5b6101e7816101cf565b81146101f257600080fd5b50565b610216806102046000396000f3fe608060405234801561001057600080fd5b50600436106100415760003560e01c80630dbe671f14610046578063605b85ad14610064578063ef84b88e14610082575b600080fd5b61004e6100a0565b60405161005b919061011d565b60405180910390f35b61006c6100c6565b6040516100799190610138565b60405180910390f35b61008a6100ea565b6040516100979190610153565b60405180910390f35b600160009054906101000a900473ffffffffffffffffffffffffffffffffffffffff1681565b60008054906101000a900473ffffffffffffffffffffffffffffffffffffffff1681565b60025481565b6100f98161016e565b82525050565b610108816101aa565b82525050565b610117816101a0565b82525050565b600060208201905061013260008301846100f0565b92915050565b600060208201905061014d60008301846100ff565b92915050565b6000602082019050610168600083018461010e565b92915050565b600061017982610180565b9050919050565b600073ffffffffffffffffffffffffffffffffffffffff82169050919050565b6000819050919050565b60006101b5826101bc565b9050919050565b60006101c7826101ce565b9050919050565b60006101d982610180565b905091905056fea264697066735822122079a184186fa7faa6f9376de1d291951061ec7fc8ad49eba5a730d477258f187e64736f6c6343000807003360806040526019600055600c60015534801561001a57600080fd5b506101698061002a6000396000f3fe608060405234801561001057600080fd5b506004361061004c5760003560e01c80630c55699c1461005157806328d69c6d1461006f5780639942ec6f1461008d578063c3f90202146100ab575b600080fd5b6100596100c9565b604051610066919061010e565b60405180910390f35b6100776100cf565b604051610084919061010e565b60405180910390f35b6100956100d9565b6040516100a2919061010e565b60405180910390f35b6100b36100ed565b6040516100c0919061010e565b60405180910390f35b60005481565b6000600154905090565b6000806100e46100f6565b90508091505090565b60008054905090565b60008054905090565b61010881610129565b82525050565b600060208201905061012360008301846100ff565b92915050565b600081905091905056fea2646970667358221220863d2915107d1c540c0e76ed297a842b06a5da11eac8bd432643433b1dfbcddc64736f6c63430008070033",
					"opcodes": "PUSH1 0x80 PUSH1 0x40 MSTORE PUSH1 0x40 MLOAD PUSH2 0x10 SWAP1 PUSH2 0x180 JUMP JUMPDEST PUSH1 0x40 MLOAD DUP1 SWAP2 SUB SWAP1 PUSH1 0x0 CREATE DUP1 ISZERO DUP1 ISZERO PUSH2 0x2C JUMPI RETURNDATASIZE PUSH1 0x0 DUP1 RETURNDATACOPY RETURNDATASIZE PUSH1 0x0 REVERT JUMPDEST POP PUSH1 0x0 DUP1 PUSH2 0x100 EXP DUP2 SLOAD DUP2 PUSH20 0xFFFFFFFFFFFFFFFFFFFFFFFFFFFFFFFFFFFFFFFF MUL NOT AND SWAP1 DUP4 PUSH20 0xFFFFFFFFFFFFFFFFFFFFFFFFFFFFFFFFFFFFFFFF AND MUL OR SWAP1 SSTORE POP PUSH1 0x0 DUP1 SLOAD SWAP1 PUSH2 0x100 EXP SWAP1 DIV PUSH20 0xFFFFFFFFFFFFFFFFFFFFFFFFFFFFFFFFFFFFFFFF AND PUSH1 0x1 PUSH1 0x0 PUSH2 0x100 EXP DUP2 SLOAD DUP2 PUSH20 0xFFFFFFFFFFFFFFFFFFFFFFFFFFFFFFFFFFFFFFFF MUL NOT AND SWAP1 DUP4 PUSH20 0xFFFFFFFFFFFFFFFFFFFFFFFFFFFFFFFFFFFFFFFF AND MUL OR SWAP1 SSTORE POP PUSH1 0x0 DUP1 SLOAD SWAP1 PUSH2 0x100 EXP SWAP1 DIV PUSH20 0xFFFFFFFFFFFFFFFFFFFFFFFFFFFFFFFFFFFFFFFF AND PUSH20 0xFFFFFFFFFFFFFFFFFFFFFFFFFFFFFFFFFFFFFFFF AND PUSH4 0xC3F90202 PUSH1 0x40 MLOAD DUP2 PUSH4 0xFFFFFFFF AND PUSH1 0xE0 SHL DUP2 MSTORE PUSH1 0x4 ADD PUSH1 0x20 PUSH1 0x40 MLOAD DUP1 DUP4 SUB DUP2 DUP7 DUP1 EXTCODESIZE ISZERO DUP1 ISZERO PUSH2 0x133 JUMPI PUSH1 0x0 DUP1 REVERT JUMPDEST POP GAS STATICCALL ISZERO DUP1 ISZERO PUSH2 0x147 JUMPI RETURNDATASIZE PUSH1 0x0 DUP1 RETURNDATACOPY RETURNDATASIZE PUSH1 0x0 REVERT JUMPDEST POP POP POP POP PUSH1 0x40 MLOAD RETURNDATASIZE PUSH1 0x1F NOT PUSH1 0x1F DUP3 ADD AND DUP3 ADD DUP1 PUSH1 0x40 MSTORE POP DUP2 ADD SWAP1 PUSH2 0x16B SWAP2 SWAP1 PUSH2 0x1A2 JUMP JUMPDEST PUSH1 0x2 SSTORE CALLVALUE DUP1 ISZERO PUSH2 0x17A JUMPI PUSH1 0x0 DUP1 REVERT JUMPDEST POP PUSH2 0x1F5 JUMP JUMPDEST PUSH2 0x193 DUP1 PUSH2 0x41A DUP4 CODECOPY ADD SWAP1 JUMP JUMPDEST PUSH1 0x0 DUP2 MLOAD SWAP1 POP PUSH2 0x19C DUP2 PUSH2 0x1DE JUMP JUMPDEST SWAP3 SWAP2 POP POP JUMP JUMPDEST PUSH1 0x0 PUSH1 0x20 DUP3 DUP5 SUB SLT ISZERO PUSH2 0x1B8 JUMPI PUSH2 0x1B7 PUSH2 0x1D9 JUMP JUMPDEST JUMPDEST PUSH1 0x0 PUSH2 0x1C6 DUP5 DUP3 DUP6 ADD PUSH2 0x18D JUMP JUMPDEST SWAP2 POP POP SWAP3 SWAP2 POP POP JUMP JUMPDEST PUSH1 0x0 DUP2 SWAP1 POP SWAP2 SWAP1 POP JUMP JUMPDEST PUSH1 0x0 DUP1 REVERT JUMPDEST PUSH2 0x1E7 DUP2 PUSH2 0x1CF JUMP JUMPDEST DUP2 EQ PUSH2 0x1F2 JUMPI PUSH1 0x0 DUP1 REVERT JUMPDEST POP JUMP JUMPDEST PUSH2 0x216 DUP1 PUSH2 0x204 PUSH1 0x0 CODECOPY PUSH1 0x0 RETURN INVALID PUSH1 0x80 PUSH1 0x40 MSTORE CALLVALUE DUP1 ISZERO PUSH2 0x10 JUMPI PUSH1 0x0 DUP1 REVERT JUMPDEST POP PUSH1 0x4 CALLDATASIZE LT PUSH2 0x41 JUMPI PUSH1 0x0 CALLDATALOAD PUSH1 0xE0 SHR DUP1 PUSH4 0xDBE671F EQ PUSH2 0x46 JUMPI DUP1 PUSH4 0x605B85AD EQ PUSH2 0x64 JUMPI DUP1 PUSH4 0xEF84B88E EQ PUSH2 0x82 JUMPI JUMPDEST PUSH1 0x0 DUP1 REVERT JUMPDEST PUSH2 0x4E PUSH2 0xA0 JUMP JUMPDEST PUSH1 0x40 MLOAD PUSH2 0x5B SWAP2 SWAP1 PUSH2 0x11D JUMP JUMPDEST PUSH1 0x40 MLOAD DUP1 SWAP2 SUB SWAP1 RETURN JUMPDEST PUSH2 0x6C PUSH2 0xC6 JUMP JUMPDEST PUSH1 0x40 MLOAD PUSH2 0x79 SWAP2 SWAP1 PUSH2 0x138 JUMP JUMPDEST PUSH1 0x40 MLOAD DUP1 SWAP2 SUB SWAP1 RETURN JUMPDEST PUSH2 0x8A PUSH2 0xEA JUMP JUMPDEST PUSH1 0x40 MLOAD PUSH2 0x97 SWAP2 SWAP1 PUSH2 0x153 JUMP JUMPDEST PUSH1 0x40 MLOAD DUP1 SWAP2 SUB SWAP1 RETURN JUMPDEST PUSH1 0x1 PUSH1 0x0 SWAP1 SLOAD SWAP1 PUSH2 0x100 EXP SWAP1 DIV PUSH20 0xFFFFFFFFFFFFFFFFFFFFFFFFFFFFFFFFFFFFFFFF AND DUP2 JUMP JUMPDEST PUSH1 0x0 DUP1 SLOAD SWAP1 PUSH2 0x100 EXP SWAP1 DIV PUSH20 0xFFFFFFFFFFFFFFFFFFFFFFFFFFFFFFFFFFFFFFFF AND DUP2 JUMP JUMPDEST PUSH1 0x2 SLOAD DUP2 JUMP JUMPDEST PUSH2 0xF9 DUP2 PUSH2 0x16E JUMP JUMPDEST DUP3 MSTORE POP POP JUMP JUMPDEST PUSH2 0x108 DUP2 PUSH2 0x1AA JUMP JUMPDEST DUP3 MSTORE POP POP JUMP JUMPDEST PUSH2 0x117 DUP2 PUSH2 0x1A0 JUMP JUMPDEST DUP3 MSTORE POP POP JUMP JUMPDEST PUSH1 0x0 PUSH1 0x20 DUP3 ADD SWAP1 POP PUSH2 0x132 PUSH1 0x0 DUP4 ADD DUP5 PUSH2 0xF0 JUMP JUMPDEST SWAP3 SWAP2 POP POP JUMP JUMPDEST PUSH1 0x0 PUSH1 0x20 DUP3 ADD SWAP1 POP PUSH2 0x14D PUSH1 0x0 DUP4 ADD DUP5 PUSH2 0xFF JUMP JUMPDEST SWAP3 SWAP2 POP POP JUMP JUMPDEST PUSH1 0x0 PUSH1 0x20 DUP3 ADD SWAP1 POP PUSH2 0x168 PUSH1 0x0 DUP4 ADD DUP5 PUSH2 0x10E JUMP JUMPDEST SWAP3 SWAP2 POP POP JUMP JUMPDEST PUSH1 0x0 PUSH2 0x179 DUP3 PUSH2 0x180 JUMP JUMPDEST SWAP1 POP SWAP2 SWAP1 POP JUMP JUMPDEST PUSH1 0x0 PUSH20 0xFFFFFFFFFFFFFFFFFFFFFFFFFFFFFFFFFFFFFFFF DUP3 AND SWAP1 POP SWAP2 SWAP1 POP JUMP JUMPDEST PUSH1 0x0 DUP2 SWAP1 POP SWAP2 SWAP1 POP JUMP JUMPDEST PUSH1 0x0 PUSH2 0x1B5 DUP3 PUSH2 0x1BC JUMP JUMPDEST SWAP1 POP SWAP2 SWAP1 POP JUMP JUMPDEST PUSH1 0x0 PUSH2 0x1C7 DUP3 PUSH2 0x1CE JUMP JUMPDEST SWAP1 POP SWAP2 SWAP1 POP JUMP JUMPDEST PUSH1 0x0 PUSH2 0x1D9 DUP3 PUSH2 0x180 JUMP JUMPDEST SWAP1 POP SWAP2 SWAP1 POP JUMP INVALID LOG2 PUSH5 0x6970667358 0x22 SLT KECCAK256 PUSH26 0xA184186FA7FAA6F9376DE1D291951061EC7FC8AD49EBA5A730D4 PUSH24 0x258F187E64736F6C63430008070033608060405260196000 SSTORE PUSH1 0xC PUSH1 0x1 SSTORE CALLVALUE DUP1 ISZERO PUSH2 0x1A JUMPI PUSH1 0x0 DUP1 REVERT JUMPDEST POP PUSH2 0x169 DUP1 PUSH2 0x2A PUSH1 0x0 CODECOPY PUSH1 0x0 RETURN INVALID PUSH1 0x80 PUSH1 0x40 MSTORE CALLVALUE DUP1 ISZERO PUSH2 0x10 JUMPI PUSH1 0x0 DUP1 REVERT JUMPDEST POP PUSH1 0x4 CALLDATASIZE LT PUSH2 0x4C JUMPI PUSH1 0x0 CALLDATALOAD PUSH1 0xE0 SHR DUP1 PUSH4 0xC55699C EQ PUSH2 0x51 JUMPI DUP1 PUSH4 0x28D69C6D EQ PUSH2 0x6F JUMPI DUP1 PUSH4 0x9942EC6F EQ PUSH2 0x8D JUMPI DUP1 PUSH4 0xC3F90202 EQ PUSH2 0xAB JUMPI JUMPDEST PUSH1 0x0 DUP1 REVERT JUMPDEST PUSH2 0x59 PUSH2 0xC9 JUMP JUMPDEST PUSH1 0x40 MLOAD PUSH2 0x66 SWAP2 SWAP1 PUSH2 0x10E JUMP JUMPDEST PUSH1 0x40 MLOAD DUP1 SWAP2 SUB SWAP1 RETURN JUMPDEST PUSH2 0x77 PUSH2 0xCF JUMP JUMPDEST PUSH1 0x40 MLOAD PUSH2 0x84 SWAP2 SWAP1 PUSH2 0x10E JUMP JUMPDEST PUSH1 0x40 MLOAD DUP1 SWAP2 SUB SWAP1 RETURN JUMPDEST PUSH2 0x95 PUSH2 0xD9 JUMP JUMPDEST PUSH1 0x40 MLOAD PUSH2 0xA2 SWAP2 SWAP1 PUSH2 0x10E JUMP JUMPDEST PUSH1 0x40 MLOAD DUP1 SWAP2 SUB SWAP1 RETURN JUMPDEST PUSH2 0xB3 PUSH2 0xED JUMP JUMPDEST PUSH1 0x40 MLOAD PUSH2 0xC0 SWAP2 SWAP1 PUSH2 0x10E JUMP JUMPDEST PUSH1 0x40 MLOAD DUP1 SWAP2 SUB SWAP1 RETURN JUMPDEST PUSH1 0x0 SLOAD DUP2 JUMP JUMPDEST PUSH1 0x0 PUSH1 0x1 SLOAD SWAP1 POP SWAP1 JUMP JUMPDEST PUSH1 0x0 DUP1 PUSH2 0xE4 PUSH2 0xF6 JUMP JUMPDEST SWAP1 POP DUP1 SWAP2 POP POP SWAP1 JUMP JUMPDEST PUSH1 0x0 DUP1 SLOAD SWAP1 POP SWAP1 JUMP JUMPDEST PUSH1 0x0 DUP1 SLOAD SWAP1 POP SWAP1 JUMP JUMPDEST PUSH2 0x108 DUP2 PUSH2 0x129 JUMP JUMPDEST DUP3 MSTORE POP POP JUMP JUMPDEST PUSH1 0x0 PUSH1 0x20 DUP3 ADD SWAP1 POP PUSH2 0x123 PUSH1 0x0 DUP4 ADD DUP5 PUSH2 0xFF JUMP JUMPDEST SWAP3 SWAP2 POP POP JUMP JUMPDEST PUSH1 0x0 DUP2 SWAP1 POP SWAP2 SWAP1 POP JUMP INVALID LOG2 PUSH5 0x6970667358 0x22 SLT KECCAK256 DUP7 RETURNDATASIZE 0x29 ISZERO LT PUSH30 0x1C540C0E76ED297A842B06A5DA11EAC8BD432643433B1DFBCDDC64736F6C PUSH4 0x43000807 STOP CALLER "
				},
				"gasEstimates": {
					"creation": {
						"codeDepositCost": "106800",
						"executionCost": "infinite",
						"totalCost": "infinite"
					},
					"external": {
						"a()": "2492",
						"contract_a()": "2597",
						"xa()": "2451"
					}
				},
				"methodIdentifiers": {
					"a()": "0dbe671f",
					"contract_a()": "605b85ad",
					"xa()": "ef84b88e"
				}
			},
			"storageLayout": {
				"storage": [
					{
						"astId": 67,
						"contract": "contracts/visibility.sol:C",
						"label": "contract_a",
						"offset": 0,
						"slot": "0",
						"type": "t_contract(A)53"
					},
					{
						"astId": 73,
						"contract": "contracts/visibility.sol:C",
						"label": "a",
						"offset": 0,
						"slot": "1",
						"type": "t_address"
					},
					{
						"astId": 78,
						"contract": "contracts/visibility.sol:C",
						"label": "xa",
						"offset": 0,
						"slot": "2",
						"type": "t_uint256"
					}
				],
				"types": {
					"t_address": {
						"encoding": "inplace",
						"label": "address",
						"numberOfBytes": "20"
					},
					"t_contract(A)53": {
						"encoding": "inplace",
						"label": "contract A",
						"numberOfBytes": "20"
					},
					"t_uint256": {
						"encoding": "inplace",
						"label": "uint256",
						"numberOfBytes": "32"
					}
				}
			},
			"userdoc": {
				"kind": "user",
				"methods": {},
				"version": 1
			}
		}
	}
}