{
	"contracts/events.sol": {
		"Events": {
			"abi": [
				{
					"inputs": [],
					"name": "s1",
					"outputs": [
						{
							"internalType": "string",
							"name": "",
							"type": "string"
						}
					],
					"stateMutability": "view",
					"type": "function"
				},
				{
					"inputs": [],
					"name": "s2",
					"outputs": [
						{
							"internalType": "string",
							"name": "",
							"type": "string"
						}
					],
					"stateMutability": "view",
					"type": "function"
				},
				{
					"inputs": [],
					"name": "start",
					"outputs": [
						{
							"internalType": "string",
							"name": "",
							"type": "string"
						}
					],
					"stateMutability": "view",
					"type": "function"
				}
			],
			"devdoc": {
				"kind": "dev",
				"methods": {},
				"version": 1
			},
			"evm": {
				"assembly": "    /* \"contracts/events.sol\":74:271  contract Events{\r... */\n  mstore(0x40, 0x80)\n    /* \"contracts/events.sol\":96:119  string public s1 = \"ab\" */\n  mload(0x40)\n  dup1\n  0x40\n  add\n  0x40\n  mstore\n  dup1\n  0x02\n  dup2\n  mstore\n  0x20\n  add\n  0x6162000000000000000000000000000000000000000000000000000000000000\n  dup2\n  mstore\n  pop\n  0x00\n  swap1\n  dup1\n  mload\n  swap1\n  0x20\n  add\n  swap1\n  tag_1\n  swap3\n  swap2\n  swap1\n  tag_2\n  jump\t// in\ntag_1:\n  pop\n    /* \"contracts/events.sol\":126:149  string public s2 = \"cd\" */\n  mload(0x40)\n  dup1\n  0x40\n  add\n  0x40\n  mstore\n  dup1\n  0x02\n  dup2\n  mstore\n  0x20\n  add\n  0x6364000000000000000000000000000000000000000000000000000000000000\n  dup2\n  mstore\n  pop\n  0x01\n  swap1\n  dup1\n  mload\n  swap1\n  0x20\n  add\n  swap1\n  tag_3\n  swap3\n  swap2\n  swap1\n  tag_2\n  jump\t// in\ntag_3:\n  pop\n    /* \"contracts/events.sol\":74:271  contract Events{\r... */\n  callvalue\n  dup1\n  iszero\n  tag_4\n  jumpi\n  0x00\n  dup1\n  revert\ntag_4:\n  pop\n  jump(tag_5)\ntag_2:\n  dup3\n  dup1\n  sload\n  tag_6\n  swap1\n  tag_7\n  jump\t// in\ntag_6:\n  swap1\n  0x00\n  mstore\n  keccak256(0x00, 0x20)\n  swap1\n  0x1f\n  add\n  0x20\n  swap1\n  div\n  dup2\n  add\n  swap3\n  dup3\n  tag_9\n  jumpi\n  0x00\n  dup6\n  sstore\n  jump(tag_8)\ntag_9:\n  dup3\n  0x1f\n  lt\n  tag_10\n  jumpi\n  dup1\n  mload\n  not(0xff)\n  and\n  dup4\n  dup1\n  add\n  or\n  dup6\n  sstore\n  jump(tag_8)\ntag_10:\n  dup3\n  dup1\n  add\n  0x01\n  add\n  dup6\n  sstore\n  dup3\n  iszero\n  tag_8\n  jumpi\n  swap2\n  dup3\n  add\ntag_11:\n  dup3\n  dup2\n  gt\n  iszero\n  tag_12\n  jumpi\n  dup3\n  mload\n  dup3\n  sstore\n  swap2\n  0x20\n  add\n  swap2\n  swap1\n  0x01\n  add\n  swap1\n  jump(tag_11)\ntag_12:\ntag_8:\n  pop\n  swap1\n  pop\n  tag_13\n  swap2\n  swap1\n  tag_14\n  jump\t// in\ntag_13:\n  pop\n  swap1\n  jump\t// out\ntag_14:\ntag_15:\n  dup1\n  dup3\n  gt\n  iszero\n  tag_16\n  jumpi\n  0x00\n  dup2\n  0x00\n  swap1\n  sstore\n  pop\n  0x01\n  add\n  jump(tag_15)\ntag_16:\n  pop\n  swap1\n  jump\t// out\n    /* \"#utility.yul\":7:327   */\ntag_7:\n    /* \"#utility.yul\":51:57   */\n  0x00\n    /* \"#utility.yul\":88:89   */\n  0x02\n    /* \"#utility.yul\":82:86   */\n  dup3\n    /* \"#utility.yul\":78:90   */\n  div\n    /* \"#utility.yul\":68:90   */\n  swap1\n  pop\n    /* \"#utility.yul\":135:136   */\n  0x01\n    /* \"#utility.yul\":129:133   */\n  dup3\n    /* \"#utility.yul\":125:137   */\n  and\n    /* \"#utility.yul\":156:174   */\n  dup1\n    /* \"#utility.yul\":146:227   */\n  tag_19\n  jumpi\n    /* \"#utility.yul\":212:216   */\n  0x7f\n    /* \"#utility.yul\":204:210   */\n  dup3\n    /* \"#utility.yul\":200:217   */\n  and\n    /* \"#utility.yul\":190:217   */\n  swap2\n  pop\n    /* \"#utility.yul\":146:227   */\ntag_19:\n    /* \"#utility.yul\":274:276   */\n  0x20\n    /* \"#utility.yul\":266:272   */\n  dup3\n    /* \"#utility.yul\":263:277   */\n  lt\n    /* \"#utility.yul\":243:261   */\n  dup2\n    /* \"#utility.yul\":240:278   */\n  eq\n    /* \"#utility.yul\":237:321   */\n  iszero\n  tag_20\n  jumpi\n    /* \"#utility.yul\":293:311   */\n  tag_21\n  tag_22\n  jump\t// in\ntag_21:\n    /* \"#utility.yul\":237:321   */\ntag_20:\n    /* \"#utility.yul\":58:327   */\n  pop\n    /* \"#utility.yul\":7:327   */\n  swap2\n  swap1\n  pop\n  jump\t// out\n    /* \"#utility.yul\":333:513   */\ntag_22:\n    /* \"#utility.yul\":381:458   */\n  0x4e487b7100000000000000000000000000000000000000000000000000000000\n    /* \"#utility.yul\":378:379   */\n  0x00\n    /* \"#utility.yul\":371:459   */\n  mstore\n    /* \"#utility.yul\":478:482   */\n  0x22\n    /* \"#utility.yul\":475:476   */\n  0x04\n    /* \"#utility.yul\":468:483   */\n  mstore\n    /* \"#utility.yul\":502:506   */\n  0x24\n    /* \"#utility.yul\":499:500   */\n  0x00\n    /* \"#utility.yul\":492:507   */\n  revert\n    /* \"contracts/events.sol\":74:271  contract Events{\r... */\ntag_5:\n  dataSize(sub_0)\n  dup1\n  dataOffset(sub_0)\n  0x00\n  codecopy\n  0x00\n  return\nstop\n\nsub_0: assembly {\n        /* \"contracts/events.sol\":74:271  contract Events{\r... */\n      mstore(0x40, 0x80)\n      callvalue\n      dup1\n      iszero\n      tag_1\n      jumpi\n      0x00\n      dup1\n      revert\n    tag_1:\n      pop\n      jumpi(tag_2, lt(calldatasize, 0x04))\n      shr(0xe0, calldataload(0x00))\n      dup1\n      0x6cc014de\n      eq\n      tag_3\n      jumpi\n      dup1\n      0xa314150f\n      eq\n      tag_4\n      jumpi\n      dup1\n      0xbe9a6555\n      eq\n      tag_5\n      jumpi\n    tag_2:\n      0x00\n      dup1\n      revert\n        /* \"contracts/events.sol\":96:119  string public s1 = \"ab\" */\n    tag_3:\n      tag_6\n      tag_7\n      jump\t// in\n    tag_6:\n      mload(0x40)\n      tag_8\n      swap2\n      swap1\n      tag_9\n      jump\t// in\n    tag_8:\n      mload(0x40)\n      dup1\n      swap2\n      sub\n      swap1\n      return\n        /* \"contracts/events.sol\":126:149  string public s2 = \"cd\" */\n    tag_4:\n      tag_10\n      tag_11\n      jump\t// in\n    tag_10:\n      mload(0x40)\n      tag_12\n      swap2\n      swap1\n      tag_9\n      jump\t// in\n    tag_12:\n      mload(0x40)\n      dup1\n      swap2\n      sub\n      swap1\n      return\n        /* \"contracts/events.sol\":158:268  function start() public view returns(string memory) {\r... */\n    tag_5:\n      tag_13\n      tag_14\n      jump\t// in\n    tag_13:\n      mload(0x40)\n      tag_15\n      swap2\n      swap1\n      tag_9\n      jump\t// in\n    tag_15:\n      mload(0x40)\n      dup1\n      swap2\n      sub\n      swap1\n      return\n        /* \"contracts/events.sol\":96:119  string public s1 = \"ab\" */\n    tag_7:\n      0x00\n      dup1\n      sload\n      tag_16\n      swap1\n      tag_17\n      jump\t// in\n    tag_16:\n      dup1\n      0x1f\n      add\n      0x20\n      dup1\n      swap2\n      div\n      mul\n      0x20\n      add\n      mload(0x40)\n      swap1\n      dup2\n      add\n      0x40\n      mstore\n      dup1\n      swap3\n      swap2\n      swap1\n      dup2\n      dup2\n      mstore\n      0x20\n      add\n      dup3\n      dup1\n      sload\n      tag_18\n      swap1\n      tag_17\n      jump\t// in\n    tag_18:\n      dup1\n      iszero\n      tag_19\n      jumpi\n      dup1\n      0x1f\n      lt\n      tag_20\n      jumpi\n      0x0100\n      dup1\n      dup4\n      sload\n      div\n      mul\n      dup4\n      mstore\n      swap2\n      0x20\n      add\n      swap2\n      jump(tag_19)\n    tag_20:\n      dup3\n      add\n      swap2\n      swap1\n      0x00\n      mstore\n      keccak256(0x00, 0x20)\n      swap1\n    tag_21:\n      dup2\n      sload\n      dup2\n      mstore\n      swap1\n      0x01\n      add\n      swap1\n      0x20\n      add\n      dup1\n      dup4\n      gt\n      tag_21\n      jumpi\n      dup3\n      swap1\n      sub\n      0x1f\n      and\n      dup3\n      add\n      swap2\n    tag_19:\n      pop\n      pop\n      pop\n      pop\n      pop\n      dup2\n      jump\t// out\n        /* \"contracts/events.sol\":126:149  string public s2 = \"cd\" */\n    tag_11:\n      0x01\n      dup1\n      sload\n      tag_22\n      swap1\n      tag_17\n      jump\t// in\n    tag_22:\n      dup1\n      0x1f\n      add\n      0x20\n      dup1\n      swap2\n      div\n      mul\n      0x20\n      add\n      mload(0x40)\n      swap1\n      dup2\n      add\n      0x40\n      mstore\n      dup1\n      swap3\n      swap2\n      swap1\n      dup2\n      dup2\n      mstore\n      0x20\n      add\n      dup3\n      dup1\n      sload\n      tag_23\n      swap1\n      tag_17\n      jump\t// in\n    tag_23:\n      dup1\n      iszero\n      tag_24\n      jumpi\n      dup1\n      0x1f\n      lt\n      tag_25\n      jumpi\n      0x0100\n      dup1\n      dup4\n      sload\n      div\n      mul\n      dup4\n      mstore\n      swap2\n      0x20\n      add\n      swap2\n      jump(tag_24)\n    tag_25:\n      dup3\n      add\n      swap2\n      swap1\n      0x00\n      mstore\n      keccak256(0x00, 0x20)\n      swap1\n    tag_26:\n      dup2\n      sload\n      dup2\n      mstore\n      swap1\n      0x01\n      add\n      swap1\n      0x20\n      add\n      dup1\n      dup4\n      gt\n      tag_26\n      jumpi\n      dup3\n      swap1\n      sub\n      0x1f\n      and\n      dup3\n      add\n      swap2\n    tag_24:\n      pop\n      pop\n      pop\n      pop\n      pop\n      dup2\n      jump\t// out\n        /* \"contracts/events.sol\":158:268  function start() public view returns(string memory) {\r... */\n    tag_14:\n        /* \"contracts/events.sol\":195:208  string memory */\n      0x60\n        /* \"contracts/events.sol\":252:254  s1 */\n      0x00\n        /* \"contracts/events.sol\":256:258  s2 */\n      0x01\n        /* \"contracts/events.sol\":235:259  abi.encodePacked(s1, s2) */\n      add(0x20, mload(0x40))\n      tag_28\n      swap3\n      swap2\n      swap1\n      tag_29\n      jump\t// in\n    tag_28:\n      mload(0x40)\n      0x20\n      dup2\n      dup4\n      sub\n      sub\n      dup2\n      mstore\n      swap1\n      0x40\n      mstore\n        /* \"contracts/events.sol\":221:260  return string(abi.encodePacked(s1, s2)) */\n      swap1\n      pop\n        /* \"contracts/events.sol\":158:268  function start() public view returns(string memory) {\r... */\n      swap1\n      jump\t// out\n        /* \"#utility.yul\":7:371   */\n    tag_31:\n        /* \"#utility.yul\":95:98   */\n      0x00\n        /* \"#utility.yul\":123:162   */\n      tag_33\n        /* \"#utility.yul\":156:161   */\n      dup3\n        /* \"#utility.yul\":123:162   */\n      tag_34\n      jump\t// in\n    tag_33:\n        /* \"#utility.yul\":178:249   */\n      tag_35\n        /* \"#utility.yul\":242:248   */\n      dup2\n        /* \"#utility.yul\":237:240   */\n      dup6\n        /* \"#utility.yul\":178:249   */\n      tag_36\n      jump\t// in\n    tag_35:\n        /* \"#utility.yul\":171:249   */\n      swap4\n      pop\n        /* \"#utility.yul\":258:310   */\n      tag_37\n        /* \"#utility.yul\":303:309   */\n      dup2\n        /* \"#utility.yul\":298:301   */\n      dup6\n        /* \"#utility.yul\":291:295   */\n      0x20\n        /* \"#utility.yul\":284:289   */\n      dup7\n        /* \"#utility.yul\":280:296   */\n      add\n        /* \"#utility.yul\":258:310   */\n      tag_38\n      jump\t// in\n    tag_37:\n        /* \"#utility.yul\":335:364   */\n      tag_39\n        /* \"#utility.yul\":357:363   */\n      dup2\n        /* \"#utility.yul\":335:364   */\n      tag_40\n      jump\t// in\n    tag_39:\n        /* \"#utility.yul\":330:333   */\n      dup5\n        /* \"#utility.yul\":326:365   */\n      add\n        /* \"#utility.yul\":319:365   */\n      swap2\n      pop\n        /* \"#utility.yul\":99:371   */\n      pop\n        /* \"#utility.yul\":7:371   */\n      swap3\n      swap2\n      pop\n      pop\n      jump\t// out\n        /* \"#utility.yul\":401:1246   */\n    tag_41:\n        /* \"#utility.yul\":504:507   */\n      0x00\n        /* \"#utility.yul\":541:546   */\n      dup2\n        /* \"#utility.yul\":535:547   */\n      sload\n        /* \"#utility.yul\":570:606   */\n      tag_43\n        /* \"#utility.yul\":596:605   */\n      dup2\n        /* \"#utility.yul\":570:606   */\n      tag_17\n      jump\t// in\n    tag_43:\n        /* \"#utility.yul\":622:711   */\n      tag_44\n        /* \"#utility.yul\":704:710   */\n      dup2\n        /* \"#utility.yul\":699:702   */\n      dup7\n        /* \"#utility.yul\":622:711   */\n      tag_45\n      jump\t// in\n    tag_44:\n        /* \"#utility.yul\":615:711   */\n      swap5\n      pop\n        /* \"#utility.yul\":742:743   */\n      0x01\n        /* \"#utility.yul\":731:740   */\n      dup3\n        /* \"#utility.yul\":727:744   */\n      and\n        /* \"#utility.yul\":758:759   */\n      0x00\n        /* \"#utility.yul\":753:890   */\n      dup2\n      eq\n      tag_47\n      jumpi\n        /* \"#utility.yul\":904:905   */\n      0x01\n        /* \"#utility.yul\":899:1240   */\n      dup2\n      eq\n      tag_48\n      jumpi\n        /* \"#utility.yul\":720:1240   */\n      jump(tag_46)\n        /* \"#utility.yul\":753:890   */\n    tag_47:\n        /* \"#utility.yul\":837:841   */\n      0xff\n        /* \"#utility.yul\":833:842   */\n      not\n        /* \"#utility.yul\":822:831   */\n      dup4\n        /* \"#utility.yul\":818:843   */\n      and\n        /* \"#utility.yul\":813:816   */\n      dup7\n        /* \"#utility.yul\":806:844   */\n      mstore\n        /* \"#utility.yul\":873:879   */\n      dup2\n        /* \"#utility.yul\":868:871   */\n      dup7\n        /* \"#utility.yul\":864:880   */\n      add\n        /* \"#utility.yul\":857:880   */\n      swap4\n      pop\n        /* \"#utility.yul\":753:890   */\n      jump(tag_46)\n        /* \"#utility.yul\":899:1240   */\n    tag_48:\n        /* \"#utility.yul\":966:1004   */\n      tag_49\n        /* \"#utility.yul\":998:1003   */\n      dup6\n        /* \"#utility.yul\":966:1004   */\n      tag_50\n      jump\t// in\n    tag_49:\n        /* \"#utility.yul\":1026:1027   */\n      0x00\n        /* \"#utility.yul\":1040:1194   */\n    tag_51:\n        /* \"#utility.yul\":1054:1060   */\n      dup4\n        /* \"#utility.yul\":1051:1052   */\n      dup2\n        /* \"#utility.yul\":1048:1061   */\n      lt\n        /* \"#utility.yul\":1040:1194   */\n      iszero\n      tag_53\n      jumpi\n        /* \"#utility.yul\":1128:1135   */\n      dup2\n        /* \"#utility.yul\":1122:1136   */\n      sload\n        /* \"#utility.yul\":1118:1119   */\n      dup2\n        /* \"#utility.yul\":1113:1116   */\n      dup10\n        /* \"#utility.yul\":1109:1120   */\n      add\n        /* \"#utility.yul\":1102:1137   */\n      mstore\n        /* \"#utility.yul\":1178:1179   */\n      0x01\n        /* \"#utility.yul\":1169:1176   */\n      dup3\n        /* \"#utility.yul\":1165:1180   */\n      add\n        /* \"#utility.yul\":1154:1180   */\n      swap2\n      pop\n        /* \"#utility.yul\":1076:1080   */\n      0x20\n        /* \"#utility.yul\":1073:1074   */\n      dup2\n        /* \"#utility.yul\":1069:1081   */\n      add\n        /* \"#utility.yul\":1064:1081   */\n      swap1\n      pop\n        /* \"#utility.yul\":1040:1194   */\n      jump(tag_51)\n    tag_53:\n        /* \"#utility.yul\":1223:1229   */\n      dup4\n        /* \"#utility.yul\":1218:1221   */\n      dup9\n        /* \"#utility.yul\":1214:1230   */\n      add\n        /* \"#utility.yul\":1207:1230   */\n      swap6\n      pop\n        /* \"#utility.yul\":906:1240   */\n      pop\n      pop\n        /* \"#utility.yul\":720:1240   */\n    tag_46:\n      pop\n        /* \"#utility.yul\":508:1246   */\n      pop\n      pop\n        /* \"#utility.yul\":401:1246   */\n      swap3\n      swap2\n      pop\n      pop\n      jump\t// out\n        /* \"#utility.yul\":1252:1675   */\n    tag_29:\n        /* \"#utility.yul\":1426:1429   */\n      0x00\n        /* \"#utility.yul\":1448:1540   */\n      tag_55\n        /* \"#utility.yul\":1536:1539   */\n      dup3\n        /* \"#utility.yul\":1527:1533   */\n      dup6\n        /* \"#utility.yul\":1448:1540   */\n      tag_41\n      jump\t// in\n    tag_55:\n        /* \"#utility.yul\":1441:1540   */\n      swap2\n      pop\n        /* \"#utility.yul\":1557:1649   */\n      tag_56\n        /* \"#utility.yul\":1645:1648   */\n      dup3\n        /* \"#utility.yul\":1636:1642   */\n      dup5\n        /* \"#utility.yul\":1557:1649   */\n      tag_41\n      jump\t// in\n    tag_56:\n        /* \"#utility.yul\":1550:1649   */\n      swap2\n      pop\n        /* \"#utility.yul\":1666:1669   */\n      dup2\n        /* \"#utility.yul\":1659:1669   */\n      swap1\n      pop\n        /* \"#utility.yul\":1252:1675   */\n      swap4\n      swap3\n      pop\n      pop\n      pop\n      jump\t// out\n        /* \"#utility.yul\":1681:1994   */\n    tag_9:\n        /* \"#utility.yul\":1794:1798   */\n      0x00\n        /* \"#utility.yul\":1832:1834   */\n      0x20\n        /* \"#utility.yul\":1821:1830   */\n      dup3\n        /* \"#utility.yul\":1817:1835   */\n      add\n        /* \"#utility.yul\":1809:1835   */\n      swap1\n      pop\n        /* \"#utility.yul\":1881:1890   */\n      dup2\n        /* \"#utility.yul\":1875:1879   */\n      dup2\n        /* \"#utility.yul\":1871:1891   */\n      sub\n        /* \"#utility.yul\":1867:1868   */\n      0x00\n        /* \"#utility.yul\":1856:1865   */\n      dup4\n        /* \"#utility.yul\":1852:1869   */\n      add\n        /* \"#utility.yul\":1845:1892   */\n      mstore\n        /* \"#utility.yul\":1909:1987   */\n      tag_58\n        /* \"#utility.yul\":1982:1986   */\n      dup2\n        /* \"#utility.yul\":1973:1979   */\n      dup5\n        /* \"#utility.yul\":1909:1987   */\n      tag_31\n      jump\t// in\n    tag_58:\n        /* \"#utility.yul\":1901:1987   */\n      swap1\n      pop\n        /* \"#utility.yul\":1681:1994   */\n      swap3\n      swap2\n      pop\n      pop\n      jump\t// out\n        /* \"#utility.yul\":2000:2141   */\n    tag_50:\n        /* \"#utility.yul\":2049:2053   */\n      0x00\n        /* \"#utility.yul\":2072:2075   */\n      dup2\n        /* \"#utility.yul\":2064:2075   */\n      swap1\n      pop\n        /* \"#utility.yul\":2095:2098   */\n      dup2\n        /* \"#utility.yul\":2092:2093   */\n      0x00\n        /* \"#utility.yul\":2085:2099   */\n      mstore\n        /* \"#utility.yul\":2129:2133   */\n      0x20\n        /* \"#utility.yul\":2126:2127   */\n      0x00\n        /* \"#utility.yul\":2116:2134   */\n      keccak256\n        /* \"#utility.yul\":2108:2134   */\n      swap1\n      pop\n        /* \"#utility.yul\":2000:2141   */\n      swap2\n      swap1\n      pop\n      jump\t// out\n        /* \"#utility.yul\":2147:2246   */\n    tag_34:\n        /* \"#utility.yul\":2199:2205   */\n      0x00\n        /* \"#utility.yul\":2233:2238   */\n      dup2\n        /* \"#utility.yul\":2227:2239   */\n      mload\n        /* \"#utility.yul\":2217:2239   */\n      swap1\n      pop\n        /* \"#utility.yul\":2147:2246   */\n      swap2\n      swap1\n      pop\n      jump\t// out\n        /* \"#utility.yul\":2252:2421   */\n    tag_36:\n        /* \"#utility.yul\":2336:2347   */\n      0x00\n        /* \"#utility.yul\":2370:2376   */\n      dup3\n        /* \"#utility.yul\":2365:2368   */\n      dup3\n        /* \"#utility.yul\":2358:2377   */\n      mstore\n        /* \"#utility.yul\":2410:2414   */\n      0x20\n        /* \"#utility.yul\":2405:2408   */\n      dup3\n        /* \"#utility.yul\":2401:2415   */\n      add\n        /* \"#utility.yul\":2386:2415   */\n      swap1\n      pop\n        /* \"#utility.yul\":2252:2421   */\n      swap3\n      swap2\n      pop\n      pop\n      jump\t// out\n        /* \"#utility.yul\":2427:2575   */\n    tag_45:\n        /* \"#utility.yul\":2529:2540   */\n      0x00\n        /* \"#utility.yul\":2566:2569   */\n      dup2\n        /* \"#utility.yul\":2551:2569   */\n      swap1\n      pop\n        /* \"#utility.yul\":2427:2575   */\n      swap3\n      swap2\n      pop\n      pop\n      jump\t// out\n        /* \"#utility.yul\":2581:2888   */\n    tag_38:\n        /* \"#utility.yul\":2649:2650   */\n      0x00\n        /* \"#utility.yul\":2659:2772   */\n    tag_64:\n        /* \"#utility.yul\":2673:2679   */\n      dup4\n        /* \"#utility.yul\":2670:2671   */\n      dup2\n        /* \"#utility.yul\":2667:2680   */\n      lt\n        /* \"#utility.yul\":2659:2772   */\n      iszero\n      tag_66\n      jumpi\n        /* \"#utility.yul\":2758:2759   */\n      dup1\n        /* \"#utility.yul\":2753:2756   */\n      dup3\n        /* \"#utility.yul\":2749:2760   */\n      add\n        /* \"#utility.yul\":2743:2761   */\n      mload\n        /* \"#utility.yul\":2739:2740   */\n      dup2\n        /* \"#utility.yul\":2734:2737   */\n      dup5\n        /* \"#utility.yul\":2730:2741   */\n      add\n        /* \"#utility.yul\":2723:2762   */\n      mstore\n        /* \"#utility.yul\":2695:2697   */\n      0x20\n        /* \"#utility.yul\":2692:2693   */\n      dup2\n        /* \"#utility.yul\":2688:2698   */\n      add\n        /* \"#utility.yul\":2683:2698   */\n      swap1\n      pop\n        /* \"#utility.yul\":2659:2772   */\n      jump(tag_64)\n    tag_66:\n        /* \"#utility.yul\":2790:2796   */\n      dup4\n        /* \"#utility.yul\":2787:2788   */\n      dup2\n        /* \"#utility.yul\":2784:2797   */\n      gt\n        /* \"#utility.yul\":2781:2882   */\n      iszero\n      tag_67\n      jumpi\n        /* \"#utility.yul\":2870:2871   */\n      0x00\n        /* \"#utility.yul\":2861:2867   */\n      dup5\n        /* \"#utility.yul\":2856:2859   */\n      dup5\n        /* \"#utility.yul\":2852:2868   */\n      add\n        /* \"#utility.yul\":2845:2872   */\n      mstore\n        /* \"#utility.yul\":2781:2882   */\n    tag_67:\n        /* \"#utility.yul\":2630:2888   */\n      pop\n        /* \"#utility.yul\":2581:2888   */\n      pop\n      pop\n      pop\n      jump\t// out\n        /* \"#utility.yul\":2894:3214   */\n    tag_17:\n        /* \"#utility.yul\":2938:2944   */\n      0x00\n        /* \"#utility.yul\":2975:2976   */\n      0x02\n        /* \"#utility.yul\":2969:2973   */\n      dup3\n        /* \"#utility.yul\":2965:2977   */\n      div\n        /* \"#utility.yul\":2955:2977   */\n      swap1\n      pop\n        /* \"#utility.yul\":3022:3023   */\n      0x01\n        /* \"#utility.yul\":3016:3020   */\n      dup3\n        /* \"#utility.yul\":3012:3024   */\n      and\n        /* \"#utility.yul\":3043:3061   */\n      dup1\n        /* \"#utility.yul\":3033:3114   */\n      tag_69\n      jumpi\n        /* \"#utility.yul\":3099:3103   */\n      0x7f\n        /* \"#utility.yul\":3091:3097   */\n      dup3\n        /* \"#utility.yul\":3087:3104   */\n      and\n        /* \"#utility.yul\":3077:3104   */\n      swap2\n      pop\n        /* \"#utility.yul\":3033:3114   */\n    tag_69:\n        /* \"#utility.yul\":3161:3163   */\n      0x20\n        /* \"#utility.yul\":3153:3159   */\n      dup3\n        /* \"#utility.yul\":3150:3164   */\n      lt\n        /* \"#utility.yul\":3130:3148   */\n      dup2\n        /* \"#utility.yul\":3127:3165   */\n      eq\n        /* \"#utility.yul\":3124:3208   */\n      iszero\n      tag_70\n      jumpi\n        /* \"#utility.yul\":3180:3198   */\n      tag_71\n      tag_72\n      jump\t// in\n    tag_71:\n        /* \"#utility.yul\":3124:3208   */\n    tag_70:\n        /* \"#utility.yul\":2945:3214   */\n      pop\n        /* \"#utility.yul\":2894:3214   */\n      swap2\n      swap1\n      pop\n      jump\t// out\n        /* \"#utility.yul\":3220:3400   */\n    tag_72:\n        /* \"#utility.yul\":3268:3345   */\n      0x4e487b7100000000000000000000000000000000000000000000000000000000\n        /* \"#utility.yul\":3265:3266   */\n      0x00\n        /* \"#utility.yul\":3258:3346   */\n      mstore\n        /* \"#utility.yul\":3365:3369   */\n      0x22\n        /* \"#utility.yul\":3362:3363   */\n      0x04\n        /* \"#utility.yul\":3355:3370   */\n      mstore\n        /* \"#utility.yul\":3389:3393   */\n      0x24\n        /* \"#utility.yul\":3386:3387   */\n      0x00\n        /* \"#utility.yul\":3379:3394   */\n      revert\n        /* \"#utility.yul\":3406:3508   */\n    tag_40:\n        /* \"#utility.yul\":3447:3453   */\n      0x00\n        /* \"#utility.yul\":3498:3500   */\n      0x1f\n        /* \"#utility.yul\":3494:3501   */\n      not\n        /* \"#utility.yul\":3489:3491   */\n      0x1f\n        /* \"#utility.yul\":3482:3487   */\n      dup4\n        /* \"#utility.yul\":3478:3492   */\n      add\n        /* \"#utility.yul\":3474:3502   */\n      and\n        /* \"#utility.yul\":3464:3502   */\n      swap1\n      pop\n        /* \"#utility.yul\":3406:3508   */\n      swap2\n      swap1\n      pop\n      jump\t// out\n\n    auxdata: 0xa264697066735822122098fd4b3a647f283ae80119e5fb18997a0fef00308518736b8bb6abe09758855d64736f6c63430008070033\n}\n",
				"bytecode": {
					"linkReferences": {},
					"object": "60806040526040518060400160405280600281526020017f61620000000000000000000000000000000000000000000000000000000000008152506000908051906020019061004f9291906100ae565b506040518060400160405280600281526020017f63640000000000000000000000000000000000000000000000000000000000008152506001908051906020019061009b9291906100ae565b503480156100a857600080fd5b506101b2565b8280546100ba90610151565b90600052602060002090601f0160209004810192826100dc5760008555610123565b82601f106100f557805160ff1916838001178555610123565b82800160010185558215610123579182015b82811115610122578251825591602001919060010190610107565b5b5090506101309190610134565b5090565b5b8082111561014d576000816000905550600101610135565b5090565b6000600282049050600182168061016957607f821691505b6020821081141561017d5761017c610183565b5b50919050565b7f4e487b7100000000000000000000000000000000000000000000000000000000600052602260045260246000fd5b6103fc806101c16000396000f3fe608060405234801561001057600080fd5b50600436106100415760003560e01c80636cc014de14610046578063a314150f14610064578063be9a655514610082575b600080fd5b61004e6100a0565b60405161005b91906102c3565b60405180910390f35b61006c61012e565b60405161007991906102c3565b60405180910390f35b61008a6101bc565b60405161009791906102c3565b60405180910390f35b600080546100ad90610354565b80601f01602080910402602001604051908101604052809291908181526020018280546100d990610354565b80156101265780601f106100fb57610100808354040283529160200191610126565b820191906000526020600020905b81548152906001019060200180831161010957829003601f168201915b505050505081565b6001805461013b90610354565b80601f016020809104026020016040519081016040528092919081815260200182805461016790610354565b80156101b45780601f10610189576101008083540402835291602001916101b4565b820191906000526020600020905b81548152906001019060200180831161019757829003601f168201915b505050505081565b6060600060016040516020016101d392919061029f565b604051602081830303815290604052905090565b60006101f2826102fa565b6101fc8185610305565b935061020c818560208601610321565b610215816103b5565b840191505092915050565b6000815461022d81610354565b6102378186610316565b94506001821660008114610252576001811461026357610296565b60ff19831686528186019350610296565b61026c856102e5565b60005b8381101561028e5781548189015260018201915060208101905061026f565b838801955050505b50505092915050565b60006102ab8285610220565b91506102b78284610220565b91508190509392505050565b600060208201905081810360008301526102dd81846101e7565b905092915050565b60008190508160005260206000209050919050565b600081519050919050565b600082825260208201905092915050565b600081905092915050565b60005b8381101561033f578082015181840152602081019050610324565b8381111561034e576000848401525b50505050565b6000600282049050600182168061036c57607f821691505b602082108114156103805761037f610386565b5b50919050565b7f4e487b7100000000000000000000000000000000000000000000000000000000600052602260045260246000fd5b6000601f19601f830116905091905056fea264697066735822122098fd4b3a647f283ae80119e5fb18997a0fef00308518736b8bb6abe09758855d64736f6c63430008070033",
					"opcodes": "PUSH1 0x80 PUSH1 0x40 MSTORE PUSH1 0x40 MLOAD DUP1 PUSH1 0x40 ADD PUSH1 0x40 MSTORE DUP1 PUSH1 0x2 DUP2 MSTORE PUSH1 0x20 ADD PUSH32 0x6162000000000000000000000000000000000000000000000000000000000000 DUP2 MSTORE POP PUSH1 0x0 SWAP1 DUP1 MLOAD SWAP1 PUSH1 0x20 ADD SWAP1 PUSH2 0x4F SWAP3 SWAP2 SWAP1 PUSH2 0xAE JUMP JUMPDEST POP PUSH1 0x40 MLOAD DUP1 PUSH1 0x40 ADD PUSH1 0x40 MSTORE DUP1 PUSH1 0x2 DUP2 MSTORE PUSH1 0x20 ADD PUSH32 0x6364000000000000000000000000000000000000000000000000000000000000 DUP2 MSTORE POP PUSH1 0x1 SWAP1 DUP1 MLOAD SWAP1 PUSH1 0x20 ADD SWAP1 PUSH2 0x9B SWAP3 SWAP2 SWAP1 PUSH2 0xAE JUMP JUMPDEST POP CALLVALUE DUP1 ISZERO PUSH2 0xA8 JUMPI PUSH1 0x0 DUP1 REVERT JUMPDEST POP PUSH2 0x1B2 JUMP JUMPDEST DUP3 DUP1 SLOAD PUSH2 0xBA SWAP1 PUSH2 0x151 JUMP JUMPDEST SWAP1 PUSH1 0x0 MSTORE PUSH1 0x20 PUSH1 0x0 KECCAK256 SWAP1 PUSH1 0x1F ADD PUSH1 0x20 SWAP1 DIV DUP2 ADD SWAP3 DUP3 PUSH2 0xDC JUMPI PUSH1 0x0 DUP6 SSTORE PUSH2 0x123 JUMP JUMPDEST DUP3 PUSH1 0x1F LT PUSH2 0xF5 JUMPI DUP1 MLOAD PUSH1 0xFF NOT AND DUP4 DUP1 ADD OR DUP6 SSTORE PUSH2 0x123 JUMP JUMPDEST DUP3 DUP1 ADD PUSH1 0x1 ADD DUP6 SSTORE DUP3 ISZERO PUSH2 0x123 JUMPI SWAP2 DUP3 ADD JUMPDEST DUP3 DUP2 GT ISZERO PUSH2 0x122 JUMPI DUP3 MLOAD DUP3 SSTORE SWAP2 PUSH1 0x20 ADD SWAP2 SWAP1 PUSH1 0x1 ADD SWAP1 PUSH2 0x107 JUMP JUMPDEST JUMPDEST POP SWAP1 POP PUSH2 0x130 SWAP2 SWAP1 PUSH2 0x134 JUMP JUMPDEST POP SWAP1 JUMP JUMPDEST JUMPDEST DUP1 DUP3 GT ISZERO PUSH2 0x14D JUMPI PUSH1 0x0 DUP2 PUSH1 0x0 SWAP1 SSTORE POP PUSH1 0x1 ADD PUSH2 0x135 JUMP JUMPDEST POP SWAP1 JUMP JUMPDEST PUSH1 0x0 PUSH1 0x2 DUP3 DIV SWAP1 POP PUSH1 0x1 DUP3 AND DUP1 PUSH2 0x169 JUMPI PUSH1 0x7F DUP3 AND SWAP2 POP JUMPDEST PUSH1 0x20 DUP3 LT DUP2 EQ ISZERO PUSH2 0x17D JUMPI PUSH2 0x17C PUSH2 0x183 JUMP JUMPDEST JUMPDEST POP SWAP2 SWAP1 POP JUMP JUMPDEST PUSH32 0x4E487B7100000000000000000000000000000000000000000000000000000000 PUSH1 0x0 MSTORE PUSH1 0x22 PUSH1 0x4 MSTORE PUSH1 0x24 PUSH1 0x0 REVERT JUMPDEST PUSH2 0x3FC DUP1 PUSH2 0x1C1 PUSH1 0x0 CODECOPY PUSH1 0x0 RETURN INVALID PUSH1 0x80 PUSH1 0x40 MSTORE CALLVALUE DUP1 ISZERO PUSH2 0x10 JUMPI PUSH1 0x0 DUP1 REVERT JUMPDEST POP PUSH1 0x4 CALLDATASIZE LT PUSH2 0x41 JUMPI PUSH1 0x0 CALLDATALOAD PUSH1 0xE0 SHR DUP1 PUSH4 0x6CC014DE EQ PUSH2 0x46 JUMPI DUP1 PUSH4 0xA314150F EQ PUSH2 0x64 JUMPI DUP1 PUSH4 0xBE9A6555 EQ PUSH2 0x82 JUMPI JUMPDEST PUSH1 0x0 DUP1 REVERT JUMPDEST PUSH2 0x4E PUSH2 0xA0 JUMP JUMPDEST PUSH1 0x40 MLOAD PUSH2 0x5B SWAP2 SWAP1 PUSH2 0x2C3 JUMP JUMPDEST PUSH1 0x40 MLOAD DUP1 SWAP2 SUB SWAP1 RETURN JUMPDEST PUSH2 0x6C PUSH2 0x12E JUMP JUMPDEST PUSH1 0x40 MLOAD PUSH2 0x79 SWAP2 SWAP1 PUSH2 0x2C3 JUMP JUMPDEST PUSH1 0x40 MLOAD DUP1 SWAP2 SUB SWAP1 RETURN JUMPDEST PUSH2 0x8A PUSH2 0x1BC JUMP JUMPDEST PUSH1 0x40 MLOAD PUSH2 0x97 SWAP2 SWAP1 PUSH2 0x2C3 JUMP JUMPDEST PUSH1 0x40 MLOAD DUP1 SWAP2 SUB SWAP1 RETURN JUMPDEST PUSH1 0x0 DUP1 SLOAD PUSH2 0xAD SWAP1 PUSH2 0x354 JUMP JUMPDEST DUP1 PUSH1 0x1F ADD PUSH1 0x20 DUP1 SWAP2 DIV MUL PUSH1 0x20 ADD PUSH1 0x40 MLOAD SWAP1 DUP2 ADD PUSH1 0x40 MSTORE DUP1 SWAP3 SWAP2 SWAP1 DUP2 DUP2 MSTORE PUSH1 0x20 ADD DUP3 DUP1 SLOAD PUSH2 0xD9 SWAP1 PUSH2 0x354 JUMP JUMPDEST DUP1 ISZERO PUSH2 0x126 JUMPI DUP1 PUSH1 0x1F LT PUSH2 0xFB JUMPI PUSH2 0x100 DUP1 DUP4 SLOAD DIV MUL DUP4 MSTORE SWAP2 PUSH1 0x20 ADD SWAP2 PUSH2 0x126 JUMP JUMPDEST DUP3 ADD SWAP2 SWAP1 PUSH1 0x0 MSTORE PUSH1 0x20 PUSH1 0x0 KECCAK256 SWAP1 JUMPDEST DUP2 SLOAD DUP2 MSTORE SWAP1 PUSH1 0x1 ADD SWAP1 PUSH1 0x20 ADD DUP1 DUP4 GT PUSH2 0x109 JUMPI DUP3 SWAP1 SUB PUSH1 0x1F AND DUP3 ADD SWAP2 JUMPDEST POP POP POP POP POP DUP2 JUMP JUMPDEST PUSH1 0x1 DUP1 SLOAD PUSH2 0x13B SWAP1 PUSH2 0x354 JUMP JUMPDEST DUP1 PUSH1 0x1F ADD PUSH1 0x20 DUP1 SWAP2 DIV MUL PUSH1 0x20 ADD PUSH1 0x40 MLOAD SWAP1 DUP2 ADD PUSH1 0x40 MSTORE DUP1 SWAP3 SWAP2 SWAP1 DUP2 DUP2 MSTORE PUSH1 0x20 ADD DUP3 DUP1 SLOAD PUSH2 0x167 SWAP1 PUSH2 0x354 JUMP JUMPDEST DUP1 ISZERO PUSH2 0x1B4 JUMPI DUP1 PUSH1 0x1F LT PUSH2 0x189 JUMPI PUSH2 0x100 DUP1 DUP4 SLOAD DIV MUL DUP4 MSTORE SWAP2 PUSH1 0x20 ADD SWAP2 PUSH2 0x1B4 JUMP JUMPDEST DUP3 ADD SWAP2 SWAP1 PUSH1 0x0 MSTORE PUSH1 0x20 PUSH1 0x0 KECCAK256 SWAP1 JUMPDEST DUP2 SLOAD DUP2 MSTORE SWAP1 PUSH1 0x1 ADD SWAP1 PUSH1 0x20 ADD DUP1 DUP4 GT PUSH2 0x197 JUMPI DUP3 SWAP1 SUB PUSH1 0x1F AND DUP3 ADD SWAP2 JUMPDEST POP POP POP POP POP DUP2 JUMP JUMPDEST PUSH1 0x60 PUSH1 0x0 PUSH1 0x1 PUSH1 0x40 MLOAD PUSH1 0x20 ADD PUSH2 0x1D3 SWAP3 SWAP2 SWAP1 PUSH2 0x29F JUMP JUMPDEST PUSH1 0x40 MLOAD PUSH1 0x20 DUP2 DUP4 SUB SUB DUP2 MSTORE SWAP1 PUSH1 0x40 MSTORE SWAP1 POP SWAP1 JUMP JUMPDEST PUSH1 0x0 PUSH2 0x1F2 DUP3 PUSH2 0x2FA JUMP JUMPDEST PUSH2 0x1FC DUP2 DUP6 PUSH2 0x305 JUMP JUMPDEST SWAP4 POP PUSH2 0x20C DUP2 DUP6 PUSH1 0x20 DUP7 ADD PUSH2 0x321 JUMP JUMPDEST PUSH2 0x215 DUP2 PUSH2 0x3B5 JUMP JUMPDEST DUP5 ADD SWAP2 POP POP SWAP3 SWAP2 POP POP JUMP JUMPDEST PUSH1 0x0 DUP2 SLOAD PUSH2 0x22D DUP2 PUSH2 0x354 JUMP JUMPDEST PUSH2 0x237 DUP2 DUP7 PUSH2 0x316 JUMP JUMPDEST SWAP5 POP PUSH1 0x1 DUP3 AND PUSH1 0x0 DUP2 EQ PUSH2 0x252 JUMPI PUSH1 0x1 DUP2 EQ PUSH2 0x263 JUMPI PUSH2 0x296 JUMP JUMPDEST PUSH1 0xFF NOT DUP4 AND DUP7 MSTORE DUP2 DUP7 ADD SWAP4 POP PUSH2 0x296 JUMP JUMPDEST PUSH2 0x26C DUP6 PUSH2 0x2E5 JUMP JUMPDEST PUSH1 0x0 JUMPDEST DUP4 DUP2 LT ISZERO PUSH2 0x28E JUMPI DUP2 SLOAD DUP2 DUP10 ADD MSTORE PUSH1 0x1 DUP3 ADD SWAP2 POP PUSH1 0x20 DUP2 ADD SWAP1 POP PUSH2 0x26F JUMP JUMPDEST DUP4 DUP9 ADD SWAP6 POP POP POP JUMPDEST POP POP POP SWAP3 SWAP2 POP POP JUMP JUMPDEST PUSH1 0x0 PUSH2 0x2AB DUP3 DUP6 PUSH2 0x220 JUMP JUMPDEST SWAP2 POP PUSH2 0x2B7 DUP3 DUP5 PUSH2 0x220 JUMP JUMPDEST SWAP2 POP DUP2 SWAP1 POP SWAP4 SWAP3 POP POP POP JUMP JUMPDEST PUSH1 0x0 PUSH1 0x20 DUP3 ADD SWAP1 POP DUP2 DUP2 SUB PUSH1 0x0 DUP4 ADD MSTORE PUSH2 0x2DD DUP2 DUP5 PUSH2 0x1E7 JUMP JUMPDEST SWAP1 POP SWAP3 SWAP2 POP POP JUMP JUMPDEST PUSH1 0x0 DUP2 SWAP1 POP DUP2 PUSH1 0x0 MSTORE PUSH1 0x20 PUSH1 0x0 KECCAK256 SWAP1 POP SWAP2 SWAP1 POP JUMP JUMPDEST PUSH1 0x0 DUP2 MLOAD SWAP1 POP SWAP2 SWAP1 POP JUMP JUMPDEST PUSH1 0x0 DUP3 DUP3 MSTORE PUSH1 0x20 DUP3 ADD SWAP1 POP SWAP3 SWAP2 POP POP JUMP JUMPDEST PUSH1 0x0 DUP2 SWAP1 POP SWAP3 SWAP2 POP POP JUMP JUMPDEST PUSH1 0x0 JUMPDEST DUP4 DUP2 LT ISZERO PUSH2 0x33F JUMPI DUP1 DUP3 ADD MLOAD DUP2 DUP5 ADD MSTORE PUSH1 0x20 DUP2 ADD SWAP1 POP PUSH2 0x324 JUMP JUMPDEST DUP4 DUP2 GT ISZERO PUSH2 0x34E JUMPI PUSH1 0x0 DUP5 DUP5 ADD MSTORE JUMPDEST POP POP POP POP JUMP JUMPDEST PUSH1 0x0 PUSH1 0x2 DUP3 DIV SWAP1 POP PUSH1 0x1 DUP3 AND DUP1 PUSH2 0x36C JUMPI PUSH1 0x7F DUP3 AND SWAP2 POP JUMPDEST PUSH1 0x20 DUP3 LT DUP2 EQ ISZERO PUSH2 0x380 JUMPI PUSH2 0x37F PUSH2 0x386 JUMP JUMPDEST JUMPDEST POP SWAP2 SWAP1 POP JUMP JUMPDEST PUSH32 0x4E487B7100000000000000000000000000000000000000000000000000000000 PUSH1 0x0 MSTORE PUSH1 0x22 PUSH1 0x4 MSTORE PUSH1 0x24 PUSH1 0x0 REVERT JUMPDEST PUSH1 0x0 PUSH1 0x1F NOT PUSH1 0x1F DUP4 ADD AND SWAP1 POP SWAP2 SWAP1 POP JUMP INVALID LOG2 PUSH5 0x6970667358 0x22 SLT KECCAK256 SWAP9 REVERT 0x4B GASPRICE PUSH5 0x7F283AE801 NOT 0xE5 0xFB XOR SWAP10 PUSH27 0xFEF00308518736B8BB6ABE09758855D64736F6C63430008070033 "
				},
				"gasEstimates": {
					"creation": {
						"codeDepositCost": "204000",
						"executionCost": "infinite",
						"totalCost": "infinite"
					},
					"external": {
						"s1()": "infinite",
						"s2()": "infinite",
						"start()": "infinite"
					}
				},
				"methodIdentifiers": {
					"s1()": "6cc014de",
					"s2()": "a314150f",
					"start()": "be9a6555"
				}
			},
			"storageLayout": {
				"storage": [
					{
						"astId": 4,
						"contract": "contracts/events.sol:Events",
						"label": "s1",
						"offset": 0,
						"slot": "0",
						"type": "t_string_storage"
					},
					{
						"astId": 7,
						"contract": "contracts/events.sol:Events",
						"label": "s2",
						"offset": 0,
						"slot": "1",
						"type": "t_string_storage"
					}
				],
				"types": {
					"t_string_storage": {
						"encoding": "bytes",
						"label": "string",
						"numberOfBytes": "32"
					}
				}
			},
			"userdoc": {
				"kind": "user",
				"methods": {},
				"version": 1
			}
		}
	}
}