{
	"contracts/loops.sol": {
		"Loops": {
			"abi": [
				{
					"anonymous": false,
					"inputs": [
						{
							"indexed": false,
							"internalType": "uint256",
							"name": "date",
							"type": "uint256"
						},
						{
							"indexed": false,
							"internalType": "address",
							"name": "add",
							"type": "address"
						},
						{
							"indexed": false,
							"internalType": "uint256",
							"name": "number",
							"type": "uint256"
						},
						{
							"indexed": false,
							"internalType": "uint256",
							"name": "i",
							"type": "uint256"
						}
					],
					"name": "Number",
					"type": "event"
				},
				{
					"inputs": [
						{
							"internalType": "uint256",
							"name": "number",
							"type": "uint256"
						},
						{
							"internalType": "uint256",
							"name": "amount",
							"type": "uint256"
						}
					],
					"name": "showNumbers",
					"outputs": [],
					"stateMutability": "nonpayable",
					"type": "function"
				},
				{
					"inputs": [
						{
							"internalType": "uint256",
							"name": "number",
							"type": "uint256"
						},
						{
							"internalType": "uint256",
							"name": "amount",
							"type": "uint256"
						}
					],
					"name": "showNumbersWithBreak",
					"outputs": [],
					"stateMutability": "nonpayable",
					"type": "function"
				},
				{
					"inputs": [
						{
							"internalType": "uint256",
							"name": "number",
							"type": "uint256"
						},
						{
							"internalType": "uint256",
							"name": "amount",
							"type": "uint256"
						}
					],
					"name": "whileLoopNumbers",
					"outputs": [],
					"stateMutability": "nonpayable",
					"type": "function"
				}
			],
			"devdoc": {
				"kind": "dev",
				"methods": {},
				"version": 1
			},
			"evm": {
				"assembly": "    /* \"contracts/loops.sol\":74:992  contract Loops {\r... */\n  mstore(0x40, 0x80)\n  callvalue\n  dup1\n  iszero\n  tag_1\n  jumpi\n  0x00\n  dup1\n  revert\ntag_1:\n  pop\n  dataSize(sub_0)\n  dup1\n  dataOffset(sub_0)\n  0x00\n  codecopy\n  0x00\n  return\nstop\n\nsub_0: assembly {\n        /* \"contracts/loops.sol\":74:992  contract Loops {\r... */\n      mstore(0x40, 0x80)\n      callvalue\n      dup1\n      iszero\n      tag_1\n      jumpi\n      0x00\n      dup1\n      revert\n    tag_1:\n      pop\n      jumpi(tag_2, lt(calldatasize, 0x04))\n      shr(0xe0, calldataload(0x00))\n      dup1\n      0x022d18c4\n      eq\n      tag_3\n      jumpi\n      dup1\n      0x0fc34d5d\n      eq\n      tag_4\n      jumpi\n      dup1\n      0xc8846751\n      eq\n      tag_5\n      jumpi\n    tag_2:\n      0x00\n      dup1\n      revert\n        /* \"contracts/loops.sol\":659:989  function whileLoopNumbers(uint number, uint amount) public {\r... */\n    tag_3:\n      tag_6\n      0x04\n      dup1\n      calldatasize\n      sub\n      dup2\n      add\n      swap1\n      tag_7\n      swap2\n      swap1\n      tag_8\n      jump\t// in\n    tag_7:\n      tag_9\n      jump\t// in\n    tag_6:\n      stop\n        /* \"contracts/loops.sol\":396:651  function showNumbersWithBreak(uint number, uint amount) public {\r... */\n    tag_4:\n      tag_10\n      0x04\n      dup1\n      calldatasize\n      sub\n      dup2\n      add\n      swap1\n      tag_11\n      swap2\n      swap1\n      tag_8\n      jump\t// in\n    tag_11:\n      tag_12\n      jump\t// in\n    tag_10:\n      stop\n        /* \"contracts/loops.sol\":207:388  function showNumbers(uint number, uint amount) public {\r... */\n    tag_5:\n      tag_13\n      0x04\n      dup1\n      calldatasize\n      sub\n      dup2\n      add\n      swap1\n      tag_14\n      swap2\n      swap1\n      tag_8\n      jump\t// in\n    tag_14:\n      tag_15\n      jump\t// in\n    tag_13:\n      stop\n        /* \"contracts/loops.sol\":659:989  function whileLoopNumbers(uint number, uint amount) public {\r... */\n    tag_9:\n        /* \"contracts/loops.sol\":729:739  bool check */\n      0x00\n        /* \"contracts/loops.sol\":768:774  uint i */\n      dup1\n        /* \"contracts/loops.sol\":791:982  while(!check){\r... */\n    tag_17:\n        /* \"contracts/loops.sol\":798:803  check */\n      dup2\n        /* \"contracts/loops.sol\":791:982  while(!check){\r... */\n      tag_18\n      jumpi\n        /* \"contracts/loops.sol\":824:870  Number(block.timestamp, msg.sender, number, i) */\n      0x7f01e027002983a61fc732573dbcd5ca1d39361dc45033701f7ed61cee22e61e\n        /* \"contracts/loops.sol\":831:846  block.timestamp */\n      timestamp\n        /* \"contracts/loops.sol\":848:858  msg.sender */\n      caller\n        /* \"contracts/loops.sol\":860:866  number */\n      dup7\n        /* \"contracts/loops.sol\":868:869  i */\n      dup5\n        /* \"contracts/loops.sol\":824:870  Number(block.timestamp, msg.sender, number, i) */\n      mload(0x40)\n      tag_19\n      swap5\n      swap4\n      swap3\n      swap2\n      swap1\n      tag_20\n      jump\t// in\n    tag_19:\n      mload(0x40)\n      dup1\n      swap2\n      sub\n      swap1\n      log1\n        /* \"contracts/loops.sol\":885:888  i++ */\n      dup1\n      dup1\n      tag_21\n      swap1\n      tag_22\n      jump\t// in\n    tag_21:\n      swap2\n      pop\n      pop\n        /* \"contracts/loops.sol\":920:921  1 */\n      0x01\n        /* \"contracts/loops.sol\":911:917  amount */\n      dup4\n        /* \"contracts/loops.sol\":911:921  amount - 1 */\n      tag_23\n      swap2\n      swap1\n      tag_24\n      jump\t// in\n    tag_23:\n        /* \"contracts/loops.sol\":906:907  i */\n      dup2\n        /* \"contracts/loops.sol\":906:921  i == amount - 1 */\n      eq\n        /* \"contracts/loops.sol\":903:971  if(i == amount - 1 ){\r... */\n      iszero\n      tag_25\n      jumpi\n        /* \"contracts/loops.sol\":950:955  false */\n      0x00\n        /* \"contracts/loops.sol\":942:955  check = false */\n      swap2\n      pop\n        /* \"contracts/loops.sol\":903:971  if(i == amount - 1 ){\r... */\n    tag_25:\n        /* \"contracts/loops.sol\":791:982  while(!check){\r... */\n      jump(tag_17)\n    tag_18:\n        /* \"contracts/loops.sol\":718:989  {\r... */\n      pop\n      pop\n        /* \"contracts/loops.sol\":659:989  function whileLoopNumbers(uint number, uint amount) public {\r... */\n      pop\n      pop\n      jump\t// out\n        /* \"contracts/loops.sol\":396:651  function showNumbersWithBreak(uint number, uint amount) public {\r... */\n    tag_12:\n        /* \"contracts/loops.sol\":474:480  uint i */\n      0x00\n        /* \"contracts/loops.sol\":470:644  for(uint i = 0; i< amount; i++){\r... */\n    tag_27:\n        /* \"contracts/loops.sol\":489:495  amount */\n      dup2\n        /* \"contracts/loops.sol\":486:487  i */\n      dup2\n        /* \"contracts/loops.sol\":486:495  i< amount */\n      lt\n        /* \"contracts/loops.sol\":470:644  for(uint i = 0; i< amount; i++){\r... */\n      iszero\n      tag_28\n      jumpi\n        /* \"contracts/loops.sol\":525:526  5 */\n      0x05\n        /* \"contracts/loops.sol\":521:522  i */\n      dup2\n        /* \"contracts/loops.sol\":521:526  i > 5 */\n      gt\n        /* \"contracts/loops.sol\":518:567  if(i > 5){\r... */\n      iszero\n      tag_30\n      jumpi\n        /* \"contracts/loops.sol\":546:551  break */\n      jump(tag_28)\n        /* \"contracts/loops.sol\":518:567  if(i > 5){\r... */\n    tag_30:\n        /* \"contracts/loops.sol\":586:632  Number(block.timestamp, msg.sender, number, i) */\n      0x7f01e027002983a61fc732573dbcd5ca1d39361dc45033701f7ed61cee22e61e\n        /* \"contracts/loops.sol\":593:608  block.timestamp */\n      timestamp\n        /* \"contracts/loops.sol\":610:620  msg.sender */\n      caller\n        /* \"contracts/loops.sol\":622:628  number */\n      dup6\n        /* \"contracts/loops.sol\":630:631  i */\n      dup5\n        /* \"contracts/loops.sol\":586:632  Number(block.timestamp, msg.sender, number, i) */\n      mload(0x40)\n      tag_31\n      swap5\n      swap4\n      swap3\n      swap2\n      swap1\n      tag_20\n      jump\t// in\n    tag_31:\n      mload(0x40)\n      dup1\n      swap2\n      sub\n      swap1\n      log1\n        /* \"contracts/loops.sol\":497:500  i++ */\n      dup1\n      dup1\n      tag_32\n      swap1\n      tag_22\n      jump\t// in\n    tag_32:\n      swap2\n      pop\n      pop\n        /* \"contracts/loops.sol\":470:644  for(uint i = 0; i< amount; i++){\r... */\n      jump(tag_27)\n    tag_28:\n      pop\n        /* \"contracts/loops.sol\":396:651  function showNumbersWithBreak(uint number, uint amount) public {\r... */\n      pop\n      pop\n      jump\t// out\n        /* \"contracts/loops.sol\":207:388  function showNumbers(uint number, uint amount) public {\r... */\n    tag_15:\n        /* \"contracts/loops.sol\":276:282  uint i */\n      0x00\n        /* \"contracts/loops.sol\":272:381  for(uint i = 0; i< amount; i++){\r... */\n    tag_34:\n        /* \"contracts/loops.sol\":291:297  amount */\n      dup2\n        /* \"contracts/loops.sol\":288:289  i */\n      dup2\n        /* \"contracts/loops.sol\":288:297  i< amount */\n      lt\n        /* \"contracts/loops.sol\":272:381  for(uint i = 0; i< amount; i++){\r... */\n      iszero\n      tag_35\n      jumpi\n        /* \"contracts/loops.sol\":323:369  Number(block.timestamp, msg.sender, number, i) */\n      0x7f01e027002983a61fc732573dbcd5ca1d39361dc45033701f7ed61cee22e61e\n        /* \"contracts/loops.sol\":330:345  block.timestamp */\n      timestamp\n        /* \"contracts/loops.sol\":347:357  msg.sender */\n      caller\n        /* \"contracts/loops.sol\":359:365  number */\n      dup6\n        /* \"contracts/loops.sol\":367:368  i */\n      dup5\n        /* \"contracts/loops.sol\":323:369  Number(block.timestamp, msg.sender, number, i) */\n      mload(0x40)\n      tag_37\n      swap5\n      swap4\n      swap3\n      swap2\n      swap1\n      tag_20\n      jump\t// in\n    tag_37:\n      mload(0x40)\n      dup1\n      swap2\n      sub\n      swap1\n      log1\n        /* \"contracts/loops.sol\":299:302  i++ */\n      dup1\n      dup1\n      tag_38\n      swap1\n      tag_22\n      jump\t// in\n    tag_38:\n      swap2\n      pop\n      pop\n        /* \"contracts/loops.sol\":272:381  for(uint i = 0; i< amount; i++){\r... */\n      jump(tag_34)\n    tag_35:\n      pop\n        /* \"contracts/loops.sol\":207:388  function showNumbers(uint number, uint amount) public {\r... */\n      pop\n      pop\n      jump\t// out\n        /* \"#utility.yul\":7:146   */\n    tag_40:\n        /* \"#utility.yul\":53:58   */\n      0x00\n        /* \"#utility.yul\":91:97   */\n      dup2\n        /* \"#utility.yul\":78:98   */\n      calldataload\n        /* \"#utility.yul\":69:98   */\n      swap1\n      pop\n        /* \"#utility.yul\":107:140   */\n      tag_42\n        /* \"#utility.yul\":134:139   */\n      dup2\n        /* \"#utility.yul\":107:140   */\n      tag_43\n      jump\t// in\n    tag_42:\n        /* \"#utility.yul\":7:146   */\n      swap3\n      swap2\n      pop\n      pop\n      jump\t// out\n        /* \"#utility.yul\":152:626   */\n    tag_8:\n        /* \"#utility.yul\":220:226   */\n      0x00\n        /* \"#utility.yul\":228:234   */\n      dup1\n        /* \"#utility.yul\":277:279   */\n      0x40\n        /* \"#utility.yul\":265:274   */\n      dup4\n        /* \"#utility.yul\":256:263   */\n      dup6\n        /* \"#utility.yul\":252:275   */\n      sub\n        /* \"#utility.yul\":248:280   */\n      slt\n        /* \"#utility.yul\":245:364   */\n      iszero\n      tag_45\n      jumpi\n        /* \"#utility.yul\":283:362   */\n      tag_46\n      tag_47\n      jump\t// in\n    tag_46:\n        /* \"#utility.yul\":245:364   */\n    tag_45:\n        /* \"#utility.yul\":403:404   */\n      0x00\n        /* \"#utility.yul\":428:481   */\n      tag_48\n        /* \"#utility.yul\":473:480   */\n      dup6\n        /* \"#utility.yul\":464:470   */\n      dup3\n        /* \"#utility.yul\":453:462   */\n      dup7\n        /* \"#utility.yul\":449:471   */\n      add\n        /* \"#utility.yul\":428:481   */\n      tag_40\n      jump\t// in\n    tag_48:\n        /* \"#utility.yul\":418:481   */\n      swap3\n      pop\n        /* \"#utility.yul\":374:491   */\n      pop\n        /* \"#utility.yul\":530:532   */\n      0x20\n        /* \"#utility.yul\":556:609   */\n      tag_49\n        /* \"#utility.yul\":601:608   */\n      dup6\n        /* \"#utility.yul\":592:598   */\n      dup3\n        /* \"#utility.yul\":581:590   */\n      dup7\n        /* \"#utility.yul\":577:599   */\n      add\n        /* \"#utility.yul\":556:609   */\n      tag_40\n      jump\t// in\n    tag_49:\n        /* \"#utility.yul\":546:609   */\n      swap2\n      pop\n        /* \"#utility.yul\":501:619   */\n      pop\n        /* \"#utility.yul\":152:626   */\n      swap3\n      pop\n      swap3\n      swap1\n      pop\n      jump\t// out\n        /* \"#utility.yul\":632:750   */\n    tag_50:\n        /* \"#utility.yul\":719:743   */\n      tag_52\n        /* \"#utility.yul\":737:742   */\n      dup2\n        /* \"#utility.yul\":719:743   */\n      tag_53\n      jump\t// in\n    tag_52:\n        /* \"#utility.yul\":714:717   */\n      dup3\n        /* \"#utility.yul\":707:744   */\n      mstore\n        /* \"#utility.yul\":632:750   */\n      pop\n      pop\n      jump\t// out\n        /* \"#utility.yul\":756:874   */\n    tag_54:\n        /* \"#utility.yul\":843:867   */\n      tag_56\n        /* \"#utility.yul\":861:866   */\n      dup2\n        /* \"#utility.yul\":843:867   */\n      tag_57\n      jump\t// in\n    tag_56:\n        /* \"#utility.yul\":838:841   */\n      dup3\n        /* \"#utility.yul\":831:868   */\n      mstore\n        /* \"#utility.yul\":756:874   */\n      pop\n      pop\n      jump\t// out\n        /* \"#utility.yul\":880:1433   */\n    tag_20:\n        /* \"#utility.yul\":1057:1061   */\n      0x00\n        /* \"#utility.yul\":1095:1098   */\n      0x80\n        /* \"#utility.yul\":1084:1093   */\n      dup3\n        /* \"#utility.yul\":1080:1099   */\n      add\n        /* \"#utility.yul\":1072:1099   */\n      swap1\n      pop\n        /* \"#utility.yul\":1109:1180   */\n      tag_59\n        /* \"#utility.yul\":1177:1178   */\n      0x00\n        /* \"#utility.yul\":1166:1175   */\n      dup4\n        /* \"#utility.yul\":1162:1179   */\n      add\n        /* \"#utility.yul\":1153:1159   */\n      dup8\n        /* \"#utility.yul\":1109:1180   */\n      tag_54\n      jump\t// in\n    tag_59:\n        /* \"#utility.yul\":1190:1262   */\n      tag_60\n        /* \"#utility.yul\":1258:1260   */\n      0x20\n        /* \"#utility.yul\":1247:1256   */\n      dup4\n        /* \"#utility.yul\":1243:1261   */\n      add\n        /* \"#utility.yul\":1234:1240   */\n      dup7\n        /* \"#utility.yul\":1190:1262   */\n      tag_50\n      jump\t// in\n    tag_60:\n        /* \"#utility.yul\":1272:1344   */\n      tag_61\n        /* \"#utility.yul\":1340:1342   */\n      0x40\n        /* \"#utility.yul\":1329:1338   */\n      dup4\n        /* \"#utility.yul\":1325:1343   */\n      add\n        /* \"#utility.yul\":1316:1322   */\n      dup6\n        /* \"#utility.yul\":1272:1344   */\n      tag_54\n      jump\t// in\n    tag_61:\n        /* \"#utility.yul\":1354:1426   */\n      tag_62\n        /* \"#utility.yul\":1422:1424   */\n      0x60\n        /* \"#utility.yul\":1411:1420   */\n      dup4\n        /* \"#utility.yul\":1407:1425   */\n      add\n        /* \"#utility.yul\":1398:1404   */\n      dup5\n        /* \"#utility.yul\":1354:1426   */\n      tag_54\n      jump\t// in\n    tag_62:\n        /* \"#utility.yul\":880:1433   */\n      swap6\n      swap5\n      pop\n      pop\n      pop\n      pop\n      pop\n      jump\t// out\n        /* \"#utility.yul\":1520:1711   */\n    tag_24:\n        /* \"#utility.yul\":1560:1564   */\n      0x00\n        /* \"#utility.yul\":1580:1600   */\n      tag_66\n        /* \"#utility.yul\":1598:1599   */\n      dup3\n        /* \"#utility.yul\":1580:1600   */\n      tag_57\n      jump\t// in\n    tag_66:\n        /* \"#utility.yul\":1575:1600   */\n      swap2\n      pop\n        /* \"#utility.yul\":1614:1634   */\n      tag_67\n        /* \"#utility.yul\":1632:1633   */\n      dup4\n        /* \"#utility.yul\":1614:1634   */\n      tag_57\n      jump\t// in\n    tag_67:\n        /* \"#utility.yul\":1609:1634   */\n      swap3\n      pop\n        /* \"#utility.yul\":1653:1654   */\n      dup3\n        /* \"#utility.yul\":1650:1651   */\n      dup3\n        /* \"#utility.yul\":1647:1655   */\n      lt\n        /* \"#utility.yul\":1644:1678   */\n      iszero\n      tag_68\n      jumpi\n        /* \"#utility.yul\":1658:1676   */\n      tag_69\n      tag_70\n      jump\t// in\n    tag_69:\n        /* \"#utility.yul\":1644:1678   */\n    tag_68:\n        /* \"#utility.yul\":1703:1704   */\n      dup3\n        /* \"#utility.yul\":1700:1701   */\n      dup3\n        /* \"#utility.yul\":1696:1705   */\n      sub\n        /* \"#utility.yul\":1688:1705   */\n      swap1\n      pop\n        /* \"#utility.yul\":1520:1711   */\n      swap3\n      swap2\n      pop\n      pop\n      jump\t// out\n        /* \"#utility.yul\":1717:1813   */\n    tag_53:\n        /* \"#utility.yul\":1754:1761   */\n      0x00\n        /* \"#utility.yul\":1783:1807   */\n      tag_72\n        /* \"#utility.yul\":1801:1806   */\n      dup3\n        /* \"#utility.yul\":1783:1807   */\n      tag_73\n      jump\t// in\n    tag_72:\n        /* \"#utility.yul\":1772:1807   */\n      swap1\n      pop\n        /* \"#utility.yul\":1717:1813   */\n      swap2\n      swap1\n      pop\n      jump\t// out\n        /* \"#utility.yul\":1819:1945   */\n    tag_73:\n        /* \"#utility.yul\":1856:1863   */\n      0x00\n        /* \"#utility.yul\":1896:1938   */\n      0xffffffffffffffffffffffffffffffffffffffff\n        /* \"#utility.yul\":1889:1894   */\n      dup3\n        /* \"#utility.yul\":1885:1939   */\n      and\n        /* \"#utility.yul\":1874:1939   */\n      swap1\n      pop\n        /* \"#utility.yul\":1819:1945   */\n      swap2\n      swap1\n      pop\n      jump\t// out\n        /* \"#utility.yul\":1951:2028   */\n    tag_57:\n        /* \"#utility.yul\":1988:1995   */\n      0x00\n        /* \"#utility.yul\":2017:2022   */\n      dup2\n        /* \"#utility.yul\":2006:2022   */\n      swap1\n      pop\n        /* \"#utility.yul\":1951:2028   */\n      swap2\n      swap1\n      pop\n      jump\t// out\n        /* \"#utility.yul\":2034:2267   */\n    tag_22:\n        /* \"#utility.yul\":2073:2076   */\n      0x00\n        /* \"#utility.yul\":2096:2120   */\n      tag_77\n        /* \"#utility.yul\":2114:2119   */\n      dup3\n        /* \"#utility.yul\":2096:2120   */\n      tag_57\n      jump\t// in\n    tag_77:\n        /* \"#utility.yul\":2087:2120   */\n      swap2\n      pop\n        /* \"#utility.yul\":2142:2208   */\n      0xffffffffffffffffffffffffffffffffffffffffffffffffffffffffffffffff\n        /* \"#utility.yul\":2135:2140   */\n      dup3\n        /* \"#utility.yul\":2132:2209   */\n      eq\n        /* \"#utility.yul\":2129:2232   */\n      iszero\n      tag_78\n      jumpi\n        /* \"#utility.yul\":2212:2230   */\n      tag_79\n      tag_70\n      jump\t// in\n    tag_79:\n        /* \"#utility.yul\":2129:2232   */\n    tag_78:\n        /* \"#utility.yul\":2259:2260   */\n      0x01\n        /* \"#utility.yul\":2252:2257   */\n      dup3\n        /* \"#utility.yul\":2248:2261   */\n      add\n        /* \"#utility.yul\":2241:2261   */\n      swap1\n      pop\n        /* \"#utility.yul\":2034:2267   */\n      swap2\n      swap1\n      pop\n      jump\t// out\n        /* \"#utility.yul\":2273:2453   */\n    tag_70:\n        /* \"#utility.yul\":2321:2398   */\n      0x4e487b7100000000000000000000000000000000000000000000000000000000\n        /* \"#utility.yul\":2318:2319   */\n      0x00\n        /* \"#utility.yul\":2311:2399   */\n      mstore\n        /* \"#utility.yul\":2418:2422   */\n      0x11\n        /* \"#utility.yul\":2415:2416   */\n      0x04\n        /* \"#utility.yul\":2408:2423   */\n      mstore\n        /* \"#utility.yul\":2442:2446   */\n      0x24\n        /* \"#utility.yul\":2439:2440   */\n      0x00\n        /* \"#utility.yul\":2432:2447   */\n      revert\n        /* \"#utility.yul\":2582:2699   */\n    tag_47:\n        /* \"#utility.yul\":2691:2692   */\n      0x00\n        /* \"#utility.yul\":2688:2689   */\n      dup1\n        /* \"#utility.yul\":2681:2693   */\n      revert\n        /* \"#utility.yul\":2705:2827   */\n    tag_43:\n        /* \"#utility.yul\":2778:2802   */\n      tag_85\n        /* \"#utility.yul\":2796:2801   */\n      dup2\n        /* \"#utility.yul\":2778:2802   */\n      tag_57\n      jump\t// in\n    tag_85:\n        /* \"#utility.yul\":2771:2776   */\n      dup2\n        /* \"#utility.yul\":2768:2803   */\n      eq\n        /* \"#utility.yul\":2758:2821   */\n      tag_86\n      jumpi\n        /* \"#utility.yul\":2817:2818   */\n      0x00\n        /* \"#utility.yul\":2814:2815   */\n      dup1\n        /* \"#utility.yul\":2807:2819   */\n      revert\n        /* \"#utility.yul\":2758:2821   */\n    tag_86:\n        /* \"#utility.yul\":2705:2827   */\n      pop\n      jump\t// out\n\n    auxdata: 0xa26469706673582212207ebdc1ff5999813521720c5b8ffa38c2488867bfe471bd94cfb3bf2e37136ca464736f6c63430008070033\n}\n",
				"bytecode": {
					"linkReferences": {},
					"object": "608060405234801561001057600080fd5b506103d2806100206000396000f3fe608060405234801561001057600080fd5b50600436106100415760003560e01c8063022d18c4146100465780630fc34d5d14610062578063c88467511461007e575b600080fd5b610060600480360381019061005b91906101f5565b61009a565b005b61007c600480360381019061007791906101f5565b610112565b005b610098600480360381019061009391906101f5565b610180565b005b6000805b8161010c577f7f01e027002983a61fc732573dbcd5ca1d39361dc45033701f7ed61cee22e61e423386846040516100d89493929190610253565b60405180910390a180806100eb90610308565b9150506001836100fb9190610298565b81141561010757600091505b61009e565b50505050565b60005b8181101561017b57600581111561012b5761017b565b7f7f01e027002983a61fc732573dbcd5ca1d39361dc45033701f7ed61cee22e61e423385846040516101609493929190610253565b60405180910390a1808061017390610308565b915050610115565b505050565b60005b818110156101db577f7f01e027002983a61fc732573dbcd5ca1d39361dc45033701f7ed61cee22e61e423385846040516101c09493929190610253565b60405180910390a180806101d390610308565b915050610183565b505050565b6000813590506101ef81610385565b92915050565b6000806040838503121561020c5761020b610380565b5b600061021a858286016101e0565b925050602061022b858286016101e0565b9150509250929050565b61023e816102cc565b82525050565b61024d816102fe565b82525050565b60006080820190506102686000830187610244565b6102756020830186610235565b6102826040830185610244565b61028f6060830184610244565b95945050505050565b60006102a3826102fe565b91506102ae836102fe565b9250828210156102c1576102c0610351565b5b828203905092915050565b60006102d7826102de565b9050919050565b600073ffffffffffffffffffffffffffffffffffffffff82169050919050565b6000819050919050565b6000610313826102fe565b91507fffffffffffffffffffffffffffffffffffffffffffffffffffffffffffffffff82141561034657610345610351565b5b600182019050919050565b7f4e487b7100000000000000000000000000000000000000000000000000000000600052601160045260246000fd5b600080fd5b61038e816102fe565b811461039957600080fd5b5056fea26469706673582212207ebdc1ff5999813521720c5b8ffa38c2488867bfe471bd94cfb3bf2e37136ca464736f6c63430008070033",
					"opcodes": "PUSH1 0x80 PUSH1 0x40 MSTORE CALLVALUE DUP1 ISZERO PUSH2 0x10 JUMPI PUSH1 0x0 DUP1 REVERT JUMPDEST POP PUSH2 0x3D2 DUP1 PUSH2 0x20 PUSH1 0x0 CODECOPY PUSH1 0x0 RETURN INVALID PUSH1 0x80 PUSH1 0x40 MSTORE CALLVALUE DUP1 ISZERO PUSH2 0x10 JUMPI PUSH1 0x0 DUP1 REVERT JUMPDEST POP PUSH1 0x4 CALLDATASIZE LT PUSH2 0x41 JUMPI PUSH1 0x0 CALLDATALOAD PUSH1 0xE0 SHR DUP1 PUSH4 0x22D18C4 EQ PUSH2 0x46 JUMPI DUP1 PUSH4 0xFC34D5D EQ PUSH2 0x62 JUMPI DUP1 PUSH4 0xC8846751 EQ PUSH2 0x7E JUMPI JUMPDEST PUSH1 0x0 DUP1 REVERT JUMPDEST PUSH2 0x60 PUSH1 0x4 DUP1 CALLDATASIZE SUB DUP2 ADD SWAP1 PUSH2 0x5B SWAP2 SWAP1 PUSH2 0x1F5 JUMP JUMPDEST PUSH2 0x9A JUMP JUMPDEST STOP JUMPDEST PUSH2 0x7C PUSH1 0x4 DUP1 CALLDATASIZE SUB DUP2 ADD SWAP1 PUSH2 0x77 SWAP2 SWAP1 PUSH2 0x1F5 JUMP JUMPDEST PUSH2 0x112 JUMP JUMPDEST STOP JUMPDEST PUSH2 0x98 PUSH1 0x4 DUP1 CALLDATASIZE SUB DUP2 ADD SWAP1 PUSH2 0x93 SWAP2 SWAP1 PUSH2 0x1F5 JUMP JUMPDEST PUSH2 0x180 JUMP JUMPDEST STOP JUMPDEST PUSH1 0x0 DUP1 JUMPDEST DUP2 PUSH2 0x10C JUMPI PUSH32 0x7F01E027002983A61FC732573DBCD5CA1D39361DC45033701F7ED61CEE22E61E TIMESTAMP CALLER DUP7 DUP5 PUSH1 0x40 MLOAD PUSH2 0xD8 SWAP5 SWAP4 SWAP3 SWAP2 SWAP1 PUSH2 0x253 JUMP JUMPDEST PUSH1 0x40 MLOAD DUP1 SWAP2 SUB SWAP1 LOG1 DUP1 DUP1 PUSH2 0xEB SWAP1 PUSH2 0x308 JUMP JUMPDEST SWAP2 POP POP PUSH1 0x1 DUP4 PUSH2 0xFB SWAP2 SWAP1 PUSH2 0x298 JUMP JUMPDEST DUP2 EQ ISZERO PUSH2 0x107 JUMPI PUSH1 0x0 SWAP2 POP JUMPDEST PUSH2 0x9E JUMP JUMPDEST POP POP POP POP JUMP JUMPDEST PUSH1 0x0 JUMPDEST DUP2 DUP2 LT ISZERO PUSH2 0x17B JUMPI PUSH1 0x5 DUP2 GT ISZERO PUSH2 0x12B JUMPI PUSH2 0x17B JUMP JUMPDEST PUSH32 0x7F01E027002983A61FC732573DBCD5CA1D39361DC45033701F7ED61CEE22E61E TIMESTAMP CALLER DUP6 DUP5 PUSH1 0x40 MLOAD PUSH2 0x160 SWAP5 SWAP4 SWAP3 SWAP2 SWAP1 PUSH2 0x253 JUMP JUMPDEST PUSH1 0x40 MLOAD DUP1 SWAP2 SUB SWAP1 LOG1 DUP1 DUP1 PUSH2 0x173 SWAP1 PUSH2 0x308 JUMP JUMPDEST SWAP2 POP POP PUSH2 0x115 JUMP JUMPDEST POP POP POP JUMP JUMPDEST PUSH1 0x0 JUMPDEST DUP2 DUP2 LT ISZERO PUSH2 0x1DB JUMPI PUSH32 0x7F01E027002983A61FC732573DBCD5CA1D39361DC45033701F7ED61CEE22E61E TIMESTAMP CALLER DUP6 DUP5 PUSH1 0x40 MLOAD PUSH2 0x1C0 SWAP5 SWAP4 SWAP3 SWAP2 SWAP1 PUSH2 0x253 JUMP JUMPDEST PUSH1 0x40 MLOAD DUP1 SWAP2 SUB SWAP1 LOG1 DUP1 DUP1 PUSH2 0x1D3 SWAP1 PUSH2 0x308 JUMP JUMPDEST SWAP2 POP POP PUSH2 0x183 JUMP JUMPDEST POP POP POP JUMP JUMPDEST PUSH1 0x0 DUP2 CALLDATALOAD SWAP1 POP PUSH2 0x1EF DUP2 PUSH2 0x385 JUMP JUMPDEST SWAP3 SWAP2 POP POP JUMP JUMPDEST PUSH1 0x0 DUP1 PUSH1 0x40 DUP4 DUP6 SUB SLT ISZERO PUSH2 0x20C JUMPI PUSH2 0x20B PUSH2 0x380 JUMP JUMPDEST JUMPDEST PUSH1 0x0 PUSH2 0x21A DUP6 DUP3 DUP7 ADD PUSH2 0x1E0 JUMP JUMPDEST SWAP3 POP POP PUSH1 0x20 PUSH2 0x22B DUP6 DUP3 DUP7 ADD PUSH2 0x1E0 JUMP JUMPDEST SWAP2 POP POP SWAP3 POP SWAP3 SWAP1 POP JUMP JUMPDEST PUSH2 0x23E DUP2 PUSH2 0x2CC JUMP JUMPDEST DUP3 MSTORE POP POP JUMP JUMPDEST PUSH2 0x24D DUP2 PUSH2 0x2FE JUMP JUMPDEST DUP3 MSTORE POP POP JUMP JUMPDEST PUSH1 0x0 PUSH1 0x80 DUP3 ADD SWAP1 POP PUSH2 0x268 PUSH1 0x0 DUP4 ADD DUP8 PUSH2 0x244 JUMP JUMPDEST PUSH2 0x275 PUSH1 0x20 DUP4 ADD DUP7 PUSH2 0x235 JUMP JUMPDEST PUSH2 0x282 PUSH1 0x40 DUP4 ADD DUP6 PUSH2 0x244 JUMP JUMPDEST PUSH2 0x28F PUSH1 0x60 DUP4 ADD DUP5 PUSH2 0x244 JUMP JUMPDEST SWAP6 SWAP5 POP POP POP POP POP JUMP JUMPDEST PUSH1 0x0 PUSH2 0x2A3 DUP3 PUSH2 0x2FE JUMP JUMPDEST SWAP2 POP PUSH2 0x2AE DUP4 PUSH2 0x2FE JUMP JUMPDEST SWAP3 POP DUP3 DUP3 LT ISZERO PUSH2 0x2C1 JUMPI PUSH2 0x2C0 PUSH2 0x351 JUMP JUMPDEST JUMPDEST DUP3 DUP3 SUB SWAP1 POP SWAP3 SWAP2 POP POP JUMP JUMPDEST PUSH1 0x0 PUSH2 0x2D7 DUP3 PUSH2 0x2DE JUMP JUMPDEST SWAP1 POP SWAP2 SWAP1 POP JUMP JUMPDEST PUSH1 0x0 PUSH20 0xFFFFFFFFFFFFFFFFFFFFFFFFFFFFFFFFFFFFFFFF DUP3 AND SWAP1 POP SWAP2 SWAP1 POP JUMP JUMPDEST PUSH1 0x0 DUP2 SWAP1 POP SWAP2 SWAP1 POP JUMP JUMPDEST PUSH1 0x0 PUSH2 0x313 DUP3 PUSH2 0x2FE JUMP JUMPDEST SWAP2 POP PUSH32 0xFFFFFFFFFFFFFFFFFFFFFFFFFFFFFFFFFFFFFFFFFFFFFFFFFFFFFFFFFFFFFFFF DUP3 EQ ISZERO PUSH2 0x346 JUMPI PUSH2 0x345 PUSH2 0x351 JUMP JUMPDEST JUMPDEST PUSH1 0x1 DUP3 ADD SWAP1 POP SWAP2 SWAP1 POP JUMP JUMPDEST PUSH32 0x4E487B7100000000000000000000000000000000000000000000000000000000 PUSH1 0x0 MSTORE PUSH1 0x11 PUSH1 0x4 MSTORE PUSH1 0x24 PUSH1 0x0 REVERT JUMPDEST PUSH1 0x0 DUP1 REVERT JUMPDEST PUSH2 0x38E DUP2 PUSH2 0x2FE JUMP JUMPDEST DUP2 EQ PUSH2 0x399 JUMPI PUSH1 0x0 DUP1 REVERT JUMPDEST POP JUMP INVALID LOG2 PUSH5 0x6970667358 0x22 SLT KECCAK256 PUSH31 0xBDC1FF5999813521720C5B8FFA38C2488867BFE471BD94CFB3BF2E37136CA4 PUSH5 0x736F6C6343 STOP ADDMOD SMOD STOP CALLER "
				},
				"gasEstimates": {
					"creation": {
						"codeDepositCost": "195600",
						"executionCost": "238",
						"totalCost": "195838"
					},
					"external": {
						"showNumbers(uint256,uint256)": "infinite",
						"showNumbersWithBreak(uint256,uint256)": "infinite",
						"whileLoopNumbers(uint256,uint256)": "infinite"
					}
				},
				"methodIdentifiers": {
					"showNumbers(uint256,uint256)": "c8846751",
					"showNumbersWithBreak(uint256,uint256)": "0fc34d5d",
					"whileLoopNumbers(uint256,uint256)": "022d18c4"
				}
			},
			"storageLayout": {
				"storage": [],
				"types": null
			},
			"userdoc": {
				"kind": "user",
				"methods": {},
				"version": 1
			}
		}
	}
}