{
	"contracts/multi_return.sol": {
		"MultiReturn": {
			"abi": [
				{
					"inputs": [],
					"name": "start",
					"outputs": [
						{
							"internalType": "uint256",
							"name": "",
							"type": "uint256"
						},
						{
							"internalType": "uint256",
							"name": "",
							"type": "uint256"
						},
						{
							"internalType": "uint256",
							"name": "",
							"type": "uint256"
						}
					],
					"stateMutability": "pure",
					"type": "function"
				}
			],
			"devdoc": {
				"kind": "dev",
				"methods": {},
				"version": 1
			},
			"evm": {
				"assembly": "    /* \"contracts/multi_return.sol\":74:258  contract MultiReturn{\r... */\n  mstore(0x40, 0x80)\n  callvalue\n  dup1\n  iszero\n  tag_1\n  jumpi\n  0x00\n  dup1\n  revert\ntag_1:\n  pop\n  dataSize(sub_0)\n  dup1\n  dataOffset(sub_0)\n  0x00\n  codecopy\n  0x00\n  return\nstop\n\nsub_0: assembly {\n        /* \"contracts/multi_return.sol\":74:258  contract MultiReturn{\r... */\n      mstore(0x40, 0x80)\n      callvalue\n      dup1\n      iszero\n      tag_1\n      jumpi\n      0x00\n      dup1\n      revert\n    tag_1:\n      pop\n      jumpi(tag_2, lt(calldatasize, 0x04))\n      shr(0xe0, calldataload(0x00))\n      dup1\n      0xbe9a6555\n      eq\n      tag_3\n      jumpi\n    tag_2:\n      0x00\n      dup1\n      revert\n        /* \"contracts/multi_return.sol\":103:255  function start() public pure returns(uint, uint, uint) {\r... */\n    tag_3:\n      tag_4\n      tag_5\n      jump\t// in\n    tag_4:\n      mload(0x40)\n      tag_6\n      swap4\n      swap3\n      swap2\n      swap1\n      tag_7\n      jump\t// in\n    tag_6:\n      mload(0x40)\n      dup1\n      swap2\n      sub\n      swap1\n      return\n    tag_5:\n        /* \"contracts/multi_return.sol\":140:144  uint */\n      0x00\n        /* \"contracts/multi_return.sol\":146:150  uint */\n      dup1\n        /* \"contracts/multi_return.sol\":152:156  uint */\n      0x00\n        /* \"contracts/multi_return.sol\":169:175  uint a */\n      dup1\n        /* \"contracts/multi_return.sol\":178:179  2 */\n      0x02\n        /* \"contracts/multi_return.sol\":169:179  uint a = 2 */\n      swap1\n      pop\n        /* \"contracts/multi_return.sol\":190:196  uint b */\n      0x00\n        /* \"contracts/multi_return.sol\":199:200  3 */\n      0x03\n        /* \"contracts/multi_return.sol\":190:200  uint b = 3 */\n      swap1\n      pop\n        /* \"contracts/multi_return.sol\":211:217  uint c */\n      0x00\n        /* \"contracts/multi_return.sol\":220:221  4 */\n      0x04\n        /* \"contracts/multi_return.sol\":211:221  uint c = 4 */\n      swap1\n      pop\n        /* \"contracts/multi_return.sol\":239:240  a */\n      dup3\n        /* \"contracts/multi_return.sol\":241:242  b */\n      dup3\n        /* \"contracts/multi_return.sol\":244:245  c */\n      dup3\n        /* \"contracts/multi_return.sol\":232:246  return(a,b, c) */\n      swap6\n      pop\n      swap6\n      pop\n      swap6\n      pop\n      pop\n      pop\n      pop\n        /* \"contracts/multi_return.sol\":103:255  function start() public pure returns(uint, uint, uint) {\r... */\n      swap1\n      swap2\n      swap3\n      jump\t// out\n        /* \"#utility.yul\":7:125   */\n    tag_10:\n        /* \"#utility.yul\":94:118   */\n      tag_12\n        /* \"#utility.yul\":112:117   */\n      dup2\n        /* \"#utility.yul\":94:118   */\n      tag_13\n      jump\t// in\n    tag_12:\n        /* \"#utility.yul\":89:92   */\n      dup3\n        /* \"#utility.yul\":82:119   */\n      mstore\n        /* \"#utility.yul\":7:125   */\n      pop\n      pop\n      jump\t// out\n        /* \"#utility.yul\":131:573   */\n    tag_7:\n        /* \"#utility.yul\":280:284   */\n      0x00\n        /* \"#utility.yul\":318:320   */\n      0x60\n        /* \"#utility.yul\":307:316   */\n      dup3\n        /* \"#utility.yul\":303:321   */\n      add\n        /* \"#utility.yul\":295:321   */\n      swap1\n      pop\n        /* \"#utility.yul\":331:402   */\n      tag_15\n        /* \"#utility.yul\":399:400   */\n      0x00\n        /* \"#utility.yul\":388:397   */\n      dup4\n        /* \"#utility.yul\":384:401   */\n      add\n        /* \"#utility.yul\":375:381   */\n      dup7\n        /* \"#utility.yul\":331:402   */\n      tag_10\n      jump\t// in\n    tag_15:\n        /* \"#utility.yul\":412:484   */\n      tag_16\n        /* \"#utility.yul\":480:482   */\n      0x20\n        /* \"#utility.yul\":469:478   */\n      dup4\n        /* \"#utility.yul\":465:483   */\n      add\n        /* \"#utility.yul\":456:462   */\n      dup6\n        /* \"#utility.yul\":412:484   */\n      tag_10\n      jump\t// in\n    tag_16:\n        /* \"#utility.yul\":494:566   */\n      tag_17\n        /* \"#utility.yul\":562:564   */\n      0x40\n        /* \"#utility.yul\":551:560   */\n      dup4\n        /* \"#utility.yul\":547:565   */\n      add\n        /* \"#utility.yul\":538:544   */\n      dup5\n        /* \"#utility.yul\":494:566   */\n      tag_10\n      jump\t// in\n    tag_17:\n        /* \"#utility.yul\":131:573   */\n      swap5\n      swap4\n      pop\n      pop\n      pop\n      pop\n      jump\t// out\n        /* \"#utility.yul\":579:656   */\n    tag_13:\n        /* \"#utility.yul\":616:623   */\n      0x00\n        /* \"#utility.yul\":645:650   */\n      dup2\n        /* \"#utility.yul\":634:650   */\n      swap1\n      pop\n        /* \"#utility.yul\":579:656   */\n      swap2\n      swap1\n      pop\n      jump\t// out\n\n    auxdata: 0xa264697066735822122096c4f66f1b933ea54012cf8e16a6ed71fa6d962f595a7fc972d8b7ee2175998d64736f6c63430008070033\n}\n",
				"bytecode": {
					"linkReferences": {},
					"object": "608060405234801561001057600080fd5b5060ee8061001f6000396000f3fe6080604052348015600f57600080fd5b506004361060285760003560e01c8063be9a655514602d575b600080fd5b60336049565b604051604093929190607d565b60405180910390f35b60008060008060029050600060039050600060049050828282955095509550505050909192565b60778160ae565b82525050565b6000606082019050609060008301866070565b609b60208301856070565b60a660408301846070565b949350505050565b600081905091905056fea264697066735822122096c4f66f1b933ea54012cf8e16a6ed71fa6d962f595a7fc972d8b7ee2175998d64736f6c63430008070033",
					"opcodes": "PUSH1 0x80 PUSH1 0x40 MSTORE CALLVALUE DUP1 ISZERO PUSH2 0x10 JUMPI PUSH1 0x0 DUP1 REVERT JUMPDEST POP PUSH1 0xEE DUP1 PUSH2 0x1F PUSH1 0x0 CODECOPY PUSH1 0x0 RETURN INVALID PUSH1 0x80 PUSH1 0x40 MSTORE CALLVALUE DUP1 ISZERO PUSH1 0xF JUMPI PUSH1 0x0 DUP1 REVERT JUMPDEST POP PUSH1 0x4 CALLDATASIZE LT PUSH1 0x28 JUMPI PUSH1 0x0 CALLDATALOAD PUSH1 0xE0 SHR DUP1 PUSH4 0xBE9A6555 EQ PUSH1 0x2D JUMPI JUMPDEST PUSH1 0x0 DUP1 REVERT JUMPDEST PUSH1 0x33 PUSH1 0x49 JUMP JUMPDEST PUSH1 0x40 MLOAD PUSH1 0x40 SWAP4 SWAP3 SWAP2 SWAP1 PUSH1 0x7D JUMP JUMPDEST PUSH1 0x40 MLOAD DUP1 SWAP2 SUB SWAP1 RETURN JUMPDEST PUSH1 0x0 DUP1 PUSH1 0x0 DUP1 PUSH1 0x2 SWAP1 POP PUSH1 0x0 PUSH1 0x3 SWAP1 POP PUSH1 0x0 PUSH1 0x4 SWAP1 POP DUP3 DUP3 DUP3 SWAP6 POP SWAP6 POP SWAP6 POP POP POP POP SWAP1 SWAP2 SWAP3 JUMP JUMPDEST PUSH1 0x77 DUP2 PUSH1 0xAE JUMP JUMPDEST DUP3 MSTORE POP POP JUMP JUMPDEST PUSH1 0x0 PUSH1 0x60 DUP3 ADD SWAP1 POP PUSH1 0x90 PUSH1 0x0 DUP4 ADD DUP7 PUSH1 0x70 JUMP JUMPDEST PUSH1 0x9B PUSH1 0x20 DUP4 ADD DUP6 PUSH1 0x70 JUMP JUMPDEST PUSH1 0xA6 PUSH1 0x40 DUP4 ADD DUP5 PUSH1 0x70 JUMP JUMPDEST SWAP5 SWAP4 POP POP POP POP JUMP JUMPDEST PUSH1 0x0 DUP2 SWAP1 POP SWAP2 SWAP1 POP JUMP INVALID LOG2 PUSH5 0x6970667358 0x22 SLT KECCAK256 SWAP7 0xC4 0xF6 PUSH16 0x1B933EA54012CF8E16A6ED71FA6D962F MSIZE GAS PUSH32 0xC972D8B7EE2175998D64736F6C63430008070033000000000000000000000000 "
				},
				"gasEstimates": {
					"creation": {
						"codeDepositCost": "47600",
						"executionCost": "99",
						"totalCost": "47699"
					},
					"external": {
						"start()": "infinite"
					}
				},
				"methodIdentifiers": {
					"start()": "be9a6555"
				}
			},
			"storageLayout": {
				"storage": [],
				"types": null
			},
			"userdoc": {
				"kind": "user",
				"methods": {},
				"version": 1
			}
		}
	}
}