{
	"contracts/events.sol": {
		"Events": {
			"abi": [
				{
					"anonymous": false,
					"inputs": [
						{
							"indexed": false,
							"internalType": "uint256",
							"name": "date",
							"type": "uint256"
						},
						{
							"indexed": false,
							"internalType": "address",
							"name": "sender",
							"type": "address"
						}
					],
					"name": "Address_info",
					"type": "event"
				},
				{
					"inputs": [],
					"name": "emit_event",
					"outputs": [],
					"stateMutability": "nonpayable",
					"type": "function"
				}
			],
			"devdoc": {
				"kind": "dev",
				"methods": {},
				"version": 1
			},
			"evm": {
				"assembly": "    /* \"contracts/events.sol\":74:280  contract Events{\r... */\n  mstore(0x40, 0x80)\n  callvalue\n  dup1\n  iszero\n  tag_1\n  jumpi\n  0x00\n  dup1\n  revert\ntag_1:\n  pop\n  dataSize(sub_0)\n  dup1\n  dataOffset(sub_0)\n  0x00\n  codecopy\n  0x00\n  return\nstop\n\nsub_0: assembly {\n        /* \"contracts/events.sol\":74:280  contract Events{\r... */\n      mstore(0x40, 0x80)\n      callvalue\n      dup1\n      iszero\n      tag_1\n      jumpi\n      0x00\n      dup1\n      revert\n    tag_1:\n      pop\n      jumpi(tag_2, lt(calldatasize, 0x04))\n      shr(0xe0, calldataload(0x00))\n      dup1\n      0xb583a204\n      eq\n      tag_3\n      jumpi\n    tag_2:\n      0x00\n      dup1\n      revert\n        /* \"contracts/events.sol\":181:277  function emit_event() external {\r... */\n    tag_3:\n      tag_4\n      tag_5\n      jump\t// in\n    tag_4:\n      stop\n    tag_5:\n        /* \"contracts/events.sol\":228:269  Address_info(block.timestamp, msg.sender) */\n      0xf2d08cf3092374de8ddbfaa6a49b754569462c11978a4f639686aeb5ac97f9b4\n        /* \"contracts/events.sol\":241:256  block.timestamp */\n      timestamp\n        /* \"contracts/events.sol\":258:268  msg.sender */\n      caller\n        /* \"contracts/events.sol\":228:269  Address_info(block.timestamp, msg.sender) */\n      mload(0x40)\n      tag_7\n      swap3\n      swap2\n      swap1\n      tag_8\n      jump\t// in\n    tag_7:\n      mload(0x40)\n      dup1\n      swap2\n      sub\n      swap1\n      log1\n        /* \"contracts/events.sol\":181:277  function emit_event() external {\r... */\n      jump\t// out\n        /* \"#utility.yul\":7:125   */\n    tag_10:\n        /* \"#utility.yul\":94:118   */\n      tag_12\n        /* \"#utility.yul\":112:117   */\n      dup2\n        /* \"#utility.yul\":94:118   */\n      tag_13\n      jump\t// in\n    tag_12:\n        /* \"#utility.yul\":89:92   */\n      dup3\n        /* \"#utility.yul\":82:119   */\n      mstore\n        /* \"#utility.yul\":7:125   */\n      pop\n      pop\n      jump\t// out\n        /* \"#utility.yul\":131:249   */\n    tag_14:\n        /* \"#utility.yul\":218:242   */\n      tag_16\n        /* \"#utility.yul\":236:241   */\n      dup2\n        /* \"#utility.yul\":218:242   */\n      tag_17\n      jump\t// in\n    tag_16:\n        /* \"#utility.yul\":213:216   */\n      dup3\n        /* \"#utility.yul\":206:243   */\n      mstore\n        /* \"#utility.yul\":131:249   */\n      pop\n      pop\n      jump\t// out\n        /* \"#utility.yul\":255:587   */\n    tag_8:\n        /* \"#utility.yul\":376:380   */\n      0x00\n        /* \"#utility.yul\":414:416   */\n      0x40\n        /* \"#utility.yul\":403:412   */\n      dup3\n        /* \"#utility.yul\":399:417   */\n      add\n        /* \"#utility.yul\":391:417   */\n      swap1\n      pop\n        /* \"#utility.yul\":427:498   */\n      tag_19\n        /* \"#utility.yul\":495:496   */\n      0x00\n        /* \"#utility.yul\":484:493   */\n      dup4\n        /* \"#utility.yul\":480:497   */\n      add\n        /* \"#utility.yul\":471:477   */\n      dup6\n        /* \"#utility.yul\":427:498   */\n      tag_14\n      jump\t// in\n    tag_19:\n        /* \"#utility.yul\":508:580   */\n      tag_20\n        /* \"#utility.yul\":576:578   */\n      0x20\n        /* \"#utility.yul\":565:574   */\n      dup4\n        /* \"#utility.yul\":561:579   */\n      add\n        /* \"#utility.yul\":552:558   */\n      dup5\n        /* \"#utility.yul\":508:580   */\n      tag_10\n      jump\t// in\n    tag_20:\n        /* \"#utility.yul\":255:587   */\n      swap4\n      swap3\n      pop\n      pop\n      pop\n      jump\t// out\n        /* \"#utility.yul\":593:689   */\n    tag_13:\n        /* \"#utility.yul\":630:637   */\n      0x00\n        /* \"#utility.yul\":659:683   */\n      tag_22\n        /* \"#utility.yul\":677:682   */\n      dup3\n        /* \"#utility.yul\":659:683   */\n      tag_23\n      jump\t// in\n    tag_22:\n        /* \"#utility.yul\":648:683   */\n      swap1\n      pop\n        /* \"#utility.yul\":593:689   */\n      swap2\n      swap1\n      pop\n      jump\t// out\n        /* \"#utility.yul\":695:821   */\n    tag_23:\n        /* \"#utility.yul\":732:739   */\n      0x00\n        /* \"#utility.yul\":772:814   */\n      0xffffffffffffffffffffffffffffffffffffffff\n        /* \"#utility.yul\":765:770   */\n      dup3\n        /* \"#utility.yul\":761:815   */\n      and\n        /* \"#utility.yul\":750:815   */\n      swap1\n      pop\n        /* \"#utility.yul\":695:821   */\n      swap2\n      swap1\n      pop\n      jump\t// out\n        /* \"#utility.yul\":827:904   */\n    tag_17:\n        /* \"#utility.yul\":864:871   */\n      0x00\n        /* \"#utility.yul\":893:898   */\n      dup2\n        /* \"#utility.yul\":882:898   */\n      swap1\n      pop\n        /* \"#utility.yul\":827:904   */\n      swap2\n      swap1\n      pop\n      jump\t// out\n\n    auxdata: 0xa2646970667358221220698ec4a16136a82f27a69f650f902c89d9d8644beac8c729f17db1efb49bdf4164736f6c63430008070033\n}\n",
				"bytecode": {
					"linkReferences": {},
					"object": "608060405234801561001057600080fd5b5061011d806100206000396000f3fe6080604052348015600f57600080fd5b506004361060285760003560e01c8063b583a20414602d575b600080fd5b60336035565b005b7ff2d08cf3092374de8ddbfaa6a49b754569462c11978a4f639686aeb5ac97f9b4423360405160649291906088565b60405180910390a1565b60758160ad565b82525050565b60828160dd565b82525050565b6000604082019050609b6000830185607b565b60a66020830184606e565b9392505050565b600060b68260bd565b9050919050565b600073ffffffffffffffffffffffffffffffffffffffff82169050919050565b600081905091905056fea2646970667358221220698ec4a16136a82f27a69f650f902c89d9d8644beac8c729f17db1efb49bdf4164736f6c63430008070033",
					"opcodes": "PUSH1 0x80 PUSH1 0x40 MSTORE CALLVALUE DUP1 ISZERO PUSH2 0x10 JUMPI PUSH1 0x0 DUP1 REVERT JUMPDEST POP PUSH2 0x11D DUP1 PUSH2 0x20 PUSH1 0x0 CODECOPY PUSH1 0x0 RETURN INVALID PUSH1 0x80 PUSH1 0x40 MSTORE CALLVALUE DUP1 ISZERO PUSH1 0xF JUMPI PUSH1 0x0 DUP1 REVERT JUMPDEST POP PUSH1 0x4 CALLDATASIZE LT PUSH1 0x28 JUMPI PUSH1 0x0 CALLDATALOAD PUSH1 0xE0 SHR DUP1 PUSH4 0xB583A204 EQ PUSH1 0x2D JUMPI JUMPDEST PUSH1 0x0 DUP1 REVERT JUMPDEST PUSH1 0x33 PUSH1 0x35 JUMP JUMPDEST STOP JUMPDEST PUSH32 0xF2D08CF3092374DE8DDBFAA6A49B754569462C11978A4F639686AEB5AC97F9B4 TIMESTAMP CALLER PUSH1 0x40 MLOAD PUSH1 0x64 SWAP3 SWAP2 SWAP1 PUSH1 0x88 JUMP JUMPDEST PUSH1 0x40 MLOAD DUP1 SWAP2 SUB SWAP1 LOG1 JUMP JUMPDEST PUSH1 0x75 DUP2 PUSH1 0xAD JUMP JUMPDEST DUP3 MSTORE POP POP JUMP JUMPDEST PUSH1 0x82 DUP2 PUSH1 0xDD JUMP JUMPDEST DUP3 MSTORE POP POP JUMP JUMPDEST PUSH1 0x0 PUSH1 0x40 DUP3 ADD SWAP1 POP PUSH1 0x9B PUSH1 0x0 DUP4 ADD DUP6 PUSH1 0x7B JUMP JUMPDEST PUSH1 0xA6 PUSH1 0x20 DUP4 ADD DUP5 PUSH1 0x6E JUMP JUMPDEST SWAP4 SWAP3 POP POP POP JUMP JUMPDEST PUSH1 0x0 PUSH1 0xB6 DUP3 PUSH1 0xBD JUMP JUMPDEST SWAP1 POP SWAP2 SWAP1 POP JUMP JUMPDEST PUSH1 0x0 PUSH20 0xFFFFFFFFFFFFFFFFFFFFFFFFFFFFFFFFFFFFFFFF DUP3 AND SWAP1 POP SWAP2 SWAP1 POP JUMP JUMPDEST PUSH1 0x0 DUP2 SWAP1 POP SWAP2 SWAP1 POP JUMP INVALID LOG2 PUSH5 0x6970667358 0x22 SLT KECCAK256 PUSH10 0x8EC4A16136A82F27A69F PUSH6 0xF902C89D9D8 PUSH5 0x4BEAC8C729 CALL PUSH30 0xB1EFB49BDF4164736F6C6343000807003300000000000000000000000000 "
				},
				"gasEstimates": {
					"creation": {
						"codeDepositCost": "57000",
						"executionCost": "105",
						"totalCost": "57105"
					},
					"external": {
						"emit_event()": "1719"
					}
				},
				"methodIdentifiers": {
					"emit_event()": "b583a204"
				}
			},
			"storageLayout": {
				"storage": [],
				"types": null
			},
			"userdoc": {
				"kind": "user",
				"methods": {},
				"version": 1
			}
		}
	}
}