{
	"contracts/loops.sol": {
		"Loops": {
			"abi": [
				{
					"anonymous": false,
					"inputs": [
						{
							"indexed": false,
							"internalType": "uint256",
							"name": "date",
							"type": "uint256"
						},
						{
							"indexed": false,
							"internalType": "address",
							"name": "add",
							"type": "address"
						},
						{
							"indexed": false,
							"internalType": "uint256",
							"name": "number",
							"type": "uint256"
						},
						{
							"indexed": false,
							"internalType": "uint256",
							"name": "i",
							"type": "uint256"
						}
					],
					"name": "Number",
					"type": "event"
				},
				{
					"inputs": [
						{
							"internalType": "uint256",
							"name": "number",
							"type": "uint256"
						},
						{
							"internalType": "uint256",
							"name": "amount",
							"type": "uint256"
						}
					],
					"name": "showNumbers",
					"outputs": [],
					"stateMutability": "nonpayable",
					"type": "function"
				},
				{
					"inputs": [
						{
							"internalType": "uint256",
							"name": "number",
							"type": "uint256"
						},
						{
							"internalType": "uint256",
							"name": "amount",
							"type": "uint256"
						}
					],
					"name": "showNumbersWithBreak",
					"outputs": [],
					"stateMutability": "nonpayable",
					"type": "function"
				}
			],
			"devdoc": {
				"kind": "dev",
				"methods": {},
				"version": 1
			},
			"evm": {
				"assembly": "    /* \"contracts/loops.sol\":74:654  contract Loops {\r... */\n  mstore(0x40, 0x80)\n  callvalue\n  dup1\n  iszero\n  tag_1\n  jumpi\n  0x00\n  dup1\n  revert\ntag_1:\n  pop\n  dataSize(sub_0)\n  dup1\n  dataOffset(sub_0)\n  0x00\n  codecopy\n  0x00\n  return\nstop\n\nsub_0: assembly {\n        /* \"contracts/loops.sol\":74:654  contract Loops {\r... */\n      mstore(0x40, 0x80)\n      callvalue\n      dup1\n      iszero\n      tag_1\n      jumpi\n      0x00\n      dup1\n      revert\n    tag_1:\n      pop\n      jumpi(tag_2, lt(calldatasize, 0x04))\n      shr(0xe0, calldataload(0x00))\n      dup1\n      0x0fc34d5d\n      eq\n      tag_3\n      jumpi\n      dup1\n      0xc8846751\n      eq\n      tag_4\n      jumpi\n    tag_2:\n      0x00\n      dup1\n      revert\n        /* \"contracts/loops.sol\":396:651  function showNumbersWithBreak(uint number, uint amount) public {\r... */\n    tag_3:\n      tag_5\n      0x04\n      dup1\n      calldatasize\n      sub\n      dup2\n      add\n      swap1\n      tag_6\n      swap2\n      swap1\n      tag_7\n      jump\t// in\n    tag_6:\n      tag_8\n      jump\t// in\n    tag_5:\n      stop\n        /* \"contracts/loops.sol\":207:388  function showNumbers(uint number, uint amount) public {\r... */\n    tag_4:\n      tag_9\n      0x04\n      dup1\n      calldatasize\n      sub\n      dup2\n      add\n      swap1\n      tag_10\n      swap2\n      swap1\n      tag_7\n      jump\t// in\n    tag_10:\n      tag_11\n      jump\t// in\n    tag_9:\n      stop\n        /* \"contracts/loops.sol\":396:651  function showNumbersWithBreak(uint number, uint amount) public {\r... */\n    tag_8:\n        /* \"contracts/loops.sol\":474:480  uint i */\n      0x00\n        /* \"contracts/loops.sol\":470:644  for(uint i = 0; i< amount; i++){\r... */\n    tag_13:\n        /* \"contracts/loops.sol\":489:495  amount */\n      dup2\n        /* \"contracts/loops.sol\":486:487  i */\n      dup2\n        /* \"contracts/loops.sol\":486:495  i< amount */\n      lt\n        /* \"contracts/loops.sol\":470:644  for(uint i = 0; i< amount; i++){\r... */\n      iszero\n      tag_14\n      jumpi\n        /* \"contracts/loops.sol\":525:526  5 */\n      0x05\n        /* \"contracts/loops.sol\":521:522  i */\n      dup2\n        /* \"contracts/loops.sol\":521:526  i > 5 */\n      gt\n        /* \"contracts/loops.sol\":518:567  if(i > 5){\r... */\n      iszero\n      tag_16\n      jumpi\n        /* \"contracts/loops.sol\":546:551  break */\n      jump(tag_14)\n        /* \"contracts/loops.sol\":518:567  if(i > 5){\r... */\n    tag_16:\n        /* \"contracts/loops.sol\":586:632  Number(block.timestamp, msg.sender, number, i) */\n      0x7f01e027002983a61fc732573dbcd5ca1d39361dc45033701f7ed61cee22e61e\n        /* \"contracts/loops.sol\":593:608  block.timestamp */\n      timestamp\n        /* \"contracts/loops.sol\":610:620  msg.sender */\n      caller\n        /* \"contracts/loops.sol\":622:628  number */\n      dup6\n        /* \"contracts/loops.sol\":630:631  i */\n      dup5\n        /* \"contracts/loops.sol\":586:632  Number(block.timestamp, msg.sender, number, i) */\n      mload(0x40)\n      tag_17\n      swap5\n      swap4\n      swap3\n      swap2\n      swap1\n      tag_18\n      jump\t// in\n    tag_17:\n      mload(0x40)\n      dup1\n      swap2\n      sub\n      swap1\n      log1\n        /* \"contracts/loops.sol\":497:500  i++ */\n      dup1\n      dup1\n      tag_19\n      swap1\n      tag_20\n      jump\t// in\n    tag_19:\n      swap2\n      pop\n      pop\n        /* \"contracts/loops.sol\":470:644  for(uint i = 0; i< amount; i++){\r... */\n      jump(tag_13)\n    tag_14:\n      pop\n        /* \"contracts/loops.sol\":396:651  function showNumbersWithBreak(uint number, uint amount) public {\r... */\n      pop\n      pop\n      jump\t// out\n        /* \"contracts/loops.sol\":207:388  function showNumbers(uint number, uint amount) public {\r... */\n    tag_11:\n        /* \"contracts/loops.sol\":276:282  uint i */\n      0x00\n        /* \"contracts/loops.sol\":272:381  for(uint i = 0; i< amount; i++){\r... */\n    tag_22:\n        /* \"contracts/loops.sol\":291:297  amount */\n      dup2\n        /* \"contracts/loops.sol\":288:289  i */\n      dup2\n        /* \"contracts/loops.sol\":288:297  i< amount */\n      lt\n        /* \"contracts/loops.sol\":272:381  for(uint i = 0; i< amount; i++){\r... */\n      iszero\n      tag_23\n      jumpi\n        /* \"contracts/loops.sol\":323:369  Number(block.timestamp, msg.sender, number, i) */\n      0x7f01e027002983a61fc732573dbcd5ca1d39361dc45033701f7ed61cee22e61e\n        /* \"contracts/loops.sol\":330:345  block.timestamp */\n      timestamp\n        /* \"contracts/loops.sol\":347:357  msg.sender */\n      caller\n        /* \"contracts/loops.sol\":359:365  number */\n      dup6\n        /* \"contracts/loops.sol\":367:368  i */\n      dup5\n        /* \"contracts/loops.sol\":323:369  Number(block.timestamp, msg.sender, number, i) */\n      mload(0x40)\n      tag_25\n      swap5\n      swap4\n      swap3\n      swap2\n      swap1\n      tag_18\n      jump\t// in\n    tag_25:\n      mload(0x40)\n      dup1\n      swap2\n      sub\n      swap1\n      log1\n        /* \"contracts/loops.sol\":299:302  i++ */\n      dup1\n      dup1\n      tag_26\n      swap1\n      tag_20\n      jump\t// in\n    tag_26:\n      swap2\n      pop\n      pop\n        /* \"contracts/loops.sol\":272:381  for(uint i = 0; i< amount; i++){\r... */\n      jump(tag_22)\n    tag_23:\n      pop\n        /* \"contracts/loops.sol\":207:388  function showNumbers(uint number, uint amount) public {\r... */\n      pop\n      pop\n      jump\t// out\n        /* \"#utility.yul\":7:146   */\n    tag_28:\n        /* \"#utility.yul\":53:58   */\n      0x00\n        /* \"#utility.yul\":91:97   */\n      dup2\n        /* \"#utility.yul\":78:98   */\n      calldataload\n        /* \"#utility.yul\":69:98   */\n      swap1\n      pop\n        /* \"#utility.yul\":107:140   */\n      tag_30\n        /* \"#utility.yul\":134:139   */\n      dup2\n        /* \"#utility.yul\":107:140   */\n      tag_31\n      jump\t// in\n    tag_30:\n        /* \"#utility.yul\":7:146   */\n      swap3\n      swap2\n      pop\n      pop\n      jump\t// out\n        /* \"#utility.yul\":152:626   */\n    tag_7:\n        /* \"#utility.yul\":220:226   */\n      0x00\n        /* \"#utility.yul\":228:234   */\n      dup1\n        /* \"#utility.yul\":277:279   */\n      0x40\n        /* \"#utility.yul\":265:274   */\n      dup4\n        /* \"#utility.yul\":256:263   */\n      dup6\n        /* \"#utility.yul\":252:275   */\n      sub\n        /* \"#utility.yul\":248:280   */\n      slt\n        /* \"#utility.yul\":245:364   */\n      iszero\n      tag_33\n      jumpi\n        /* \"#utility.yul\":283:362   */\n      tag_34\n      tag_35\n      jump\t// in\n    tag_34:\n        /* \"#utility.yul\":245:364   */\n    tag_33:\n        /* \"#utility.yul\":403:404   */\n      0x00\n        /* \"#utility.yul\":428:481   */\n      tag_36\n        /* \"#utility.yul\":473:480   */\n      dup6\n        /* \"#utility.yul\":464:470   */\n      dup3\n        /* \"#utility.yul\":453:462   */\n      dup7\n        /* \"#utility.yul\":449:471   */\n      add\n        /* \"#utility.yul\":428:481   */\n      tag_28\n      jump\t// in\n    tag_36:\n        /* \"#utility.yul\":418:481   */\n      swap3\n      pop\n        /* \"#utility.yul\":374:491   */\n      pop\n        /* \"#utility.yul\":530:532   */\n      0x20\n        /* \"#utility.yul\":556:609   */\n      tag_37\n        /* \"#utility.yul\":601:608   */\n      dup6\n        /* \"#utility.yul\":592:598   */\n      dup3\n        /* \"#utility.yul\":581:590   */\n      dup7\n        /* \"#utility.yul\":577:599   */\n      add\n        /* \"#utility.yul\":556:609   */\n      tag_28\n      jump\t// in\n    tag_37:\n        /* \"#utility.yul\":546:609   */\n      swap2\n      pop\n        /* \"#utility.yul\":501:619   */\n      pop\n        /* \"#utility.yul\":152:626   */\n      swap3\n      pop\n      swap3\n      swap1\n      pop\n      jump\t// out\n        /* \"#utility.yul\":632:750   */\n    tag_38:\n        /* \"#utility.yul\":719:743   */\n      tag_40\n        /* \"#utility.yul\":737:742   */\n      dup2\n        /* \"#utility.yul\":719:743   */\n      tag_41\n      jump\t// in\n    tag_40:\n        /* \"#utility.yul\":714:717   */\n      dup3\n        /* \"#utility.yul\":707:744   */\n      mstore\n        /* \"#utility.yul\":632:750   */\n      pop\n      pop\n      jump\t// out\n        /* \"#utility.yul\":756:874   */\n    tag_42:\n        /* \"#utility.yul\":843:867   */\n      tag_44\n        /* \"#utility.yul\":861:866   */\n      dup2\n        /* \"#utility.yul\":843:867   */\n      tag_45\n      jump\t// in\n    tag_44:\n        /* \"#utility.yul\":838:841   */\n      dup3\n        /* \"#utility.yul\":831:868   */\n      mstore\n        /* \"#utility.yul\":756:874   */\n      pop\n      pop\n      jump\t// out\n        /* \"#utility.yul\":880:1433   */\n    tag_18:\n        /* \"#utility.yul\":1057:1061   */\n      0x00\n        /* \"#utility.yul\":1095:1098   */\n      0x80\n        /* \"#utility.yul\":1084:1093   */\n      dup3\n        /* \"#utility.yul\":1080:1099   */\n      add\n        /* \"#utility.yul\":1072:1099   */\n      swap1\n      pop\n        /* \"#utility.yul\":1109:1180   */\n      tag_47\n        /* \"#utility.yul\":1177:1178   */\n      0x00\n        /* \"#utility.yul\":1166:1175   */\n      dup4\n        /* \"#utility.yul\":1162:1179   */\n      add\n        /* \"#utility.yul\":1153:1159   */\n      dup8\n        /* \"#utility.yul\":1109:1180   */\n      tag_42\n      jump\t// in\n    tag_47:\n        /* \"#utility.yul\":1190:1262   */\n      tag_48\n        /* \"#utility.yul\":1258:1260   */\n      0x20\n        /* \"#utility.yul\":1247:1256   */\n      dup4\n        /* \"#utility.yul\":1243:1261   */\n      add\n        /* \"#utility.yul\":1234:1240   */\n      dup7\n        /* \"#utility.yul\":1190:1262   */\n      tag_38\n      jump\t// in\n    tag_48:\n        /* \"#utility.yul\":1272:1344   */\n      tag_49\n        /* \"#utility.yul\":1340:1342   */\n      0x40\n        /* \"#utility.yul\":1329:1338   */\n      dup4\n        /* \"#utility.yul\":1325:1343   */\n      add\n        /* \"#utility.yul\":1316:1322   */\n      dup6\n        /* \"#utility.yul\":1272:1344   */\n      tag_42\n      jump\t// in\n    tag_49:\n        /* \"#utility.yul\":1354:1426   */\n      tag_50\n        /* \"#utility.yul\":1422:1424   */\n      0x60\n        /* \"#utility.yul\":1411:1420   */\n      dup4\n        /* \"#utility.yul\":1407:1425   */\n      add\n        /* \"#utility.yul\":1398:1404   */\n      dup5\n        /* \"#utility.yul\":1354:1426   */\n      tag_42\n      jump\t// in\n    tag_50:\n        /* \"#utility.yul\":880:1433   */\n      swap6\n      swap5\n      pop\n      pop\n      pop\n      pop\n      pop\n      jump\t// out\n        /* \"#utility.yul\":1520:1616   */\n    tag_41:\n        /* \"#utility.yul\":1557:1564   */\n      0x00\n        /* \"#utility.yul\":1586:1610   */\n      tag_54\n        /* \"#utility.yul\":1604:1609   */\n      dup3\n        /* \"#utility.yul\":1586:1610   */\n      tag_55\n      jump\t// in\n    tag_54:\n        /* \"#utility.yul\":1575:1610   */\n      swap1\n      pop\n        /* \"#utility.yul\":1520:1616   */\n      swap2\n      swap1\n      pop\n      jump\t// out\n        /* \"#utility.yul\":1622:1748   */\n    tag_55:\n        /* \"#utility.yul\":1659:1666   */\n      0x00\n        /* \"#utility.yul\":1699:1741   */\n      0xffffffffffffffffffffffffffffffffffffffff\n        /* \"#utility.yul\":1692:1697   */\n      dup3\n        /* \"#utility.yul\":1688:1742   */\n      and\n        /* \"#utility.yul\":1677:1742   */\n      swap1\n      pop\n        /* \"#utility.yul\":1622:1748   */\n      swap2\n      swap1\n      pop\n      jump\t// out\n        /* \"#utility.yul\":1754:1831   */\n    tag_45:\n        /* \"#utility.yul\":1791:1798   */\n      0x00\n        /* \"#utility.yul\":1820:1825   */\n      dup2\n        /* \"#utility.yul\":1809:1825   */\n      swap1\n      pop\n        /* \"#utility.yul\":1754:1831   */\n      swap2\n      swap1\n      pop\n      jump\t// out\n        /* \"#utility.yul\":1837:2070   */\n    tag_20:\n        /* \"#utility.yul\":1876:1879   */\n      0x00\n        /* \"#utility.yul\":1899:1923   */\n      tag_59\n        /* \"#utility.yul\":1917:1922   */\n      dup3\n        /* \"#utility.yul\":1899:1923   */\n      tag_45\n      jump\t// in\n    tag_59:\n        /* \"#utility.yul\":1890:1923   */\n      swap2\n      pop\n        /* \"#utility.yul\":1945:2011   */\n      0xffffffffffffffffffffffffffffffffffffffffffffffffffffffffffffffff\n        /* \"#utility.yul\":1938:1943   */\n      dup3\n        /* \"#utility.yul\":1935:2012   */\n      eq\n        /* \"#utility.yul\":1932:2035   */\n      iszero\n      tag_60\n      jumpi\n        /* \"#utility.yul\":2015:2033   */\n      tag_61\n      tag_62\n      jump\t// in\n    tag_61:\n        /* \"#utility.yul\":1932:2035   */\n    tag_60:\n        /* \"#utility.yul\":2062:2063   */\n      0x01\n        /* \"#utility.yul\":2055:2060   */\n      dup3\n        /* \"#utility.yul\":2051:2064   */\n      add\n        /* \"#utility.yul\":2044:2064   */\n      swap1\n      pop\n        /* \"#utility.yul\":1837:2070   */\n      swap2\n      swap1\n      pop\n      jump\t// out\n        /* \"#utility.yul\":2076:2256   */\n    tag_62:\n        /* \"#utility.yul\":2124:2201   */\n      0x4e487b7100000000000000000000000000000000000000000000000000000000\n        /* \"#utility.yul\":2121:2122   */\n      0x00\n        /* \"#utility.yul\":2114:2202   */\n      mstore\n        /* \"#utility.yul\":2221:2225   */\n      0x11\n        /* \"#utility.yul\":2218:2219   */\n      0x04\n        /* \"#utility.yul\":2211:2226   */\n      mstore\n        /* \"#utility.yul\":2245:2249   */\n      0x24\n        /* \"#utility.yul\":2242:2243   */\n      0x00\n        /* \"#utility.yul\":2235:2250   */\n      revert\n        /* \"#utility.yul\":2385:2502   */\n    tag_35:\n        /* \"#utility.yul\":2494:2495   */\n      0x00\n        /* \"#utility.yul\":2491:2492   */\n      dup1\n        /* \"#utility.yul\":2484:2496   */\n      revert\n        /* \"#utility.yul\":2508:2630   */\n    tag_31:\n        /* \"#utility.yul\":2581:2605   */\n      tag_68\n        /* \"#utility.yul\":2599:2604   */\n      dup2\n        /* \"#utility.yul\":2581:2605   */\n      tag_45\n      jump\t// in\n    tag_68:\n        /* \"#utility.yul\":2574:2579   */\n      dup2\n        /* \"#utility.yul\":2571:2606   */\n      eq\n        /* \"#utility.yul\":2561:2624   */\n      tag_69\n      jumpi\n        /* \"#utility.yul\":2620:2621   */\n      0x00\n        /* \"#utility.yul\":2617:2618   */\n      dup1\n        /* \"#utility.yul\":2610:2622   */\n      revert\n        /* \"#utility.yul\":2561:2624   */\n    tag_69:\n        /* \"#utility.yul\":2508:2630   */\n      pop\n      jump\t// out\n\n    auxdata: 0xa2646970667358221220b7b7423d1a51266e6d69e43e55e73f93cee9e3a9a7d75c2fd2d52a92c7eff8b464736f6c63430008070033\n}\n",
				"bytecode": {
					"linkReferences": {},
					"object": "608060405234801561001057600080fd5b506102ff806100206000396000f3fe608060405234801561001057600080fd5b50600436106100365760003560e01c80630fc34d5d1461003b578063c884675114610057575b600080fd5b61005560048036038101906100509190610156565b610073565b005b610071600480360381019061006c9190610156565b6100e1565b005b60005b818110156100dc57600581111561008c576100dc565b7f7f01e027002983a61fc732573dbcd5ca1d39361dc45033701f7ed61cee22e61e423385846040516100c194939291906101b4565b60405180910390a180806100d490610235565b915050610076565b505050565b60005b8181101561013c577f7f01e027002983a61fc732573dbcd5ca1d39361dc45033701f7ed61cee22e61e4233858460405161012194939291906101b4565b60405180910390a1808061013490610235565b9150506100e4565b505050565b600081359050610150816102b2565b92915050565b6000806040838503121561016d5761016c6102ad565b5b600061017b85828601610141565b925050602061018c85828601610141565b9150509250929050565b61019f816101f9565b82525050565b6101ae8161022b565b82525050565b60006080820190506101c960008301876101a5565b6101d66020830186610196565b6101e360408301856101a5565b6101f060608301846101a5565b95945050505050565b60006102048261020b565b9050919050565b600073ffffffffffffffffffffffffffffffffffffffff82169050919050565b6000819050919050565b60006102408261022b565b91507fffffffffffffffffffffffffffffffffffffffffffffffffffffffffffffffff8214156102735761027261027e565b5b600182019050919050565b7f4e487b7100000000000000000000000000000000000000000000000000000000600052601160045260246000fd5b600080fd5b6102bb8161022b565b81146102c657600080fd5b5056fea2646970667358221220b7b7423d1a51266e6d69e43e55e73f93cee9e3a9a7d75c2fd2d52a92c7eff8b464736f6c63430008070033",
					"opcodes": "PUSH1 0x80 PUSH1 0x40 MSTORE CALLVALUE DUP1 ISZERO PUSH2 0x10 JUMPI PUSH1 0x0 DUP1 REVERT JUMPDEST POP PUSH2 0x2FF DUP1 PUSH2 0x20 PUSH1 0x0 CODECOPY PUSH1 0x0 RETURN INVALID PUSH1 0x80 PUSH1 0x40 MSTORE CALLVALUE DUP1 ISZERO PUSH2 0x10 JUMPI PUSH1 0x0 DUP1 REVERT JUMPDEST POP PUSH1 0x4 CALLDATASIZE LT PUSH2 0x36 JUMPI PUSH1 0x0 CALLDATALOAD PUSH1 0xE0 SHR DUP1 PUSH4 0xFC34D5D EQ PUSH2 0x3B JUMPI DUP1 PUSH4 0xC8846751 EQ PUSH2 0x57 JUMPI JUMPDEST PUSH1 0x0 DUP1 REVERT JUMPDEST PUSH2 0x55 PUSH1 0x4 DUP1 CALLDATASIZE SUB DUP2 ADD SWAP1 PUSH2 0x50 SWAP2 SWAP1 PUSH2 0x156 JUMP JUMPDEST PUSH2 0x73 JUMP JUMPDEST STOP JUMPDEST PUSH2 0x71 PUSH1 0x4 DUP1 CALLDATASIZE SUB DUP2 ADD SWAP1 PUSH2 0x6C SWAP2 SWAP1 PUSH2 0x156 JUMP JUMPDEST PUSH2 0xE1 JUMP JUMPDEST STOP JUMPDEST PUSH1 0x0 JUMPDEST DUP2 DUP2 LT ISZERO PUSH2 0xDC JUMPI PUSH1 0x5 DUP2 GT ISZERO PUSH2 0x8C JUMPI PUSH2 0xDC JUMP JUMPDEST PUSH32 0x7F01E027002983A61FC732573DBCD5CA1D39361DC45033701F7ED61CEE22E61E TIMESTAMP CALLER DUP6 DUP5 PUSH1 0x40 MLOAD PUSH2 0xC1 SWAP5 SWAP4 SWAP3 SWAP2 SWAP1 PUSH2 0x1B4 JUMP JUMPDEST PUSH1 0x40 MLOAD DUP1 SWAP2 SUB SWAP1 LOG1 DUP1 DUP1 PUSH2 0xD4 SWAP1 PUSH2 0x235 JUMP JUMPDEST SWAP2 POP POP PUSH2 0x76 JUMP JUMPDEST POP POP POP JUMP JUMPDEST PUSH1 0x0 JUMPDEST DUP2 DUP2 LT ISZERO PUSH2 0x13C JUMPI PUSH32 0x7F01E027002983A61FC732573DBCD5CA1D39361DC45033701F7ED61CEE22E61E TIMESTAMP CALLER DUP6 DUP5 PUSH1 0x40 MLOAD PUSH2 0x121 SWAP5 SWAP4 SWAP3 SWAP2 SWAP1 PUSH2 0x1B4 JUMP JUMPDEST PUSH1 0x40 MLOAD DUP1 SWAP2 SUB SWAP1 LOG1 DUP1 DUP1 PUSH2 0x134 SWAP1 PUSH2 0x235 JUMP JUMPDEST SWAP2 POP POP PUSH2 0xE4 JUMP JUMPDEST POP POP POP JUMP JUMPDEST PUSH1 0x0 DUP2 CALLDATALOAD SWAP1 POP PUSH2 0x150 DUP2 PUSH2 0x2B2 JUMP JUMPDEST SWAP3 SWAP2 POP POP JUMP JUMPDEST PUSH1 0x0 DUP1 PUSH1 0x40 DUP4 DUP6 SUB SLT ISZERO PUSH2 0x16D JUMPI PUSH2 0x16C PUSH2 0x2AD JUMP JUMPDEST JUMPDEST PUSH1 0x0 PUSH2 0x17B DUP6 DUP3 DUP7 ADD PUSH2 0x141 JUMP JUMPDEST SWAP3 POP POP PUSH1 0x20 PUSH2 0x18C DUP6 DUP3 DUP7 ADD PUSH2 0x141 JUMP JUMPDEST SWAP2 POP POP SWAP3 POP SWAP3 SWAP1 POP JUMP JUMPDEST PUSH2 0x19F DUP2 PUSH2 0x1F9 JUMP JUMPDEST DUP3 MSTORE POP POP JUMP JUMPDEST PUSH2 0x1AE DUP2 PUSH2 0x22B JUMP JUMPDEST DUP3 MSTORE POP POP JUMP JUMPDEST PUSH1 0x0 PUSH1 0x80 DUP3 ADD SWAP1 POP PUSH2 0x1C9 PUSH1 0x0 DUP4 ADD DUP8 PUSH2 0x1A5 JUMP JUMPDEST PUSH2 0x1D6 PUSH1 0x20 DUP4 ADD DUP7 PUSH2 0x196 JUMP JUMPDEST PUSH2 0x1E3 PUSH1 0x40 DUP4 ADD DUP6 PUSH2 0x1A5 JUMP JUMPDEST PUSH2 0x1F0 PUSH1 0x60 DUP4 ADD DUP5 PUSH2 0x1A5 JUMP JUMPDEST SWAP6 SWAP5 POP POP POP POP POP JUMP JUMPDEST PUSH1 0x0 PUSH2 0x204 DUP3 PUSH2 0x20B JUMP JUMPDEST SWAP1 POP SWAP2 SWAP1 POP JUMP JUMPDEST PUSH1 0x0 PUSH20 0xFFFFFFFFFFFFFFFFFFFFFFFFFFFFFFFFFFFFFFFF DUP3 AND SWAP1 POP SWAP2 SWAP1 POP JUMP JUMPDEST PUSH1 0x0 DUP2 SWAP1 POP SWAP2 SWAP1 POP JUMP JUMPDEST PUSH1 0x0 PUSH2 0x240 DUP3 PUSH2 0x22B JUMP JUMPDEST SWAP2 POP PUSH32 0xFFFFFFFFFFFFFFFFFFFFFFFFFFFFFFFFFFFFFFFFFFFFFFFFFFFFFFFFFFFFFFFF DUP3 EQ ISZERO PUSH2 0x273 JUMPI PUSH2 0x272 PUSH2 0x27E JUMP JUMPDEST JUMPDEST PUSH1 0x1 DUP3 ADD SWAP1 POP SWAP2 SWAP1 POP JUMP JUMPDEST PUSH32 0x4E487B7100000000000000000000000000000000000000000000000000000000 PUSH1 0x0 MSTORE PUSH1 0x11 PUSH1 0x4 MSTORE PUSH1 0x24 PUSH1 0x0 REVERT JUMPDEST PUSH1 0x0 DUP1 REVERT JUMPDEST PUSH2 0x2BB DUP2 PUSH2 0x22B JUMP JUMPDEST DUP2 EQ PUSH2 0x2C6 JUMPI PUSH1 0x0 DUP1 REVERT JUMPDEST POP JUMP INVALID LOG2 PUSH5 0x6970667358 0x22 SLT KECCAK256 0xB7 0xB7 TIMESTAMP RETURNDATASIZE BYTE MLOAD 0x26 PUSH15 0x6D69E43E55E73F93CEE9E3A9A7D75C 0x2F 0xD2 0xD5 0x2A SWAP3 0xC7 0xEF 0xF8 0xB4 PUSH5 0x736F6C6343 STOP ADDMOD SMOD STOP CALLER "
				},
				"gasEstimates": {
					"creation": {
						"codeDepositCost": "153400",
						"executionCost": "196",
						"totalCost": "153596"
					},
					"external": {
						"showNumbers(uint256,uint256)": "infinite",
						"showNumbersWithBreak(uint256,uint256)": "infinite"
					}
				},
				"methodIdentifiers": {
					"showNumbers(uint256,uint256)": "c8846751",
					"showNumbersWithBreak(uint256,uint256)": "0fc34d5d"
				}
			},
			"storageLayout": {
				"storage": [],
				"types": null
			},
			"userdoc": {
				"kind": "user",
				"methods": {},
				"version": 1
			}
		}
	}
}