{
	"contracts/eth_store.sol": {
		"ETHStore": {
			"abi": [
				{
					"inputs": [],
					"stateMutability": "nonpayable",
					"type": "constructor"
				},
				{
					"stateMutability": "payable",
					"type": "fallback"
				},
				{
					"inputs": [],
					"name": "getBalance",
					"outputs": [
						{
							"internalType": "uint256",
							"name": "",
							"type": "uint256"
						}
					],
					"stateMutability": "view",
					"type": "function"
				},
				{
					"inputs": [],
					"name": "owner",
					"outputs": [
						{
							"internalType": "address",
							"name": "",
							"type": "address"
						}
					],
					"stateMutability": "view",
					"type": "function"
				},
				{
					"inputs": [],
					"name": "sendEther",
					"outputs": [],
					"stateMutability": "payable",
					"type": "function"
				},
				{
					"inputs": [
						{
							"internalType": "address payable",
							"name": "recipient",
							"type": "address"
						},
						{
							"internalType": "uint256",
							"name": "amount",
							"type": "uint256"
						}
					],
					"name": "transferEther",
					"outputs": [
						{
							"internalType": "bool",
							"name": "",
							"type": "bool"
						}
					],
					"stateMutability": "nonpayable",
					"type": "function"
				},
				{
					"stateMutability": "payable",
					"type": "receive"
				}
			],
			"devdoc": {
				"kind": "dev",
				"methods": {},
				"version": 1
			},
			"evm": {
				"assembly": "    /* \"contracts/eth_store.sol\":74:667  contract ETHStore{\r... */\n  mstore(0x40, 0x80)\n    /* \"contracts/eth_store.sol\":129:179  constructor(){\r... */\n  callvalue\n  dup1\n  iszero\n  tag_1\n  jumpi\n  0x00\n  dup1\n  revert\ntag_1:\n  pop\n    /* \"contracts/eth_store.sol\":161:171  msg.sender */\n  caller\n    /* \"contracts/eth_store.sol\":153:158  owner */\n  0x00\n  dup1\n    /* \"contracts/eth_store.sol\":153:171  owner = msg.sender */\n  0x0100\n  exp\n  dup2\n  sload\n  dup2\n  0xffffffffffffffffffffffffffffffffffffffff\n  mul\n  not\n  and\n  swap1\n  dup4\n  0xffffffffffffffffffffffffffffffffffffffff\n  and\n  mul\n  or\n  swap1\n  sstore\n  pop\n    /* \"contracts/eth_store.sol\":74:667  contract ETHStore{\r... */\n  dataSize(sub_0)\n  dup1\n  dataOffset(sub_0)\n  0x00\n  codecopy\n  0x00\n  return\nstop\n\nsub_0: assembly {\n        /* \"contracts/eth_store.sol\":74:667  contract ETHStore{\r... */\n      mstore(0x40, 0x80)\n      jumpi(tag_1, lt(calldatasize, 0x04))\n      shr(0xe0, calldataload(0x00))\n      dup1\n      0x05b1137b\n      eq\n      tag_3\n      jumpi\n      dup1\n      0x0e29df22\n      eq\n      tag_4\n      jumpi\n      dup1\n      0x12065fe0\n      eq\n      tag_5\n      jumpi\n      dup1\n      0x8da5cb5b\n      eq\n      tag_6\n      jumpi\n      jump(tag_2)\n    tag_1:\n      jumpi(tag_2, calldatasize)\n      stop\n    tag_2:\n      stop\n        /* \"contracts/eth_store.sol\":413:664  function transferEther(address payable recipient, uint amount) public returns(bool){\r... */\n    tag_3:\n      callvalue\n      dup1\n      iszero\n      tag_11\n      jumpi\n      0x00\n      dup1\n      revert\n    tag_11:\n      pop\n      tag_12\n      0x04\n      dup1\n      calldatasize\n      sub\n      dup2\n      add\n      swap1\n      tag_13\n      swap2\n      swap1\n      tag_14\n      jump\t// in\n    tag_13:\n      tag_15\n      jump\t// in\n    tag_12:\n      mload(0x40)\n      tag_16\n      swap2\n      swap1\n      tag_17\n      jump\t// in\n    tag_16:\n      mload(0x40)\n      dup1\n      swap2\n      sub\n      swap1\n      return\n        /* \"contracts/eth_store.sol\":362:405  function sendEther() payable public{\r... */\n    tag_4:\n      tag_18\n      tag_19\n      jump\t// in\n    tag_18:\n      stop\n        /* \"contracts/eth_store.sol\":260:354  function getBalance() public view returns(uint){\r... */\n    tag_5:\n      callvalue\n      dup1\n      iszero\n      tag_20\n      jumpi\n      0x00\n      dup1\n      revert\n    tag_20:\n      pop\n      tag_21\n      tag_22\n      jump\t// in\n    tag_21:\n      mload(0x40)\n      tag_23\n      swap2\n      swap1\n      tag_24\n      jump\t// in\n    tag_23:\n      mload(0x40)\n      dup1\n      swap2\n      sub\n      swap1\n      return\n        /* \"contracts/eth_store.sol\":100:120  address public owner */\n    tag_6:\n      callvalue\n      dup1\n      iszero\n      tag_25\n      jumpi\n      0x00\n      dup1\n      revert\n    tag_25:\n      pop\n      tag_26\n      tag_27\n      jump\t// in\n    tag_26:\n      mload(0x40)\n      tag_28\n      swap2\n      swap1\n      tag_29\n      jump\t// in\n    tag_28:\n      mload(0x40)\n      dup1\n      swap2\n      sub\n      swap1\n      return\n        /* \"contracts/eth_store.sol\":413:664  function transferEther(address payable recipient, uint amount) public returns(bool){\r... */\n    tag_15:\n        /* \"contracts/eth_store.sol\":491:495  bool */\n      0x00\n        /* \"contracts/eth_store.sol\":520:532  getBalance() */\n      tag_31\n        /* \"contracts/eth_store.sol\":520:530  getBalance */\n      tag_22\n        /* \"contracts/eth_store.sol\":520:532  getBalance() */\n      jump\t// in\n    tag_31:\n        /* \"contracts/eth_store.sol\":510:516  amount */\n      dup3\n        /* \"contracts/eth_store.sol\":510:532  amount <= getBalance() */\n      gt\n        /* \"contracts/eth_store.sol\":507:657  if(amount <= getBalance() ){\r... */\n      tag_32\n      jumpi\n        /* \"contracts/eth_store.sol\":549:558  recipient */\n      dup3\n        /* \"contracts/eth_store.sol\":549:567  recipient.transfer */\n      0xffffffffffffffffffffffffffffffffffffffff\n      and\n        /* \"contracts/eth_store.sol\":549:575  recipient.transfer(amount) */\n      0x08fc\n        /* \"contracts/eth_store.sol\":568:574  amount */\n      dup4\n        /* \"contracts/eth_store.sol\":549:575  recipient.transfer(amount) */\n      swap1\n      dup2\n      iszero\n      mul\n      swap1\n      mload(0x40)\n      0x00\n      mload(0x40)\n      dup1\n      dup4\n      sub\n      dup2\n      dup6\n      dup9\n      dup9\n      call\n      swap4\n      pop\n      pop\n      pop\n      pop\n      iszero\n      dup1\n      iszero\n      tag_34\n      jumpi\n      returndatasize\n      0x00\n      dup1\n      returndatacopy\n      revert(0x00, returndatasize)\n    tag_34:\n      pop\n        /* \"contracts/eth_store.sol\":597:601  true */\n      0x01\n        /* \"contracts/eth_store.sol\":590:601  return true */\n      swap1\n      pop\n      jump(tag_30)\n        /* \"contracts/eth_store.sol\":507:657  if(amount <= getBalance() ){\r... */\n    tag_32:\n        /* \"contracts/eth_store.sol\":640:645  false */\n      0x00\n        /* \"contracts/eth_store.sol\":633:645  return false */\n      swap1\n      pop\n        /* \"contracts/eth_store.sol\":413:664  function transferEther(address payable recipient, uint amount) public returns(bool){\r... */\n    tag_30:\n      swap3\n      swap2\n      pop\n      pop\n      jump\t// out\n        /* \"contracts/eth_store.sol\":362:405  function sendEther() payable public{\r... */\n    tag_19:\n      jump\t// out\n        /* \"contracts/eth_store.sol\":260:354  function getBalance() public view returns(uint){\r... */\n    tag_22:\n        /* \"contracts/eth_store.sol\":302:306  uint */\n      0x00\n        /* \"contracts/eth_store.sol\":325:346  address(this).balance */\n      selfbalance\n        /* \"contracts/eth_store.sol\":318:346  return address(this).balance */\n      swap1\n      pop\n        /* \"contracts/eth_store.sol\":260:354  function getBalance() public view returns(uint){\r... */\n      swap1\n      jump\t// out\n        /* \"contracts/eth_store.sol\":100:120  address public owner */\n    tag_27:\n      0x00\n      dup1\n      sload\n      swap1\n      0x0100\n      exp\n      swap1\n      div\n      0xffffffffffffffffffffffffffffffffffffffff\n      and\n      dup2\n      jump\t// out\n        /* \"#utility.yul\":7:162   */\n    tag_39:\n        /* \"#utility.yul\":61:66   */\n      0x00\n        /* \"#utility.yul\":99:105   */\n      dup2\n        /* \"#utility.yul\":86:106   */\n      calldataload\n        /* \"#utility.yul\":77:106   */\n      swap1\n      pop\n        /* \"#utility.yul\":115:156   */\n      tag_41\n        /* \"#utility.yul\":150:155   */\n      dup2\n        /* \"#utility.yul\":115:156   */\n      tag_42\n      jump\t// in\n    tag_41:\n        /* \"#utility.yul\":7:162   */\n      swap3\n      swap2\n      pop\n      pop\n      jump\t// out\n        /* \"#utility.yul\":168:307   */\n    tag_43:\n        /* \"#utility.yul\":214:219   */\n      0x00\n        /* \"#utility.yul\":252:258   */\n      dup2\n        /* \"#utility.yul\":239:259   */\n      calldataload\n        /* \"#utility.yul\":230:259   */\n      swap1\n      pop\n        /* \"#utility.yul\":268:301   */\n      tag_45\n        /* \"#utility.yul\":295:300   */\n      dup2\n        /* \"#utility.yul\":268:301   */\n      tag_46\n      jump\t// in\n    tag_45:\n        /* \"#utility.yul\":168:307   */\n      swap3\n      swap2\n      pop\n      pop\n      jump\t// out\n        /* \"#utility.yul\":313:803   */\n    tag_14:\n        /* \"#utility.yul\":389:395   */\n      0x00\n        /* \"#utility.yul\":397:403   */\n      dup1\n        /* \"#utility.yul\":446:448   */\n      0x40\n        /* \"#utility.yul\":434:443   */\n      dup4\n        /* \"#utility.yul\":425:432   */\n      dup6\n        /* \"#utility.yul\":421:444   */\n      sub\n        /* \"#utility.yul\":417:449   */\n      slt\n        /* \"#utility.yul\":414:533   */\n      iszero\n      tag_48\n      jumpi\n        /* \"#utility.yul\":452:531   */\n      tag_49\n      tag_50\n      jump\t// in\n    tag_49:\n        /* \"#utility.yul\":414:533   */\n    tag_48:\n        /* \"#utility.yul\":572:573   */\n      0x00\n        /* \"#utility.yul\":597:658   */\n      tag_51\n        /* \"#utility.yul\":650:657   */\n      dup6\n        /* \"#utility.yul\":641:647   */\n      dup3\n        /* \"#utility.yul\":630:639   */\n      dup7\n        /* \"#utility.yul\":626:648   */\n      add\n        /* \"#utility.yul\":597:658   */\n      tag_39\n      jump\t// in\n    tag_51:\n        /* \"#utility.yul\":587:658   */\n      swap3\n      pop\n        /* \"#utility.yul\":543:668   */\n      pop\n        /* \"#utility.yul\":707:709   */\n      0x20\n        /* \"#utility.yul\":733:786   */\n      tag_52\n        /* \"#utility.yul\":778:785   */\n      dup6\n        /* \"#utility.yul\":769:775   */\n      dup3\n        /* \"#utility.yul\":758:767   */\n      dup7\n        /* \"#utility.yul\":754:776   */\n      add\n        /* \"#utility.yul\":733:786   */\n      tag_43\n      jump\t// in\n    tag_52:\n        /* \"#utility.yul\":723:786   */\n      swap2\n      pop\n        /* \"#utility.yul\":678:796   */\n      pop\n        /* \"#utility.yul\":313:803   */\n      swap3\n      pop\n      swap3\n      swap1\n      pop\n      jump\t// out\n        /* \"#utility.yul\":809:927   */\n    tag_53:\n        /* \"#utility.yul\":896:920   */\n      tag_55\n        /* \"#utility.yul\":914:919   */\n      dup2\n        /* \"#utility.yul\":896:920   */\n      tag_56\n      jump\t// in\n    tag_55:\n        /* \"#utility.yul\":891:894   */\n      dup3\n        /* \"#utility.yul\":884:921   */\n      mstore\n        /* \"#utility.yul\":809:927   */\n      pop\n      pop\n      jump\t// out\n        /* \"#utility.yul\":933:1042   */\n    tag_57:\n        /* \"#utility.yul\":1014:1035   */\n      tag_59\n        /* \"#utility.yul\":1029:1034   */\n      dup2\n        /* \"#utility.yul\":1014:1035   */\n      tag_60\n      jump\t// in\n    tag_59:\n        /* \"#utility.yul\":1009:1012   */\n      dup3\n        /* \"#utility.yul\":1002:1036   */\n      mstore\n        /* \"#utility.yul\":933:1042   */\n      pop\n      pop\n      jump\t// out\n        /* \"#utility.yul\":1048:1166   */\n    tag_61:\n        /* \"#utility.yul\":1135:1159   */\n      tag_63\n        /* \"#utility.yul\":1153:1158   */\n      dup2\n        /* \"#utility.yul\":1135:1159   */\n      tag_64\n      jump\t// in\n    tag_63:\n        /* \"#utility.yul\":1130:1133   */\n      dup3\n        /* \"#utility.yul\":1123:1160   */\n      mstore\n        /* \"#utility.yul\":1048:1166   */\n      pop\n      pop\n      jump\t// out\n        /* \"#utility.yul\":1172:1394   */\n    tag_29:\n        /* \"#utility.yul\":1265:1269   */\n      0x00\n        /* \"#utility.yul\":1303:1305   */\n      0x20\n        /* \"#utility.yul\":1292:1301   */\n      dup3\n        /* \"#utility.yul\":1288:1306   */\n      add\n        /* \"#utility.yul\":1280:1306   */\n      swap1\n      pop\n        /* \"#utility.yul\":1316:1387   */\n      tag_66\n        /* \"#utility.yul\":1384:1385   */\n      0x00\n        /* \"#utility.yul\":1373:1382   */\n      dup4\n        /* \"#utility.yul\":1369:1386   */\n      add\n        /* \"#utility.yul\":1360:1366   */\n      dup5\n        /* \"#utility.yul\":1316:1387   */\n      tag_53\n      jump\t// in\n    tag_66:\n        /* \"#utility.yul\":1172:1394   */\n      swap3\n      swap2\n      pop\n      pop\n      jump\t// out\n        /* \"#utility.yul\":1400:1610   */\n    tag_17:\n        /* \"#utility.yul\":1487:1491   */\n      0x00\n        /* \"#utility.yul\":1525:1527   */\n      0x20\n        /* \"#utility.yul\":1514:1523   */\n      dup3\n        /* \"#utility.yul\":1510:1528   */\n      add\n        /* \"#utility.yul\":1502:1528   */\n      swap1\n      pop\n        /* \"#utility.yul\":1538:1603   */\n      tag_68\n        /* \"#utility.yul\":1600:1601   */\n      0x00\n        /* \"#utility.yul\":1589:1598   */\n      dup4\n        /* \"#utility.yul\":1585:1602   */\n      add\n        /* \"#utility.yul\":1576:1582   */\n      dup5\n        /* \"#utility.yul\":1538:1603   */\n      tag_57\n      jump\t// in\n    tag_68:\n        /* \"#utility.yul\":1400:1610   */\n      swap3\n      swap2\n      pop\n      pop\n      jump\t// out\n        /* \"#utility.yul\":1616:1838   */\n    tag_24:\n        /* \"#utility.yul\":1709:1713   */\n      0x00\n        /* \"#utility.yul\":1747:1749   */\n      0x20\n        /* \"#utility.yul\":1736:1745   */\n      dup3\n        /* \"#utility.yul\":1732:1750   */\n      add\n        /* \"#utility.yul\":1724:1750   */\n      swap1\n      pop\n        /* \"#utility.yul\":1760:1831   */\n      tag_70\n        /* \"#utility.yul\":1828:1829   */\n      0x00\n        /* \"#utility.yul\":1817:1826   */\n      dup4\n        /* \"#utility.yul\":1813:1830   */\n      add\n        /* \"#utility.yul\":1804:1810   */\n      dup5\n        /* \"#utility.yul\":1760:1831   */\n      tag_61\n      jump\t// in\n    tag_70:\n        /* \"#utility.yul\":1616:1838   */\n      swap3\n      swap2\n      pop\n      pop\n      jump\t// out\n        /* \"#utility.yul\":1925:2021   */\n    tag_56:\n        /* \"#utility.yul\":1962:1969   */\n      0x00\n        /* \"#utility.yul\":1991:2015   */\n      tag_74\n        /* \"#utility.yul\":2009:2014   */\n      dup3\n        /* \"#utility.yul\":1991:2015   */\n      tag_75\n      jump\t// in\n    tag_74:\n        /* \"#utility.yul\":1980:2015   */\n      swap1\n      pop\n        /* \"#utility.yul\":1925:2021   */\n      swap2\n      swap1\n      pop\n      jump\t// out\n        /* \"#utility.yul\":2027:2131   */\n    tag_76:\n        /* \"#utility.yul\":2072:2079   */\n      0x00\n        /* \"#utility.yul\":2101:2125   */\n      tag_78\n        /* \"#utility.yul\":2119:2124   */\n      dup3\n        /* \"#utility.yul\":2101:2125   */\n      tag_75\n      jump\t// in\n    tag_78:\n        /* \"#utility.yul\":2090:2125   */\n      swap1\n      pop\n        /* \"#utility.yul\":2027:2131   */\n      swap2\n      swap1\n      pop\n      jump\t// out\n        /* \"#utility.yul\":2137:2227   */\n    tag_60:\n        /* \"#utility.yul\":2171:2178   */\n      0x00\n        /* \"#utility.yul\":2214:2219   */\n      dup2\n        /* \"#utility.yul\":2207:2220   */\n      iszero\n        /* \"#utility.yul\":2200:2221   */\n      iszero\n        /* \"#utility.yul\":2189:2221   */\n      swap1\n      pop\n        /* \"#utility.yul\":2137:2227   */\n      swap2\n      swap1\n      pop\n      jump\t// out\n        /* \"#utility.yul\":2233:2359   */\n    tag_75:\n        /* \"#utility.yul\":2270:2277   */\n      0x00\n        /* \"#utility.yul\":2310:2352   */\n      0xffffffffffffffffffffffffffffffffffffffff\n        /* \"#utility.yul\":2303:2308   */\n      dup3\n        /* \"#utility.yul\":2299:2353   */\n      and\n        /* \"#utility.yul\":2288:2353   */\n      swap1\n      pop\n        /* \"#utility.yul\":2233:2359   */\n      swap2\n      swap1\n      pop\n      jump\t// out\n        /* \"#utility.yul\":2365:2442   */\n    tag_64:\n        /* \"#utility.yul\":2402:2409   */\n      0x00\n        /* \"#utility.yul\":2431:2436   */\n      dup2\n        /* \"#utility.yul\":2420:2436   */\n      swap1\n      pop\n        /* \"#utility.yul\":2365:2442   */\n      swap2\n      swap1\n      pop\n      jump\t// out\n        /* \"#utility.yul\":2571:2688   */\n    tag_50:\n        /* \"#utility.yul\":2680:2681   */\n      0x00\n        /* \"#utility.yul\":2677:2678   */\n      dup1\n        /* \"#utility.yul\":2670:2682   */\n      revert\n        /* \"#utility.yul\":2694:2832   */\n    tag_42:\n        /* \"#utility.yul\":2775:2807   */\n      tag_86\n        /* \"#utility.yul\":2801:2806   */\n      dup2\n        /* \"#utility.yul\":2775:2807   */\n      tag_76\n      jump\t// in\n    tag_86:\n        /* \"#utility.yul\":2768:2773   */\n      dup2\n        /* \"#utility.yul\":2765:2808   */\n      eq\n        /* \"#utility.yul\":2755:2826   */\n      tag_87\n      jumpi\n        /* \"#utility.yul\":2822:2823   */\n      0x00\n        /* \"#utility.yul\":2819:2820   */\n      dup1\n        /* \"#utility.yul\":2812:2824   */\n      revert\n        /* \"#utility.yul\":2755:2826   */\n    tag_87:\n        /* \"#utility.yul\":2694:2832   */\n      pop\n      jump\t// out\n        /* \"#utility.yul\":2838:2960   */\n    tag_46:\n        /* \"#utility.yul\":2911:2935   */\n      tag_89\n        /* \"#utility.yul\":2929:2934   */\n      dup2\n        /* \"#utility.yul\":2911:2935   */\n      tag_64\n      jump\t// in\n    tag_89:\n        /* \"#utility.yul\":2904:2909   */\n      dup2\n        /* \"#utility.yul\":2901:2936   */\n      eq\n        /* \"#utility.yul\":2891:2954   */\n      tag_90\n      jumpi\n        /* \"#utility.yul\":2950:2951   */\n      0x00\n        /* \"#utility.yul\":2947:2948   */\n      dup1\n        /* \"#utility.yul\":2940:2952   */\n      revert\n        /* \"#utility.yul\":2891:2954   */\n    tag_90:\n        /* \"#utility.yul\":2838:2960   */\n      pop\n      jump\t// out\n\n    auxdata: 0xa264697066735822122000361ccc89808ab03029fee53185401ddc0b7ecd73d3b34abcee588c285c3f3664736f6c63430008070033\n}\n",
				"bytecode": {
					"linkReferences": {},
					"object": "608060405234801561001057600080fd5b50336000806101000a81548173ffffffffffffffffffffffffffffffffffffffff021916908373ffffffffffffffffffffffffffffffffffffffff16021790555061032d806100606000396000f3fe6080604052600436106100435760003560e01c806305b1137b1461004c5780630e29df221461008957806312065fe0146100935780638da5cb5b146100be5761004a565b3661004a57005b005b34801561005857600080fd5b50610073600480360381019061006e91906101ac565b6100e9565b6040516100809190610234565b60405180910390f35b610091610154565b005b34801561009f57600080fd5b506100a8610156565b6040516100b5919061024f565b60405180910390f35b3480156100ca57600080fd5b506100d361015e565b6040516100e09190610219565b60405180910390f35b60006100f3610156565b8211610149578273ffffffffffffffffffffffffffffffffffffffff166108fc839081150290604051600060405180830381858888f1935050505015801561013f573d6000803e3d6000fd5b506001905061014e565b600090505b92915050565b565b600047905090565b60008054906101000a900473ffffffffffffffffffffffffffffffffffffffff1681565b600081359050610191816102c9565b92915050565b6000813590506101a6816102e0565b92915050565b600080604083850312156101c3576101c26102c4565b5b60006101d185828601610182565b92505060206101e285828601610197565b9150509250929050565b6101f58161026a565b82525050565b6102048161028e565b82525050565b610213816102ba565b82525050565b600060208201905061022e60008301846101ec565b92915050565b600060208201905061024960008301846101fb565b92915050565b6000602082019050610264600083018461020a565b92915050565b60006102758261029a565b9050919050565b60006102878261029a565b9050919050565b60008115159050919050565b600073ffffffffffffffffffffffffffffffffffffffff82169050919050565b6000819050919050565b600080fd5b6102d28161027c565b81146102dd57600080fd5b50565b6102e9816102ba565b81146102f457600080fd5b5056fea264697066735822122000361ccc89808ab03029fee53185401ddc0b7ecd73d3b34abcee588c285c3f3664736f6c63430008070033",
					"opcodes": "PUSH1 0x80 PUSH1 0x40 MSTORE CALLVALUE DUP1 ISZERO PUSH2 0x10 JUMPI PUSH1 0x0 DUP1 REVERT JUMPDEST POP CALLER PUSH1 0x0 DUP1 PUSH2 0x100 EXP DUP2 SLOAD DUP2 PUSH20 0xFFFFFFFFFFFFFFFFFFFFFFFFFFFFFFFFFFFFFFFF MUL NOT AND SWAP1 DUP4 PUSH20 0xFFFFFFFFFFFFFFFFFFFFFFFFFFFFFFFFFFFFFFFF AND MUL OR SWAP1 SSTORE POP PUSH2 0x32D DUP1 PUSH2 0x60 PUSH1 0x0 CODECOPY PUSH1 0x0 RETURN INVALID PUSH1 0x80 PUSH1 0x40 MSTORE PUSH1 0x4 CALLDATASIZE LT PUSH2 0x43 JUMPI PUSH1 0x0 CALLDATALOAD PUSH1 0xE0 SHR DUP1 PUSH4 0x5B1137B EQ PUSH2 0x4C JUMPI DUP1 PUSH4 0xE29DF22 EQ PUSH2 0x89 JUMPI DUP1 PUSH4 0x12065FE0 EQ PUSH2 0x93 JUMPI DUP1 PUSH4 0x8DA5CB5B EQ PUSH2 0xBE JUMPI PUSH2 0x4A JUMP JUMPDEST CALLDATASIZE PUSH2 0x4A JUMPI STOP JUMPDEST STOP JUMPDEST CALLVALUE DUP1 ISZERO PUSH2 0x58 JUMPI PUSH1 0x0 DUP1 REVERT JUMPDEST POP PUSH2 0x73 PUSH1 0x4 DUP1 CALLDATASIZE SUB DUP2 ADD SWAP1 PUSH2 0x6E SWAP2 SWAP1 PUSH2 0x1AC JUMP JUMPDEST PUSH2 0xE9 JUMP JUMPDEST PUSH1 0x40 MLOAD PUSH2 0x80 SWAP2 SWAP1 PUSH2 0x234 JUMP JUMPDEST PUSH1 0x40 MLOAD DUP1 SWAP2 SUB SWAP1 RETURN JUMPDEST PUSH2 0x91 PUSH2 0x154 JUMP JUMPDEST STOP JUMPDEST CALLVALUE DUP1 ISZERO PUSH2 0x9F JUMPI PUSH1 0x0 DUP1 REVERT JUMPDEST POP PUSH2 0xA8 PUSH2 0x156 JUMP JUMPDEST PUSH1 0x40 MLOAD PUSH2 0xB5 SWAP2 SWAP1 PUSH2 0x24F JUMP JUMPDEST PUSH1 0x40 MLOAD DUP1 SWAP2 SUB SWAP1 RETURN JUMPDEST CALLVALUE DUP1 ISZERO PUSH2 0xCA JUMPI PUSH1 0x0 DUP1 REVERT JUMPDEST POP PUSH2 0xD3 PUSH2 0x15E JUMP JUMPDEST PUSH1 0x40 MLOAD PUSH2 0xE0 SWAP2 SWAP1 PUSH2 0x219 JUMP JUMPDEST PUSH1 0x40 MLOAD DUP1 SWAP2 SUB SWAP1 RETURN JUMPDEST PUSH1 0x0 PUSH2 0xF3 PUSH2 0x156 JUMP JUMPDEST DUP3 GT PUSH2 0x149 JUMPI DUP3 PUSH20 0xFFFFFFFFFFFFFFFFFFFFFFFFFFFFFFFFFFFFFFFF AND PUSH2 0x8FC DUP4 SWAP1 DUP2 ISZERO MUL SWAP1 PUSH1 0x40 MLOAD PUSH1 0x0 PUSH1 0x40 MLOAD DUP1 DUP4 SUB DUP2 DUP6 DUP9 DUP9 CALL SWAP4 POP POP POP POP ISZERO DUP1 ISZERO PUSH2 0x13F JUMPI RETURNDATASIZE PUSH1 0x0 DUP1 RETURNDATACOPY RETURNDATASIZE PUSH1 0x0 REVERT JUMPDEST POP PUSH1 0x1 SWAP1 POP PUSH2 0x14E JUMP JUMPDEST PUSH1 0x0 SWAP1 POP JUMPDEST SWAP3 SWAP2 POP POP JUMP JUMPDEST JUMP JUMPDEST PUSH1 0x0 SELFBALANCE SWAP1 POP SWAP1 JUMP JUMPDEST PUSH1 0x0 DUP1 SLOAD SWAP1 PUSH2 0x100 EXP SWAP1 DIV PUSH20 0xFFFFFFFFFFFFFFFFFFFFFFFFFFFFFFFFFFFFFFFF AND DUP2 JUMP JUMPDEST PUSH1 0x0 DUP2 CALLDATALOAD SWAP1 POP PUSH2 0x191 DUP2 PUSH2 0x2C9 JUMP JUMPDEST SWAP3 SWAP2 POP POP JUMP JUMPDEST PUSH1 0x0 DUP2 CALLDATALOAD SWAP1 POP PUSH2 0x1A6 DUP2 PUSH2 0x2E0 JUMP JUMPDEST SWAP3 SWAP2 POP POP JUMP JUMPDEST PUSH1 0x0 DUP1 PUSH1 0x40 DUP4 DUP6 SUB SLT ISZERO PUSH2 0x1C3 JUMPI PUSH2 0x1C2 PUSH2 0x2C4 JUMP JUMPDEST JUMPDEST PUSH1 0x0 PUSH2 0x1D1 DUP6 DUP3 DUP7 ADD PUSH2 0x182 JUMP JUMPDEST SWAP3 POP POP PUSH1 0x20 PUSH2 0x1E2 DUP6 DUP3 DUP7 ADD PUSH2 0x197 JUMP JUMPDEST SWAP2 POP POP SWAP3 POP SWAP3 SWAP1 POP JUMP JUMPDEST PUSH2 0x1F5 DUP2 PUSH2 0x26A JUMP JUMPDEST DUP3 MSTORE POP POP JUMP JUMPDEST PUSH2 0x204 DUP2 PUSH2 0x28E JUMP JUMPDEST DUP3 MSTORE POP POP JUMP JUMPDEST PUSH2 0x213 DUP2 PUSH2 0x2BA JUMP JUMPDEST DUP3 MSTORE POP POP JUMP JUMPDEST PUSH1 0x0 PUSH1 0x20 DUP3 ADD SWAP1 POP PUSH2 0x22E PUSH1 0x0 DUP4 ADD DUP5 PUSH2 0x1EC JUMP JUMPDEST SWAP3 SWAP2 POP POP JUMP JUMPDEST PUSH1 0x0 PUSH1 0x20 DUP3 ADD SWAP1 POP PUSH2 0x249 PUSH1 0x0 DUP4 ADD DUP5 PUSH2 0x1FB JUMP JUMPDEST SWAP3 SWAP2 POP POP JUMP JUMPDEST PUSH1 0x0 PUSH1 0x20 DUP3 ADD SWAP1 POP PUSH2 0x264 PUSH1 0x0 DUP4 ADD DUP5 PUSH2 0x20A JUMP JUMPDEST SWAP3 SWAP2 POP POP JUMP JUMPDEST PUSH1 0x0 PUSH2 0x275 DUP3 PUSH2 0x29A JUMP JUMPDEST SWAP1 POP SWAP2 SWAP1 POP JUMP JUMPDEST PUSH1 0x0 PUSH2 0x287 DUP3 PUSH2 0x29A JUMP JUMPDEST SWAP1 POP SWAP2 SWAP1 POP JUMP JUMPDEST PUSH1 0x0 DUP2 ISZERO ISZERO SWAP1 POP SWAP2 SWAP1 POP JUMP JUMPDEST PUSH1 0x0 PUSH20 0xFFFFFFFFFFFFFFFFFFFFFFFFFFFFFFFFFFFFFFFF DUP3 AND SWAP1 POP SWAP2 SWAP1 POP JUMP JUMPDEST PUSH1 0x0 DUP2 SWAP1 POP SWAP2 SWAP1 POP JUMP JUMPDEST PUSH1 0x0 DUP1 REVERT JUMPDEST PUSH2 0x2D2 DUP2 PUSH2 0x27C JUMP JUMPDEST DUP2 EQ PUSH2 0x2DD JUMPI PUSH1 0x0 DUP1 REVERT JUMPDEST POP JUMP JUMPDEST PUSH2 0x2E9 DUP2 PUSH2 0x2BA JUMP JUMPDEST DUP2 EQ PUSH2 0x2F4 JUMPI PUSH1 0x0 DUP1 REVERT JUMPDEST POP JUMP INVALID LOG2 PUSH5 0x6970667358 0x22 SLT KECCAK256 STOP CALLDATASIZE SHR 0xCC DUP10 DUP1 DUP11 0xB0 ADDRESS 0x29 INVALID 0xE5 BALANCE DUP6 BLOCKHASH SAR 0xDC SIGNEXTEND PUSH31 0xCD73D3B34ABCEE588C285C3F3664736F6C6343000807003300000000000000 "
				},
				"gasEstimates": {
					"creation": {
						"codeDepositCost": "162600",
						"executionCost": "24474",
						"totalCost": "187074"
					},
					"external": {
						"": "151",
						"getBalance()": "361",
						"owner()": "2555",
						"sendEther()": "120",
						"transferEther(address,uint256)": "infinite"
					}
				},
				"methodIdentifiers": {
					"getBalance()": "12065fe0",
					"owner()": "8da5cb5b",
					"sendEther()": "0e29df22",
					"transferEther(address,uint256)": "05b1137b"
				}
			},
			"storageLayout": {
				"storage": [
					{
						"astId": 3,
						"contract": "contracts/eth_store.sol:ETHStore",
						"label": "owner",
						"offset": 0,
						"slot": "0",
						"type": "t_address"
					}
				],
				"types": {
					"t_address": {
						"encoding": "inplace",
						"label": "address",
						"numberOfBytes": "20"
					}
				}
			},
			"userdoc": {
				"kind": "user",
				"methods": {},
				"version": 1
			}
		}
	}
}