{
	"contracts/visibility.sol": {
		"C": {
			"abi": [
				{
					"inputs": [],
					"name": "contract_a",
					"outputs": [
						{
							"internalType": "contract A",
							"name": "",
							"type": "address"
						}
					],
					"stateMutability": "view",
					"type": "function"
				},
				{
					"inputs": [],
					"name": "xa",
					"outputs": [
						{
							"internalType": "uint256",
							"name": "",
							"type": "uint256"
						}
					],
					"stateMutability": "view",
					"type": "function"
				}
			],
			"devdoc": {
				"kind": "dev",
				"methods": {},
				"version": 1
			},
			"evm": {
				"assembly": "    /* \"contracts/visibility.sol\":582:673  contract C {\r... */\n  mstore(0x40, 0x80)\n    /* \"contracts/visibility.sol\":622:629  new A() */\n  mload(0x40)\n  tag_1\n  swap1\n  tag_2\n  jump\t// in\ntag_1:\n  mload(0x40)\n  dup1\n  swap2\n  sub\n  swap1\n  0x00\n  create\n  dup1\n  iszero\n  dup1\n  iszero\n  tag_3\n  jumpi\n  returndatasize\n  0x00\n  dup1\n  returndatacopy\n  revert(0x00, returndatasize)\ntag_3:\n  pop\n    /* \"contracts/visibility.sol\":600:629  A public contract_a = new A() */\n  0x00\n  dup1\n  0x0100\n  exp\n  dup2\n  sload\n  dup2\n  0xffffffffffffffffffffffffffffffffffffffff\n  mul\n  not\n  and\n  swap1\n  dup4\n  0xffffffffffffffffffffffffffffffffffffffff\n  and\n  mul\n  or\n  swap1\n  sstore\n  pop\n    /* \"contracts/visibility.sol\":653:663  contract_a */\n  0x00\n  dup1\n  sload\n  swap1\n  0x0100\n  exp\n  swap1\n  div\n  0xffffffffffffffffffffffffffffffffffffffff\n  and\n    /* \"contracts/visibility.sol\":653:666  contract_a.f4 */\n  0xffffffffffffffffffffffffffffffffffffffff\n  and\n  0xc3f90202\n    /* \"contracts/visibility.sol\":653:668  contract_a.f4() */\n  mload(0x40)\n  dup2\n  0xffffffff\n  and\n  0xe0\n  shl\n  dup2\n  mstore\n  0x04\n  add\n  0x20\n  mload(0x40)\n  dup1\n  dup4\n  sub\n  dup2\n  dup7\n  dup1\n  extcodesize\n  iszero\n  dup1\n  iszero\n  tag_4\n  jumpi\n  0x00\n  dup1\n  revert\ntag_4:\n  pop\n  gas\n  staticcall\n  iszero\n  dup1\n  iszero\n  tag_6\n  jumpi\n  returndatasize\n  0x00\n  dup1\n  returndatacopy\n  revert(0x00, returndatasize)\ntag_6:\n  pop\n  pop\n  pop\n  pop\n  mload(0x40)\n  returndatasize\n  not(0x1f)\n  0x1f\n  dup3\n  add\n  and\n  dup3\n  add\n  dup1\n  0x40\n  mstore\n  pop\n  dup2\n  add\n  swap1\n  tag_7\n  swap2\n  swap1\n  tag_8\n  jump\t// in\ntag_7:\n    /* \"contracts/visibility.sol\":636:668  uint public xa = contract_a.f4() */\n  0x01\n  sstore\n    /* \"contracts/visibility.sol\":582:673  contract C {\r... */\n  callvalue\n  dup1\n  iszero\n  tag_9\n  jumpi\n  0x00\n  dup1\n  revert\ntag_9:\n  pop\n  jump(tag_10)\ntag_2:\n  dataSize(sub_1)\n  dup1\n  dataOffset(sub_1)\n  dup4\n  codecopy\n  add\n  swap1\n  jump\t// out\n    /* \"#utility.yul\":7:150   */\ntag_12:\n    /* \"#utility.yul\":64:69   */\n  0x00\n    /* \"#utility.yul\":95:101   */\n  dup2\n    /* \"#utility.yul\":89:102   */\n  mload\n    /* \"#utility.yul\":80:102   */\n  swap1\n  pop\n    /* \"#utility.yul\":111:144   */\n  tag_14\n    /* \"#utility.yul\":138:143   */\n  dup2\n    /* \"#utility.yul\":111:144   */\n  tag_15\n  jump\t// in\ntag_14:\n    /* \"#utility.yul\":7:150   */\n  swap3\n  swap2\n  pop\n  pop\n  jump\t// out\n    /* \"#utility.yul\":156:507   */\ntag_8:\n    /* \"#utility.yul\":226:232   */\n  0x00\n    /* \"#utility.yul\":275:277   */\n  0x20\n    /* \"#utility.yul\":263:272   */\n  dup3\n    /* \"#utility.yul\":254:261   */\n  dup5\n    /* \"#utility.yul\":250:273   */\n  sub\n    /* \"#utility.yul\":246:278   */\n  slt\n    /* \"#utility.yul\":243:362   */\n  iszero\n  tag_17\n  jumpi\n    /* \"#utility.yul\":281:360   */\n  tag_18\n  tag_19\n  jump\t// in\ntag_18:\n    /* \"#utility.yul\":243:362   */\ntag_17:\n    /* \"#utility.yul\":401:402   */\n  0x00\n    /* \"#utility.yul\":426:490   */\n  tag_20\n    /* \"#utility.yul\":482:489   */\n  dup5\n    /* \"#utility.yul\":473:479   */\n  dup3\n    /* \"#utility.yul\":462:471   */\n  dup6\n    /* \"#utility.yul\":458:480   */\n  add\n    /* \"#utility.yul\":426:490   */\n  tag_12\n  jump\t// in\ntag_20:\n    /* \"#utility.yul\":416:490   */\n  swap2\n  pop\n    /* \"#utility.yul\":372:500   */\n  pop\n    /* \"#utility.yul\":156:507   */\n  swap3\n  swap2\n  pop\n  pop\n  jump\t// out\n    /* \"#utility.yul\":594:671   */\ntag_23:\n    /* \"#utility.yul\":631:638   */\n  0x00\n    /* \"#utility.yul\":660:665   */\n  dup2\n    /* \"#utility.yul\":649:665   */\n  swap1\n  pop\n    /* \"#utility.yul\":594:671   */\n  swap2\n  swap1\n  pop\n  jump\t// out\n    /* \"#utility.yul\":800:917   */\ntag_19:\n    /* \"#utility.yul\":909:910   */\n  0x00\n    /* \"#utility.yul\":906:907   */\n  dup1\n    /* \"#utility.yul\":899:911   */\n  revert\n    /* \"#utility.yul\":923:1045   */\ntag_15:\n    /* \"#utility.yul\":996:1020   */\n  tag_29\n    /* \"#utility.yul\":1014:1019   */\n  dup2\n    /* \"#utility.yul\":996:1020   */\n  tag_23\n  jump\t// in\ntag_29:\n    /* \"#utility.yul\":989:994   */\n  dup2\n    /* \"#utility.yul\":986:1021   */\n  eq\n    /* \"#utility.yul\":976:1039   */\n  tag_30\n  jumpi\n    /* \"#utility.yul\":1035:1036   */\n  0x00\n    /* \"#utility.yul\":1032:1033   */\n  dup1\n    /* \"#utility.yul\":1025:1037   */\n  revert\n    /* \"#utility.yul\":976:1039   */\ntag_30:\n    /* \"#utility.yul\":923:1045   */\n  pop\n  jump\t// out\n    /* \"contracts/visibility.sol\":582:673  contract C {\r... */\ntag_10:\n  dataSize(sub_0)\n  dup1\n  dataOffset(sub_0)\n  0x00\n  codecopy\n  0x00\n  return\nstop\n\nsub_0: assembly {\n        /* \"contracts/visibility.sol\":582:673  contract C {\r... */\n      mstore(0x40, 0x80)\n      callvalue\n      dup1\n      iszero\n      tag_1\n      jumpi\n      0x00\n      dup1\n      revert\n    tag_1:\n      pop\n      jumpi(tag_2, lt(calldatasize, 0x04))\n      shr(0xe0, calldataload(0x00))\n      dup1\n      0x605b85ad\n      eq\n      tag_3\n      jumpi\n      dup1\n      0xef84b88e\n      eq\n      tag_4\n      jumpi\n    tag_2:\n      0x00\n      dup1\n      revert\n        /* \"contracts/visibility.sol\":600:629  A public contract_a = new A() */\n    tag_3:\n      tag_5\n      tag_6\n      jump\t// in\n    tag_5:\n      mload(0x40)\n      tag_7\n      swap2\n      swap1\n      tag_8\n      jump\t// in\n    tag_7:\n      mload(0x40)\n      dup1\n      swap2\n      sub\n      swap1\n      return\n        /* \"contracts/visibility.sol\":636:668  uint public xa = contract_a.f4() */\n    tag_4:\n      tag_9\n      tag_10\n      jump\t// in\n    tag_9:\n      mload(0x40)\n      tag_11\n      swap2\n      swap1\n      tag_12\n      jump\t// in\n    tag_11:\n      mload(0x40)\n      dup1\n      swap2\n      sub\n      swap1\n      return\n        /* \"contracts/visibility.sol\":600:629  A public contract_a = new A() */\n    tag_6:\n      0x00\n      dup1\n      sload\n      swap1\n      0x0100\n      exp\n      swap1\n      div\n      0xffffffffffffffffffffffffffffffffffffffff\n      and\n      dup2\n      jump\t// out\n        /* \"contracts/visibility.sol\":636:668  uint public xa = contract_a.f4() */\n    tag_10:\n      sload(0x01)\n      dup2\n      jump\t// out\n        /* \"#utility.yul\":7:154   */\n    tag_14:\n        /* \"#utility.yul\":102:147   */\n      tag_16\n        /* \"#utility.yul\":141:146   */\n      dup2\n        /* \"#utility.yul\":102:147   */\n      tag_17\n      jump\t// in\n    tag_16:\n        /* \"#utility.yul\":97:100   */\n      dup3\n        /* \"#utility.yul\":90:148   */\n      mstore\n        /* \"#utility.yul\":7:154   */\n      pop\n      pop\n      jump\t// out\n        /* \"#utility.yul\":160:278   */\n    tag_18:\n        /* \"#utility.yul\":247:271   */\n      tag_20\n        /* \"#utility.yul\":265:270   */\n      dup2\n        /* \"#utility.yul\":247:271   */\n      tag_21\n      jump\t// in\n    tag_20:\n        /* \"#utility.yul\":242:245   */\n      dup3\n        /* \"#utility.yul\":235:272   */\n      mstore\n        /* \"#utility.yul\":160:278   */\n      pop\n      pop\n      jump\t// out\n        /* \"#utility.yul\":284:522   */\n    tag_8:\n        /* \"#utility.yul\":385:389   */\n      0x00\n        /* \"#utility.yul\":423:425   */\n      0x20\n        /* \"#utility.yul\":412:421   */\n      dup3\n        /* \"#utility.yul\":408:426   */\n      add\n        /* \"#utility.yul\":400:426   */\n      swap1\n      pop\n        /* \"#utility.yul\":436:515   */\n      tag_23\n        /* \"#utility.yul\":512:513   */\n      0x00\n        /* \"#utility.yul\":501:510   */\n      dup4\n        /* \"#utility.yul\":497:514   */\n      add\n        /* \"#utility.yul\":488:494   */\n      dup5\n        /* \"#utility.yul\":436:515   */\n      tag_14\n      jump\t// in\n    tag_23:\n        /* \"#utility.yul\":284:522   */\n      swap3\n      swap2\n      pop\n      pop\n      jump\t// out\n        /* \"#utility.yul\":528:750   */\n    tag_12:\n        /* \"#utility.yul\":621:625   */\n      0x00\n        /* \"#utility.yul\":659:661   */\n      0x20\n        /* \"#utility.yul\":648:657   */\n      dup3\n        /* \"#utility.yul\":644:662   */\n      add\n        /* \"#utility.yul\":636:662   */\n      swap1\n      pop\n        /* \"#utility.yul\":672:743   */\n      tag_25\n        /* \"#utility.yul\":740:741   */\n      0x00\n        /* \"#utility.yul\":729:738   */\n      dup4\n        /* \"#utility.yul\":725:742   */\n      add\n        /* \"#utility.yul\":716:722   */\n      dup5\n        /* \"#utility.yul\":672:743   */\n      tag_18\n      jump\t// in\n    tag_25:\n        /* \"#utility.yul\":528:750   */\n      swap3\n      swap2\n      pop\n      pop\n      jump\t// out\n        /* \"#utility.yul\":756:882   */\n    tag_26:\n        /* \"#utility.yul\":793:800   */\n      0x00\n        /* \"#utility.yul\":833:875   */\n      0xffffffffffffffffffffffffffffffffffffffff\n        /* \"#utility.yul\":826:831   */\n      dup3\n        /* \"#utility.yul\":822:876   */\n      and\n        /* \"#utility.yul\":811:876   */\n      swap1\n      pop\n        /* \"#utility.yul\":756:882   */\n      swap2\n      swap1\n      pop\n      jump\t// out\n        /* \"#utility.yul\":888:965   */\n    tag_21:\n        /* \"#utility.yul\":925:932   */\n      0x00\n        /* \"#utility.yul\":954:959   */\n      dup2\n        /* \"#utility.yul\":943:959   */\n      swap1\n      pop\n        /* \"#utility.yul\":888:965   */\n      swap2\n      swap1\n      pop\n      jump\t// out\n        /* \"#utility.yul\":971:1105   */\n    tag_17:\n        /* \"#utility.yul\":1029:1038   */\n      0x00\n        /* \"#utility.yul\":1062:1099   */\n      tag_30\n        /* \"#utility.yul\":1093:1098   */\n      dup3\n        /* \"#utility.yul\":1062:1099   */\n      tag_31\n      jump\t// in\n    tag_30:\n        /* \"#utility.yul\":1049:1099   */\n      swap1\n      pop\n        /* \"#utility.yul\":971:1105   */\n      swap2\n      swap1\n      pop\n      jump\t// out\n        /* \"#utility.yul\":1111:1237   */\n    tag_31:\n        /* \"#utility.yul\":1161:1170   */\n      0x00\n        /* \"#utility.yul\":1194:1231   */\n      tag_33\n        /* \"#utility.yul\":1225:1230   */\n      dup3\n        /* \"#utility.yul\":1194:1231   */\n      tag_34\n      jump\t// in\n    tag_33:\n        /* \"#utility.yul\":1181:1231   */\n      swap1\n      pop\n        /* \"#utility.yul\":1111:1237   */\n      swap2\n      swap1\n      pop\n      jump\t// out\n        /* \"#utility.yul\":1243:1356   */\n    tag_34:\n        /* \"#utility.yul\":1293:1302   */\n      0x00\n        /* \"#utility.yul\":1326:1350   */\n      tag_36\n        /* \"#utility.yul\":1344:1349   */\n      dup3\n        /* \"#utility.yul\":1326:1350   */\n      tag_26\n      jump\t// in\n    tag_36:\n        /* \"#utility.yul\":1313:1350   */\n      swap1\n      pop\n        /* \"#utility.yul\":1243:1356   */\n      swap2\n      swap1\n      pop\n      jump\t// out\n\n    auxdata: 0xa2646970667358221220a1ef137a1572e43473bb5719f2cb1f04c0886f1c52ddc5035de223e94e14905664736f6c63430008070033\n}\n\nsub_1: assembly {\n        /* \"contracts/visibility.sol\":74:534  contract A {\r... */\n      mstore(0x40, 0x80)\n        /* \"contracts/visibility.sol\":108:110  25 */\n      0x19\n        /* \"contracts/visibility.sol\":92:110  uint public x = 25 */\n      0x00\n      sstore\n        /* \"contracts/visibility.sol\":126:128  12 */\n      0x0c\n        /* \"contracts/visibility.sol\":117:128  uint y = 12 */\n      0x01\n      sstore\n        /* \"contracts/visibility.sol\":74:534  contract A {\r... */\n      callvalue\n      dup1\n      iszero\n      tag_1\n      jumpi\n      0x00\n      dup1\n      revert\n    tag_1:\n      pop\n      dataSize(sub_0)\n      dup1\n      dataOffset(sub_0)\n      0x00\n      codecopy\n      0x00\n      return\n    stop\n\n    sub_0: assembly {\n            /* \"contracts/visibility.sol\":74:534  contract A {\r... */\n          mstore(0x40, 0x80)\n          callvalue\n          dup1\n          iszero\n          tag_1\n          jumpi\n          0x00\n          dup1\n          revert\n        tag_1:\n          pop\n          jumpi(tag_2, lt(calldatasize, 0x04))\n          shr(0xe0, calldataload(0x00))\n          dup1\n          0x0c55699c\n          eq\n          tag_3\n          jumpi\n          dup1\n          0x28d69c6d\n          eq\n          tag_4\n          jumpi\n          dup1\n          0x9942ec6f\n          eq\n          tag_5\n          jumpi\n          dup1\n          0xc3f90202\n          eq\n          tag_6\n          jumpi\n        tag_2:\n          0x00\n          dup1\n          revert\n            /* \"contracts/visibility.sol\":92:110  uint public x = 25 */\n        tag_3:\n          tag_7\n          tag_8\n          jump\t// in\n        tag_7:\n          mload(0x40)\n          tag_9\n          swap2\n          swap1\n          tag_10\n          jump\t// in\n        tag_9:\n          mload(0x40)\n          dup1\n          swap2\n          sub\n          swap1\n          return\n            /* \"contracts/visibility.sol\":137:206  function get_y() public view returns(uint){\r... */\n        tag_4:\n          tag_11\n          tag_12\n          jump\t// in\n        tag_11:\n          mload(0x40)\n          tag_13\n          swap2\n          swap1\n          tag_10\n          jump\t// in\n        tag_13:\n          mload(0x40)\n          dup1\n          swap2\n          sub\n          swap1\n          return\n            /* \"contracts/visibility.sol\":289:379  function f2() public view returns(uint){\r... */\n        tag_5:\n          tag_14\n          tag_15\n          jump\t// in\n        tag_14:\n          mload(0x40)\n          tag_16\n          swap2\n          swap1\n          tag_10\n          jump\t// in\n        tag_16:\n          mload(0x40)\n          dup1\n          swap2\n          sub\n          swap1\n          return\n            /* \"contracts/visibility.sol\":463:531  function f4() external view returns(uint){\r... */\n        tag_6:\n          tag_17\n          tag_18\n          jump\t// in\n        tag_17:\n          mload(0x40)\n          tag_19\n          swap2\n          swap1\n          tag_10\n          jump\t// in\n        tag_19:\n          mload(0x40)\n          dup1\n          swap2\n          sub\n          swap1\n          return\n            /* \"contracts/visibility.sol\":92:110  uint public x = 25 */\n        tag_8:\n          sload(0x00)\n          dup2\n          jump\t// out\n            /* \"contracts/visibility.sol\":137:206  function get_y() public view returns(uint){\r... */\n        tag_12:\n            /* \"contracts/visibility.sol\":174:178  uint */\n          0x00\n            /* \"contracts/visibility.sol\":197:198  y */\n          sload(0x01)\n            /* \"contracts/visibility.sol\":190:198  return y */\n          swap1\n          pop\n            /* \"contracts/visibility.sol\":137:206  function get_y() public view returns(uint){\r... */\n          swap1\n          jump\t// out\n            /* \"contracts/visibility.sol\":289:379  function f2() public view returns(uint){\r... */\n        tag_15:\n            /* \"contracts/visibility.sol\":323:327  uint */\n          0x00\n            /* \"contracts/visibility.sol\":339:345  uint a */\n          dup1\n            /* \"contracts/visibility.sol\":348:352  f1() */\n          tag_22\n            /* \"contracts/visibility.sol\":348:350  f1 */\n          tag_23\n            /* \"contracts/visibility.sol\":348:352  f1() */\n          jump\t// in\n        tag_22:\n            /* \"contracts/visibility.sol\":339:352  uint a = f1() */\n          swap1\n          pop\n            /* \"contracts/visibility.sol\":370:371  a */\n          dup1\n            /* \"contracts/visibility.sol\":363:371  return a */\n          swap2\n          pop\n          pop\n            /* \"contracts/visibility.sol\":289:379  function f2() public view returns(uint){\r... */\n          swap1\n          jump\t// out\n            /* \"contracts/visibility.sol\":463:531  function f4() external view returns(uint){\r... */\n        tag_18:\n            /* \"contracts/visibility.sol\":499:503  uint */\n          0x00\n            /* \"contracts/visibility.sol\":522:523  x */\n          dup1\n          sload\n            /* \"contracts/visibility.sol\":515:523  return x */\n          swap1\n          pop\n            /* \"contracts/visibility.sol\":463:531  function f4() external view returns(uint){\r... */\n          swap1\n          jump\t// out\n            /* \"contracts/visibility.sol\":214:281  function f1() private view returns(uint){\r... */\n        tag_23:\n            /* \"contracts/visibility.sol\":249:253  uint */\n          0x00\n            /* \"contracts/visibility.sol\":272:273  x */\n          dup1\n          sload\n            /* \"contracts/visibility.sol\":265:273  return x */\n          swap1\n          pop\n            /* \"contracts/visibility.sol\":214:281  function f1() private view returns(uint){\r... */\n          swap1\n          jump\t// out\n            /* \"#utility.yul\":7:125   */\n        tag_27:\n            /* \"#utility.yul\":94:118   */\n          tag_29\n            /* \"#utility.yul\":112:117   */\n          dup2\n            /* \"#utility.yul\":94:118   */\n          tag_30\n          jump\t// in\n        tag_29:\n            /* \"#utility.yul\":89:92   */\n          dup3\n            /* \"#utility.yul\":82:119   */\n          mstore\n            /* \"#utility.yul\":7:125   */\n          pop\n          pop\n          jump\t// out\n            /* \"#utility.yul\":131:353   */\n        tag_10:\n            /* \"#utility.yul\":224:228   */\n          0x00\n            /* \"#utility.yul\":262:264   */\n          0x20\n            /* \"#utility.yul\":251:260   */\n          dup3\n            /* \"#utility.yul\":247:265   */\n          add\n            /* \"#utility.yul\":239:265   */\n          swap1\n          pop\n            /* \"#utility.yul\":275:346   */\n          tag_32\n            /* \"#utility.yul\":343:344   */\n          0x00\n            /* \"#utility.yul\":332:341   */\n          dup4\n            /* \"#utility.yul\":328:345   */\n          add\n            /* \"#utility.yul\":319:325   */\n          dup5\n            /* \"#utility.yul\":275:346   */\n          tag_27\n          jump\t// in\n        tag_32:\n            /* \"#utility.yul\":131:353   */\n          swap3\n          swap2\n          pop\n          pop\n          jump\t// out\n            /* \"#utility.yul\":359:436   */\n        tag_30:\n            /* \"#utility.yul\":396:403   */\n          0x00\n            /* \"#utility.yul\":425:430   */\n          dup2\n            /* \"#utility.yul\":414:430   */\n          swap1\n          pop\n            /* \"#utility.yul\":359:436   */\n          swap2\n          swap1\n          pop\n          jump\t// out\n\n        auxdata: 0xa2646970667358221220f6761c302930a31dd0b410858ae6ffc612040c0bdebbc0e89910dbc300abe30d64736f6c63430008070033\n    }\n}\n",
				"bytecode": {
					"linkReferences": {},
					"object": "60806040526040516100109061011f565b604051809103906000f08015801561002c573d6000803e3d6000fd5b506000806101000a81548173ffffffffffffffffffffffffffffffffffffffff021916908373ffffffffffffffffffffffffffffffffffffffff16021790555060008054906101000a900473ffffffffffffffffffffffffffffffffffffffff1673ffffffffffffffffffffffffffffffffffffffff1663c3f902026040518163ffffffff1660e01b815260040160206040518083038186803b1580156100d257600080fd5b505afa1580156100e6573d6000803e3d6000fd5b505050506040513d601f19601f8201168201806040525081019061010a9190610141565b60015534801561011957600080fd5b50610194565b6101938061032e83390190565b60008151905061013b8161017d565b92915050565b60006020828403121561015757610156610178565b5b60006101658482850161012c565b91505092915050565b6000819050919050565b600080fd5b6101868161016e565b811461019157600080fd5b50565b61018b806101a36000396000f3fe608060405234801561001057600080fd5b50600436106100365760003560e01c8063605b85ad1461003b578063ef84b88e14610059575b600080fd5b610043610077565b60405161005091906100bf565b60405180910390f35b61006161009b565b60405161006e91906100da565b60405180910390f35b60008054906101000a900473ffffffffffffffffffffffffffffffffffffffff1681565b60015481565b6100aa8161011f565b82525050565b6100b981610115565b82525050565b60006020820190506100d460008301846100a1565b92915050565b60006020820190506100ef60008301846100b0565b92915050565b600073ffffffffffffffffffffffffffffffffffffffff82169050919050565b6000819050919050565b600061012a82610131565b9050919050565b600061013c82610143565b9050919050565b600061014e826100f5565b905091905056fea2646970667358221220a1ef137a1572e43473bb5719f2cb1f04c0886f1c52ddc5035de223e94e14905664736f6c6343000807003360806040526019600055600c60015534801561001a57600080fd5b506101698061002a6000396000f3fe608060405234801561001057600080fd5b506004361061004c5760003560e01c80630c55699c1461005157806328d69c6d1461006f5780639942ec6f1461008d578063c3f90202146100ab575b600080fd5b6100596100c9565b604051610066919061010e565b60405180910390f35b6100776100cf565b604051610084919061010e565b60405180910390f35b6100956100d9565b6040516100a2919061010e565b60405180910390f35b6100b36100ed565b6040516100c0919061010e565b60405180910390f35b60005481565b6000600154905090565b6000806100e46100f6565b90508091505090565b60008054905090565b60008054905090565b61010881610129565b82525050565b600060208201905061012360008301846100ff565b92915050565b600081905091905056fea2646970667358221220f6761c302930a31dd0b410858ae6ffc612040c0bdebbc0e89910dbc300abe30d64736f6c63430008070033",
					"opcodes": "PUSH1 0x80 PUSH1 0x40 MSTORE PUSH1 0x40 MLOAD PUSH2 0x10 SWAP1 PUSH2 0x11F JUMP JUMPDEST PUSH1 0x40 MLOAD DUP1 SWAP2 SUB SWAP1 PUSH1 0x0 CREATE DUP1 ISZERO DUP1 ISZERO PUSH2 0x2C JUMPI RETURNDATASIZE PUSH1 0x0 DUP1 RETURNDATACOPY RETURNDATASIZE PUSH1 0x0 REVERT JUMPDEST POP PUSH1 0x0 DUP1 PUSH2 0x100 EXP DUP2 SLOAD DUP2 PUSH20 0xFFFFFFFFFFFFFFFFFFFFFFFFFFFFFFFFFFFFFFFF MUL NOT AND SWAP1 DUP4 PUSH20 0xFFFFFFFFFFFFFFFFFFFFFFFFFFFFFFFFFFFFFFFF AND MUL OR SWAP1 SSTORE POP PUSH1 0x0 DUP1 SLOAD SWAP1 PUSH2 0x100 EXP SWAP1 DIV PUSH20 0xFFFFFFFFFFFFFFFFFFFFFFFFFFFFFFFFFFFFFFFF AND PUSH20 0xFFFFFFFFFFFFFFFFFFFFFFFFFFFFFFFFFFFFFFFF AND PUSH4 0xC3F90202 PUSH1 0x40 MLOAD DUP2 PUSH4 0xFFFFFFFF AND PUSH1 0xE0 SHL DUP2 MSTORE PUSH1 0x4 ADD PUSH1 0x20 PUSH1 0x40 MLOAD DUP1 DUP4 SUB DUP2 DUP7 DUP1 EXTCODESIZE ISZERO DUP1 ISZERO PUSH2 0xD2 JUMPI PUSH1 0x0 DUP1 REVERT JUMPDEST POP GAS STATICCALL ISZERO DUP1 ISZERO PUSH2 0xE6 JUMPI RETURNDATASIZE PUSH1 0x0 DUP1 RETURNDATACOPY RETURNDATASIZE PUSH1 0x0 REVERT JUMPDEST POP POP POP POP PUSH1 0x40 MLOAD RETURNDATASIZE PUSH1 0x1F NOT PUSH1 0x1F DUP3 ADD AND DUP3 ADD DUP1 PUSH1 0x40 MSTORE POP DUP2 ADD SWAP1 PUSH2 0x10A SWAP2 SWAP1 PUSH2 0x141 JUMP JUMPDEST PUSH1 0x1 SSTORE CALLVALUE DUP1 ISZERO PUSH2 0x119 JUMPI PUSH1 0x0 DUP1 REVERT JUMPDEST POP PUSH2 0x194 JUMP JUMPDEST PUSH2 0x193 DUP1 PUSH2 0x32E DUP4 CODECOPY ADD SWAP1 JUMP JUMPDEST PUSH1 0x0 DUP2 MLOAD SWAP1 POP PUSH2 0x13B DUP2 PUSH2 0x17D JUMP JUMPDEST SWAP3 SWAP2 POP POP JUMP JUMPDEST PUSH1 0x0 PUSH1 0x20 DUP3 DUP5 SUB SLT ISZERO PUSH2 0x157 JUMPI PUSH2 0x156 PUSH2 0x178 JUMP JUMPDEST JUMPDEST PUSH1 0x0 PUSH2 0x165 DUP5 DUP3 DUP6 ADD PUSH2 0x12C JUMP JUMPDEST SWAP2 POP POP SWAP3 SWAP2 POP POP JUMP JUMPDEST PUSH1 0x0 DUP2 SWAP1 POP SWAP2 SWAP1 POP JUMP JUMPDEST PUSH1 0x0 DUP1 REVERT JUMPDEST PUSH2 0x186 DUP2 PUSH2 0x16E JUMP JUMPDEST DUP2 EQ PUSH2 0x191 JUMPI PUSH1 0x0 DUP1 REVERT JUMPDEST POP JUMP JUMPDEST PUSH2 0x18B DUP1 PUSH2 0x1A3 PUSH1 0x0 CODECOPY PUSH1 0x0 RETURN INVALID PUSH1 0x80 PUSH1 0x40 MSTORE CALLVALUE DUP1 ISZERO PUSH2 0x10 JUMPI PUSH1 0x0 DUP1 REVERT JUMPDEST POP PUSH1 0x4 CALLDATASIZE LT PUSH2 0x36 JUMPI PUSH1 0x0 CALLDATALOAD PUSH1 0xE0 SHR DUP1 PUSH4 0x605B85AD EQ PUSH2 0x3B JUMPI DUP1 PUSH4 0xEF84B88E EQ PUSH2 0x59 JUMPI JUMPDEST PUSH1 0x0 DUP1 REVERT JUMPDEST PUSH2 0x43 PUSH2 0x77 JUMP JUMPDEST PUSH1 0x40 MLOAD PUSH2 0x50 SWAP2 SWAP1 PUSH2 0xBF JUMP JUMPDEST PUSH1 0x40 MLOAD DUP1 SWAP2 SUB SWAP1 RETURN JUMPDEST PUSH2 0x61 PUSH2 0x9B JUMP JUMPDEST PUSH1 0x40 MLOAD PUSH2 0x6E SWAP2 SWAP1 PUSH2 0xDA JUMP JUMPDEST PUSH1 0x40 MLOAD DUP1 SWAP2 SUB SWAP1 RETURN JUMPDEST PUSH1 0x0 DUP1 SLOAD SWAP1 PUSH2 0x100 EXP SWAP1 DIV PUSH20 0xFFFFFFFFFFFFFFFFFFFFFFFFFFFFFFFFFFFFFFFF AND DUP2 JUMP JUMPDEST PUSH1 0x1 SLOAD DUP2 JUMP JUMPDEST PUSH2 0xAA DUP2 PUSH2 0x11F JUMP JUMPDEST DUP3 MSTORE POP POP JUMP JUMPDEST PUSH2 0xB9 DUP2 PUSH2 0x115 JUMP JUMPDEST DUP3 MSTORE POP POP JUMP JUMPDEST PUSH1 0x0 PUSH1 0x20 DUP3 ADD SWAP1 POP PUSH2 0xD4 PUSH1 0x0 DUP4 ADD DUP5 PUSH2 0xA1 JUMP JUMPDEST SWAP3 SWAP2 POP POP JUMP JUMPDEST PUSH1 0x0 PUSH1 0x20 DUP3 ADD SWAP1 POP PUSH2 0xEF PUSH1 0x0 DUP4 ADD DUP5 PUSH2 0xB0 JUMP JUMPDEST SWAP3 SWAP2 POP POP JUMP JUMPDEST PUSH1 0x0 PUSH20 0xFFFFFFFFFFFFFFFFFFFFFFFFFFFFFFFFFFFFFFFF DUP3 AND SWAP1 POP SWAP2 SWAP1 POP JUMP JUMPDEST PUSH1 0x0 DUP2 SWAP1 POP SWAP2 SWAP1 POP JUMP JUMPDEST PUSH1 0x0 PUSH2 0x12A DUP3 PUSH2 0x131 JUMP JUMPDEST SWAP1 POP SWAP2 SWAP1 POP JUMP JUMPDEST PUSH1 0x0 PUSH2 0x13C DUP3 PUSH2 0x143 JUMP JUMPDEST SWAP1 POP SWAP2 SWAP1 POP JUMP JUMPDEST PUSH1 0x0 PUSH2 0x14E DUP3 PUSH2 0xF5 JUMP JUMPDEST SWAP1 POP SWAP2 SWAP1 POP JUMP INVALID LOG2 PUSH5 0x6970667358 0x22 SLT KECCAK256 LOG1 0xEF SGT PUSH27 0x1572E43473BB5719F2CB1F04C0886F1C52DDC5035DE223E94E1490 JUMP PUSH5 0x736F6C6343 STOP ADDMOD SMOD STOP CALLER PUSH1 0x80 PUSH1 0x40 MSTORE PUSH1 0x19 PUSH1 0x0 SSTORE PUSH1 0xC PUSH1 0x1 SSTORE CALLVALUE DUP1 ISZERO PUSH2 0x1A JUMPI PUSH1 0x0 DUP1 REVERT JUMPDEST POP PUSH2 0x169 DUP1 PUSH2 0x2A PUSH1 0x0 CODECOPY PUSH1 0x0 RETURN INVALID PUSH1 0x80 PUSH1 0x40 MSTORE CALLVALUE DUP1 ISZERO PUSH2 0x10 JUMPI PUSH1 0x0 DUP1 REVERT JUMPDEST POP PUSH1 0x4 CALLDATASIZE LT PUSH2 0x4C JUMPI PUSH1 0x0 CALLDATALOAD PUSH1 0xE0 SHR DUP1 PUSH4 0xC55699C EQ PUSH2 0x51 JUMPI DUP1 PUSH4 0x28D69C6D EQ PUSH2 0x6F JUMPI DUP1 PUSH4 0x9942EC6F EQ PUSH2 0x8D JUMPI DUP1 PUSH4 0xC3F90202 EQ PUSH2 0xAB JUMPI JUMPDEST PUSH1 0x0 DUP1 REVERT JUMPDEST PUSH2 0x59 PUSH2 0xC9 JUMP JUMPDEST PUSH1 0x40 MLOAD PUSH2 0x66 SWAP2 SWAP1 PUSH2 0x10E JUMP JUMPDEST PUSH1 0x40 MLOAD DUP1 SWAP2 SUB SWAP1 RETURN JUMPDEST PUSH2 0x77 PUSH2 0xCF JUMP JUMPDEST PUSH1 0x40 MLOAD PUSH2 0x84 SWAP2 SWAP1 PUSH2 0x10E JUMP JUMPDEST PUSH1 0x40 MLOAD DUP1 SWAP2 SUB SWAP1 RETURN JUMPDEST PUSH2 0x95 PUSH2 0xD9 JUMP JUMPDEST PUSH1 0x40 MLOAD PUSH2 0xA2 SWAP2 SWAP1 PUSH2 0x10E JUMP JUMPDEST PUSH1 0x40 MLOAD DUP1 SWAP2 SUB SWAP1 RETURN JUMPDEST PUSH2 0xB3 PUSH2 0xED JUMP JUMPDEST PUSH1 0x40 MLOAD PUSH2 0xC0 SWAP2 SWAP1 PUSH2 0x10E JUMP JUMPDEST PUSH1 0x40 MLOAD DUP1 SWAP2 SUB SWAP1 RETURN JUMPDEST PUSH1 0x0 SLOAD DUP2 JUMP JUMPDEST PUSH1 0x0 PUSH1 0x1 SLOAD SWAP1 POP SWAP1 JUMP JUMPDEST PUSH1 0x0 DUP1 PUSH2 0xE4 PUSH2 0xF6 JUMP JUMPDEST SWAP1 POP DUP1 SWAP2 POP POP SWAP1 JUMP JUMPDEST PUSH1 0x0 DUP1 SLOAD SWAP1 POP SWAP1 JUMP JUMPDEST PUSH1 0x0 DUP1 SLOAD SWAP1 POP SWAP1 JUMP JUMPDEST PUSH2 0x108 DUP2 PUSH2 0x129 JUMP JUMPDEST DUP3 MSTORE POP POP JUMP JUMPDEST PUSH1 0x0 PUSH1 0x20 DUP3 ADD SWAP1 POP PUSH2 0x123 PUSH1 0x0 DUP4 ADD DUP5 PUSH2 0xFF JUMP JUMPDEST SWAP3 SWAP2 POP POP JUMP JUMPDEST PUSH1 0x0 DUP2 SWAP1 POP SWAP2 SWAP1 POP JUMP INVALID LOG2 PUSH5 0x6970667358 0x22 SLT KECCAK256 0xF6 PUSH23 0x1C302930A31DD0B410858AE6FFC612040C0BDEBBC0E899 LT 0xDB 0xC3 STOP 0xAB 0xE3 0xD PUSH5 0x736F6C6343 STOP ADDMOD SMOD STOP CALLER "
				},
				"gasEstimates": {
					"creation": {
						"codeDepositCost": "79000",
						"executionCost": "infinite",
						"totalCost": "infinite"
					},
					"external": {
						"contract_a()": "2575",
						"xa()": "2429"
					}
				},
				"methodIdentifiers": {
					"contract_a()": "605b85ad",
					"xa()": "ef84b88e"
				}
			},
			"storageLayout": {
				"storage": [
					{
						"astId": 67,
						"contract": "contracts/visibility.sol:C",
						"label": "contract_a",
						"offset": 0,
						"slot": "0",
						"type": "t_contract(A)53"
					},
					{
						"astId": 72,
						"contract": "contracts/visibility.sol:C",
						"label": "xa",
						"offset": 0,
						"slot": "1",
						"type": "t_uint256"
					}
				],
				"types": {
					"t_contract(A)53": {
						"encoding": "inplace",
						"label": "contract A",
						"numberOfBytes": "20"
					},
					"t_uint256": {
						"encoding": "inplace",
						"label": "uint256",
						"numberOfBytes": "32"
					}
				}
			},
			"userdoc": {
				"kind": "user",
				"methods": {},
				"version": 1
			}
		}
	}
}