{
	"contracts/visibility.sol": {
		"A": {
			"abi": [
				{
					"inputs": [],
					"name": "f2",
					"outputs": [
						{
							"internalType": "uint256",
							"name": "",
							"type": "uint256"
						}
					],
					"stateMutability": "view",
					"type": "function"
				},
				{
					"inputs": [],
					"name": "f4",
					"outputs": [
						{
							"internalType": "uint256",
							"name": "",
							"type": "uint256"
						}
					],
					"stateMutability": "view",
					"type": "function"
				},
				{
					"inputs": [],
					"name": "get_y",
					"outputs": [
						{
							"internalType": "uint256",
							"name": "",
							"type": "uint256"
						}
					],
					"stateMutability": "view",
					"type": "function"
				},
				{
					"inputs": [],
					"name": "x",
					"outputs": [
						{
							"internalType": "uint256",
							"name": "",
							"type": "uint256"
						}
					],
					"stateMutability": "view",
					"type": "function"
				}
			],
			"devdoc": {
				"kind": "dev",
				"methods": {},
				"version": 1
			},
			"evm": {
				"assembly": "    /* \"contracts/visibility.sol\":74:534  contract A {\r... */\n  mstore(0x40, 0x80)\n    /* \"contracts/visibility.sol\":108:110  25 */\n  0x19\n    /* \"contracts/visibility.sol\":92:110  uint public x = 25 */\n  0x00\n  sstore\n    /* \"contracts/visibility.sol\":126:128  12 */\n  0x0c\n    /* \"contracts/visibility.sol\":117:128  uint y = 12 */\n  0x01\n  sstore\n    /* \"contracts/visibility.sol\":74:534  contract A {\r... */\n  callvalue\n  dup1\n  iszero\n  tag_1\n  jumpi\n  0x00\n  dup1\n  revert\ntag_1:\n  pop\n  dataSize(sub_0)\n  dup1\n  dataOffset(sub_0)\n  0x00\n  codecopy\n  0x00\n  return\nstop\n\nsub_0: assembly {\n        /* \"contracts/visibility.sol\":74:534  contract A {\r... */\n      mstore(0x40, 0x80)\n      callvalue\n      dup1\n      iszero\n      tag_1\n      jumpi\n      0x00\n      dup1\n      revert\n    tag_1:\n      pop\n      jumpi(tag_2, lt(calldatasize, 0x04))\n      shr(0xe0, calldataload(0x00))\n      dup1\n      0x0c55699c\n      eq\n      tag_3\n      jumpi\n      dup1\n      0x28d69c6d\n      eq\n      tag_4\n      jumpi\n      dup1\n      0x9942ec6f\n      eq\n      tag_5\n      jumpi\n      dup1\n      0xc3f90202\n      eq\n      tag_6\n      jumpi\n    tag_2:\n      0x00\n      dup1\n      revert\n        /* \"contracts/visibility.sol\":92:110  uint public x = 25 */\n    tag_3:\n      tag_7\n      tag_8\n      jump\t// in\n    tag_7:\n      mload(0x40)\n      tag_9\n      swap2\n      swap1\n      tag_10\n      jump\t// in\n    tag_9:\n      mload(0x40)\n      dup1\n      swap2\n      sub\n      swap1\n      return\n        /* \"contracts/visibility.sol\":137:206  function get_y() public view returns(uint){\r... */\n    tag_4:\n      tag_11\n      tag_12\n      jump\t// in\n    tag_11:\n      mload(0x40)\n      tag_13\n      swap2\n      swap1\n      tag_10\n      jump\t// in\n    tag_13:\n      mload(0x40)\n      dup1\n      swap2\n      sub\n      swap1\n      return\n        /* \"contracts/visibility.sol\":289:379  function f2() public view returns(uint){\r... */\n    tag_5:\n      tag_14\n      tag_15\n      jump\t// in\n    tag_14:\n      mload(0x40)\n      tag_16\n      swap2\n      swap1\n      tag_10\n      jump\t// in\n    tag_16:\n      mload(0x40)\n      dup1\n      swap2\n      sub\n      swap1\n      return\n        /* \"contracts/visibility.sol\":463:531  function f4() external view returns(uint){\r... */\n    tag_6:\n      tag_17\n      tag_18\n      jump\t// in\n    tag_17:\n      mload(0x40)\n      tag_19\n      swap2\n      swap1\n      tag_10\n      jump\t// in\n    tag_19:\n      mload(0x40)\n      dup1\n      swap2\n      sub\n      swap1\n      return\n        /* \"contracts/visibility.sol\":92:110  uint public x = 25 */\n    tag_8:\n      sload(0x00)\n      dup2\n      jump\t// out\n        /* \"contracts/visibility.sol\":137:206  function get_y() public view returns(uint){\r... */\n    tag_12:\n        /* \"contracts/visibility.sol\":174:178  uint */\n      0x00\n        /* \"contracts/visibility.sol\":197:198  y */\n      sload(0x01)\n        /* \"contracts/visibility.sol\":190:198  return y */\n      swap1\n      pop\n        /* \"contracts/visibility.sol\":137:206  function get_y() public view returns(uint){\r... */\n      swap1\n      jump\t// out\n        /* \"contracts/visibility.sol\":289:379  function f2() public view returns(uint){\r... */\n    tag_15:\n        /* \"contracts/visibility.sol\":323:327  uint */\n      0x00\n        /* \"contracts/visibility.sol\":339:345  uint a */\n      dup1\n        /* \"contracts/visibility.sol\":348:352  f1() */\n      tag_22\n        /* \"contracts/visibility.sol\":348:350  f1 */\n      tag_23\n        /* \"contracts/visibility.sol\":348:352  f1() */\n      jump\t// in\n    tag_22:\n        /* \"contracts/visibility.sol\":339:352  uint a = f1() */\n      swap1\n      pop\n        /* \"contracts/visibility.sol\":370:371  a */\n      dup1\n        /* \"contracts/visibility.sol\":363:371  return a */\n      swap2\n      pop\n      pop\n        /* \"contracts/visibility.sol\":289:379  function f2() public view returns(uint){\r... */\n      swap1\n      jump\t// out\n        /* \"contracts/visibility.sol\":463:531  function f4() external view returns(uint){\r... */\n    tag_18:\n        /* \"contracts/visibility.sol\":499:503  uint */\n      0x00\n        /* \"contracts/visibility.sol\":522:523  x */\n      dup1\n      sload\n        /* \"contracts/visibility.sol\":515:523  return x */\n      swap1\n      pop\n        /* \"contracts/visibility.sol\":463:531  function f4() external view returns(uint){\r... */\n      swap1\n      jump\t// out\n        /* \"contracts/visibility.sol\":214:281  function f1() private view returns(uint){\r... */\n    tag_23:\n        /* \"contracts/visibility.sol\":249:253  uint */\n      0x00\n        /* \"contracts/visibility.sol\":272:273  x */\n      dup1\n      sload\n        /* \"contracts/visibility.sol\":265:273  return x */\n      swap1\n      pop\n        /* \"contracts/visibility.sol\":214:281  function f1() private view returns(uint){\r... */\n      swap1\n      jump\t// out\n        /* \"#utility.yul\":7:125   */\n    tag_27:\n        /* \"#utility.yul\":94:118   */\n      tag_29\n        /* \"#utility.yul\":112:117   */\n      dup2\n        /* \"#utility.yul\":94:118   */\n      tag_30\n      jump\t// in\n    tag_29:\n        /* \"#utility.yul\":89:92   */\n      dup3\n        /* \"#utility.yul\":82:119   */\n      mstore\n        /* \"#utility.yul\":7:125   */\n      pop\n      pop\n      jump\t// out\n        /* \"#utility.yul\":131:353   */\n    tag_10:\n        /* \"#utility.yul\":224:228   */\n      0x00\n        /* \"#utility.yul\":262:264   */\n      0x20\n        /* \"#utility.yul\":251:260   */\n      dup3\n        /* \"#utility.yul\":247:265   */\n      add\n        /* \"#utility.yul\":239:265   */\n      swap1\n      pop\n        /* \"#utility.yul\":275:346   */\n      tag_32\n        /* \"#utility.yul\":343:344   */\n      0x00\n        /* \"#utility.yul\":332:341   */\n      dup4\n        /* \"#utility.yul\":328:345   */\n      add\n        /* \"#utility.yul\":319:325   */\n      dup5\n        /* \"#utility.yul\":275:346   */\n      tag_27\n      jump\t// in\n    tag_32:\n        /* \"#utility.yul\":131:353   */\n      swap3\n      swap2\n      pop\n      pop\n      jump\t// out\n        /* \"#utility.yul\":359:436   */\n    tag_30:\n        /* \"#utility.yul\":396:403   */\n      0x00\n        /* \"#utility.yul\":425:430   */\n      dup2\n        /* \"#utility.yul\":414:430   */\n      swap1\n      pop\n        /* \"#utility.yul\":359:436   */\n      swap2\n      swap1\n      pop\n      jump\t// out\n\n    auxdata: 0xa2646970667358221220f6761c302930a31dd0b410858ae6ffc612040c0bdebbc0e89910dbc300abe30d64736f6c63430008070033\n}\n",
				"bytecode": {
					"linkReferences": {},
					"object": "60806040526019600055600c60015534801561001a57600080fd5b506101698061002a6000396000f3fe608060405234801561001057600080fd5b506004361061004c5760003560e01c80630c55699c1461005157806328d69c6d1461006f5780639942ec6f1461008d578063c3f90202146100ab575b600080fd5b6100596100c9565b604051610066919061010e565b60405180910390f35b6100776100cf565b604051610084919061010e565b60405180910390f35b6100956100d9565b6040516100a2919061010e565b60405180910390f35b6100b36100ed565b6040516100c0919061010e565b60405180910390f35b60005481565b6000600154905090565b6000806100e46100f6565b90508091505090565b60008054905090565b60008054905090565b61010881610129565b82525050565b600060208201905061012360008301846100ff565b92915050565b600081905091905056fea2646970667358221220f6761c302930a31dd0b410858ae6ffc612040c0bdebbc0e89910dbc300abe30d64736f6c63430008070033",
					"opcodes": "PUSH1 0x80 PUSH1 0x40 MSTORE PUSH1 0x19 PUSH1 0x0 SSTORE PUSH1 0xC PUSH1 0x1 SSTORE CALLVALUE DUP1 ISZERO PUSH2 0x1A JUMPI PUSH1 0x0 DUP1 REVERT JUMPDEST POP PUSH2 0x169 DUP1 PUSH2 0x2A PUSH1 0x0 CODECOPY PUSH1 0x0 RETURN INVALID PUSH1 0x80 PUSH1 0x40 MSTORE CALLVALUE DUP1 ISZERO PUSH2 0x10 JUMPI PUSH1 0x0 DUP1 REVERT JUMPDEST POP PUSH1 0x4 CALLDATASIZE LT PUSH2 0x4C JUMPI PUSH1 0x0 CALLDATALOAD PUSH1 0xE0 SHR DUP1 PUSH4 0xC55699C EQ PUSH2 0x51 JUMPI DUP1 PUSH4 0x28D69C6D EQ PUSH2 0x6F JUMPI DUP1 PUSH4 0x9942EC6F EQ PUSH2 0x8D JUMPI DUP1 PUSH4 0xC3F90202 EQ PUSH2 0xAB JUMPI JUMPDEST PUSH1 0x0 DUP1 REVERT JUMPDEST PUSH2 0x59 PUSH2 0xC9 JUMP JUMPDEST PUSH1 0x40 MLOAD PUSH2 0x66 SWAP2 SWAP1 PUSH2 0x10E JUMP JUMPDEST PUSH1 0x40 MLOAD DUP1 SWAP2 SUB SWAP1 RETURN JUMPDEST PUSH2 0x77 PUSH2 0xCF JUMP JUMPDEST PUSH1 0x40 MLOAD PUSH2 0x84 SWAP2 SWAP1 PUSH2 0x10E JUMP JUMPDEST PUSH1 0x40 MLOAD DUP1 SWAP2 SUB SWAP1 RETURN JUMPDEST PUSH2 0x95 PUSH2 0xD9 JUMP JUMPDEST PUSH1 0x40 MLOAD PUSH2 0xA2 SWAP2 SWAP1 PUSH2 0x10E JUMP JUMPDEST PUSH1 0x40 MLOAD DUP1 SWAP2 SUB SWAP1 RETURN JUMPDEST PUSH2 0xB3 PUSH2 0xED JUMP JUMPDEST PUSH1 0x40 MLOAD PUSH2 0xC0 SWAP2 SWAP1 PUSH2 0x10E JUMP JUMPDEST PUSH1 0x40 MLOAD DUP1 SWAP2 SUB SWAP1 RETURN JUMPDEST PUSH1 0x0 SLOAD DUP2 JUMP JUMPDEST PUSH1 0x0 PUSH1 0x1 SLOAD SWAP1 POP SWAP1 JUMP JUMPDEST PUSH1 0x0 DUP1 PUSH2 0xE4 PUSH2 0xF6 JUMP JUMPDEST SWAP1 POP DUP1 SWAP2 POP POP SWAP1 JUMP JUMPDEST PUSH1 0x0 DUP1 SLOAD SWAP1 POP SWAP1 JUMP JUMPDEST PUSH1 0x0 DUP1 SLOAD SWAP1 POP SWAP1 JUMP JUMPDEST PUSH2 0x108 DUP2 PUSH2 0x129 JUMP JUMPDEST DUP3 MSTORE POP POP JUMP JUMPDEST PUSH1 0x0 PUSH1 0x20 DUP3 ADD SWAP1 POP PUSH2 0x123 PUSH1 0x0 DUP4 ADD DUP5 PUSH2 0xFF JUMP JUMPDEST SWAP3 SWAP2 POP POP JUMP JUMPDEST PUSH1 0x0 DUP2 SWAP1 POP SWAP2 SWAP1 POP JUMP INVALID LOG2 PUSH5 0x6970667358 0x22 SLT KECCAK256 0xF6 PUSH23 0x1C302930A31DD0B410858AE6FFC612040C0BDEBBC0E899 LT 0xDB 0xC3 STOP 0xAB 0xE3 0xD PUSH5 0x736F6C6343 STOP ADDMOD SMOD STOP CALLER "
				},
				"gasEstimates": {
					"creation": {
						"codeDepositCost": "72200",
						"executionCost": "44335",
						"totalCost": "116535"
					},
					"external": {
						"f2()": "2507",
						"f4()": "2481",
						"get_y()": "2437",
						"x()": "2407"
					},
					"internal": {
						"f1()": "2123",
						"f3()": "infinite"
					}
				},
				"methodIdentifiers": {
					"f2()": "9942ec6f",
					"f4()": "c3f90202",
					"get_y()": "28d69c6d",
					"x()": "0c55699c"
				}
			},
			"storageLayout": {
				"storage": [
					{
						"astId": 4,
						"contract": "contracts/visibility.sol:A",
						"label": "x",
						"offset": 0,
						"slot": "0",
						"type": "t_uint256"
					},
					{
						"astId": 7,
						"contract": "contracts/visibility.sol:A",
						"label": "y",
						"offset": 0,
						"slot": "1",
						"type": "t_uint256"
					}
				],
				"types": {
					"t_uint256": {
						"encoding": "inplace",
						"label": "uint256",
						"numberOfBytes": "32"
					}
				}
			},
			"userdoc": {
				"kind": "user",
				"methods": {},
				"version": 1
			}
		}
	}
}