{
	"contracts/structs.sol": {
		"Class": {
			"abi": [
				{
					"inputs": [
						{
							"internalType": "string",
							"name": "_name",
							"type": "string"
						},
						{
							"internalType": "uint256",
							"name": "_age",
							"type": "uint256"
						}
					],
					"stateMutability": "nonpayable",
					"type": "constructor"
				},
				{
					"inputs": [
						{
							"internalType": "string",
							"name": "_name",
							"type": "string"
						},
						{
							"internalType": "uint256",
							"name": "_age",
							"type": "uint256"
						},
						{
							"internalType": "address",
							"name": "_addr",
							"type": "address"
						}
					],
					"name": "changeTeacher",
					"outputs": [],
					"stateMutability": "nonpayable",
					"type": "function"
				},
				{
					"inputs": [],
					"name": "classQuality",
					"outputs": [
						{
							"internalType": "enum Class.Quality",
							"name": "",
							"type": "uint8"
						}
					],
					"stateMutability": "view",
					"type": "function"
				},
				{
					"inputs": [],
					"name": "setQualityToBad",
					"outputs": [],
					"stateMutability": "nonpayable",
					"type": "function"
				},
				{
					"inputs": [],
					"name": "teacher",
					"outputs": [
						{
							"internalType": "string",
							"name": "name",
							"type": "string"
						},
						{
							"internalType": "uint256",
							"name": "age",
							"type": "uint256"
						},
						{
							"internalType": "address",
							"name": "addr",
							"type": "address"
						}
					],
					"stateMutability": "view",
					"type": "function"
				}
			],
			"devdoc": {
				"kind": "dev",
				"methods": {},
				"version": 1
			},
			"evm": {
				"assembly": "    /* \"contracts/structs.sol\":148:853  contract Class {\r... */\n  mstore(0x40, 0x80)\n    /* \"contracts/structs.sol\":265:277  Quality.Good */\n  0x00\n    /* \"contracts/structs.sol\":235:277  Quality public classQuality = Quality.Good */\n  0x03\n  exp(0x0100, 0x00)\n  dup2\n  sload\n  dup2\n  0xff\n  mul\n  not\n  and\n  swap1\n  dup4\n  0x02\n  dup2\n  gt\n  iszero\n  tag_1\n  jumpi\n  tag_2\n  tag_3\n  jump\t// in\ntag_2:\ntag_1:\n  mul\n  or\n  swap1\n  sstore\n  pop\n    /* \"contracts/structs.sol\":286:433  constructor(string memory _name, uint _age){\r... */\n  callvalue\n  dup1\n  iszero\n  tag_4\n  jumpi\n  0x00\n  dup1\n  revert\ntag_4:\n  pop\n  mload(0x40)\n  sub(codesize, bytecodeSize)\n  dup1\n  bytecodeSize\n  dup4\n  codecopy\n  dup2\n  dup2\n  add\n  0x40\n  mstore\n  dup2\n  add\n  swap1\n  tag_5\n  swap2\n  swap1\n  tag_6\n  jump\t// in\ntag_5:\n    /* \"contracts/structs.sol\":355:360  _name */\n  dup2\n    /* \"contracts/structs.sol\":340:347  teacher */\n  0x00\n    /* \"contracts/structs.sol\":340:352  teacher.name */\n  dup1\n  add\n    /* \"contracts/structs.sol\":340:360  teacher.name = _name */\n  swap1\n  dup1\n  mload\n  swap1\n  0x20\n  add\n  swap1\n  tag_9\n  swap3\n  swap2\n  swap1\n  tag_10\n  jump\t// in\ntag_9:\n  pop\n    /* \"contracts/structs.sol\":385:389  _age */\n  dup1\n    /* \"contracts/structs.sol\":371:378  teacher */\n  0x00\n    /* \"contracts/structs.sol\":371:382  teacher.age */\n  0x01\n  add\n    /* \"contracts/structs.sol\":371:389  teacher.age = _age */\n  dup2\n  swap1\n  sstore\n  pop\n    /* \"contracts/structs.sol\":415:425  msg.sender */\n  caller\n    /* \"contracts/structs.sol\":400:407  teacher */\n  0x00\n    /* \"contracts/structs.sol\":400:412  teacher.addr */\n  0x02\n  add\n  0x00\n    /* \"contracts/structs.sol\":400:425  teacher.addr = msg.sender */\n  0x0100\n  exp\n  dup2\n  sload\n  dup2\n  0xffffffffffffffffffffffffffffffffffffffff\n  mul\n  not\n  and\n  swap1\n  dup4\n  0xffffffffffffffffffffffffffffffffffffffff\n  and\n  mul\n  or\n  swap1\n  sstore\n  pop\n    /* \"contracts/structs.sol\":286:433  constructor(string memory _name, uint _age){\r... */\n  pop\n  pop\n    /* \"contracts/structs.sol\":148:853  contract Class {\r... */\n  jump(tag_11)\ntag_10:\n  dup3\n  dup1\n  sload\n  tag_12\n  swap1\n  tag_13\n  jump\t// in\ntag_12:\n  swap1\n  0x00\n  mstore\n  keccak256(0x00, 0x20)\n  swap1\n  0x1f\n  add\n  0x20\n  swap1\n  div\n  dup2\n  add\n  swap3\n  dup3\n  tag_15\n  jumpi\n  0x00\n  dup6\n  sstore\n  jump(tag_14)\ntag_15:\n  dup3\n  0x1f\n  lt\n  tag_16\n  jumpi\n  dup1\n  mload\n  not(0xff)\n  and\n  dup4\n  dup1\n  add\n  or\n  dup6\n  sstore\n  jump(tag_14)\ntag_16:\n  dup3\n  dup1\n  add\n  0x01\n  add\n  dup6\n  sstore\n  dup3\n  iszero\n  tag_14\n  jumpi\n  swap2\n  dup3\n  add\ntag_17:\n  dup3\n  dup2\n  gt\n  iszero\n  tag_18\n  jumpi\n  dup3\n  mload\n  dup3\n  sstore\n  swap2\n  0x20\n  add\n  swap2\n  swap1\n  0x01\n  add\n  swap1\n  jump(tag_17)\ntag_18:\ntag_14:\n  pop\n  swap1\n  pop\n  tag_19\n  swap2\n  swap1\n  tag_20\n  jump\t// in\ntag_19:\n  pop\n  swap1\n  jump\t// out\ntag_20:\ntag_21:\n  dup1\n  dup3\n  gt\n  iszero\n  tag_22\n  jumpi\n  0x00\n  dup2\n  0x00\n  swap1\n  sstore\n  pop\n  0x01\n  add\n  jump(tag_21)\ntag_22:\n  pop\n  swap1\n  jump\t// out\n    /* \"#utility.yul\":7:428   */\ntag_24:\n    /* \"#utility.yul\":96:101   */\n  0x00\n    /* \"#utility.yul\":121:187   */\n  tag_26\n    /* \"#utility.yul\":137:186   */\n  tag_27\n    /* \"#utility.yul\":179:185   */\n  dup5\n    /* \"#utility.yul\":137:186   */\n  tag_28\n  jump\t// in\ntag_27:\n    /* \"#utility.yul\":121:187   */\n  tag_29\n  jump\t// in\ntag_26:\n    /* \"#utility.yul\":112:187   */\n  swap1\n  pop\n    /* \"#utility.yul\":210:216   */\n  dup3\n    /* \"#utility.yul\":203:208   */\n  dup2\n    /* \"#utility.yul\":196:217   */\n  mstore\n    /* \"#utility.yul\":248:252   */\n  0x20\n    /* \"#utility.yul\":241:246   */\n  dup2\n    /* \"#utility.yul\":237:253   */\n  add\n    /* \"#utility.yul\":286:289   */\n  dup5\n    /* \"#utility.yul\":277:283   */\n  dup5\n    /* \"#utility.yul\":272:275   */\n  dup5\n    /* \"#utility.yul\":268:284   */\n  add\n    /* \"#utility.yul\":265:290   */\n  gt\n    /* \"#utility.yul\":262:374   */\n  iszero\n  tag_30\n  jumpi\n    /* \"#utility.yul\":293:372   */\n  tag_31\n  tag_32\n  jump\t// in\ntag_31:\n    /* \"#utility.yul\":262:374   */\ntag_30:\n    /* \"#utility.yul\":383:422   */\n  tag_33\n    /* \"#utility.yul\":415:421   */\n  dup5\n    /* \"#utility.yul\":410:413   */\n  dup3\n    /* \"#utility.yul\":405:408   */\n  dup6\n    /* \"#utility.yul\":383:422   */\n  tag_34\n  jump\t// in\ntag_33:\n    /* \"#utility.yul\":102:428   */\n  pop\n    /* \"#utility.yul\":7:428   */\n  swap4\n  swap3\n  pop\n  pop\n  pop\n  jump\t// out\n    /* \"#utility.yul\":448:803   */\ntag_35:\n    /* \"#utility.yul\":515:520   */\n  0x00\n    /* \"#utility.yul\":564:567   */\n  dup3\n    /* \"#utility.yul\":557:561   */\n  0x1f\n    /* \"#utility.yul\":549:555   */\n  dup4\n    /* \"#utility.yul\":545:562   */\n  add\n    /* \"#utility.yul\":541:568   */\n  slt\n    /* \"#utility.yul\":531:653   */\n  tag_37\n  jumpi\n    /* \"#utility.yul\":572:651   */\n  tag_38\n  tag_39\n  jump\t// in\ntag_38:\n    /* \"#utility.yul\":531:653   */\ntag_37:\n    /* \"#utility.yul\":682:688   */\n  dup2\n    /* \"#utility.yul\":676:689   */\n  mload\n    /* \"#utility.yul\":707:797   */\n  tag_40\n    /* \"#utility.yul\":793:796   */\n  dup5\n    /* \"#utility.yul\":785:791   */\n  dup3\n    /* \"#utility.yul\":778:782   */\n  0x20\n    /* \"#utility.yul\":770:776   */\n  dup7\n    /* \"#utility.yul\":766:783   */\n  add\n    /* \"#utility.yul\":707:797   */\n  tag_24\n  jump\t// in\ntag_40:\n    /* \"#utility.yul\":698:797   */\n  swap2\n  pop\n    /* \"#utility.yul\":521:803   */\n  pop\n    /* \"#utility.yul\":448:803   */\n  swap3\n  swap2\n  pop\n  pop\n  jump\t// out\n    /* \"#utility.yul\":809:952   */\ntag_41:\n    /* \"#utility.yul\":866:871   */\n  0x00\n    /* \"#utility.yul\":897:903   */\n  dup2\n    /* \"#utility.yul\":891:904   */\n  mload\n    /* \"#utility.yul\":882:904   */\n  swap1\n  pop\n    /* \"#utility.yul\":913:946   */\n  tag_43\n    /* \"#utility.yul\":940:945   */\n  dup2\n    /* \"#utility.yul\":913:946   */\n  tag_44\n  jump\t// in\ntag_43:\n    /* \"#utility.yul\":809:952   */\n  swap3\n  swap2\n  pop\n  pop\n  jump\t// out\n    /* \"#utility.yul\":958:1638   */\ntag_6:\n    /* \"#utility.yul\":1047:1053   */\n  0x00\n    /* \"#utility.yul\":1055:1061   */\n  dup1\n    /* \"#utility.yul\":1104:1106   */\n  0x40\n    /* \"#utility.yul\":1092:1101   */\n  dup4\n    /* \"#utility.yul\":1083:1090   */\n  dup6\n    /* \"#utility.yul\":1079:1102   */\n  sub\n    /* \"#utility.yul\":1075:1107   */\n  slt\n    /* \"#utility.yul\":1072:1191   */\n  iszero\n  tag_46\n  jumpi\n    /* \"#utility.yul\":1110:1189   */\n  tag_47\n  tag_48\n  jump\t// in\ntag_47:\n    /* \"#utility.yul\":1072:1191   */\ntag_46:\n    /* \"#utility.yul\":1251:1252   */\n  0x00\n    /* \"#utility.yul\":1240:1249   */\n  dup4\n    /* \"#utility.yul\":1236:1253   */\n  add\n    /* \"#utility.yul\":1230:1254   */\n  mload\n    /* \"#utility.yul\":1281:1299   */\n  0xffffffffffffffff\n    /* \"#utility.yul\":1273:1279   */\n  dup2\n    /* \"#utility.yul\":1270:1300   */\n  gt\n    /* \"#utility.yul\":1267:1384   */\n  iszero\n  tag_49\n  jumpi\n    /* \"#utility.yul\":1303:1382   */\n  tag_50\n  tag_51\n  jump\t// in\ntag_50:\n    /* \"#utility.yul\":1267:1384   */\ntag_49:\n    /* \"#utility.yul\":1408:1482   */\n  tag_52\n    /* \"#utility.yul\":1474:1481   */\n  dup6\n    /* \"#utility.yul\":1465:1471   */\n  dup3\n    /* \"#utility.yul\":1454:1463   */\n  dup7\n    /* \"#utility.yul\":1450:1472   */\n  add\n    /* \"#utility.yul\":1408:1482   */\n  tag_35\n  jump\t// in\ntag_52:\n    /* \"#utility.yul\":1398:1482   */\n  swap3\n  pop\n    /* \"#utility.yul\":1201:1492   */\n  pop\n    /* \"#utility.yul\":1531:1533   */\n  0x20\n    /* \"#utility.yul\":1557:1621   */\n  tag_53\n    /* \"#utility.yul\":1613:1620   */\n  dup6\n    /* \"#utility.yul\":1604:1610   */\n  dup3\n    /* \"#utility.yul\":1593:1602   */\n  dup7\n    /* \"#utility.yul\":1589:1611   */\n  add\n    /* \"#utility.yul\":1557:1621   */\n  tag_41\n  jump\t// in\ntag_53:\n    /* \"#utility.yul\":1547:1621   */\n  swap2\n  pop\n    /* \"#utility.yul\":1502:1631   */\n  pop\n    /* \"#utility.yul\":958:1638   */\n  swap3\n  pop\n  swap3\n  swap1\n  pop\n  jump\t// out\n    /* \"#utility.yul\":1644:1773   */\ntag_29:\n    /* \"#utility.yul\":1678:1684   */\n  0x00\n    /* \"#utility.yul\":1705:1725   */\n  tag_55\n  tag_56\n  jump\t// in\ntag_55:\n    /* \"#utility.yul\":1695:1725   */\n  swap1\n  pop\n    /* \"#utility.yul\":1734:1767   */\n  tag_57\n    /* \"#utility.yul\":1762:1766   */\n  dup3\n    /* \"#utility.yul\":1754:1760   */\n  dup3\n    /* \"#utility.yul\":1734:1767   */\n  tag_58\n  jump\t// in\ntag_57:\n    /* \"#utility.yul\":1644:1773   */\n  swap2\n  swap1\n  pop\n  jump\t// out\n    /* \"#utility.yul\":1779:1854   */\ntag_56:\n    /* \"#utility.yul\":1812:1818   */\n  0x00\n    /* \"#utility.yul\":1845:1847   */\n  0x40\n    /* \"#utility.yul\":1839:1848   */\n  mload\n    /* \"#utility.yul\":1829:1848   */\n  swap1\n  pop\n    /* \"#utility.yul\":1779:1854   */\n  swap1\n  jump\t// out\n    /* \"#utility.yul\":1860:2168   */\ntag_28:\n    /* \"#utility.yul\":1922:1926   */\n  0x00\n    /* \"#utility.yul\":2012:2030   */\n  0xffffffffffffffff\n    /* \"#utility.yul\":2004:2010   */\n  dup3\n    /* \"#utility.yul\":2001:2031   */\n  gt\n    /* \"#utility.yul\":1998:2054   */\n  iszero\n  tag_61\n  jumpi\n    /* \"#utility.yul\":2034:2052   */\n  tag_62\n  tag_63\n  jump\t// in\ntag_62:\n    /* \"#utility.yul\":1998:2054   */\ntag_61:\n    /* \"#utility.yul\":2072:2101   */\n  tag_64\n    /* \"#utility.yul\":2094:2100   */\n  dup3\n    /* \"#utility.yul\":2072:2101   */\n  tag_65\n  jump\t// in\ntag_64:\n    /* \"#utility.yul\":2064:2101   */\n  swap1\n  pop\n    /* \"#utility.yul\":2156:2160   */\n  0x20\n    /* \"#utility.yul\":2150:2154   */\n  dup2\n    /* \"#utility.yul\":2146:2161   */\n  add\n    /* \"#utility.yul\":2138:2161   */\n  swap1\n  pop\n    /* \"#utility.yul\":1860:2168   */\n  swap2\n  swap1\n  pop\n  jump\t// out\n    /* \"#utility.yul\":2174:2251   */\ntag_66:\n    /* \"#utility.yul\":2211:2218   */\n  0x00\n    /* \"#utility.yul\":2240:2245   */\n  dup2\n    /* \"#utility.yul\":2229:2245   */\n  swap1\n  pop\n    /* \"#utility.yul\":2174:2251   */\n  swap2\n  swap1\n  pop\n  jump\t// out\n    /* \"#utility.yul\":2257:2564   */\ntag_34:\n    /* \"#utility.yul\":2325:2326   */\n  0x00\n    /* \"#utility.yul\":2335:2448   */\ntag_69:\n    /* \"#utility.yul\":2349:2355   */\n  dup4\n    /* \"#utility.yul\":2346:2347   */\n  dup2\n    /* \"#utility.yul\":2343:2356   */\n  lt\n    /* \"#utility.yul\":2335:2448   */\n  iszero\n  tag_71\n  jumpi\n    /* \"#utility.yul\":2434:2435   */\n  dup1\n    /* \"#utility.yul\":2429:2432   */\n  dup3\n    /* \"#utility.yul\":2425:2436   */\n  add\n    /* \"#utility.yul\":2419:2437   */\n  mload\n    /* \"#utility.yul\":2415:2416   */\n  dup2\n    /* \"#utility.yul\":2410:2413   */\n  dup5\n    /* \"#utility.yul\":2406:2417   */\n  add\n    /* \"#utility.yul\":2399:2438   */\n  mstore\n    /* \"#utility.yul\":2371:2373   */\n  0x20\n    /* \"#utility.yul\":2368:2369   */\n  dup2\n    /* \"#utility.yul\":2364:2374   */\n  add\n    /* \"#utility.yul\":2359:2374   */\n  swap1\n  pop\n    /* \"#utility.yul\":2335:2448   */\n  jump(tag_69)\ntag_71:\n    /* \"#utility.yul\":2466:2472   */\n  dup4\n    /* \"#utility.yul\":2463:2464   */\n  dup2\n    /* \"#utility.yul\":2460:2473   */\n  gt\n    /* \"#utility.yul\":2457:2558   */\n  iszero\n  tag_72\n  jumpi\n    /* \"#utility.yul\":2546:2547   */\n  0x00\n    /* \"#utility.yul\":2537:2543   */\n  dup5\n    /* \"#utility.yul\":2532:2535   */\n  dup5\n    /* \"#utility.yul\":2528:2544   */\n  add\n    /* \"#utility.yul\":2521:2548   */\n  mstore\n    /* \"#utility.yul\":2457:2558   */\ntag_72:\n    /* \"#utility.yul\":2306:2564   */\n  pop\n    /* \"#utility.yul\":2257:2564   */\n  pop\n  pop\n  pop\n  jump\t// out\n    /* \"#utility.yul\":2570:2890   */\ntag_13:\n    /* \"#utility.yul\":2614:2620   */\n  0x00\n    /* \"#utility.yul\":2651:2652   */\n  0x02\n    /* \"#utility.yul\":2645:2649   */\n  dup3\n    /* \"#utility.yul\":2641:2653   */\n  div\n    /* \"#utility.yul\":2631:2653   */\n  swap1\n  pop\n    /* \"#utility.yul\":2698:2699   */\n  0x01\n    /* \"#utility.yul\":2692:2696   */\n  dup3\n    /* \"#utility.yul\":2688:2700   */\n  and\n    /* \"#utility.yul\":2719:2737   */\n  dup1\n    /* \"#utility.yul\":2709:2790   */\n  tag_74\n  jumpi\n    /* \"#utility.yul\":2775:2779   */\n  0x7f\n    /* \"#utility.yul\":2767:2773   */\n  dup3\n    /* \"#utility.yul\":2763:2780   */\n  and\n    /* \"#utility.yul\":2753:2780   */\n  swap2\n  pop\n    /* \"#utility.yul\":2709:2790   */\ntag_74:\n    /* \"#utility.yul\":2837:2839   */\n  0x20\n    /* \"#utility.yul\":2829:2835   */\n  dup3\n    /* \"#utility.yul\":2826:2840   */\n  lt\n    /* \"#utility.yul\":2806:2824   */\n  dup2\n    /* \"#utility.yul\":2803:2841   */\n  eq\n    /* \"#utility.yul\":2800:2884   */\n  iszero\n  tag_75\n  jumpi\n    /* \"#utility.yul\":2856:2874   */\n  tag_76\n  tag_77\n  jump\t// in\ntag_76:\n    /* \"#utility.yul\":2800:2884   */\ntag_75:\n    /* \"#utility.yul\":2621:2890   */\n  pop\n    /* \"#utility.yul\":2570:2890   */\n  swap2\n  swap1\n  pop\n  jump\t// out\n    /* \"#utility.yul\":2896:3177   */\ntag_58:\n    /* \"#utility.yul\":2979:3006   */\n  tag_79\n    /* \"#utility.yul\":3001:3005   */\n  dup3\n    /* \"#utility.yul\":2979:3006   */\n  tag_65\n  jump\t// in\ntag_79:\n    /* \"#utility.yul\":2971:2977   */\n  dup2\n    /* \"#utility.yul\":2967:3007   */\n  add\n    /* \"#utility.yul\":3109:3115   */\n  dup2\n    /* \"#utility.yul\":3097:3107   */\n  dup2\n    /* \"#utility.yul\":3094:3116   */\n  lt\n    /* \"#utility.yul\":3073:3091   */\n  0xffffffffffffffff\n    /* \"#utility.yul\":3061:3071   */\n  dup3\n    /* \"#utility.yul\":3058:3092   */\n  gt\n    /* \"#utility.yul\":3055:3117   */\n  or\n    /* \"#utility.yul\":3052:3140   */\n  iszero\n  tag_80\n  jumpi\n    /* \"#utility.yul\":3120:3138   */\n  tag_81\n  tag_63\n  jump\t// in\ntag_81:\n    /* \"#utility.yul\":3052:3140   */\ntag_80:\n    /* \"#utility.yul\":3160:3170   */\n  dup1\n    /* \"#utility.yul\":3156:3158   */\n  0x40\n    /* \"#utility.yul\":3149:3171   */\n  mstore\n    /* \"#utility.yul\":2939:3177   */\n  pop\n    /* \"#utility.yul\":2896:3177   */\n  pop\n  pop\n  jump\t// out\n    /* \"#utility.yul\":3183:3363   */\ntag_3:\n    /* \"#utility.yul\":3231:3308   */\n  0x4e487b7100000000000000000000000000000000000000000000000000000000\n    /* \"#utility.yul\":3228:3229   */\n  0x00\n    /* \"#utility.yul\":3221:3309   */\n  mstore\n    /* \"#utility.yul\":3328:3332   */\n  0x21\n    /* \"#utility.yul\":3325:3326   */\n  0x04\n    /* \"#utility.yul\":3318:3333   */\n  mstore\n    /* \"#utility.yul\":3352:3356   */\n  0x24\n    /* \"#utility.yul\":3349:3350   */\n  0x00\n    /* \"#utility.yul\":3342:3357   */\n  revert\n    /* \"#utility.yul\":3369:3549   */\ntag_77:\n    /* \"#utility.yul\":3417:3494   */\n  0x4e487b7100000000000000000000000000000000000000000000000000000000\n    /* \"#utility.yul\":3414:3415   */\n  0x00\n    /* \"#utility.yul\":3407:3495   */\n  mstore\n    /* \"#utility.yul\":3514:3518   */\n  0x22\n    /* \"#utility.yul\":3511:3512   */\n  0x04\n    /* \"#utility.yul\":3504:3519   */\n  mstore\n    /* \"#utility.yul\":3538:3542   */\n  0x24\n    /* \"#utility.yul\":3535:3536   */\n  0x00\n    /* \"#utility.yul\":3528:3543   */\n  revert\n    /* \"#utility.yul\":3555:3735   */\ntag_63:\n    /* \"#utility.yul\":3603:3680   */\n  0x4e487b7100000000000000000000000000000000000000000000000000000000\n    /* \"#utility.yul\":3600:3601   */\n  0x00\n    /* \"#utility.yul\":3593:3681   */\n  mstore\n    /* \"#utility.yul\":3700:3704   */\n  0x41\n    /* \"#utility.yul\":3697:3698   */\n  0x04\n    /* \"#utility.yul\":3690:3705   */\n  mstore\n    /* \"#utility.yul\":3724:3728   */\n  0x24\n    /* \"#utility.yul\":3721:3722   */\n  0x00\n    /* \"#utility.yul\":3714:3729   */\n  revert\n    /* \"#utility.yul\":3741:3858   */\ntag_39:\n    /* \"#utility.yul\":3850:3851   */\n  0x00\n    /* \"#utility.yul\":3847:3848   */\n  dup1\n    /* \"#utility.yul\":3840:3852   */\n  revert\n    /* \"#utility.yul\":3864:3981   */\ntag_32:\n    /* \"#utility.yul\":3973:3974   */\n  0x00\n    /* \"#utility.yul\":3970:3971   */\n  dup1\n    /* \"#utility.yul\":3963:3975   */\n  revert\n    /* \"#utility.yul\":3987:4104   */\ntag_51:\n    /* \"#utility.yul\":4096:4097   */\n  0x00\n    /* \"#utility.yul\":4093:4094   */\n  dup1\n    /* \"#utility.yul\":4086:4098   */\n  revert\n    /* \"#utility.yul\":4110:4227   */\ntag_48:\n    /* \"#utility.yul\":4219:4220   */\n  0x00\n    /* \"#utility.yul\":4216:4217   */\n  dup1\n    /* \"#utility.yul\":4209:4221   */\n  revert\n    /* \"#utility.yul\":4233:4335   */\ntag_65:\n    /* \"#utility.yul\":4274:4280   */\n  0x00\n    /* \"#utility.yul\":4325:4327   */\n  0x1f\n    /* \"#utility.yul\":4321:4328   */\n  not\n    /* \"#utility.yul\":4316:4318   */\n  0x1f\n    /* \"#utility.yul\":4309:4314   */\n  dup4\n    /* \"#utility.yul\":4305:4319   */\n  add\n    /* \"#utility.yul\":4301:4329   */\n  and\n    /* \"#utility.yul\":4291:4329   */\n  swap1\n  pop\n    /* \"#utility.yul\":4233:4335   */\n  swap2\n  swap1\n  pop\n  jump\t// out\n    /* \"#utility.yul\":4341:4463   */\ntag_44:\n    /* \"#utility.yul\":4414:4438   */\n  tag_91\n    /* \"#utility.yul\":4432:4437   */\n  dup2\n    /* \"#utility.yul\":4414:4438   */\n  tag_66\n  jump\t// in\ntag_91:\n    /* \"#utility.yul\":4407:4412   */\n  dup2\n    /* \"#utility.yul\":4404:4439   */\n  eq\n    /* \"#utility.yul\":4394:4457   */\n  tag_92\n  jumpi\n    /* \"#utility.yul\":4453:4454   */\n  0x00\n    /* \"#utility.yul\":4450:4451   */\n  dup1\n    /* \"#utility.yul\":4443:4455   */\n  revert\n    /* \"#utility.yul\":4394:4457   */\ntag_92:\n    /* \"#utility.yul\":4341:4463   */\n  pop\n  jump\t// out\n    /* \"contracts/structs.sol\":148:853  contract Class {\r... */\ntag_11:\n  dataSize(sub_0)\n  dup1\n  dataOffset(sub_0)\n  0x00\n  codecopy\n  0x00\n  return\nstop\n\nsub_0: assembly {\n        /* \"contracts/structs.sol\":148:853  contract Class {\r... */\n      mstore(0x40, 0x80)\n      callvalue\n      dup1\n      iszero\n      tag_1\n      jumpi\n      0x00\n      dup1\n      revert\n    tag_1:\n      pop\n      jumpi(tag_2, lt(calldatasize, 0x04))\n      shr(0xe0, calldataload(0x00))\n      dup1\n      0x951a6aa2\n      eq\n      tag_3\n      jumpi\n      dup1\n      0xad55053a\n      eq\n      tag_4\n      jumpi\n      dup1\n      0xb46bff89\n      eq\n      tag_5\n      jumpi\n      dup1\n      0xc81dd2dc\n      eq\n      tag_6\n      jumpi\n    tag_2:\n      0x00\n      dup1\n      revert\n        /* \"contracts/structs.sol\":235:277  Quality public classQuality = Quality.Good */\n    tag_3:\n      tag_7\n      tag_8\n      jump\t// in\n    tag_7:\n      mload(0x40)\n      tag_9\n      swap2\n      swap1\n      tag_10\n      jump\t// in\n    tag_9:\n      mload(0x40)\n      dup1\n      swap2\n      sub\n      swap1\n      return\n        /* \"contracts/structs.sol\":772:850  function setQualityToBad() public{\r... */\n    tag_4:\n      tag_11\n      tag_12\n      jump\t// in\n    tag_11:\n      stop\n        /* \"contracts/structs.sol\":170:192  Teacher public teacher */\n    tag_5:\n      tag_13\n      tag_14\n      jump\t// in\n    tag_13:\n      mload(0x40)\n      tag_15\n      swap4\n      swap3\n      swap2\n      swap1\n      tag_16\n      jump\t// in\n    tag_15:\n      mload(0x40)\n      dup1\n      swap2\n      sub\n      swap1\n      return\n        /* \"contracts/structs.sol\":441:764  function changeTeacher(string memory _name, uint _age, address _addr) public{\r... */\n    tag_6:\n      tag_17\n      0x04\n      dup1\n      calldatasize\n      sub\n      dup2\n      add\n      swap1\n      tag_18\n      swap2\n      swap1\n      tag_19\n      jump\t// in\n    tag_18:\n      tag_20\n      jump\t// in\n    tag_17:\n      stop\n        /* \"contracts/structs.sol\":235:277  Quality public classQuality = Quality.Good */\n    tag_8:\n      0x03\n      0x00\n      swap1\n      sload\n      swap1\n      0x0100\n      exp\n      swap1\n      div\n      0xff\n      and\n      dup2\n      jump\t// out\n        /* \"contracts/structs.sol\":772:850  function setQualityToBad() public{\r... */\n    tag_12:\n        /* \"contracts/structs.sol\":831:842  Quality.Bad */\n      0x02\n        /* \"contracts/structs.sol\":816:828  classQuality */\n      0x03\n      0x00\n        /* \"contracts/structs.sol\":816:842  classQuality = Quality.Bad */\n      0x0100\n      exp\n      dup2\n      sload\n      dup2\n      0xff\n      mul\n      not\n      and\n      swap1\n      dup4\n      0x02\n      dup2\n      gt\n      iszero\n      tag_22\n      jumpi\n      tag_23\n      tag_24\n      jump\t// in\n    tag_23:\n    tag_22:\n      mul\n      or\n      swap1\n      sstore\n      pop\n        /* \"contracts/structs.sol\":772:850  function setQualityToBad() public{\r... */\n      jump\t// out\n        /* \"contracts/structs.sol\":170:192  Teacher public teacher */\n    tag_14:\n      0x00\n      dup1\n      0x00\n      add\n      dup1\n      sload\n      tag_25\n      swap1\n      tag_26\n      jump\t// in\n    tag_25:\n      dup1\n      0x1f\n      add\n      0x20\n      dup1\n      swap2\n      div\n      mul\n      0x20\n      add\n      mload(0x40)\n      swap1\n      dup2\n      add\n      0x40\n      mstore\n      dup1\n      swap3\n      swap2\n      swap1\n      dup2\n      dup2\n      mstore\n      0x20\n      add\n      dup3\n      dup1\n      sload\n      tag_27\n      swap1\n      tag_26\n      jump\t// in\n    tag_27:\n      dup1\n      iszero\n      tag_28\n      jumpi\n      dup1\n      0x1f\n      lt\n      tag_29\n      jumpi\n      0x0100\n      dup1\n      dup4\n      sload\n      div\n      mul\n      dup4\n      mstore\n      swap2\n      0x20\n      add\n      swap2\n      jump(tag_28)\n    tag_29:\n      dup3\n      add\n      swap2\n      swap1\n      0x00\n      mstore\n      keccak256(0x00, 0x20)\n      swap1\n    tag_30:\n      dup2\n      sload\n      dup2\n      mstore\n      swap1\n      0x01\n      add\n      swap1\n      0x20\n      add\n      dup1\n      dup4\n      gt\n      tag_30\n      jumpi\n      dup3\n      swap1\n      sub\n      0x1f\n      and\n      dup3\n      add\n      swap2\n    tag_28:\n      pop\n      pop\n      pop\n      pop\n      pop\n      swap1\n      dup1\n      0x01\n      add\n      sload\n      swap1\n      dup1\n      0x02\n      add\n      0x00\n      swap1\n      sload\n      swap1\n      0x0100\n      exp\n      swap1\n      div\n      0xffffffffffffffffffffffffffffffffffffffff\n      and\n      swap1\n      pop\n      dup4\n      jump\t// out\n        /* \"contracts/structs.sol\":441:764  function changeTeacher(string memory _name, uint _age, address _addr) public{\r... */\n    tag_20:\n        /* \"contracts/structs.sol\":547:558  Quality.Bad */\n      0x02\n        /* \"contracts/structs.sol\":531:558  classQuality == Quality.Bad */\n      dup1\n      dup2\n      gt\n      iszero\n      tag_32\n      jumpi\n      tag_33\n      tag_24\n      jump\t// in\n    tag_33:\n    tag_32:\n        /* \"contracts/structs.sol\":531:543  classQuality */\n      0x03\n      0x00\n      swap1\n      sload\n      swap1\n      0x0100\n      exp\n      swap1\n      div\n      0xff\n      and\n        /* \"contracts/structs.sol\":531:558  classQuality == Quality.Bad */\n      0x02\n      dup2\n      gt\n      iszero\n      tag_34\n      jumpi\n      tag_35\n      tag_24\n      jump\t// in\n    tag_35:\n    tag_34:\n      eq\n        /* \"contracts/structs.sol\":528:757  if(classQuality == Quality.Bad){\r... */\n      iszero\n      tag_36\n      jumpi\n        /* \"contracts/structs.sol\":574:597  Teacher memory nTeacher */\n      0x00\n        /* \"contracts/structs.sol\":600:712  Teacher({\r... */\n      mload(0x40)\n      dup1\n      0x60\n      add\n      0x40\n      mstore\n      dup1\n        /* \"contracts/structs.sol\":633:638  _name */\n      dup6\n        /* \"contracts/structs.sol\":600:712  Teacher({\r... */\n      dup2\n      mstore\n      0x20\n      add\n        /* \"contracts/structs.sol\":662:666  _age */\n      dup5\n        /* \"contracts/structs.sol\":600:712  Teacher({\r... */\n      dup2\n      mstore\n      0x20\n      add\n        /* \"contracts/structs.sol\":691:696  _addr */\n      dup4\n        /* \"contracts/structs.sol\":600:712  Teacher({\r... */\n      0xffffffffffffffffffffffffffffffffffffffff\n      and\n      dup2\n      mstore\n      pop\n        /* \"contracts/structs.sol\":574:712  Teacher memory nTeacher = Teacher({\r... */\n      swap1\n      pop\n        /* \"contracts/structs.sol\":737:745  nTeacher */\n      dup1\n        /* \"contracts/structs.sol\":727:734  teacher */\n      0x00\n        /* \"contracts/structs.sol\":727:745  teacher = nTeacher */\n      dup1\n      dup3\n      add\n      mload\n      dup2\n      0x00\n      add\n      swap1\n      dup1\n      mload\n      swap1\n      0x20\n      add\n      swap1\n      tag_37\n      swap3\n      swap2\n      swap1\n      tag_38\n      jump\t// in\n    tag_37:\n      pop\n      0x20\n      dup3\n      add\n      mload\n      dup2\n      0x01\n      add\n      sstore\n      0x40\n      dup3\n      add\n      mload\n      dup2\n      0x02\n      add\n      exp(0x0100, 0x00)\n      dup2\n      sload\n      dup2\n      0xffffffffffffffffffffffffffffffffffffffff\n      mul\n      not\n      and\n      swap1\n      dup4\n      0xffffffffffffffffffffffffffffffffffffffff\n      and\n      mul\n      or\n      swap1\n      sstore\n      pop\n      swap1\n      pop\n      pop\n        /* \"contracts/structs.sol\":559:757  {\r... */\n      pop\n        /* \"contracts/structs.sol\":528:757  if(classQuality == Quality.Bad){\r... */\n    tag_36:\n        /* \"contracts/structs.sol\":441:764  function changeTeacher(string memory _name, uint _age, address _addr) public{\r... */\n      pop\n      pop\n      pop\n      jump\t// out\n    tag_38:\n      dup3\n      dup1\n      sload\n      tag_39\n      swap1\n      tag_26\n      jump\t// in\n    tag_39:\n      swap1\n      0x00\n      mstore\n      keccak256(0x00, 0x20)\n      swap1\n      0x1f\n      add\n      0x20\n      swap1\n      div\n      dup2\n      add\n      swap3\n      dup3\n      tag_41\n      jumpi\n      0x00\n      dup6\n      sstore\n      jump(tag_40)\n    tag_41:\n      dup3\n      0x1f\n      lt\n      tag_42\n      jumpi\n      dup1\n      mload\n      not(0xff)\n      and\n      dup4\n      dup1\n      add\n      or\n      dup6\n      sstore\n      jump(tag_40)\n    tag_42:\n      dup3\n      dup1\n      add\n      0x01\n      add\n      dup6\n      sstore\n      dup3\n      iszero\n      tag_40\n      jumpi\n      swap2\n      dup3\n      add\n    tag_43:\n      dup3\n      dup2\n      gt\n      iszero\n      tag_44\n      jumpi\n      dup3\n      mload\n      dup3\n      sstore\n      swap2\n      0x20\n      add\n      swap2\n      swap1\n      0x01\n      add\n      swap1\n      jump(tag_43)\n    tag_44:\n    tag_40:\n      pop\n      swap1\n      pop\n      tag_45\n      swap2\n      swap1\n      tag_46\n      jump\t// in\n    tag_45:\n      pop\n      swap1\n      jump\t// out\n    tag_46:\n    tag_47:\n      dup1\n      dup3\n      gt\n      iszero\n      tag_48\n      jumpi\n      0x00\n      dup2\n      0x00\n      swap1\n      sstore\n      pop\n      0x01\n      add\n      jump(tag_47)\n    tag_48:\n      pop\n      swap1\n      jump\t// out\n        /* \"#utility.yul\":7:419   */\n    tag_50:\n        /* \"#utility.yul\":85:90   */\n      0x00\n        /* \"#utility.yul\":110:176   */\n      tag_52\n        /* \"#utility.yul\":126:175   */\n      tag_53\n        /* \"#utility.yul\":168:174   */\n      dup5\n        /* \"#utility.yul\":126:175   */\n      tag_54\n      jump\t// in\n    tag_53:\n        /* \"#utility.yul\":110:176   */\n      tag_55\n      jump\t// in\n    tag_52:\n        /* \"#utility.yul\":101:176   */\n      swap1\n      pop\n        /* \"#utility.yul\":199:205   */\n      dup3\n        /* \"#utility.yul\":192:197   */\n      dup2\n        /* \"#utility.yul\":185:206   */\n      mstore\n        /* \"#utility.yul\":237:241   */\n      0x20\n        /* \"#utility.yul\":230:235   */\n      dup2\n        /* \"#utility.yul\":226:242   */\n      add\n        /* \"#utility.yul\":275:278   */\n      dup5\n        /* \"#utility.yul\":266:272   */\n      dup5\n        /* \"#utility.yul\":261:264   */\n      dup5\n        /* \"#utility.yul\":257:273   */\n      add\n        /* \"#utility.yul\":254:279   */\n      gt\n        /* \"#utility.yul\":251:363   */\n      iszero\n      tag_56\n      jumpi\n        /* \"#utility.yul\":282:361   */\n      tag_57\n      tag_58\n      jump\t// in\n    tag_57:\n        /* \"#utility.yul\":251:363   */\n    tag_56:\n        /* \"#utility.yul\":372:413   */\n      tag_59\n        /* \"#utility.yul\":406:412   */\n      dup5\n        /* \"#utility.yul\":401:404   */\n      dup3\n        /* \"#utility.yul\":396:399   */\n      dup6\n        /* \"#utility.yul\":372:413   */\n      tag_60\n      jump\t// in\n    tag_59:\n        /* \"#utility.yul\":91:419   */\n      pop\n        /* \"#utility.yul\":7:419   */\n      swap4\n      swap3\n      pop\n      pop\n      pop\n      jump\t// out\n        /* \"#utility.yul\":425:564   */\n    tag_61:\n        /* \"#utility.yul\":471:476   */\n      0x00\n        /* \"#utility.yul\":509:515   */\n      dup2\n        /* \"#utility.yul\":496:516   */\n      calldataload\n        /* \"#utility.yul\":487:516   */\n      swap1\n      pop\n        /* \"#utility.yul\":525:558   */\n      tag_63\n        /* \"#utility.yul\":552:557   */\n      dup2\n        /* \"#utility.yul\":525:558   */\n      tag_64\n      jump\t// in\n    tag_63:\n        /* \"#utility.yul\":425:564   */\n      swap3\n      swap2\n      pop\n      pop\n      jump\t// out\n        /* \"#utility.yul\":584:924   */\n    tag_65:\n        /* \"#utility.yul\":640:645   */\n      0x00\n        /* \"#utility.yul\":689:692   */\n      dup3\n        /* \"#utility.yul\":682:686   */\n      0x1f\n        /* \"#utility.yul\":674:680   */\n      dup4\n        /* \"#utility.yul\":670:687   */\n      add\n        /* \"#utility.yul\":666:693   */\n      slt\n        /* \"#utility.yul\":656:778   */\n      tag_67\n      jumpi\n        /* \"#utility.yul\":697:776   */\n      tag_68\n      tag_69\n      jump\t// in\n    tag_68:\n        /* \"#utility.yul\":656:778   */\n    tag_67:\n        /* \"#utility.yul\":814:820   */\n      dup2\n        /* \"#utility.yul\":801:821   */\n      calldataload\n        /* \"#utility.yul\":839:918   */\n      tag_70\n        /* \"#utility.yul\":914:917   */\n      dup5\n        /* \"#utility.yul\":906:912   */\n      dup3\n        /* \"#utility.yul\":899:903   */\n      0x20\n        /* \"#utility.yul\":891:897   */\n      dup7\n        /* \"#utility.yul\":887:904   */\n      add\n        /* \"#utility.yul\":839:918   */\n      tag_50\n      jump\t// in\n    tag_70:\n        /* \"#utility.yul\":830:918   */\n      swap2\n      pop\n        /* \"#utility.yul\":646:924   */\n      pop\n        /* \"#utility.yul\":584:924   */\n      swap3\n      swap2\n      pop\n      pop\n      jump\t// out\n        /* \"#utility.yul\":930:1069   */\n    tag_71:\n        /* \"#utility.yul\":976:981   */\n      0x00\n        /* \"#utility.yul\":1014:1020   */\n      dup2\n        /* \"#utility.yul\":1001:1021   */\n      calldataload\n        /* \"#utility.yul\":992:1021   */\n      swap1\n      pop\n        /* \"#utility.yul\":1030:1063   */\n      tag_73\n        /* \"#utility.yul\":1057:1062   */\n      dup2\n        /* \"#utility.yul\":1030:1063   */\n      tag_74\n      jump\t// in\n    tag_73:\n        /* \"#utility.yul\":930:1069   */\n      swap3\n      swap2\n      pop\n      pop\n      jump\t// out\n        /* \"#utility.yul\":1075:1874   */\n    tag_19:\n        /* \"#utility.yul\":1162:1168   */\n      0x00\n        /* \"#utility.yul\":1170:1176   */\n      dup1\n        /* \"#utility.yul\":1178:1184   */\n      0x00\n        /* \"#utility.yul\":1227:1229   */\n      0x60\n        /* \"#utility.yul\":1215:1224   */\n      dup5\n        /* \"#utility.yul\":1206:1213   */\n      dup7\n        /* \"#utility.yul\":1202:1225   */\n      sub\n        /* \"#utility.yul\":1198:1230   */\n      slt\n        /* \"#utility.yul\":1195:1314   */\n      iszero\n      tag_76\n      jumpi\n        /* \"#utility.yul\":1233:1312   */\n      tag_77\n      tag_78\n      jump\t// in\n    tag_77:\n        /* \"#utility.yul\":1195:1314   */\n    tag_76:\n        /* \"#utility.yul\":1381:1382   */\n      0x00\n        /* \"#utility.yul\":1370:1379   */\n      dup5\n        /* \"#utility.yul\":1366:1383   */\n      add\n        /* \"#utility.yul\":1353:1384   */\n      calldataload\n        /* \"#utility.yul\":1411:1429   */\n      0xffffffffffffffff\n        /* \"#utility.yul\":1403:1409   */\n      dup2\n        /* \"#utility.yul\":1400:1430   */\n      gt\n        /* \"#utility.yul\":1397:1514   */\n      iszero\n      tag_79\n      jumpi\n        /* \"#utility.yul\":1433:1512   */\n      tag_80\n      tag_81\n      jump\t// in\n    tag_80:\n        /* \"#utility.yul\":1397:1514   */\n    tag_79:\n        /* \"#utility.yul\":1538:1601   */\n      tag_82\n        /* \"#utility.yul\":1593:1600   */\n      dup7\n        /* \"#utility.yul\":1584:1590   */\n      dup3\n        /* \"#utility.yul\":1573:1582   */\n      dup8\n        /* \"#utility.yul\":1569:1591   */\n      add\n        /* \"#utility.yul\":1538:1601   */\n      tag_65\n      jump\t// in\n    tag_82:\n        /* \"#utility.yul\":1528:1601   */\n      swap4\n      pop\n        /* \"#utility.yul\":1324:1611   */\n      pop\n        /* \"#utility.yul\":1650:1652   */\n      0x20\n        /* \"#utility.yul\":1676:1729   */\n      tag_83\n        /* \"#utility.yul\":1721:1728   */\n      dup7\n        /* \"#utility.yul\":1712:1718   */\n      dup3\n        /* \"#utility.yul\":1701:1710   */\n      dup8\n        /* \"#utility.yul\":1697:1719   */\n      add\n        /* \"#utility.yul\":1676:1729   */\n      tag_71\n      jump\t// in\n    tag_83:\n        /* \"#utility.yul\":1666:1729   */\n      swap3\n      pop\n        /* \"#utility.yul\":1621:1739   */\n      pop\n        /* \"#utility.yul\":1778:1780   */\n      0x40\n        /* \"#utility.yul\":1804:1857   */\n      tag_84\n        /* \"#utility.yul\":1849:1856   */\n      dup7\n        /* \"#utility.yul\":1840:1846   */\n      dup3\n        /* \"#utility.yul\":1829:1838   */\n      dup8\n        /* \"#utility.yul\":1825:1847   */\n      add\n        /* \"#utility.yul\":1804:1857   */\n      tag_61\n      jump\t// in\n    tag_84:\n        /* \"#utility.yul\":1794:1857   */\n      swap2\n      pop\n        /* \"#utility.yul\":1749:1867   */\n      pop\n        /* \"#utility.yul\":1075:1874   */\n      swap3\n      pop\n      swap3\n      pop\n      swap3\n      jump\t// out\n        /* \"#utility.yul\":1880:1998   */\n    tag_85:\n        /* \"#utility.yul\":1967:1991   */\n      tag_87\n        /* \"#utility.yul\":1985:1990   */\n      dup2\n        /* \"#utility.yul\":1967:1991   */\n      tag_88\n      jump\t// in\n    tag_87:\n        /* \"#utility.yul\":1962:1965   */\n      dup3\n        /* \"#utility.yul\":1955:1992   */\n      mstore\n        /* \"#utility.yul\":1880:1998   */\n      pop\n      pop\n      jump\t// out\n        /* \"#utility.yul\":2004:2151   */\n    tag_89:\n        /* \"#utility.yul\":2099:2144   */\n      tag_91\n        /* \"#utility.yul\":2138:2143   */\n      dup2\n        /* \"#utility.yul\":2099:2144   */\n      tag_92\n      jump\t// in\n    tag_91:\n        /* \"#utility.yul\":2094:2097   */\n      dup3\n        /* \"#utility.yul\":2087:2145   */\n      mstore\n        /* \"#utility.yul\":2004:2151   */\n      pop\n      pop\n      jump\t// out\n        /* \"#utility.yul\":2157:2521   */\n    tag_93:\n        /* \"#utility.yul\":2245:2248   */\n      0x00\n        /* \"#utility.yul\":2273:2312   */\n      tag_95\n        /* \"#utility.yul\":2306:2311   */\n      dup3\n        /* \"#utility.yul\":2273:2312   */\n      tag_96\n      jump\t// in\n    tag_95:\n        /* \"#utility.yul\":2328:2399   */\n      tag_97\n        /* \"#utility.yul\":2392:2398   */\n      dup2\n        /* \"#utility.yul\":2387:2390   */\n      dup6\n        /* \"#utility.yul\":2328:2399   */\n      tag_98\n      jump\t// in\n    tag_97:\n        /* \"#utility.yul\":2321:2399   */\n      swap4\n      pop\n        /* \"#utility.yul\":2408:2460   */\n      tag_99\n        /* \"#utility.yul\":2453:2459   */\n      dup2\n        /* \"#utility.yul\":2448:2451   */\n      dup6\n        /* \"#utility.yul\":2441:2445   */\n      0x20\n        /* \"#utility.yul\":2434:2439   */\n      dup7\n        /* \"#utility.yul\":2430:2446   */\n      add\n        /* \"#utility.yul\":2408:2460   */\n      tag_100\n      jump\t// in\n    tag_99:\n        /* \"#utility.yul\":2485:2514   */\n      tag_101\n        /* \"#utility.yul\":2507:2513   */\n      dup2\n        /* \"#utility.yul\":2485:2514   */\n      tag_102\n      jump\t// in\n    tag_101:\n        /* \"#utility.yul\":2480:2483   */\n      dup5\n        /* \"#utility.yul\":2476:2515   */\n      add\n        /* \"#utility.yul\":2469:2515   */\n      swap2\n      pop\n        /* \"#utility.yul\":2249:2521   */\n      pop\n        /* \"#utility.yul\":2157:2521   */\n      swap3\n      swap2\n      pop\n      pop\n      jump\t// out\n        /* \"#utility.yul\":2527:2645   */\n    tag_103:\n        /* \"#utility.yul\":2614:2638   */\n      tag_105\n        /* \"#utility.yul\":2632:2637   */\n      dup2\n        /* \"#utility.yul\":2614:2638   */\n      tag_106\n      jump\t// in\n    tag_105:\n        /* \"#utility.yul\":2609:2612   */\n      dup3\n        /* \"#utility.yul\":2602:2639   */\n      mstore\n        /* \"#utility.yul\":2527:2645   */\n      pop\n      pop\n      jump\t// out\n        /* \"#utility.yul\":2651:2889   */\n    tag_10:\n        /* \"#utility.yul\":2752:2756   */\n      0x00\n        /* \"#utility.yul\":2790:2792   */\n      0x20\n        /* \"#utility.yul\":2779:2788   */\n      dup3\n        /* \"#utility.yul\":2775:2793   */\n      add\n        /* \"#utility.yul\":2767:2793   */\n      swap1\n      pop\n        /* \"#utility.yul\":2803:2882   */\n      tag_108\n        /* \"#utility.yul\":2879:2880   */\n      0x00\n        /* \"#utility.yul\":2868:2877   */\n      dup4\n        /* \"#utility.yul\":2864:2881   */\n      add\n        /* \"#utility.yul\":2855:2861   */\n      dup5\n        /* \"#utility.yul\":2803:2882   */\n      tag_89\n      jump\t// in\n    tag_108:\n        /* \"#utility.yul\":2651:2889   */\n      swap3\n      swap2\n      pop\n      pop\n      jump\t// out\n        /* \"#utility.yul\":2895:3428   */\n    tag_16:\n        /* \"#utility.yul\":3064:3068   */\n      0x00\n        /* \"#utility.yul\":3102:3104   */\n      0x60\n        /* \"#utility.yul\":3091:3100   */\n      dup3\n        /* \"#utility.yul\":3087:3105   */\n      add\n        /* \"#utility.yul\":3079:3105   */\n      swap1\n      pop\n        /* \"#utility.yul\":3151:3160   */\n      dup2\n        /* \"#utility.yul\":3145:3149   */\n      dup2\n        /* \"#utility.yul\":3141:3161   */\n      sub\n        /* \"#utility.yul\":3137:3138   */\n      0x00\n        /* \"#utility.yul\":3126:3135   */\n      dup4\n        /* \"#utility.yul\":3122:3139   */\n      add\n        /* \"#utility.yul\":3115:3162   */\n      mstore\n        /* \"#utility.yul\":3179:3257   */\n      tag_110\n        /* \"#utility.yul\":3252:3256   */\n      dup2\n        /* \"#utility.yul\":3243:3249   */\n      dup7\n        /* \"#utility.yul\":3179:3257   */\n      tag_93\n      jump\t// in\n    tag_110:\n        /* \"#utility.yul\":3171:3257   */\n      swap1\n      pop\n        /* \"#utility.yul\":3267:3339   */\n      tag_111\n        /* \"#utility.yul\":3335:3337   */\n      0x20\n        /* \"#utility.yul\":3324:3333   */\n      dup4\n        /* \"#utility.yul\":3320:3338   */\n      add\n        /* \"#utility.yul\":3311:3317   */\n      dup6\n        /* \"#utility.yul\":3267:3339   */\n      tag_103\n      jump\t// in\n    tag_111:\n        /* \"#utility.yul\":3349:3421   */\n      tag_112\n        /* \"#utility.yul\":3417:3419   */\n      0x40\n        /* \"#utility.yul\":3406:3415   */\n      dup4\n        /* \"#utility.yul\":3402:3420   */\n      add\n        /* \"#utility.yul\":3393:3399   */\n      dup5\n        /* \"#utility.yul\":3349:3421   */\n      tag_85\n      jump\t// in\n    tag_112:\n        /* \"#utility.yul\":2895:3428   */\n      swap5\n      swap4\n      pop\n      pop\n      pop\n      pop\n      jump\t// out\n        /* \"#utility.yul\":3434:3563   */\n    tag_55:\n        /* \"#utility.yul\":3468:3474   */\n      0x00\n        /* \"#utility.yul\":3495:3515   */\n      tag_114\n      tag_115\n      jump\t// in\n    tag_114:\n        /* \"#utility.yul\":3485:3515   */\n      swap1\n      pop\n        /* \"#utility.yul\":3524:3557   */\n      tag_116\n        /* \"#utility.yul\":3552:3556   */\n      dup3\n        /* \"#utility.yul\":3544:3550   */\n      dup3\n        /* \"#utility.yul\":3524:3557   */\n      tag_117\n      jump\t// in\n    tag_116:\n        /* \"#utility.yul\":3434:3563   */\n      swap2\n      swap1\n      pop\n      jump\t// out\n        /* \"#utility.yul\":3569:3644   */\n    tag_115:\n        /* \"#utility.yul\":3602:3608   */\n      0x00\n        /* \"#utility.yul\":3635:3637   */\n      0x40\n        /* \"#utility.yul\":3629:3638   */\n      mload\n        /* \"#utility.yul\":3619:3638   */\n      swap1\n      pop\n        /* \"#utility.yul\":3569:3644   */\n      swap1\n      jump\t// out\n        /* \"#utility.yul\":3650:3958   */\n    tag_54:\n        /* \"#utility.yul\":3712:3716   */\n      0x00\n        /* \"#utility.yul\":3802:3820   */\n      0xffffffffffffffff\n        /* \"#utility.yul\":3794:3800   */\n      dup3\n        /* \"#utility.yul\":3791:3821   */\n      gt\n        /* \"#utility.yul\":3788:3844   */\n      iszero\n      tag_120\n      jumpi\n        /* \"#utility.yul\":3824:3842   */\n      tag_121\n      tag_122\n      jump\t// in\n    tag_121:\n        /* \"#utility.yul\":3788:3844   */\n    tag_120:\n        /* \"#utility.yul\":3862:3891   */\n      tag_123\n        /* \"#utility.yul\":3884:3890   */\n      dup3\n        /* \"#utility.yul\":3862:3891   */\n      tag_102\n      jump\t// in\n    tag_123:\n        /* \"#utility.yul\":3854:3891   */\n      swap1\n      pop\n        /* \"#utility.yul\":3946:3950   */\n      0x20\n        /* \"#utility.yul\":3940:3944   */\n      dup2\n        /* \"#utility.yul\":3936:3951   */\n      add\n        /* \"#utility.yul\":3928:3951   */\n      swap1\n      pop\n        /* \"#utility.yul\":3650:3958   */\n      swap2\n      swap1\n      pop\n      jump\t// out\n        /* \"#utility.yul\":3964:4063   */\n    tag_96:\n        /* \"#utility.yul\":4016:4022   */\n      0x00\n        /* \"#utility.yul\":4050:4055   */\n      dup2\n        /* \"#utility.yul\":4044:4056   */\n      mload\n        /* \"#utility.yul\":4034:4056   */\n      swap1\n      pop\n        /* \"#utility.yul\":3964:4063   */\n      swap2\n      swap1\n      pop\n      jump\t// out\n        /* \"#utility.yul\":4069:4238   */\n    tag_98:\n        /* \"#utility.yul\":4153:4164   */\n      0x00\n        /* \"#utility.yul\":4187:4193   */\n      dup3\n        /* \"#utility.yul\":4182:4185   */\n      dup3\n        /* \"#utility.yul\":4175:4194   */\n      mstore\n        /* \"#utility.yul\":4227:4231   */\n      0x20\n        /* \"#utility.yul\":4222:4225   */\n      dup3\n        /* \"#utility.yul\":4218:4232   */\n      add\n        /* \"#utility.yul\":4203:4232   */\n      swap1\n      pop\n        /* \"#utility.yul\":4069:4238   */\n      swap3\n      swap2\n      pop\n      pop\n      jump\t// out\n        /* \"#utility.yul\":4244:4340   */\n    tag_88:\n        /* \"#utility.yul\":4281:4288   */\n      0x00\n        /* \"#utility.yul\":4310:4334   */\n      tag_127\n        /* \"#utility.yul\":4328:4333   */\n      dup3\n        /* \"#utility.yul\":4310:4334   */\n      tag_128\n      jump\t// in\n    tag_127:\n        /* \"#utility.yul\":4299:4334   */\n      swap1\n      pop\n        /* \"#utility.yul\":4244:4340   */\n      swap2\n      swap1\n      pop\n      jump\t// out\n        /* \"#utility.yul\":4346:4477   */\n    tag_129:\n        /* \"#utility.yul\":4393:4400   */\n      0x00\n        /* \"#utility.yul\":4422:4427   */\n      dup2\n        /* \"#utility.yul\":4411:4427   */\n      swap1\n      pop\n        /* \"#utility.yul\":4428:4471   */\n      tag_131\n        /* \"#utility.yul\":4465:4470   */\n      dup3\n        /* \"#utility.yul\":4428:4471   */\n      tag_132\n      jump\t// in\n    tag_131:\n        /* \"#utility.yul\":4346:4477   */\n      swap2\n      swap1\n      pop\n      jump\t// out\n        /* \"#utility.yul\":4483:4609   */\n    tag_128:\n        /* \"#utility.yul\":4520:4527   */\n      0x00\n        /* \"#utility.yul\":4560:4602   */\n      0xffffffffffffffffffffffffffffffffffffffff\n        /* \"#utility.yul\":4553:4558   */\n      dup3\n        /* \"#utility.yul\":4549:4603   */\n      and\n        /* \"#utility.yul\":4538:4603   */\n      swap1\n      pop\n        /* \"#utility.yul\":4483:4609   */\n      swap2\n      swap1\n      pop\n      jump\t// out\n        /* \"#utility.yul\":4615:4692   */\n    tag_106:\n        /* \"#utility.yul\":4652:4659   */\n      0x00\n        /* \"#utility.yul\":4681:4686   */\n      dup2\n        /* \"#utility.yul\":4670:4686   */\n      swap1\n      pop\n        /* \"#utility.yul\":4615:4692   */\n      swap2\n      swap1\n      pop\n      jump\t// out\n        /* \"#utility.yul\":4698:4829   */\n    tag_92:\n        /* \"#utility.yul\":4756:4765   */\n      0x00\n        /* \"#utility.yul\":4789:4823   */\n      tag_136\n        /* \"#utility.yul\":4817:4822   */\n      dup3\n        /* \"#utility.yul\":4789:4823   */\n      tag_129\n      jump\t// in\n    tag_136:\n        /* \"#utility.yul\":4776:4823   */\n      swap1\n      pop\n        /* \"#utility.yul\":4698:4829   */\n      swap2\n      swap1\n      pop\n      jump\t// out\n        /* \"#utility.yul\":4835:4989   */\n    tag_60:\n        /* \"#utility.yul\":4919:4925   */\n      dup3\n        /* \"#utility.yul\":4914:4917   */\n      dup2\n        /* \"#utility.yul\":4909:4912   */\n      dup4\n        /* \"#utility.yul\":4896:4926   */\n      calldatacopy\n        /* \"#utility.yul\":4981:4982   */\n      0x00\n        /* \"#utility.yul\":4972:4978   */\n      dup4\n        /* \"#utility.yul\":4967:4970   */\n      dup4\n        /* \"#utility.yul\":4963:4979   */\n      add\n        /* \"#utility.yul\":4956:4983   */\n      mstore\n        /* \"#utility.yul\":4835:4989   */\n      pop\n      pop\n      pop\n      jump\t// out\n        /* \"#utility.yul\":4995:5302   */\n    tag_100:\n        /* \"#utility.yul\":5063:5064   */\n      0x00\n        /* \"#utility.yul\":5073:5186   */\n    tag_139:\n        /* \"#utility.yul\":5087:5093   */\n      dup4\n        /* \"#utility.yul\":5084:5085   */\n      dup2\n        /* \"#utility.yul\":5081:5094   */\n      lt\n        /* \"#utility.yul\":5073:5186   */\n      iszero\n      tag_141\n      jumpi\n        /* \"#utility.yul\":5172:5173   */\n      dup1\n        /* \"#utility.yul\":5167:5170   */\n      dup3\n        /* \"#utility.yul\":5163:5174   */\n      add\n        /* \"#utility.yul\":5157:5175   */\n      mload\n        /* \"#utility.yul\":5153:5154   */\n      dup2\n        /* \"#utility.yul\":5148:5151   */\n      dup5\n        /* \"#utility.yul\":5144:5155   */\n      add\n        /* \"#utility.yul\":5137:5176   */\n      mstore\n        /* \"#utility.yul\":5109:5111   */\n      0x20\n        /* \"#utility.yul\":5106:5107   */\n      dup2\n        /* \"#utility.yul\":5102:5112   */\n      add\n        /* \"#utility.yul\":5097:5112   */\n      swap1\n      pop\n        /* \"#utility.yul\":5073:5186   */\n      jump(tag_139)\n    tag_141:\n        /* \"#utility.yul\":5204:5210   */\n      dup4\n        /* \"#utility.yul\":5201:5202   */\n      dup2\n        /* \"#utility.yul\":5198:5211   */\n      gt\n        /* \"#utility.yul\":5195:5296   */\n      iszero\n      tag_142\n      jumpi\n        /* \"#utility.yul\":5284:5285   */\n      0x00\n        /* \"#utility.yul\":5275:5281   */\n      dup5\n        /* \"#utility.yul\":5270:5273   */\n      dup5\n        /* \"#utility.yul\":5266:5282   */\n      add\n        /* \"#utility.yul\":5259:5286   */\n      mstore\n        /* \"#utility.yul\":5195:5296   */\n    tag_142:\n        /* \"#utility.yul\":5044:5302   */\n      pop\n        /* \"#utility.yul\":4995:5302   */\n      pop\n      pop\n      pop\n      jump\t// out\n        /* \"#utility.yul\":5308:5628   */\n    tag_26:\n        /* \"#utility.yul\":5352:5358   */\n      0x00\n        /* \"#utility.yul\":5389:5390   */\n      0x02\n        /* \"#utility.yul\":5383:5387   */\n      dup3\n        /* \"#utility.yul\":5379:5391   */\n      div\n        /* \"#utility.yul\":5369:5391   */\n      swap1\n      pop\n        /* \"#utility.yul\":5436:5437   */\n      0x01\n        /* \"#utility.yul\":5430:5434   */\n      dup3\n        /* \"#utility.yul\":5426:5438   */\n      and\n        /* \"#utility.yul\":5457:5475   */\n      dup1\n        /* \"#utility.yul\":5447:5528   */\n      tag_144\n      jumpi\n        /* \"#utility.yul\":5513:5517   */\n      0x7f\n        /* \"#utility.yul\":5505:5511   */\n      dup3\n        /* \"#utility.yul\":5501:5518   */\n      and\n        /* \"#utility.yul\":5491:5518   */\n      swap2\n      pop\n        /* \"#utility.yul\":5447:5528   */\n    tag_144:\n        /* \"#utility.yul\":5575:5577   */\n      0x20\n        /* \"#utility.yul\":5567:5573   */\n      dup3\n        /* \"#utility.yul\":5564:5578   */\n      lt\n        /* \"#utility.yul\":5544:5562   */\n      dup2\n        /* \"#utility.yul\":5541:5579   */\n      eq\n        /* \"#utility.yul\":5538:5622   */\n      iszero\n      tag_145\n      jumpi\n        /* \"#utility.yul\":5594:5612   */\n      tag_146\n      tag_147\n      jump\t// in\n    tag_146:\n        /* \"#utility.yul\":5538:5622   */\n    tag_145:\n        /* \"#utility.yul\":5359:5628   */\n      pop\n        /* \"#utility.yul\":5308:5628   */\n      swap2\n      swap1\n      pop\n      jump\t// out\n        /* \"#utility.yul\":5634:5915   */\n    tag_117:\n        /* \"#utility.yul\":5717:5744   */\n      tag_149\n        /* \"#utility.yul\":5739:5743   */\n      dup3\n        /* \"#utility.yul\":5717:5744   */\n      tag_102\n      jump\t// in\n    tag_149:\n        /* \"#utility.yul\":5709:5715   */\n      dup2\n        /* \"#utility.yul\":5705:5745   */\n      add\n        /* \"#utility.yul\":5847:5853   */\n      dup2\n        /* \"#utility.yul\":5835:5845   */\n      dup2\n        /* \"#utility.yul\":5832:5854   */\n      lt\n        /* \"#utility.yul\":5811:5829   */\n      0xffffffffffffffff\n        /* \"#utility.yul\":5799:5809   */\n      dup3\n        /* \"#utility.yul\":5796:5830   */\n      gt\n        /* \"#utility.yul\":5793:5855   */\n      or\n        /* \"#utility.yul\":5790:5878   */\n      iszero\n      tag_150\n      jumpi\n        /* \"#utility.yul\":5858:5876   */\n      tag_151\n      tag_122\n      jump\t// in\n    tag_151:\n        /* \"#utility.yul\":5790:5878   */\n    tag_150:\n        /* \"#utility.yul\":5898:5908   */\n      dup1\n        /* \"#utility.yul\":5894:5896   */\n      0x40\n        /* \"#utility.yul\":5887:5909   */\n      mstore\n        /* \"#utility.yul\":5677:5915   */\n      pop\n        /* \"#utility.yul\":5634:5915   */\n      pop\n      pop\n      jump\t// out\n        /* \"#utility.yul\":5921:6101   */\n    tag_24:\n        /* \"#utility.yul\":5969:6046   */\n      0x4e487b7100000000000000000000000000000000000000000000000000000000\n        /* \"#utility.yul\":5966:5967   */\n      0x00\n        /* \"#utility.yul\":5959:6047   */\n      mstore\n        /* \"#utility.yul\":6066:6070   */\n      0x21\n        /* \"#utility.yul\":6063:6064   */\n      0x04\n        /* \"#utility.yul\":6056:6071   */\n      mstore\n        /* \"#utility.yul\":6090:6094   */\n      0x24\n        /* \"#utility.yul\":6087:6088   */\n      0x00\n        /* \"#utility.yul\":6080:6095   */\n      revert\n        /* \"#utility.yul\":6107:6287   */\n    tag_147:\n        /* \"#utility.yul\":6155:6232   */\n      0x4e487b7100000000000000000000000000000000000000000000000000000000\n        /* \"#utility.yul\":6152:6153   */\n      0x00\n        /* \"#utility.yul\":6145:6233   */\n      mstore\n        /* \"#utility.yul\":6252:6256   */\n      0x22\n        /* \"#utility.yul\":6249:6250   */\n      0x04\n        /* \"#utility.yul\":6242:6257   */\n      mstore\n        /* \"#utility.yul\":6276:6280   */\n      0x24\n        /* \"#utility.yul\":6273:6274   */\n      0x00\n        /* \"#utility.yul\":6266:6281   */\n      revert\n        /* \"#utility.yul\":6293:6473   */\n    tag_122:\n        /* \"#utility.yul\":6341:6418   */\n      0x4e487b7100000000000000000000000000000000000000000000000000000000\n        /* \"#utility.yul\":6338:6339   */\n      0x00\n        /* \"#utility.yul\":6331:6419   */\n      mstore\n        /* \"#utility.yul\":6438:6442   */\n      0x41\n        /* \"#utility.yul\":6435:6436   */\n      0x04\n        /* \"#utility.yul\":6428:6443   */\n      mstore\n        /* \"#utility.yul\":6462:6466   */\n      0x24\n        /* \"#utility.yul\":6459:6460   */\n      0x00\n        /* \"#utility.yul\":6452:6467   */\n      revert\n        /* \"#utility.yul\":6479:6596   */\n    tag_69:\n        /* \"#utility.yul\":6588:6589   */\n      0x00\n        /* \"#utility.yul\":6585:6586   */\n      dup1\n        /* \"#utility.yul\":6578:6590   */\n      revert\n        /* \"#utility.yul\":6602:6719   */\n    tag_58:\n        /* \"#utility.yul\":6711:6712   */\n      0x00\n        /* \"#utility.yul\":6708:6709   */\n      dup1\n        /* \"#utility.yul\":6701:6713   */\n      revert\n        /* \"#utility.yul\":6725:6842   */\n    tag_81:\n        /* \"#utility.yul\":6834:6835   */\n      0x00\n        /* \"#utility.yul\":6831:6832   */\n      dup1\n        /* \"#utility.yul\":6824:6836   */\n      revert\n        /* \"#utility.yul\":6848:6965   */\n    tag_78:\n        /* \"#utility.yul\":6957:6958   */\n      0x00\n        /* \"#utility.yul\":6954:6955   */\n      dup1\n        /* \"#utility.yul\":6947:6959   */\n      revert\n        /* \"#utility.yul\":6971:7073   */\n    tag_102:\n        /* \"#utility.yul\":7012:7018   */\n      0x00\n        /* \"#utility.yul\":7063:7065   */\n      0x1f\n        /* \"#utility.yul\":7059:7066   */\n      not\n        /* \"#utility.yul\":7054:7056   */\n      0x1f\n        /* \"#utility.yul\":7047:7052   */\n      dup4\n        /* \"#utility.yul\":7043:7057   */\n      add\n        /* \"#utility.yul\":7039:7067   */\n      and\n        /* \"#utility.yul\":7029:7067   */\n      swap1\n      pop\n        /* \"#utility.yul\":6971:7073   */\n      swap2\n      swap1\n      pop\n      jump\t// out\n        /* \"#utility.yul\":7079:7194   */\n    tag_132:\n        /* \"#utility.yul\":7162:7163   */\n      0x03\n        /* \"#utility.yul\":7155:7160   */\n      dup2\n        /* \"#utility.yul\":7152:7164   */\n      lt\n        /* \"#utility.yul\":7142:7188   */\n      tag_161\n      jumpi\n        /* \"#utility.yul\":7168:7186   */\n      tag_162\n      tag_24\n      jump\t// in\n    tag_162:\n        /* \"#utility.yul\":7142:7188   */\n    tag_161:\n        /* \"#utility.yul\":7079:7194   */\n      pop\n      jump\t// out\n        /* \"#utility.yul\":7200:7322   */\n    tag_64:\n        /* \"#utility.yul\":7273:7297   */\n      tag_164\n        /* \"#utility.yul\":7291:7296   */\n      dup2\n        /* \"#utility.yul\":7273:7297   */\n      tag_88\n      jump\t// in\n    tag_164:\n        /* \"#utility.yul\":7266:7271   */\n      dup2\n        /* \"#utility.yul\":7263:7298   */\n      eq\n        /* \"#utility.yul\":7253:7316   */\n      tag_165\n      jumpi\n        /* \"#utility.yul\":7312:7313   */\n      0x00\n        /* \"#utility.yul\":7309:7310   */\n      dup1\n        /* \"#utility.yul\":7302:7314   */\n      revert\n        /* \"#utility.yul\":7253:7316   */\n    tag_165:\n        /* \"#utility.yul\":7200:7322   */\n      pop\n      jump\t// out\n        /* \"#utility.yul\":7328:7450   */\n    tag_74:\n        /* \"#utility.yul\":7401:7425   */\n      tag_167\n        /* \"#utility.yul\":7419:7424   */\n      dup2\n        /* \"#utility.yul\":7401:7425   */\n      tag_106\n      jump\t// in\n    tag_167:\n        /* \"#utility.yul\":7394:7399   */\n      dup2\n        /* \"#utility.yul\":7391:7426   */\n      eq\n        /* \"#utility.yul\":7381:7444   */\n      tag_168\n      jumpi\n        /* \"#utility.yul\":7440:7441   */\n      0x00\n        /* \"#utility.yul\":7437:7438   */\n      dup1\n        /* \"#utility.yul\":7430:7442   */\n      revert\n        /* \"#utility.yul\":7381:7444   */\n    tag_168:\n        /* \"#utility.yul\":7328:7450   */\n      pop\n      jump\t// out\n\n    auxdata: 0xa2646970667358221220b68e67a18a15244935c89cc888c68bb9a2b7bc578522a15d59814fc426e43e6364736f6c63430008070033\n}\n",
				"bytecode": {
					"linkReferences": {},
					"object": "60806040526000600360006101000a81548160ff021916908360028111156200002d576200002c6200038c565b5b02179055503480156200003f57600080fd5b5060405162000c1438038062000c1483398181016040528101906200006591906200021b565b816000800190805190602001906200007f929190620000d6565b508060006001018190555033600060020160006101000a81548173ffffffffffffffffffffffffffffffffffffffff021916908373ffffffffffffffffffffffffffffffffffffffff160217905550505062000458565b828054620000e49062000320565b90600052602060002090601f01602090048101928262000108576000855562000154565b82601f106200012357805160ff191683800117855562000154565b8280016001018555821562000154579182015b828111156200015357825182559160200191906001019062000136565b5b50905062000163919062000167565b5090565b5b808211156200018257600081600090555060010162000168565b5090565b60006200019d6200019784620002aa565b62000281565b905082815260208101848484011115620001bc57620001bb6200041e565b5b620001c9848285620002ea565b509392505050565b600082601f830112620001e957620001e862000419565b5b8151620001fb84826020860162000186565b91505092915050565b60008151905062000215816200043e565b92915050565b6000806040838503121562000235576200023462000428565b5b600083015167ffffffffffffffff81111562000256576200025562000423565b5b6200026485828601620001d1565b9250506020620002778582860162000204565b9150509250929050565b60006200028d620002a0565b90506200029b828262000356565b919050565b6000604051905090565b600067ffffffffffffffff821115620002c857620002c7620003ea565b5b620002d3826200042d565b9050602081019050919050565b6000819050919050565b60005b838110156200030a578082015181840152602081019050620002ed565b838111156200031a576000848401525b50505050565b600060028204905060018216806200033957607f821691505b6020821081141562000350576200034f620003bb565b5b50919050565b62000361826200042d565b810181811067ffffffffffffffff82111715620003835762000382620003ea565b5b80604052505050565b7f4e487b7100000000000000000000000000000000000000000000000000000000600052602160045260246000fd5b7f4e487b7100000000000000000000000000000000000000000000000000000000600052602260045260246000fd5b7f4e487b7100000000000000000000000000000000000000000000000000000000600052604160045260246000fd5b600080fd5b600080fd5b600080fd5b600080fd5b6000601f19601f8301169050919050565b6200044981620002e0565b81146200045557600080fd5b50565b6107ac80620004686000396000f3fe608060405234801561001057600080fd5b506004361061004c5760003560e01c8063951a6aa214610051578063ad55053a1461006f578063b46bff8914610079578063c81dd2dc14610099575b600080fd5b6100596100b5565b60405161006691906104b1565b60405180910390f35b6100776100c8565b005b6100816100f5565b604051610090939291906104cc565b60405180910390f35b6100b360048036038101906100ae91906103dc565b6101b5565b005b600360009054906101000a900460ff1681565b6002600360006101000a81548160ff021916908360028111156100ee576100ed610682565b5b0217905550565b60008060000180546101069061061f565b80601f01602080910402602001604051908101604052809291908181526020018280546101329061061f565b801561017f5780601f106101545761010080835404028352916020019161017f565b820191906000526020600020905b81548152906001019060200180831161016257829003601f168201915b5050505050908060010154908060020160009054906101000a900473ffffffffffffffffffffffffffffffffffffffff16905083565b6002808111156101c8576101c7610682565b5b600360009054906101000a900460ff1660028111156101ea576101e9610682565b5b141561029a57600060405180606001604052808581526020018481526020018373ffffffffffffffffffffffffffffffffffffffff1681525090508060008082015181600001908051906020019061024392919061029f565b506020820151816001015560408201518160020160006101000a81548173ffffffffffffffffffffffffffffffffffffffff021916908373ffffffffffffffffffffffffffffffffffffffff160217905550905050505b505050565b8280546102ab9061061f565b90600052602060002090601f0160209004810192826102cd5760008555610314565b82601f106102e657805160ff1916838001178555610314565b82800160010185558215610314579182015b828111156103135782518255916020019190600101906102f8565b5b5090506103219190610325565b5090565b5b8082111561033e576000816000905550600101610326565b5090565b60006103556103508461052f565b61050a565b90508281526020810184848401111561037157610370610714565b5b61037c8482856105dd565b509392505050565b60008135905061039381610748565b92915050565b600082601f8301126103ae576103ad61070f565b5b81356103be848260208601610342565b91505092915050565b6000813590506103d68161075f565b92915050565b6000806000606084860312156103f5576103f461071e565b5b600084013567ffffffffffffffff81111561041357610412610719565b5b61041f86828701610399565b9350506020610430868287016103c7565b925050604061044186828701610384565b9150509250925092565b6104548161057c565b82525050565b610463816105cb565b82525050565b600061047482610560565b61047e818561056b565b935061048e8185602086016105ec565b61049781610723565b840191505092915050565b6104ab816105c1565b82525050565b60006020820190506104c6600083018461045a565b92915050565b600060608201905081810360008301526104e68186610469565b90506104f560208301856104a2565b610502604083018461044b565b949350505050565b6000610514610525565b90506105208282610651565b919050565b6000604051905090565b600067ffffffffffffffff82111561054a576105496106e0565b5b61055382610723565b9050602081019050919050565b600081519050919050565b600082825260208201905092915050565b6000610587826105a1565b9050919050565b600081905061059c82610734565b919050565b600073ffffffffffffffffffffffffffffffffffffffff82169050919050565b6000819050919050565b60006105d68261058e565b9050919050565b82818337600083830152505050565b60005b8381101561060a5780820151818401526020810190506105ef565b83811115610619576000848401525b50505050565b6000600282049050600182168061063757607f821691505b6020821081141561064b5761064a6106b1565b5b50919050565b61065a82610723565b810181811067ffffffffffffffff82111715610679576106786106e0565b5b80604052505050565b7f4e487b7100000000000000000000000000000000000000000000000000000000600052602160045260246000fd5b7f4e487b7100000000000000000000000000000000000000000000000000000000600052602260045260246000fd5b7f4e487b7100000000000000000000000000000000000000000000000000000000600052604160045260246000fd5b600080fd5b600080fd5b600080fd5b600080fd5b6000601f19601f8301169050919050565b6003811061074557610744610682565b5b50565b6107518161057c565b811461075c57600080fd5b50565b610768816105c1565b811461077357600080fd5b5056fea2646970667358221220b68e67a18a15244935c89cc888c68bb9a2b7bc578522a15d59814fc426e43e6364736f6c63430008070033",
					"opcodes": "PUSH1 0x80 PUSH1 0x40 MSTORE PUSH1 0x0 PUSH1 0x3 PUSH1 0x0 PUSH2 0x100 EXP DUP2 SLOAD DUP2 PUSH1 0xFF MUL NOT AND SWAP1 DUP4 PUSH1 0x2 DUP2 GT ISZERO PUSH3 0x2D JUMPI PUSH3 0x2C PUSH3 0x38C JUMP JUMPDEST JUMPDEST MUL OR SWAP1 SSTORE POP CALLVALUE DUP1 ISZERO PUSH3 0x3F JUMPI PUSH1 0x0 DUP1 REVERT JUMPDEST POP PUSH1 0x40 MLOAD PUSH3 0xC14 CODESIZE SUB DUP1 PUSH3 0xC14 DUP4 CODECOPY DUP2 DUP2 ADD PUSH1 0x40 MSTORE DUP2 ADD SWAP1 PUSH3 0x65 SWAP2 SWAP1 PUSH3 0x21B JUMP JUMPDEST DUP2 PUSH1 0x0 DUP1 ADD SWAP1 DUP1 MLOAD SWAP1 PUSH1 0x20 ADD SWAP1 PUSH3 0x7F SWAP3 SWAP2 SWAP1 PUSH3 0xD6 JUMP JUMPDEST POP DUP1 PUSH1 0x0 PUSH1 0x1 ADD DUP2 SWAP1 SSTORE POP CALLER PUSH1 0x0 PUSH1 0x2 ADD PUSH1 0x0 PUSH2 0x100 EXP DUP2 SLOAD DUP2 PUSH20 0xFFFFFFFFFFFFFFFFFFFFFFFFFFFFFFFFFFFFFFFF MUL NOT AND SWAP1 DUP4 PUSH20 0xFFFFFFFFFFFFFFFFFFFFFFFFFFFFFFFFFFFFFFFF AND MUL OR SWAP1 SSTORE POP POP POP PUSH3 0x458 JUMP JUMPDEST DUP3 DUP1 SLOAD PUSH3 0xE4 SWAP1 PUSH3 0x320 JUMP JUMPDEST SWAP1 PUSH1 0x0 MSTORE PUSH1 0x20 PUSH1 0x0 KECCAK256 SWAP1 PUSH1 0x1F ADD PUSH1 0x20 SWAP1 DIV DUP2 ADD SWAP3 DUP3 PUSH3 0x108 JUMPI PUSH1 0x0 DUP6 SSTORE PUSH3 0x154 JUMP JUMPDEST DUP3 PUSH1 0x1F LT PUSH3 0x123 JUMPI DUP1 MLOAD PUSH1 0xFF NOT AND DUP4 DUP1 ADD OR DUP6 SSTORE PUSH3 0x154 JUMP JUMPDEST DUP3 DUP1 ADD PUSH1 0x1 ADD DUP6 SSTORE DUP3 ISZERO PUSH3 0x154 JUMPI SWAP2 DUP3 ADD JUMPDEST DUP3 DUP2 GT ISZERO PUSH3 0x153 JUMPI DUP3 MLOAD DUP3 SSTORE SWAP2 PUSH1 0x20 ADD SWAP2 SWAP1 PUSH1 0x1 ADD SWAP1 PUSH3 0x136 JUMP JUMPDEST JUMPDEST POP SWAP1 POP PUSH3 0x163 SWAP2 SWAP1 PUSH3 0x167 JUMP JUMPDEST POP SWAP1 JUMP JUMPDEST JUMPDEST DUP1 DUP3 GT ISZERO PUSH3 0x182 JUMPI PUSH1 0x0 DUP2 PUSH1 0x0 SWAP1 SSTORE POP PUSH1 0x1 ADD PUSH3 0x168 JUMP JUMPDEST POP SWAP1 JUMP JUMPDEST PUSH1 0x0 PUSH3 0x19D PUSH3 0x197 DUP5 PUSH3 0x2AA JUMP JUMPDEST PUSH3 0x281 JUMP JUMPDEST SWAP1 POP DUP3 DUP2 MSTORE PUSH1 0x20 DUP2 ADD DUP5 DUP5 DUP5 ADD GT ISZERO PUSH3 0x1BC JUMPI PUSH3 0x1BB PUSH3 0x41E JUMP JUMPDEST JUMPDEST PUSH3 0x1C9 DUP5 DUP3 DUP6 PUSH3 0x2EA JUMP JUMPDEST POP SWAP4 SWAP3 POP POP POP JUMP JUMPDEST PUSH1 0x0 DUP3 PUSH1 0x1F DUP4 ADD SLT PUSH3 0x1E9 JUMPI PUSH3 0x1E8 PUSH3 0x419 JUMP JUMPDEST JUMPDEST DUP2 MLOAD PUSH3 0x1FB DUP5 DUP3 PUSH1 0x20 DUP7 ADD PUSH3 0x186 JUMP JUMPDEST SWAP2 POP POP SWAP3 SWAP2 POP POP JUMP JUMPDEST PUSH1 0x0 DUP2 MLOAD SWAP1 POP PUSH3 0x215 DUP2 PUSH3 0x43E JUMP JUMPDEST SWAP3 SWAP2 POP POP JUMP JUMPDEST PUSH1 0x0 DUP1 PUSH1 0x40 DUP4 DUP6 SUB SLT ISZERO PUSH3 0x235 JUMPI PUSH3 0x234 PUSH3 0x428 JUMP JUMPDEST JUMPDEST PUSH1 0x0 DUP4 ADD MLOAD PUSH8 0xFFFFFFFFFFFFFFFF DUP2 GT ISZERO PUSH3 0x256 JUMPI PUSH3 0x255 PUSH3 0x423 JUMP JUMPDEST JUMPDEST PUSH3 0x264 DUP6 DUP3 DUP7 ADD PUSH3 0x1D1 JUMP JUMPDEST SWAP3 POP POP PUSH1 0x20 PUSH3 0x277 DUP6 DUP3 DUP7 ADD PUSH3 0x204 JUMP JUMPDEST SWAP2 POP POP SWAP3 POP SWAP3 SWAP1 POP JUMP JUMPDEST PUSH1 0x0 PUSH3 0x28D PUSH3 0x2A0 JUMP JUMPDEST SWAP1 POP PUSH3 0x29B DUP3 DUP3 PUSH3 0x356 JUMP JUMPDEST SWAP2 SWAP1 POP JUMP JUMPDEST PUSH1 0x0 PUSH1 0x40 MLOAD SWAP1 POP SWAP1 JUMP JUMPDEST PUSH1 0x0 PUSH8 0xFFFFFFFFFFFFFFFF DUP3 GT ISZERO PUSH3 0x2C8 JUMPI PUSH3 0x2C7 PUSH3 0x3EA JUMP JUMPDEST JUMPDEST PUSH3 0x2D3 DUP3 PUSH3 0x42D JUMP JUMPDEST SWAP1 POP PUSH1 0x20 DUP2 ADD SWAP1 POP SWAP2 SWAP1 POP JUMP JUMPDEST PUSH1 0x0 DUP2 SWAP1 POP SWAP2 SWAP1 POP JUMP JUMPDEST PUSH1 0x0 JUMPDEST DUP4 DUP2 LT ISZERO PUSH3 0x30A JUMPI DUP1 DUP3 ADD MLOAD DUP2 DUP5 ADD MSTORE PUSH1 0x20 DUP2 ADD SWAP1 POP PUSH3 0x2ED JUMP JUMPDEST DUP4 DUP2 GT ISZERO PUSH3 0x31A JUMPI PUSH1 0x0 DUP5 DUP5 ADD MSTORE JUMPDEST POP POP POP POP JUMP JUMPDEST PUSH1 0x0 PUSH1 0x2 DUP3 DIV SWAP1 POP PUSH1 0x1 DUP3 AND DUP1 PUSH3 0x339 JUMPI PUSH1 0x7F DUP3 AND SWAP2 POP JUMPDEST PUSH1 0x20 DUP3 LT DUP2 EQ ISZERO PUSH3 0x350 JUMPI PUSH3 0x34F PUSH3 0x3BB JUMP JUMPDEST JUMPDEST POP SWAP2 SWAP1 POP JUMP JUMPDEST PUSH3 0x361 DUP3 PUSH3 0x42D JUMP JUMPDEST DUP2 ADD DUP2 DUP2 LT PUSH8 0xFFFFFFFFFFFFFFFF DUP3 GT OR ISZERO PUSH3 0x383 JUMPI PUSH3 0x382 PUSH3 0x3EA JUMP JUMPDEST JUMPDEST DUP1 PUSH1 0x40 MSTORE POP POP POP JUMP JUMPDEST PUSH32 0x4E487B7100000000000000000000000000000000000000000000000000000000 PUSH1 0x0 MSTORE PUSH1 0x21 PUSH1 0x4 MSTORE PUSH1 0x24 PUSH1 0x0 REVERT JUMPDEST PUSH32 0x4E487B7100000000000000000000000000000000000000000000000000000000 PUSH1 0x0 MSTORE PUSH1 0x22 PUSH1 0x4 MSTORE PUSH1 0x24 PUSH1 0x0 REVERT JUMPDEST PUSH32 0x4E487B7100000000000000000000000000000000000000000000000000000000 PUSH1 0x0 MSTORE PUSH1 0x41 PUSH1 0x4 MSTORE PUSH1 0x24 PUSH1 0x0 REVERT JUMPDEST PUSH1 0x0 DUP1 REVERT JUMPDEST PUSH1 0x0 DUP1 REVERT JUMPDEST PUSH1 0x0 DUP1 REVERT JUMPDEST PUSH1 0x0 DUP1 REVERT JUMPDEST PUSH1 0x0 PUSH1 0x1F NOT PUSH1 0x1F DUP4 ADD AND SWAP1 POP SWAP2 SWAP1 POP JUMP JUMPDEST PUSH3 0x449 DUP2 PUSH3 0x2E0 JUMP JUMPDEST DUP2 EQ PUSH3 0x455 JUMPI PUSH1 0x0 DUP1 REVERT JUMPDEST POP JUMP JUMPDEST PUSH2 0x7AC DUP1 PUSH3 0x468 PUSH1 0x0 CODECOPY PUSH1 0x0 RETURN INVALID PUSH1 0x80 PUSH1 0x40 MSTORE CALLVALUE DUP1 ISZERO PUSH2 0x10 JUMPI PUSH1 0x0 DUP1 REVERT JUMPDEST POP PUSH1 0x4 CALLDATASIZE LT PUSH2 0x4C JUMPI PUSH1 0x0 CALLDATALOAD PUSH1 0xE0 SHR DUP1 PUSH4 0x951A6AA2 EQ PUSH2 0x51 JUMPI DUP1 PUSH4 0xAD55053A EQ PUSH2 0x6F JUMPI DUP1 PUSH4 0xB46BFF89 EQ PUSH2 0x79 JUMPI DUP1 PUSH4 0xC81DD2DC EQ PUSH2 0x99 JUMPI JUMPDEST PUSH1 0x0 DUP1 REVERT JUMPDEST PUSH2 0x59 PUSH2 0xB5 JUMP JUMPDEST PUSH1 0x40 MLOAD PUSH2 0x66 SWAP2 SWAP1 PUSH2 0x4B1 JUMP JUMPDEST PUSH1 0x40 MLOAD DUP1 SWAP2 SUB SWAP1 RETURN JUMPDEST PUSH2 0x77 PUSH2 0xC8 JUMP JUMPDEST STOP JUMPDEST PUSH2 0x81 PUSH2 0xF5 JUMP JUMPDEST PUSH1 0x40 MLOAD PUSH2 0x90 SWAP4 SWAP3 SWAP2 SWAP1 PUSH2 0x4CC JUMP JUMPDEST PUSH1 0x40 MLOAD DUP1 SWAP2 SUB SWAP1 RETURN JUMPDEST PUSH2 0xB3 PUSH1 0x4 DUP1 CALLDATASIZE SUB DUP2 ADD SWAP1 PUSH2 0xAE SWAP2 SWAP1 PUSH2 0x3DC JUMP JUMPDEST PUSH2 0x1B5 JUMP JUMPDEST STOP JUMPDEST PUSH1 0x3 PUSH1 0x0 SWAP1 SLOAD SWAP1 PUSH2 0x100 EXP SWAP1 DIV PUSH1 0xFF AND DUP2 JUMP JUMPDEST PUSH1 0x2 PUSH1 0x3 PUSH1 0x0 PUSH2 0x100 EXP DUP2 SLOAD DUP2 PUSH1 0xFF MUL NOT AND SWAP1 DUP4 PUSH1 0x2 DUP2 GT ISZERO PUSH2 0xEE JUMPI PUSH2 0xED PUSH2 0x682 JUMP JUMPDEST JUMPDEST MUL OR SWAP1 SSTORE POP JUMP JUMPDEST PUSH1 0x0 DUP1 PUSH1 0x0 ADD DUP1 SLOAD PUSH2 0x106 SWAP1 PUSH2 0x61F JUMP JUMPDEST DUP1 PUSH1 0x1F ADD PUSH1 0x20 DUP1 SWAP2 DIV MUL PUSH1 0x20 ADD PUSH1 0x40 MLOAD SWAP1 DUP2 ADD PUSH1 0x40 MSTORE DUP1 SWAP3 SWAP2 SWAP1 DUP2 DUP2 MSTORE PUSH1 0x20 ADD DUP3 DUP1 SLOAD PUSH2 0x132 SWAP1 PUSH2 0x61F JUMP JUMPDEST DUP1 ISZERO PUSH2 0x17F JUMPI DUP1 PUSH1 0x1F LT PUSH2 0x154 JUMPI PUSH2 0x100 DUP1 DUP4 SLOAD DIV MUL DUP4 MSTORE SWAP2 PUSH1 0x20 ADD SWAP2 PUSH2 0x17F JUMP JUMPDEST DUP3 ADD SWAP2 SWAP1 PUSH1 0x0 MSTORE PUSH1 0x20 PUSH1 0x0 KECCAK256 SWAP1 JUMPDEST DUP2 SLOAD DUP2 MSTORE SWAP1 PUSH1 0x1 ADD SWAP1 PUSH1 0x20 ADD DUP1 DUP4 GT PUSH2 0x162 JUMPI DUP3 SWAP1 SUB PUSH1 0x1F AND DUP3 ADD SWAP2 JUMPDEST POP POP POP POP POP SWAP1 DUP1 PUSH1 0x1 ADD SLOAD SWAP1 DUP1 PUSH1 0x2 ADD PUSH1 0x0 SWAP1 SLOAD SWAP1 PUSH2 0x100 EXP SWAP1 DIV PUSH20 0xFFFFFFFFFFFFFFFFFFFFFFFFFFFFFFFFFFFFFFFF AND SWAP1 POP DUP4 JUMP JUMPDEST PUSH1 0x2 DUP1 DUP2 GT ISZERO PUSH2 0x1C8 JUMPI PUSH2 0x1C7 PUSH2 0x682 JUMP JUMPDEST JUMPDEST PUSH1 0x3 PUSH1 0x0 SWAP1 SLOAD SWAP1 PUSH2 0x100 EXP SWAP1 DIV PUSH1 0xFF AND PUSH1 0x2 DUP2 GT ISZERO PUSH2 0x1EA JUMPI PUSH2 0x1E9 PUSH2 0x682 JUMP JUMPDEST JUMPDEST EQ ISZERO PUSH2 0x29A JUMPI PUSH1 0x0 PUSH1 0x40 MLOAD DUP1 PUSH1 0x60 ADD PUSH1 0x40 MSTORE DUP1 DUP6 DUP2 MSTORE PUSH1 0x20 ADD DUP5 DUP2 MSTORE PUSH1 0x20 ADD DUP4 PUSH20 0xFFFFFFFFFFFFFFFFFFFFFFFFFFFFFFFFFFFFFFFF AND DUP2 MSTORE POP SWAP1 POP DUP1 PUSH1 0x0 DUP1 DUP3 ADD MLOAD DUP2 PUSH1 0x0 ADD SWAP1 DUP1 MLOAD SWAP1 PUSH1 0x20 ADD SWAP1 PUSH2 0x243 SWAP3 SWAP2 SWAP1 PUSH2 0x29F JUMP JUMPDEST POP PUSH1 0x20 DUP3 ADD MLOAD DUP2 PUSH1 0x1 ADD SSTORE PUSH1 0x40 DUP3 ADD MLOAD DUP2 PUSH1 0x2 ADD PUSH1 0x0 PUSH2 0x100 EXP DUP2 SLOAD DUP2 PUSH20 0xFFFFFFFFFFFFFFFFFFFFFFFFFFFFFFFFFFFFFFFF MUL NOT AND SWAP1 DUP4 PUSH20 0xFFFFFFFFFFFFFFFFFFFFFFFFFFFFFFFFFFFFFFFF AND MUL OR SWAP1 SSTORE POP SWAP1 POP POP POP JUMPDEST POP POP POP JUMP JUMPDEST DUP3 DUP1 SLOAD PUSH2 0x2AB SWAP1 PUSH2 0x61F JUMP JUMPDEST SWAP1 PUSH1 0x0 MSTORE PUSH1 0x20 PUSH1 0x0 KECCAK256 SWAP1 PUSH1 0x1F ADD PUSH1 0x20 SWAP1 DIV DUP2 ADD SWAP3 DUP3 PUSH2 0x2CD JUMPI PUSH1 0x0 DUP6 SSTORE PUSH2 0x314 JUMP JUMPDEST DUP3 PUSH1 0x1F LT PUSH2 0x2E6 JUMPI DUP1 MLOAD PUSH1 0xFF NOT AND DUP4 DUP1 ADD OR DUP6 SSTORE PUSH2 0x314 JUMP JUMPDEST DUP3 DUP1 ADD PUSH1 0x1 ADD DUP6 SSTORE DUP3 ISZERO PUSH2 0x314 JUMPI SWAP2 DUP3 ADD JUMPDEST DUP3 DUP2 GT ISZERO PUSH2 0x313 JUMPI DUP3 MLOAD DUP3 SSTORE SWAP2 PUSH1 0x20 ADD SWAP2 SWAP1 PUSH1 0x1 ADD SWAP1 PUSH2 0x2F8 JUMP JUMPDEST JUMPDEST POP SWAP1 POP PUSH2 0x321 SWAP2 SWAP1 PUSH2 0x325 JUMP JUMPDEST POP SWAP1 JUMP JUMPDEST JUMPDEST DUP1 DUP3 GT ISZERO PUSH2 0x33E JUMPI PUSH1 0x0 DUP2 PUSH1 0x0 SWAP1 SSTORE POP PUSH1 0x1 ADD PUSH2 0x326 JUMP JUMPDEST POP SWAP1 JUMP JUMPDEST PUSH1 0x0 PUSH2 0x355 PUSH2 0x350 DUP5 PUSH2 0x52F JUMP JUMPDEST PUSH2 0x50A JUMP JUMPDEST SWAP1 POP DUP3 DUP2 MSTORE PUSH1 0x20 DUP2 ADD DUP5 DUP5 DUP5 ADD GT ISZERO PUSH2 0x371 JUMPI PUSH2 0x370 PUSH2 0x714 JUMP JUMPDEST JUMPDEST PUSH2 0x37C DUP5 DUP3 DUP6 PUSH2 0x5DD JUMP JUMPDEST POP SWAP4 SWAP3 POP POP POP JUMP JUMPDEST PUSH1 0x0 DUP2 CALLDATALOAD SWAP1 POP PUSH2 0x393 DUP2 PUSH2 0x748 JUMP JUMPDEST SWAP3 SWAP2 POP POP JUMP JUMPDEST PUSH1 0x0 DUP3 PUSH1 0x1F DUP4 ADD SLT PUSH2 0x3AE JUMPI PUSH2 0x3AD PUSH2 0x70F JUMP JUMPDEST JUMPDEST DUP2 CALLDATALOAD PUSH2 0x3BE DUP5 DUP3 PUSH1 0x20 DUP7 ADD PUSH2 0x342 JUMP JUMPDEST SWAP2 POP POP SWAP3 SWAP2 POP POP JUMP JUMPDEST PUSH1 0x0 DUP2 CALLDATALOAD SWAP1 POP PUSH2 0x3D6 DUP2 PUSH2 0x75F JUMP JUMPDEST SWAP3 SWAP2 POP POP JUMP JUMPDEST PUSH1 0x0 DUP1 PUSH1 0x0 PUSH1 0x60 DUP5 DUP7 SUB SLT ISZERO PUSH2 0x3F5 JUMPI PUSH2 0x3F4 PUSH2 0x71E JUMP JUMPDEST JUMPDEST PUSH1 0x0 DUP5 ADD CALLDATALOAD PUSH8 0xFFFFFFFFFFFFFFFF DUP2 GT ISZERO PUSH2 0x413 JUMPI PUSH2 0x412 PUSH2 0x719 JUMP JUMPDEST JUMPDEST PUSH2 0x41F DUP7 DUP3 DUP8 ADD PUSH2 0x399 JUMP JUMPDEST SWAP4 POP POP PUSH1 0x20 PUSH2 0x430 DUP7 DUP3 DUP8 ADD PUSH2 0x3C7 JUMP JUMPDEST SWAP3 POP POP PUSH1 0x40 PUSH2 0x441 DUP7 DUP3 DUP8 ADD PUSH2 0x384 JUMP JUMPDEST SWAP2 POP POP SWAP3 POP SWAP3 POP SWAP3 JUMP JUMPDEST PUSH2 0x454 DUP2 PUSH2 0x57C JUMP JUMPDEST DUP3 MSTORE POP POP JUMP JUMPDEST PUSH2 0x463 DUP2 PUSH2 0x5CB JUMP JUMPDEST DUP3 MSTORE POP POP JUMP JUMPDEST PUSH1 0x0 PUSH2 0x474 DUP3 PUSH2 0x560 JUMP JUMPDEST PUSH2 0x47E DUP2 DUP6 PUSH2 0x56B JUMP JUMPDEST SWAP4 POP PUSH2 0x48E DUP2 DUP6 PUSH1 0x20 DUP7 ADD PUSH2 0x5EC JUMP JUMPDEST PUSH2 0x497 DUP2 PUSH2 0x723 JUMP JUMPDEST DUP5 ADD SWAP2 POP POP SWAP3 SWAP2 POP POP JUMP JUMPDEST PUSH2 0x4AB DUP2 PUSH2 0x5C1 JUMP JUMPDEST DUP3 MSTORE POP POP JUMP JUMPDEST PUSH1 0x0 PUSH1 0x20 DUP3 ADD SWAP1 POP PUSH2 0x4C6 PUSH1 0x0 DUP4 ADD DUP5 PUSH2 0x45A JUMP JUMPDEST SWAP3 SWAP2 POP POP JUMP JUMPDEST PUSH1 0x0 PUSH1 0x60 DUP3 ADD SWAP1 POP DUP2 DUP2 SUB PUSH1 0x0 DUP4 ADD MSTORE PUSH2 0x4E6 DUP2 DUP7 PUSH2 0x469 JUMP JUMPDEST SWAP1 POP PUSH2 0x4F5 PUSH1 0x20 DUP4 ADD DUP6 PUSH2 0x4A2 JUMP JUMPDEST PUSH2 0x502 PUSH1 0x40 DUP4 ADD DUP5 PUSH2 0x44B JUMP JUMPDEST SWAP5 SWAP4 POP POP POP POP JUMP JUMPDEST PUSH1 0x0 PUSH2 0x514 PUSH2 0x525 JUMP JUMPDEST SWAP1 POP PUSH2 0x520 DUP3 DUP3 PUSH2 0x651 JUMP JUMPDEST SWAP2 SWAP1 POP JUMP JUMPDEST PUSH1 0x0 PUSH1 0x40 MLOAD SWAP1 POP SWAP1 JUMP JUMPDEST PUSH1 0x0 PUSH8 0xFFFFFFFFFFFFFFFF DUP3 GT ISZERO PUSH2 0x54A JUMPI PUSH2 0x549 PUSH2 0x6E0 JUMP JUMPDEST JUMPDEST PUSH2 0x553 DUP3 PUSH2 0x723 JUMP JUMPDEST SWAP1 POP PUSH1 0x20 DUP2 ADD SWAP1 POP SWAP2 SWAP1 POP JUMP JUMPDEST PUSH1 0x0 DUP2 MLOAD SWAP1 POP SWAP2 SWAP1 POP JUMP JUMPDEST PUSH1 0x0 DUP3 DUP3 MSTORE PUSH1 0x20 DUP3 ADD SWAP1 POP SWAP3 SWAP2 POP POP JUMP JUMPDEST PUSH1 0x0 PUSH2 0x587 DUP3 PUSH2 0x5A1 JUMP JUMPDEST SWAP1 POP SWAP2 SWAP1 POP JUMP JUMPDEST PUSH1 0x0 DUP2 SWAP1 POP PUSH2 0x59C DUP3 PUSH2 0x734 JUMP JUMPDEST SWAP2 SWAP1 POP JUMP JUMPDEST PUSH1 0x0 PUSH20 0xFFFFFFFFFFFFFFFFFFFFFFFFFFFFFFFFFFFFFFFF DUP3 AND SWAP1 POP SWAP2 SWAP1 POP JUMP JUMPDEST PUSH1 0x0 DUP2 SWAP1 POP SWAP2 SWAP1 POP JUMP JUMPDEST PUSH1 0x0 PUSH2 0x5D6 DUP3 PUSH2 0x58E JUMP JUMPDEST SWAP1 POP SWAP2 SWAP1 POP JUMP JUMPDEST DUP3 DUP2 DUP4 CALLDATACOPY PUSH1 0x0 DUP4 DUP4 ADD MSTORE POP POP POP JUMP JUMPDEST PUSH1 0x0 JUMPDEST DUP4 DUP2 LT ISZERO PUSH2 0x60A JUMPI DUP1 DUP3 ADD MLOAD DUP2 DUP5 ADD MSTORE PUSH1 0x20 DUP2 ADD SWAP1 POP PUSH2 0x5EF JUMP JUMPDEST DUP4 DUP2 GT ISZERO PUSH2 0x619 JUMPI PUSH1 0x0 DUP5 DUP5 ADD MSTORE JUMPDEST POP POP POP POP JUMP JUMPDEST PUSH1 0x0 PUSH1 0x2 DUP3 DIV SWAP1 POP PUSH1 0x1 DUP3 AND DUP1 PUSH2 0x637 JUMPI PUSH1 0x7F DUP3 AND SWAP2 POP JUMPDEST PUSH1 0x20 DUP3 LT DUP2 EQ ISZERO PUSH2 0x64B JUMPI PUSH2 0x64A PUSH2 0x6B1 JUMP JUMPDEST JUMPDEST POP SWAP2 SWAP1 POP JUMP JUMPDEST PUSH2 0x65A DUP3 PUSH2 0x723 JUMP JUMPDEST DUP2 ADD DUP2 DUP2 LT PUSH8 0xFFFFFFFFFFFFFFFF DUP3 GT OR ISZERO PUSH2 0x679 JUMPI PUSH2 0x678 PUSH2 0x6E0 JUMP JUMPDEST JUMPDEST DUP1 PUSH1 0x40 MSTORE POP POP POP JUMP JUMPDEST PUSH32 0x4E487B7100000000000000000000000000000000000000000000000000000000 PUSH1 0x0 MSTORE PUSH1 0x21 PUSH1 0x4 MSTORE PUSH1 0x24 PUSH1 0x0 REVERT JUMPDEST PUSH32 0x4E487B7100000000000000000000000000000000000000000000000000000000 PUSH1 0x0 MSTORE PUSH1 0x22 PUSH1 0x4 MSTORE PUSH1 0x24 PUSH1 0x0 REVERT JUMPDEST PUSH32 0x4E487B7100000000000000000000000000000000000000000000000000000000 PUSH1 0x0 MSTORE PUSH1 0x41 PUSH1 0x4 MSTORE PUSH1 0x24 PUSH1 0x0 REVERT JUMPDEST PUSH1 0x0 DUP1 REVERT JUMPDEST PUSH1 0x0 DUP1 REVERT JUMPDEST PUSH1 0x0 DUP1 REVERT JUMPDEST PUSH1 0x0 DUP1 REVERT JUMPDEST PUSH1 0x0 PUSH1 0x1F NOT PUSH1 0x1F DUP4 ADD AND SWAP1 POP SWAP2 SWAP1 POP JUMP JUMPDEST PUSH1 0x3 DUP2 LT PUSH2 0x745 JUMPI PUSH2 0x744 PUSH2 0x682 JUMP JUMPDEST JUMPDEST POP JUMP JUMPDEST PUSH2 0x751 DUP2 PUSH2 0x57C JUMP JUMPDEST DUP2 EQ PUSH2 0x75C JUMPI PUSH1 0x0 DUP1 REVERT JUMPDEST POP JUMP JUMPDEST PUSH2 0x768 DUP2 PUSH2 0x5C1 JUMP JUMPDEST DUP2 EQ PUSH2 0x773 JUMPI PUSH1 0x0 DUP1 REVERT JUMPDEST POP JUMP INVALID LOG2 PUSH5 0x6970667358 0x22 SLT KECCAK256 0xB6 DUP15 PUSH8 0xA18A15244935C89C 0xC8 DUP9 0xC6 DUP12 0xB9 LOG2 0xB7 0xBC JUMPI DUP6 0x22 LOG1 0x5D MSIZE DUP2 0x4F 0xC4 0x26 0xE4 RETURNDATACOPY PUSH4 0x64736F6C PUSH4 0x43000807 STOP CALLER "
				},
				"gasEstimates": {
					"creation": {
						"codeDepositCost": "392800",
						"executionCost": "infinite",
						"totalCost": "infinite"
					},
					"external": {
						"changeTeacher(string,uint256,address)": "infinite",
						"classQuality()": "2538",
						"setQualityToBad()": "24431",
						"teacher()": "infinite"
					}
				},
				"methodIdentifiers": {
					"changeTeacher(string,uint256,address)": "c81dd2dc",
					"classQuality()": "951a6aa2",
					"setQualityToBad()": "ad55053a",
					"teacher()": "b46bff89"
				}
			},
			"storageLayout": {
				"storage": [
					{
						"astId": 11,
						"contract": "contracts/structs.sol:Class",
						"label": "teacher",
						"offset": 0,
						"slot": "0",
						"type": "t_struct(Teacher)8_storage"
					},
					{
						"astId": 20,
						"contract": "contracts/structs.sol:Class",
						"label": "classQuality",
						"offset": 0,
						"slot": "3",
						"type": "t_enum(Quality)15"
					}
				],
				"types": {
					"t_address": {
						"encoding": "inplace",
						"label": "address",
						"numberOfBytes": "20"
					},
					"t_enum(Quality)15": {
						"encoding": "inplace",
						"label": "enum Class.Quality",
						"numberOfBytes": "1"
					},
					"t_string_storage": {
						"encoding": "bytes",
						"label": "string",
						"numberOfBytes": "32"
					},
					"t_struct(Teacher)8_storage": {
						"encoding": "inplace",
						"label": "struct Teacher",
						"members": [
							{
								"astId": 3,
								"contract": "contracts/structs.sol:Class",
								"label": "name",
								"offset": 0,
								"slot": "0",
								"type": "t_string_storage"
							},
							{
								"astId": 5,
								"contract": "contracts/structs.sol:Class",
								"label": "age",
								"offset": 0,
								"slot": "1",
								"type": "t_uint256"
							},
							{
								"astId": 7,
								"contract": "contracts/structs.sol:Class",
								"label": "addr",
								"offset": 0,
								"slot": "2",
								"type": "t_address"
							}
						],
						"numberOfBytes": "96"
					},
					"t_uint256": {
						"encoding": "inplace",
						"label": "uint256",
						"numberOfBytes": "32"
					}
				}
			},
			"userdoc": {
				"kind": "user",
				"methods": {},
				"version": 1
			}
		}
	}
}