{
	"contracts/error_handling.sol": {
		"ErrorHandling": {
			"abi": [
				{
					"inputs": [
						{
							"internalType": "uint256",
							"name": "num",
							"type": "uint256"
						}
					],
					"name": "func1",
					"outputs": [
						{
							"internalType": "uint256",
							"name": "",
							"type": "uint256"
						}
					],
					"stateMutability": "view",
					"type": "function"
				}
			],
			"devdoc": {
				"kind": "dev",
				"methods": {},
				"version": 1
			},
			"evm": {
				"assembly": "    /* \"contracts/error_handling.sol\":74:368  contract ErrorHandling{\r... */\n  mstore(0x40, 0x80)\n    /* \"contracts/error_handling.sol\":121:123  10 */\n  0x0a\n    /* \"contracts/error_handling.sol\":105:123  uint demo_var = 10 */\n  0x00\n  sstore\n    /* \"contracts/error_handling.sol\":74:368  contract ErrorHandling{\r... */\n  callvalue\n  dup1\n  iszero\n  tag_1\n  jumpi\n  0x00\n  dup1\n  revert\ntag_1:\n  pop\n  dataSize(sub_0)\n  dup1\n  dataOffset(sub_0)\n  0x00\n  codecopy\n  0x00\n  return\nstop\n\nsub_0: assembly {\n        /* \"contracts/error_handling.sol\":74:368  contract ErrorHandling{\r... */\n      mstore(0x40, 0x80)\n      callvalue\n      dup1\n      iszero\n      tag_1\n      jumpi\n      0x00\n      dup1\n      revert\n    tag_1:\n      pop\n      jumpi(tag_2, lt(calldatasize, 0x04))\n      shr(0xe0, calldataload(0x00))\n      dup1\n      0x254e43db\n      eq\n      tag_3\n      jumpi\n    tag_2:\n      0x00\n      dup1\n      revert\n        /* \"contracts/error_handling.sol\":150:322  function func1(uint num) public view returns(uint){\r... */\n    tag_3:\n      tag_4\n      0x04\n      dup1\n      calldatasize\n      sub\n      dup2\n      add\n      swap1\n      tag_5\n      swap2\n      swap1\n      tag_6\n      jump\t// in\n    tag_5:\n      tag_7\n      jump\t// in\n    tag_4:\n      mload(0x40)\n      tag_8\n      swap2\n      swap1\n      tag_9\n      jump\t// in\n    tag_8:\n      mload(0x40)\n      dup1\n      swap2\n      sub\n      swap1\n      return\n    tag_7:\n        /* \"contracts/error_handling.sol\":195:199  uint */\n      0x00\n        /* \"contracts/error_handling.sol\":237:238  0 */\n      dup1\n        /* \"contracts/error_handling.sol\":230:233  num */\n      dup3\n        /* \"contracts/error_handling.sol\":219:227  demo_var */\n      sload(0x00)\n        /* \"contracts/error_handling.sol\":219:233  demo_var % num */\n      tag_11\n      swap2\n      swap1\n      tag_12\n      jump\t// in\n    tag_11:\n        /* \"contracts/error_handling.sol\":219:238  demo_var % num == 0 */\n      eq\n        /* \"contracts/error_handling.sol\":211:257  require(demo_var % num == 0, \"invalid number\") */\n      tag_13\n      jumpi\n      mload(0x40)\n      0x08c379a000000000000000000000000000000000000000000000000000000000\n      dup2\n      mstore\n      0x04\n      add\n      tag_14\n      swap1\n      tag_15\n      jump\t// in\n    tag_14:\n      mload(0x40)\n      dup1\n      swap2\n      sub\n      swap1\n      revert\n    tag_13:\n        /* \"contracts/error_handling.sol\":268:276  uint div */\n      0x00\n        /* \"contracts/error_handling.sol\":290:293  num */\n      dup3\n        /* \"contracts/error_handling.sol\":279:287  demo_var */\n      sload(0x00)\n        /* \"contracts/error_handling.sol\":279:293  demo_var / num */\n      tag_16\n      swap2\n      swap1\n      tag_17\n      jump\t// in\n    tag_16:\n        /* \"contracts/error_handling.sol\":268:293  uint div = demo_var / num */\n      swap1\n      pop\n        /* \"contracts/error_handling.sol\":311:314  div */\n      dup1\n        /* \"contracts/error_handling.sol\":304:314  return div */\n      swap2\n      pop\n      pop\n        /* \"contracts/error_handling.sol\":150:322  function func1(uint num) public view returns(uint){\r... */\n      swap2\n      swap1\n      pop\n      jump\t// out\n        /* \"#utility.yul\":7:146   */\n    tag_19:\n        /* \"#utility.yul\":53:58   */\n      0x00\n        /* \"#utility.yul\":91:97   */\n      dup2\n        /* \"#utility.yul\":78:98   */\n      calldataload\n        /* \"#utility.yul\":69:98   */\n      swap1\n      pop\n        /* \"#utility.yul\":107:140   */\n      tag_21\n        /* \"#utility.yul\":134:139   */\n      dup2\n        /* \"#utility.yul\":107:140   */\n      tag_22\n      jump\t// in\n    tag_21:\n        /* \"#utility.yul\":7:146   */\n      swap3\n      swap2\n      pop\n      pop\n      jump\t// out\n        /* \"#utility.yul\":152:481   */\n    tag_6:\n        /* \"#utility.yul\":211:217   */\n      0x00\n        /* \"#utility.yul\":260:262   */\n      0x20\n        /* \"#utility.yul\":248:257   */\n      dup3\n        /* \"#utility.yul\":239:246   */\n      dup5\n        /* \"#utility.yul\":235:258   */\n      sub\n        /* \"#utility.yul\":231:263   */\n      slt\n        /* \"#utility.yul\":228:347   */\n      iszero\n      tag_24\n      jumpi\n        /* \"#utility.yul\":266:345   */\n      tag_25\n      tag_26\n      jump\t// in\n    tag_25:\n        /* \"#utility.yul\":228:347   */\n    tag_24:\n        /* \"#utility.yul\":386:387   */\n      0x00\n        /* \"#utility.yul\":411:464   */\n      tag_27\n        /* \"#utility.yul\":456:463   */\n      dup5\n        /* \"#utility.yul\":447:453   */\n      dup3\n        /* \"#utility.yul\":436:445   */\n      dup6\n        /* \"#utility.yul\":432:454   */\n      add\n        /* \"#utility.yul\":411:464   */\n      tag_19\n      jump\t// in\n    tag_27:\n        /* \"#utility.yul\":401:464   */\n      swap2\n      pop\n        /* \"#utility.yul\":357:474   */\n      pop\n        /* \"#utility.yul\":152:481   */\n      swap3\n      swap2\n      pop\n      pop\n      jump\t// out\n        /* \"#utility.yul\":487:853   */\n    tag_28:\n        /* \"#utility.yul\":629:632   */\n      0x00\n        /* \"#utility.yul\":650:717   */\n      tag_30\n        /* \"#utility.yul\":714:716   */\n      0x0e\n        /* \"#utility.yul\":709:712   */\n      dup4\n        /* \"#utility.yul\":650:717   */\n      tag_31\n      jump\t// in\n    tag_30:\n        /* \"#utility.yul\":643:717   */\n      swap2\n      pop\n        /* \"#utility.yul\":726:819   */\n      tag_32\n        /* \"#utility.yul\":815:818   */\n      dup3\n        /* \"#utility.yul\":726:819   */\n      tag_33\n      jump\t// in\n    tag_32:\n        /* \"#utility.yul\":844:846   */\n      0x20\n        /* \"#utility.yul\":839:842   */\n      dup3\n        /* \"#utility.yul\":835:847   */\n      add\n        /* \"#utility.yul\":828:847   */\n      swap1\n      pop\n        /* \"#utility.yul\":487:853   */\n      swap2\n      swap1\n      pop\n      jump\t// out\n        /* \"#utility.yul\":859:977   */\n    tag_34:\n        /* \"#utility.yul\":946:970   */\n      tag_36\n        /* \"#utility.yul\":964:969   */\n      dup2\n        /* \"#utility.yul\":946:970   */\n      tag_37\n      jump\t// in\n    tag_36:\n        /* \"#utility.yul\":941:944   */\n      dup3\n        /* \"#utility.yul\":934:971   */\n      mstore\n        /* \"#utility.yul\":859:977   */\n      pop\n      pop\n      jump\t// out\n        /* \"#utility.yul\":983:1402   */\n    tag_15:\n        /* \"#utility.yul\":1149:1153   */\n      0x00\n        /* \"#utility.yul\":1187:1189   */\n      0x20\n        /* \"#utility.yul\":1176:1185   */\n      dup3\n        /* \"#utility.yul\":1172:1190   */\n      add\n        /* \"#utility.yul\":1164:1190   */\n      swap1\n      pop\n        /* \"#utility.yul\":1236:1245   */\n      dup2\n        /* \"#utility.yul\":1230:1234   */\n      dup2\n        /* \"#utility.yul\":1226:1246   */\n      sub\n        /* \"#utility.yul\":1222:1223   */\n      0x00\n        /* \"#utility.yul\":1211:1220   */\n      dup4\n        /* \"#utility.yul\":1207:1224   */\n      add\n        /* \"#utility.yul\":1200:1247   */\n      mstore\n        /* \"#utility.yul\":1264:1395   */\n      tag_39\n        /* \"#utility.yul\":1390:1394   */\n      dup2\n        /* \"#utility.yul\":1264:1395   */\n      tag_28\n      jump\t// in\n    tag_39:\n        /* \"#utility.yul\":1256:1395   */\n      swap1\n      pop\n        /* \"#utility.yul\":983:1402   */\n      swap2\n      swap1\n      pop\n      jump\t// out\n        /* \"#utility.yul\":1408:1630   */\n    tag_9:\n        /* \"#utility.yul\":1501:1505   */\n      0x00\n        /* \"#utility.yul\":1539:1541   */\n      0x20\n        /* \"#utility.yul\":1528:1537   */\n      dup3\n        /* \"#utility.yul\":1524:1542   */\n      add\n        /* \"#utility.yul\":1516:1542   */\n      swap1\n      pop\n        /* \"#utility.yul\":1552:1623   */\n      tag_41\n        /* \"#utility.yul\":1620:1621   */\n      0x00\n        /* \"#utility.yul\":1609:1618   */\n      dup4\n        /* \"#utility.yul\":1605:1622   */\n      add\n        /* \"#utility.yul\":1596:1602   */\n      dup5\n        /* \"#utility.yul\":1552:1623   */\n      tag_34\n      jump\t// in\n    tag_41:\n        /* \"#utility.yul\":1408:1630   */\n      swap3\n      swap2\n      pop\n      pop\n      jump\t// out\n        /* \"#utility.yul\":1717:1886   */\n    tag_31:\n        /* \"#utility.yul\":1801:1812   */\n      0x00\n        /* \"#utility.yul\":1835:1841   */\n      dup3\n        /* \"#utility.yul\":1830:1833   */\n      dup3\n        /* \"#utility.yul\":1823:1842   */\n      mstore\n        /* \"#utility.yul\":1875:1879   */\n      0x20\n        /* \"#utility.yul\":1870:1873   */\n      dup3\n        /* \"#utility.yul\":1866:1880   */\n      add\n        /* \"#utility.yul\":1851:1880   */\n      swap1\n      pop\n        /* \"#utility.yul\":1717:1886   */\n      swap3\n      swap2\n      pop\n      pop\n      jump\t// out\n        /* \"#utility.yul\":1892:2077   */\n    tag_17:\n        /* \"#utility.yul\":1932:1933   */\n      0x00\n        /* \"#utility.yul\":1949:1969   */\n      tag_46\n        /* \"#utility.yul\":1967:1968   */\n      dup3\n        /* \"#utility.yul\":1949:1969   */\n      tag_37\n      jump\t// in\n    tag_46:\n        /* \"#utility.yul\":1944:1969   */\n      swap2\n      pop\n        /* \"#utility.yul\":1983:2003   */\n      tag_47\n        /* \"#utility.yul\":2001:2002   */\n      dup4\n        /* \"#utility.yul\":1983:2003   */\n      tag_37\n      jump\t// in\n    tag_47:\n        /* \"#utility.yul\":1978:2003   */\n      swap3\n      pop\n        /* \"#utility.yul\":2022:2023   */\n      dup3\n        /* \"#utility.yul\":2012:2047   */\n      tag_48\n      jumpi\n        /* \"#utility.yul\":2027:2045   */\n      tag_49\n      tag_50\n      jump\t// in\n    tag_49:\n        /* \"#utility.yul\":2012:2047   */\n    tag_48:\n        /* \"#utility.yul\":2069:2070   */\n      dup3\n        /* \"#utility.yul\":2066:2067   */\n      dup3\n        /* \"#utility.yul\":2062:2071   */\n      div\n        /* \"#utility.yul\":2057:2071   */\n      swap1\n      pop\n        /* \"#utility.yul\":1892:2077   */\n      swap3\n      swap2\n      pop\n      pop\n      jump\t// out\n        /* \"#utility.yul\":2083:2160   */\n    tag_37:\n        /* \"#utility.yul\":2120:2127   */\n      0x00\n        /* \"#utility.yul\":2149:2154   */\n      dup2\n        /* \"#utility.yul\":2138:2154   */\n      swap1\n      pop\n        /* \"#utility.yul\":2083:2160   */\n      swap2\n      swap1\n      pop\n      jump\t// out\n        /* \"#utility.yul\":2166:2342   */\n    tag_12:\n        /* \"#utility.yul\":2198:2199   */\n      0x00\n        /* \"#utility.yul\":2215:2235   */\n      tag_53\n        /* \"#utility.yul\":2233:2234   */\n      dup3\n        /* \"#utility.yul\":2215:2235   */\n      tag_37\n      jump\t// in\n    tag_53:\n        /* \"#utility.yul\":2210:2235   */\n      swap2\n      pop\n        /* \"#utility.yul\":2249:2269   */\n      tag_54\n        /* \"#utility.yul\":2267:2268   */\n      dup4\n        /* \"#utility.yul\":2249:2269   */\n      tag_37\n      jump\t// in\n    tag_54:\n        /* \"#utility.yul\":2244:2269   */\n      swap3\n      pop\n        /* \"#utility.yul\":2288:2289   */\n      dup3\n        /* \"#utility.yul\":2278:2313   */\n      tag_55\n      jumpi\n        /* \"#utility.yul\":2293:2311   */\n      tag_56\n      tag_50\n      jump\t// in\n    tag_56:\n        /* \"#utility.yul\":2278:2313   */\n    tag_55:\n        /* \"#utility.yul\":2334:2335   */\n      dup3\n        /* \"#utility.yul\":2331:2332   */\n      dup3\n        /* \"#utility.yul\":2327:2336   */\n      mod\n        /* \"#utility.yul\":2322:2336   */\n      swap1\n      pop\n        /* \"#utility.yul\":2166:2342   */\n      swap3\n      swap2\n      pop\n      pop\n      jump\t// out\n        /* \"#utility.yul\":2534:2714   */\n    tag_50:\n        /* \"#utility.yul\":2582:2659   */\n      0x4e487b7100000000000000000000000000000000000000000000000000000000\n        /* \"#utility.yul\":2579:2580   */\n      0x00\n        /* \"#utility.yul\":2572:2660   */\n      mstore\n        /* \"#utility.yul\":2679:2683   */\n      0x12\n        /* \"#utility.yul\":2676:2677   */\n      0x04\n        /* \"#utility.yul\":2669:2684   */\n      mstore\n        /* \"#utility.yul\":2703:2707   */\n      0x24\n        /* \"#utility.yul\":2700:2701   */\n      0x00\n        /* \"#utility.yul\":2693:2708   */\n      revert\n        /* \"#utility.yul\":2843:2960   */\n    tag_26:\n        /* \"#utility.yul\":2952:2953   */\n      0x00\n        /* \"#utility.yul\":2949:2950   */\n      dup1\n        /* \"#utility.yul\":2942:2954   */\n      revert\n        /* \"#utility.yul\":2966:3130   */\n    tag_33:\n        /* \"#utility.yul\":3106:3122   */\n      0x696e76616c6964206e756d626572000000000000000000000000000000000000\n        /* \"#utility.yul\":3102:3103   */\n      0x00\n        /* \"#utility.yul\":3094:3100   */\n      dup3\n        /* \"#utility.yul\":3090:3104   */\n      add\n        /* \"#utility.yul\":3083:3123   */\n      mstore\n        /* \"#utility.yul\":2966:3130   */\n      pop\n      jump\t// out\n        /* \"#utility.yul\":3136:3258   */\n    tag_22:\n        /* \"#utility.yul\":3209:3233   */\n      tag_65\n        /* \"#utility.yul\":3227:3232   */\n      dup2\n        /* \"#utility.yul\":3209:3233   */\n      tag_37\n      jump\t// in\n    tag_65:\n        /* \"#utility.yul\":3202:3207   */\n      dup2\n        /* \"#utility.yul\":3199:3234   */\n      eq\n        /* \"#utility.yul\":3189:3252   */\n      tag_66\n      jumpi\n        /* \"#utility.yul\":3248:3249   */\n      0x00\n        /* \"#utility.yul\":3245:3246   */\n      dup1\n        /* \"#utility.yul\":3238:3250   */\n      revert\n        /* \"#utility.yul\":3189:3252   */\n    tag_66:\n        /* \"#utility.yul\":3136:3258   */\n      pop\n      jump\t// out\n\n    auxdata: 0xa264697066735822122057a666a43aec7412717fb961a57bcba0b5cf825581d55bdc9ff8da1d27283d5164736f6c63430008070033\n}\n",
				"bytecode": {
					"linkReferences": {},
					"object": "6080604052600a60005534801561001557600080fd5b506102a2806100256000396000f3fe608060405234801561001057600080fd5b506004361061002b5760003560e01c8063254e43db14610030575b600080fd5b61004a600480360381019061004591906100e1565b610060565b6040516100579190610160565b60405180910390f35b6000808260005461007191906101c7565b146100b1576040517f08c379a00000000000000000000000000000000000000000000000000000000081526004016100a890610140565b60405180910390fd5b6000826000546100c1919061018c565b905080915050919050565b6000813590506100db81610255565b92915050565b6000602082840312156100f7576100f6610227565b5b6000610105848285016100cc565b91505092915050565b600061011b600e8361017b565b91506101268261022c565b602082019050919050565b61013a816101bd565b82525050565b600060208201905081810360008301526101598161010e565b9050919050565b60006020820190506101756000830184610131565b92915050565b600082825260208201905092915050565b6000610197826101bd565b91506101a2836101bd565b9250826101b2576101b16101f8565b5b828204905092915050565b6000819050919050565b60006101d2826101bd565b91506101dd836101bd565b9250826101ed576101ec6101f8565b5b828206905092915050565b7f4e487b7100000000000000000000000000000000000000000000000000000000600052601260045260246000fd5b600080fd5b7f696e76616c6964206e756d626572000000000000000000000000000000000000600082015250565b61025e816101bd565b811461026957600080fd5b5056fea264697066735822122057a666a43aec7412717fb961a57bcba0b5cf825581d55bdc9ff8da1d27283d5164736f6c63430008070033",
					"opcodes": "PUSH1 0x80 PUSH1 0x40 MSTORE PUSH1 0xA PUSH1 0x0 SSTORE CALLVALUE DUP1 ISZERO PUSH2 0x15 JUMPI PUSH1 0x0 DUP1 REVERT JUMPDEST POP PUSH2 0x2A2 DUP1 PUSH2 0x25 PUSH1 0x0 CODECOPY PUSH1 0x0 RETURN INVALID PUSH1 0x80 PUSH1 0x40 MSTORE CALLVALUE DUP1 ISZERO PUSH2 0x10 JUMPI PUSH1 0x0 DUP1 REVERT JUMPDEST POP PUSH1 0x4 CALLDATASIZE LT PUSH2 0x2B JUMPI PUSH1 0x0 CALLDATALOAD PUSH1 0xE0 SHR DUP1 PUSH4 0x254E43DB EQ PUSH2 0x30 JUMPI JUMPDEST PUSH1 0x0 DUP1 REVERT JUMPDEST PUSH2 0x4A PUSH1 0x4 DUP1 CALLDATASIZE SUB DUP2 ADD SWAP1 PUSH2 0x45 SWAP2 SWAP1 PUSH2 0xE1 JUMP JUMPDEST PUSH2 0x60 JUMP JUMPDEST PUSH1 0x40 MLOAD PUSH2 0x57 SWAP2 SWAP1 PUSH2 0x160 JUMP JUMPDEST PUSH1 0x40 MLOAD DUP1 SWAP2 SUB SWAP1 RETURN JUMPDEST PUSH1 0x0 DUP1 DUP3 PUSH1 0x0 SLOAD PUSH2 0x71 SWAP2 SWAP1 PUSH2 0x1C7 JUMP JUMPDEST EQ PUSH2 0xB1 JUMPI PUSH1 0x40 MLOAD PUSH32 0x8C379A000000000000000000000000000000000000000000000000000000000 DUP2 MSTORE PUSH1 0x4 ADD PUSH2 0xA8 SWAP1 PUSH2 0x140 JUMP JUMPDEST PUSH1 0x40 MLOAD DUP1 SWAP2 SUB SWAP1 REVERT JUMPDEST PUSH1 0x0 DUP3 PUSH1 0x0 SLOAD PUSH2 0xC1 SWAP2 SWAP1 PUSH2 0x18C JUMP JUMPDEST SWAP1 POP DUP1 SWAP2 POP POP SWAP2 SWAP1 POP JUMP JUMPDEST PUSH1 0x0 DUP2 CALLDATALOAD SWAP1 POP PUSH2 0xDB DUP2 PUSH2 0x255 JUMP JUMPDEST SWAP3 SWAP2 POP POP JUMP JUMPDEST PUSH1 0x0 PUSH1 0x20 DUP3 DUP5 SUB SLT ISZERO PUSH2 0xF7 JUMPI PUSH2 0xF6 PUSH2 0x227 JUMP JUMPDEST JUMPDEST PUSH1 0x0 PUSH2 0x105 DUP5 DUP3 DUP6 ADD PUSH2 0xCC JUMP JUMPDEST SWAP2 POP POP SWAP3 SWAP2 POP POP JUMP JUMPDEST PUSH1 0x0 PUSH2 0x11B PUSH1 0xE DUP4 PUSH2 0x17B JUMP JUMPDEST SWAP2 POP PUSH2 0x126 DUP3 PUSH2 0x22C JUMP JUMPDEST PUSH1 0x20 DUP3 ADD SWAP1 POP SWAP2 SWAP1 POP JUMP JUMPDEST PUSH2 0x13A DUP2 PUSH2 0x1BD JUMP JUMPDEST DUP3 MSTORE POP POP JUMP JUMPDEST PUSH1 0x0 PUSH1 0x20 DUP3 ADD SWAP1 POP DUP2 DUP2 SUB PUSH1 0x0 DUP4 ADD MSTORE PUSH2 0x159 DUP2 PUSH2 0x10E JUMP JUMPDEST SWAP1 POP SWAP2 SWAP1 POP JUMP JUMPDEST PUSH1 0x0 PUSH1 0x20 DUP3 ADD SWAP1 POP PUSH2 0x175 PUSH1 0x0 DUP4 ADD DUP5 PUSH2 0x131 JUMP JUMPDEST SWAP3 SWAP2 POP POP JUMP JUMPDEST PUSH1 0x0 DUP3 DUP3 MSTORE PUSH1 0x20 DUP3 ADD SWAP1 POP SWAP3 SWAP2 POP POP JUMP JUMPDEST PUSH1 0x0 PUSH2 0x197 DUP3 PUSH2 0x1BD JUMP JUMPDEST SWAP2 POP PUSH2 0x1A2 DUP4 PUSH2 0x1BD JUMP JUMPDEST SWAP3 POP DUP3 PUSH2 0x1B2 JUMPI PUSH2 0x1B1 PUSH2 0x1F8 JUMP JUMPDEST JUMPDEST DUP3 DUP3 DIV SWAP1 POP SWAP3 SWAP2 POP POP JUMP JUMPDEST PUSH1 0x0 DUP2 SWAP1 POP SWAP2 SWAP1 POP JUMP JUMPDEST PUSH1 0x0 PUSH2 0x1D2 DUP3 PUSH2 0x1BD JUMP JUMPDEST SWAP2 POP PUSH2 0x1DD DUP4 PUSH2 0x1BD JUMP JUMPDEST SWAP3 POP DUP3 PUSH2 0x1ED JUMPI PUSH2 0x1EC PUSH2 0x1F8 JUMP JUMPDEST JUMPDEST DUP3 DUP3 MOD SWAP1 POP SWAP3 SWAP2 POP POP JUMP JUMPDEST PUSH32 0x4E487B7100000000000000000000000000000000000000000000000000000000 PUSH1 0x0 MSTORE PUSH1 0x12 PUSH1 0x4 MSTORE PUSH1 0x24 PUSH1 0x0 REVERT JUMPDEST PUSH1 0x0 DUP1 REVERT JUMPDEST PUSH32 0x696E76616C6964206E756D626572000000000000000000000000000000000000 PUSH1 0x0 DUP3 ADD MSTORE POP JUMP JUMPDEST PUSH2 0x25E DUP2 PUSH2 0x1BD JUMP JUMPDEST DUP2 EQ PUSH2 0x269 JUMPI PUSH1 0x0 DUP1 REVERT JUMPDEST POP JUMP INVALID LOG2 PUSH5 0x6970667358 0x22 SLT KECCAK256 JUMPI 0xA6 PUSH7 0xA43AEC7412717F 0xB9 PUSH2 0xA57B 0xCB LOG0 0xB5 0xCF DUP3 SSTORE DUP2 0xD5 JUMPDEST 0xDC SWAP16 0xF8 0xDA SAR 0x27 0x28 RETURNDATASIZE MLOAD PUSH5 0x736F6C6343 STOP ADDMOD SMOD STOP CALLER "
				},
				"gasEstimates": {
					"creation": {
						"codeDepositCost": "134800",
						"executionCost": "22289",
						"totalCost": "157089"
					},
					"external": {
						"func1(uint256)": "infinite"
					}
				},
				"methodIdentifiers": {
					"func1(uint256)": "254e43db"
				}
			},
			"storageLayout": {
				"storage": [
					{
						"astId": 4,
						"contract": "contracts/error_handling.sol:ErrorHandling",
						"label": "demo_var",
						"offset": 0,
						"slot": "0",
						"type": "t_uint256"
					}
				],
				"types": {
					"t_uint256": {
						"encoding": "inplace",
						"label": "uint256",
						"numberOfBytes": "32"
					}
				}
			},
			"userdoc": {
				"kind": "user",
				"methods": {},
				"version": 1
			}
		}
	}
}