{
	"contracts/loops.sol": {
		"Loops": {
			"abi": [
				{
					"anonymous": false,
					"inputs": [
						{
							"indexed": false,
							"internalType": "uint256",
							"name": "date",
							"type": "uint256"
						},
						{
							"indexed": false,
							"internalType": "address",
							"name": "add",
							"type": "address"
						},
						{
							"indexed": false,
							"internalType": "uint256",
							"name": "number",
							"type": "uint256"
						},
						{
							"indexed": false,
							"internalType": "uint256",
							"name": "i",
							"type": "uint256"
						}
					],
					"name": "Number",
					"type": "event"
				},
				{
					"inputs": [
						{
							"internalType": "uint256",
							"name": "number",
							"type": "uint256"
						},
						{
							"internalType": "uint256",
							"name": "amount",
							"type": "uint256"
						}
					],
					"name": "doWhileLoopNumbers",
					"outputs": [],
					"stateMutability": "nonpayable",
					"type": "function"
				},
				{
					"inputs": [
						{
							"internalType": "uint256",
							"name": "number",
							"type": "uint256"
						},
						{
							"internalType": "uint256",
							"name": "amount",
							"type": "uint256"
						}
					],
					"name": "showNumbers",
					"outputs": [],
					"stateMutability": "nonpayable",
					"type": "function"
				},
				{
					"inputs": [
						{
							"internalType": "uint256",
							"name": "number",
							"type": "uint256"
						},
						{
							"internalType": "uint256",
							"name": "amount",
							"type": "uint256"
						}
					],
					"name": "showNumbersWithBreak",
					"outputs": [],
					"stateMutability": "nonpayable",
					"type": "function"
				},
				{
					"inputs": [
						{
							"internalType": "uint256",
							"name": "number",
							"type": "uint256"
						},
						{
							"internalType": "uint256",
							"name": "amount",
							"type": "uint256"
						}
					],
					"name": "whileLoopNumbers",
					"outputs": [],
					"stateMutability": "nonpayable",
					"type": "function"
				}
			],
			"devdoc": {
				"kind": "dev",
				"methods": {},
				"version": 1
			},
			"evm": {
				"assembly": "    /* \"contracts/loops.sol\":74:1399  contract Loops {\r... */\n  mstore(0x40, 0x80)\n  callvalue\n  dup1\n  iszero\n  tag_1\n  jumpi\n  0x00\n  dup1\n  revert\ntag_1:\n  pop\n  dataSize(sub_0)\n  dup1\n  dataOffset(sub_0)\n  0x00\n  codecopy\n  0x00\n  return\nstop\n\nsub_0: assembly {\n        /* \"contracts/loops.sol\":74:1399  contract Loops {\r... */\n      mstore(0x40, 0x80)\n      callvalue\n      dup1\n      iszero\n      tag_1\n      jumpi\n      0x00\n      dup1\n      revert\n    tag_1:\n      pop\n      jumpi(tag_2, lt(calldatasize, 0x04))\n      shr(0xe0, calldataload(0x00))\n      dup1\n      0x022d18c4\n      eq\n      tag_3\n      jumpi\n      dup1\n      0x0fc34d5d\n      eq\n      tag_4\n      jumpi\n      dup1\n      0xc50be469\n      eq\n      tag_5\n      jumpi\n      dup1\n      0xc8846751\n      eq\n      tag_6\n      jumpi\n    tag_2:\n      0x00\n      dup1\n      revert\n        /* \"contracts/loops.sol\":659:983  function whileLoopNumbers(uint number, uint amount) public {\r... */\n    tag_3:\n      tag_7\n      0x04\n      dup1\n      calldatasize\n      sub\n      dup2\n      add\n      swap1\n      tag_8\n      swap2\n      swap1\n      tag_9\n      jump\t// in\n    tag_8:\n      tag_10\n      jump\t// in\n    tag_7:\n      stop\n        /* \"contracts/loops.sol\":396:651  function showNumbersWithBreak(uint number, uint amount) public {\r... */\n    tag_4:\n      tag_11\n      0x04\n      dup1\n      calldatasize\n      sub\n      dup2\n      add\n      swap1\n      tag_12\n      swap2\n      swap1\n      tag_9\n      jump\t// in\n    tag_12:\n      tag_13\n      jump\t// in\n    tag_11:\n      stop\n        /* \"contracts/loops.sol\":991:1396  function doWhileLoopNumbers(uint number, uint amount) public {\r... */\n    tag_5:\n      tag_14\n      0x04\n      dup1\n      calldatasize\n      sub\n      dup2\n      add\n      swap1\n      tag_15\n      swap2\n      swap1\n      tag_9\n      jump\t// in\n    tag_15:\n      tag_16\n      jump\t// in\n    tag_14:\n      stop\n        /* \"contracts/loops.sol\":207:388  function showNumbers(uint number, uint amount) public {\r... */\n    tag_6:\n      tag_17\n      0x04\n      dup1\n      calldatasize\n      sub\n      dup2\n      add\n      swap1\n      tag_18\n      swap2\n      swap1\n      tag_9\n      jump\t// in\n    tag_18:\n      tag_19\n      jump\t// in\n    tag_17:\n      stop\n        /* \"contracts/loops.sol\":659:983  function whileLoopNumbers(uint number, uint amount) public {\r... */\n    tag_10:\n        /* \"contracts/loops.sol\":729:739  bool check */\n      0x00\n        /* \"contracts/loops.sol\":768:774  uint i */\n      dup1\n        /* \"contracts/loops.sol\":791:976  while(!check){\r... */\n    tag_21:\n        /* \"contracts/loops.sol\":798:803  check */\n      dup2\n        /* \"contracts/loops.sol\":791:976  while(!check){\r... */\n      tag_22\n      jumpi\n        /* \"contracts/loops.sol\":824:870  Number(block.timestamp, msg.sender, number, i) */\n      0x7f01e027002983a61fc732573dbcd5ca1d39361dc45033701f7ed61cee22e61e\n        /* \"contracts/loops.sol\":831:846  block.timestamp */\n      timestamp\n        /* \"contracts/loops.sol\":848:858  msg.sender */\n      caller\n        /* \"contracts/loops.sol\":860:866  number */\n      dup7\n        /* \"contracts/loops.sol\":868:869  i */\n      dup5\n        /* \"contracts/loops.sol\":824:870  Number(block.timestamp, msg.sender, number, i) */\n      mload(0x40)\n      tag_23\n      swap5\n      swap4\n      swap3\n      swap2\n      swap1\n      tag_24\n      jump\t// in\n    tag_23:\n      mload(0x40)\n      dup1\n      swap2\n      sub\n      swap1\n      log1\n        /* \"contracts/loops.sol\":885:888  i++ */\n      dup1\n      dup1\n      tag_25\n      swap1\n      tag_26\n      jump\t// in\n    tag_25:\n      swap2\n      pop\n      pop\n        /* \"contracts/loops.sol\":911:917  amount */\n      dup3\n        /* \"contracts/loops.sol\":906:907  i */\n      dup2\n        /* \"contracts/loops.sol\":906:917  i == amount */\n      eq\n        /* \"contracts/loops.sol\":903:965  if(i == amount){\r... */\n      iszero\n      tag_27\n      jumpi\n        /* \"contracts/loops.sol\":945:949  true */\n      0x01\n        /* \"contracts/loops.sol\":937:949  check = true */\n      swap2\n      pop\n        /* \"contracts/loops.sol\":903:965  if(i == amount){\r... */\n    tag_27:\n        /* \"contracts/loops.sol\":791:976  while(!check){\r... */\n      jump(tag_21)\n    tag_22:\n        /* \"contracts/loops.sol\":718:983  {\r... */\n      pop\n      pop\n        /* \"contracts/loops.sol\":659:983  function whileLoopNumbers(uint number, uint amount) public {\r... */\n      pop\n      pop\n      jump\t// out\n        /* \"contracts/loops.sol\":396:651  function showNumbersWithBreak(uint number, uint amount) public {\r... */\n    tag_13:\n        /* \"contracts/loops.sol\":474:480  uint i */\n      0x00\n        /* \"contracts/loops.sol\":470:644  for(uint i = 0; i< amount; i++){\r... */\n    tag_29:\n        /* \"contracts/loops.sol\":489:495  amount */\n      dup2\n        /* \"contracts/loops.sol\":486:487  i */\n      dup2\n        /* \"contracts/loops.sol\":486:495  i< amount */\n      lt\n        /* \"contracts/loops.sol\":470:644  for(uint i = 0; i< amount; i++){\r... */\n      iszero\n      tag_30\n      jumpi\n        /* \"contracts/loops.sol\":525:526  5 */\n      0x05\n        /* \"contracts/loops.sol\":521:522  i */\n      dup2\n        /* \"contracts/loops.sol\":521:526  i > 5 */\n      gt\n        /* \"contracts/loops.sol\":518:567  if(i > 5){\r... */\n      iszero\n      tag_32\n      jumpi\n        /* \"contracts/loops.sol\":546:551  break */\n      jump(tag_30)\n        /* \"contracts/loops.sol\":518:567  if(i > 5){\r... */\n    tag_32:\n        /* \"contracts/loops.sol\":586:632  Number(block.timestamp, msg.sender, number, i) */\n      0x7f01e027002983a61fc732573dbcd5ca1d39361dc45033701f7ed61cee22e61e\n        /* \"contracts/loops.sol\":593:608  block.timestamp */\n      timestamp\n        /* \"contracts/loops.sol\":610:620  msg.sender */\n      caller\n        /* \"contracts/loops.sol\":622:628  number */\n      dup6\n        /* \"contracts/loops.sol\":630:631  i */\n      dup5\n        /* \"contracts/loops.sol\":586:632  Number(block.timestamp, msg.sender, number, i) */\n      mload(0x40)\n      tag_33\n      swap5\n      swap4\n      swap3\n      swap2\n      swap1\n      tag_24\n      jump\t// in\n    tag_33:\n      mload(0x40)\n      dup1\n      swap2\n      sub\n      swap1\n      log1\n        /* \"contracts/loops.sol\":497:500  i++ */\n      dup1\n      dup1\n      tag_34\n      swap1\n      tag_26\n      jump\t// in\n    tag_34:\n      swap2\n      pop\n      pop\n        /* \"contracts/loops.sol\":470:644  for(uint i = 0; i< amount; i++){\r... */\n      jump(tag_29)\n    tag_30:\n      pop\n        /* \"contracts/loops.sol\":396:651  function showNumbersWithBreak(uint number, uint amount) public {\r... */\n      pop\n      pop\n      jump\t// out\n        /* \"contracts/loops.sol\":991:1396  function doWhileLoopNumbers(uint number, uint amount) public {\r... */\n    tag_16:\n        /* \"contracts/loops.sol\":1080:1081  0 */\n      0x00\n        /* \"contracts/loops.sol\":1071:1077  amount */\n      dup2\n        /* \"contracts/loops.sol\":1071:1081  amount > 0 */\n      gt\n        /* \"contracts/loops.sol\":1063:1120  require(amount > 0, \"amount has to be greater than zero\") */\n      tag_36\n      jumpi\n      mload(0x40)\n      0x08c379a000000000000000000000000000000000000000000000000000000000\n      dup2\n      mstore\n      0x04\n      add\n      tag_37\n      swap1\n      tag_38\n      jump\t// in\n    tag_37:\n      mload(0x40)\n      dup1\n      swap2\n      sub\n      swap1\n      revert\n    tag_36:\n        /* \"contracts/loops.sol\":1131:1141  bool check */\n      0x00\n        /* \"contracts/loops.sol\":1162:1168  uint i */\n      dup1\n        /* \"contracts/loops.sol\":1185:1389  do{\r... */\n    tag_39:\n        /* \"contracts/loops.sol\":1207:1253  Number(block.timestamp, msg.sender, number, i) */\n      0x7f01e027002983a61fc732573dbcd5ca1d39361dc45033701f7ed61cee22e61e\n        /* \"contracts/loops.sol\":1214:1229  block.timestamp */\n      timestamp\n        /* \"contracts/loops.sol\":1231:1241  msg.sender */\n      caller\n        /* \"contracts/loops.sol\":1243:1249  number */\n      dup7\n        /* \"contracts/loops.sol\":1251:1252  i */\n      dup5\n        /* \"contracts/loops.sol\":1207:1253  Number(block.timestamp, msg.sender, number, i) */\n      mload(0x40)\n      tag_42\n      swap5\n      swap4\n      swap3\n      swap2\n      swap1\n      tag_24\n      jump\t// in\n    tag_42:\n      mload(0x40)\n      dup1\n      swap2\n      sub\n      swap1\n      log1\n        /* \"contracts/loops.sol\":1268:1271  i++ */\n      dup1\n      dup1\n      tag_43\n      swap1\n      tag_26\n      jump\t// in\n    tag_43:\n      swap2\n      pop\n      pop\n        /* \"contracts/loops.sol\":1299:1300  0 */\n      0x00\n        /* \"contracts/loops.sol\":1289:1295  amount */\n      dup4\n        /* \"contracts/loops.sol\":1289:1300  amount == 0 */\n      eq\n        /* \"contracts/loops.sol\":1289:1315  amount == 0 || i == amount */\n      dup1\n      tag_44\n      jumpi\n      pop\n        /* \"contracts/loops.sol\":1309:1315  amount */\n      dup3\n        /* \"contracts/loops.sol\":1304:1305  i */\n      dup2\n        /* \"contracts/loops.sol\":1304:1315  i == amount */\n      eq\n        /* \"contracts/loops.sol\":1289:1315  amount == 0 || i == amount */\n    tag_44:\n        /* \"contracts/loops.sol\":1286:1363  if(amount == 0 || i == amount){\r... */\n      iszero\n      tag_45\n      jumpi\n        /* \"contracts/loops.sol\":1343:1347  true */\n      0x01\n        /* \"contracts/loops.sol\":1335:1347  check = true */\n      swap2\n      pop\n        /* \"contracts/loops.sol\":1286:1363  if(amount == 0 || i == amount){\r... */\n    tag_45:\n        /* \"contracts/loops.sol\":1382:1387  check */\n      dup2\n        /* \"contracts/loops.sol\":1381:1387  !check */\n      iszero\n        /* \"contracts/loops.sol\":1185:1389  do{\r... */\n      tag_39\n      jumpi\n        /* \"contracts/loops.sol\":1052:1396  {\r... */\n      pop\n      pop\n        /* \"contracts/loops.sol\":991:1396  function doWhileLoopNumbers(uint number, uint amount) public {\r... */\n      pop\n      pop\n      jump\t// out\n        /* \"contracts/loops.sol\":207:388  function showNumbers(uint number, uint amount) public {\r... */\n    tag_19:\n        /* \"contracts/loops.sol\":276:282  uint i */\n      0x00\n        /* \"contracts/loops.sol\":272:381  for(uint i = 0; i< amount; i++){\r... */\n    tag_47:\n        /* \"contracts/loops.sol\":291:297  amount */\n      dup2\n        /* \"contracts/loops.sol\":288:289  i */\n      dup2\n        /* \"contracts/loops.sol\":288:297  i< amount */\n      lt\n        /* \"contracts/loops.sol\":272:381  for(uint i = 0; i< amount; i++){\r... */\n      iszero\n      tag_48\n      jumpi\n        /* \"contracts/loops.sol\":323:369  Number(block.timestamp, msg.sender, number, i) */\n      0x7f01e027002983a61fc732573dbcd5ca1d39361dc45033701f7ed61cee22e61e\n        /* \"contracts/loops.sol\":330:345  block.timestamp */\n      timestamp\n        /* \"contracts/loops.sol\":347:357  msg.sender */\n      caller\n        /* \"contracts/loops.sol\":359:365  number */\n      dup6\n        /* \"contracts/loops.sol\":367:368  i */\n      dup5\n        /* \"contracts/loops.sol\":323:369  Number(block.timestamp, msg.sender, number, i) */\n      mload(0x40)\n      tag_50\n      swap5\n      swap4\n      swap3\n      swap2\n      swap1\n      tag_24\n      jump\t// in\n    tag_50:\n      mload(0x40)\n      dup1\n      swap2\n      sub\n      swap1\n      log1\n        /* \"contracts/loops.sol\":299:302  i++ */\n      dup1\n      dup1\n      tag_51\n      swap1\n      tag_26\n      jump\t// in\n    tag_51:\n      swap2\n      pop\n      pop\n        /* \"contracts/loops.sol\":272:381  for(uint i = 0; i< amount; i++){\r... */\n      jump(tag_47)\n    tag_48:\n      pop\n        /* \"contracts/loops.sol\":207:388  function showNumbers(uint number, uint amount) public {\r... */\n      pop\n      pop\n      jump\t// out\n        /* \"#utility.yul\":7:146   */\n    tag_53:\n        /* \"#utility.yul\":53:58   */\n      0x00\n        /* \"#utility.yul\":91:97   */\n      dup2\n        /* \"#utility.yul\":78:98   */\n      calldataload\n        /* \"#utility.yul\":69:98   */\n      swap1\n      pop\n        /* \"#utility.yul\":107:140   */\n      tag_55\n        /* \"#utility.yul\":134:139   */\n      dup2\n        /* \"#utility.yul\":107:140   */\n      tag_56\n      jump\t// in\n    tag_55:\n        /* \"#utility.yul\":7:146   */\n      swap3\n      swap2\n      pop\n      pop\n      jump\t// out\n        /* \"#utility.yul\":152:626   */\n    tag_9:\n        /* \"#utility.yul\":220:226   */\n      0x00\n        /* \"#utility.yul\":228:234   */\n      dup1\n        /* \"#utility.yul\":277:279   */\n      0x40\n        /* \"#utility.yul\":265:274   */\n      dup4\n        /* \"#utility.yul\":256:263   */\n      dup6\n        /* \"#utility.yul\":252:275   */\n      sub\n        /* \"#utility.yul\":248:280   */\n      slt\n        /* \"#utility.yul\":245:364   */\n      iszero\n      tag_58\n      jumpi\n        /* \"#utility.yul\":283:362   */\n      tag_59\n      tag_60\n      jump\t// in\n    tag_59:\n        /* \"#utility.yul\":245:364   */\n    tag_58:\n        /* \"#utility.yul\":403:404   */\n      0x00\n        /* \"#utility.yul\":428:481   */\n      tag_61\n        /* \"#utility.yul\":473:480   */\n      dup6\n        /* \"#utility.yul\":464:470   */\n      dup3\n        /* \"#utility.yul\":453:462   */\n      dup7\n        /* \"#utility.yul\":449:471   */\n      add\n        /* \"#utility.yul\":428:481   */\n      tag_53\n      jump\t// in\n    tag_61:\n        /* \"#utility.yul\":418:481   */\n      swap3\n      pop\n        /* \"#utility.yul\":374:491   */\n      pop\n        /* \"#utility.yul\":530:532   */\n      0x20\n        /* \"#utility.yul\":556:609   */\n      tag_62\n        /* \"#utility.yul\":601:608   */\n      dup6\n        /* \"#utility.yul\":592:598   */\n      dup3\n        /* \"#utility.yul\":581:590   */\n      dup7\n        /* \"#utility.yul\":577:599   */\n      add\n        /* \"#utility.yul\":556:609   */\n      tag_53\n      jump\t// in\n    tag_62:\n        /* \"#utility.yul\":546:609   */\n      swap2\n      pop\n        /* \"#utility.yul\":501:619   */\n      pop\n        /* \"#utility.yul\":152:626   */\n      swap3\n      pop\n      swap3\n      swap1\n      pop\n      jump\t// out\n        /* \"#utility.yul\":632:750   */\n    tag_63:\n        /* \"#utility.yul\":719:743   */\n      tag_65\n        /* \"#utility.yul\":737:742   */\n      dup2\n        /* \"#utility.yul\":719:743   */\n      tag_66\n      jump\t// in\n    tag_65:\n        /* \"#utility.yul\":714:717   */\n      dup3\n        /* \"#utility.yul\":707:744   */\n      mstore\n        /* \"#utility.yul\":632:750   */\n      pop\n      pop\n      jump\t// out\n        /* \"#utility.yul\":756:1122   */\n    tag_67:\n        /* \"#utility.yul\":898:901   */\n      0x00\n        /* \"#utility.yul\":919:986   */\n      tag_69\n        /* \"#utility.yul\":983:985   */\n      0x22\n        /* \"#utility.yul\":978:981   */\n      dup4\n        /* \"#utility.yul\":919:986   */\n      tag_70\n      jump\t// in\n    tag_69:\n        /* \"#utility.yul\":912:986   */\n      swap2\n      pop\n        /* \"#utility.yul\":995:1088   */\n      tag_71\n        /* \"#utility.yul\":1084:1087   */\n      dup3\n        /* \"#utility.yul\":995:1088   */\n      tag_72\n      jump\t// in\n    tag_71:\n        /* \"#utility.yul\":1113:1115   */\n      0x40\n        /* \"#utility.yul\":1108:1111   */\n      dup3\n        /* \"#utility.yul\":1104:1116   */\n      add\n        /* \"#utility.yul\":1097:1116   */\n      swap1\n      pop\n        /* \"#utility.yul\":756:1122   */\n      swap2\n      swap1\n      pop\n      jump\t// out\n        /* \"#utility.yul\":1128:1246   */\n    tag_73:\n        /* \"#utility.yul\":1215:1239   */\n      tag_75\n        /* \"#utility.yul\":1233:1238   */\n      dup2\n        /* \"#utility.yul\":1215:1239   */\n      tag_76\n      jump\t// in\n    tag_75:\n        /* \"#utility.yul\":1210:1213   */\n      dup3\n        /* \"#utility.yul\":1203:1240   */\n      mstore\n        /* \"#utility.yul\":1128:1246   */\n      pop\n      pop\n      jump\t// out\n        /* \"#utility.yul\":1252:1671   */\n    tag_38:\n        /* \"#utility.yul\":1418:1422   */\n      0x00\n        /* \"#utility.yul\":1456:1458   */\n      0x20\n        /* \"#utility.yul\":1445:1454   */\n      dup3\n        /* \"#utility.yul\":1441:1459   */\n      add\n        /* \"#utility.yul\":1433:1459   */\n      swap1\n      pop\n        /* \"#utility.yul\":1505:1514   */\n      dup2\n        /* \"#utility.yul\":1499:1503   */\n      dup2\n        /* \"#utility.yul\":1495:1515   */\n      sub\n        /* \"#utility.yul\":1491:1492   */\n      0x00\n        /* \"#utility.yul\":1480:1489   */\n      dup4\n        /* \"#utility.yul\":1476:1493   */\n      add\n        /* \"#utility.yul\":1469:1516   */\n      mstore\n        /* \"#utility.yul\":1533:1664   */\n      tag_78\n        /* \"#utility.yul\":1659:1663   */\n      dup2\n        /* \"#utility.yul\":1533:1664   */\n      tag_67\n      jump\t// in\n    tag_78:\n        /* \"#utility.yul\":1525:1664   */\n      swap1\n      pop\n        /* \"#utility.yul\":1252:1671   */\n      swap2\n      swap1\n      pop\n      jump\t// out\n        /* \"#utility.yul\":1677:2230   */\n    tag_24:\n        /* \"#utility.yul\":1854:1858   */\n      0x00\n        /* \"#utility.yul\":1892:1895   */\n      0x80\n        /* \"#utility.yul\":1881:1890   */\n      dup3\n        /* \"#utility.yul\":1877:1896   */\n      add\n        /* \"#utility.yul\":1869:1896   */\n      swap1\n      pop\n        /* \"#utility.yul\":1906:1977   */\n      tag_80\n        /* \"#utility.yul\":1974:1975   */\n      0x00\n        /* \"#utility.yul\":1963:1972   */\n      dup4\n        /* \"#utility.yul\":1959:1976   */\n      add\n        /* \"#utility.yul\":1950:1956   */\n      dup8\n        /* \"#utility.yul\":1906:1977   */\n      tag_73\n      jump\t// in\n    tag_80:\n        /* \"#utility.yul\":1987:2059   */\n      tag_81\n        /* \"#utility.yul\":2055:2057   */\n      0x20\n        /* \"#utility.yul\":2044:2053   */\n      dup4\n        /* \"#utility.yul\":2040:2058   */\n      add\n        /* \"#utility.yul\":2031:2037   */\n      dup7\n        /* \"#utility.yul\":1987:2059   */\n      tag_63\n      jump\t// in\n    tag_81:\n        /* \"#utility.yul\":2069:2141   */\n      tag_82\n        /* \"#utility.yul\":2137:2139   */\n      0x40\n        /* \"#utility.yul\":2126:2135   */\n      dup4\n        /* \"#utility.yul\":2122:2140   */\n      add\n        /* \"#utility.yul\":2113:2119   */\n      dup6\n        /* \"#utility.yul\":2069:2141   */\n      tag_73\n      jump\t// in\n    tag_82:\n        /* \"#utility.yul\":2151:2223   */\n      tag_83\n        /* \"#utility.yul\":2219:2221   */\n      0x60\n        /* \"#utility.yul\":2208:2217   */\n      dup4\n        /* \"#utility.yul\":2204:2222   */\n      add\n        /* \"#utility.yul\":2195:2201   */\n      dup5\n        /* \"#utility.yul\":2151:2223   */\n      tag_73\n      jump\t// in\n    tag_83:\n        /* \"#utility.yul\":1677:2230   */\n      swap6\n      swap5\n      pop\n      pop\n      pop\n      pop\n      pop\n      jump\t// out\n        /* \"#utility.yul\":2317:2486   */\n    tag_70:\n        /* \"#utility.yul\":2401:2412   */\n      0x00\n        /* \"#utility.yul\":2435:2441   */\n      dup3\n        /* \"#utility.yul\":2430:2433   */\n      dup3\n        /* \"#utility.yul\":2423:2442   */\n      mstore\n        /* \"#utility.yul\":2475:2479   */\n      0x20\n        /* \"#utility.yul\":2470:2473   */\n      dup3\n        /* \"#utility.yul\":2466:2480   */\n      add\n        /* \"#utility.yul\":2451:2480   */\n      swap1\n      pop\n        /* \"#utility.yul\":2317:2486   */\n      swap3\n      swap2\n      pop\n      pop\n      jump\t// out\n        /* \"#utility.yul\":2492:2588   */\n    tag_66:\n        /* \"#utility.yul\":2529:2536   */\n      0x00\n        /* \"#utility.yul\":2558:2582   */\n      tag_88\n        /* \"#utility.yul\":2576:2581   */\n      dup3\n        /* \"#utility.yul\":2558:2582   */\n      tag_89\n      jump\t// in\n    tag_88:\n        /* \"#utility.yul\":2547:2582   */\n      swap1\n      pop\n        /* \"#utility.yul\":2492:2588   */\n      swap2\n      swap1\n      pop\n      jump\t// out\n        /* \"#utility.yul\":2594:2720   */\n    tag_89:\n        /* \"#utility.yul\":2631:2638   */\n      0x00\n        /* \"#utility.yul\":2671:2713   */\n      0xffffffffffffffffffffffffffffffffffffffff\n        /* \"#utility.yul\":2664:2669   */\n      dup3\n        /* \"#utility.yul\":2660:2714   */\n      and\n        /* \"#utility.yul\":2649:2714   */\n      swap1\n      pop\n        /* \"#utility.yul\":2594:2720   */\n      swap2\n      swap1\n      pop\n      jump\t// out\n        /* \"#utility.yul\":2726:2803   */\n    tag_76:\n        /* \"#utility.yul\":2763:2770   */\n      0x00\n        /* \"#utility.yul\":2792:2797   */\n      dup2\n        /* \"#utility.yul\":2781:2797   */\n      swap1\n      pop\n        /* \"#utility.yul\":2726:2803   */\n      swap2\n      swap1\n      pop\n      jump\t// out\n        /* \"#utility.yul\":2809:3042   */\n    tag_26:\n        /* \"#utility.yul\":2848:2851   */\n      0x00\n        /* \"#utility.yul\":2871:2895   */\n      tag_93\n        /* \"#utility.yul\":2889:2894   */\n      dup3\n        /* \"#utility.yul\":2871:2895   */\n      tag_76\n      jump\t// in\n    tag_93:\n        /* \"#utility.yul\":2862:2895   */\n      swap2\n      pop\n        /* \"#utility.yul\":2917:2983   */\n      0xffffffffffffffffffffffffffffffffffffffffffffffffffffffffffffffff\n        /* \"#utility.yul\":2910:2915   */\n      dup3\n        /* \"#utility.yul\":2907:2984   */\n      eq\n        /* \"#utility.yul\":2904:3007   */\n      iszero\n      tag_94\n      jumpi\n        /* \"#utility.yul\":2987:3005   */\n      tag_95\n      tag_96\n      jump\t// in\n    tag_95:\n        /* \"#utility.yul\":2904:3007   */\n    tag_94:\n        /* \"#utility.yul\":3034:3035   */\n      0x01\n        /* \"#utility.yul\":3027:3032   */\n      dup3\n        /* \"#utility.yul\":3023:3036   */\n      add\n        /* \"#utility.yul\":3016:3036   */\n      swap1\n      pop\n        /* \"#utility.yul\":2809:3042   */\n      swap2\n      swap1\n      pop\n      jump\t// out\n        /* \"#utility.yul\":3048:3228   */\n    tag_96:\n        /* \"#utility.yul\":3096:3173   */\n      0x4e487b7100000000000000000000000000000000000000000000000000000000\n        /* \"#utility.yul\":3093:3094   */\n      0x00\n        /* \"#utility.yul\":3086:3174   */\n      mstore\n        /* \"#utility.yul\":3193:3197   */\n      0x11\n        /* \"#utility.yul\":3190:3191   */\n      0x04\n        /* \"#utility.yul\":3183:3198   */\n      mstore\n        /* \"#utility.yul\":3217:3221   */\n      0x24\n        /* \"#utility.yul\":3214:3215   */\n      0x00\n        /* \"#utility.yul\":3207:3222   */\n      revert\n        /* \"#utility.yul\":3357:3474   */\n    tag_60:\n        /* \"#utility.yul\":3466:3467   */\n      0x00\n        /* \"#utility.yul\":3463:3464   */\n      dup1\n        /* \"#utility.yul\":3456:3468   */\n      revert\n        /* \"#utility.yul\":3480:3701   */\n    tag_72:\n        /* \"#utility.yul\":3620:3654   */\n      0x616d6f756e742068617320746f2062652067726561746572207468616e207a65\n        /* \"#utility.yul\":3616:3617   */\n      0x00\n        /* \"#utility.yul\":3608:3614   */\n      dup3\n        /* \"#utility.yul\":3604:3618   */\n      add\n        /* \"#utility.yul\":3597:3655   */\n      mstore\n        /* \"#utility.yul\":3689:3693   */\n      0x726f000000000000000000000000000000000000000000000000000000000000\n        /* \"#utility.yul\":3684:3686   */\n      0x20\n        /* \"#utility.yul\":3676:3682   */\n      dup3\n        /* \"#utility.yul\":3672:3687   */\n      add\n        /* \"#utility.yul\":3665:3694   */\n      mstore\n        /* \"#utility.yul\":3480:3701   */\n      pop\n      jump\t// out\n        /* \"#utility.yul\":3707:3829   */\n    tag_56:\n        /* \"#utility.yul\":3780:3804   */\n      tag_103\n        /* \"#utility.yul\":3798:3803   */\n      dup2\n        /* \"#utility.yul\":3780:3804   */\n      tag_76\n      jump\t// in\n    tag_103:\n        /* \"#utility.yul\":3773:3778   */\n      dup2\n        /* \"#utility.yul\":3770:3805   */\n      eq\n        /* \"#utility.yul\":3760:3823   */\n      tag_104\n      jumpi\n        /* \"#utility.yul\":3819:3820   */\n      0x00\n        /* \"#utility.yul\":3816:3817   */\n      dup1\n        /* \"#utility.yul\":3809:3821   */\n      revert\n        /* \"#utility.yul\":3760:3823   */\n    tag_104:\n        /* \"#utility.yul\":3707:3829   */\n      pop\n      jump\t// out\n\n    auxdata: 0xa26469706673582212206f8f684e416cf289eeca494cf9f66c754ff0e2a0f6ff478dc497da77ae17c8f764736f6c63430008070033\n}\n",
				"bytecode": {
					"linkReferences": {},
					"object": "608060405234801561001057600080fd5b50610512806100206000396000f3fe608060405234801561001057600080fd5b506004361061004c5760003560e01c8063022d18c4146100515780630fc34d5d1461006d578063c50be46914610089578063c8846751146100a5575b600080fd5b61006b600480360381019061006691906102c6565b6100c1565b005b610087600480360381019061008291906102c6565b61012d565b005b6100a3600480360381019061009e91906102c6565b61019b565b005b6100bf60048036038101906100ba91906102c6565b610251565b005b6000805b81610127577f7f01e027002983a61fc732573dbcd5ca1d39361dc45033701f7ed61cee22e61e423386846040516100ff9493929190610367565b60405180910390a18080610112906103f9565b9150508281141561012257600191505b6100c5565b50505050565b60005b8181101561019657600581111561014657610196565b7f7f01e027002983a61fc732573dbcd5ca1d39361dc45033701f7ed61cee22e61e4233858460405161017b9493929190610367565b60405180910390a1808061018e906103f9565b915050610130565b505050565b600081116101de576040517f08c379a00000000000000000000000000000000000000000000000000000000081526004016101d590610347565b60405180910390fd5b6000805b7f7f01e027002983a61fc732573dbcd5ca1d39361dc45033701f7ed61cee22e61e423386846040516102179493929190610367565b60405180910390a1808061022a906103f9565b915050600083148061023b57508281145b1561024557600191505b81156101e25750505050565b60005b818110156102ac577f7f01e027002983a61fc732573dbcd5ca1d39361dc45033701f7ed61cee22e61e423385846040516102919493929190610367565b60405180910390a180806102a4906103f9565b915050610254565b505050565b6000813590506102c0816104c5565b92915050565b600080604083850312156102dd576102dc610471565b5b60006102eb858286016102b1565b92505060206102fc858286016102b1565b9150509250929050565b61030f816103bd565b82525050565b60006103226022836103ac565b915061032d82610476565b604082019050919050565b610341816103ef565b82525050565b6000602082019050818103600083015261036081610315565b9050919050565b600060808201905061037c6000830187610338565b6103896020830186610306565b6103966040830185610338565b6103a36060830184610338565b95945050505050565b600082825260208201905092915050565b60006103c8826103cf565b9050919050565b600073ffffffffffffffffffffffffffffffffffffffff82169050919050565b6000819050919050565b6000610404826103ef565b91507fffffffffffffffffffffffffffffffffffffffffffffffffffffffffffffffff82141561043757610436610442565b5b600182019050919050565b7f4e487b7100000000000000000000000000000000000000000000000000000000600052601160045260246000fd5b600080fd5b7f616d6f756e742068617320746f2062652067726561746572207468616e207a6560008201527f726f000000000000000000000000000000000000000000000000000000000000602082015250565b6104ce816103ef565b81146104d957600080fd5b5056fea26469706673582212206f8f684e416cf289eeca494cf9f66c754ff0e2a0f6ff478dc497da77ae17c8f764736f6c63430008070033",
					"opcodes": "PUSH1 0x80 PUSH1 0x40 MSTORE CALLVALUE DUP1 ISZERO PUSH2 0x10 JUMPI PUSH1 0x0 DUP1 REVERT JUMPDEST POP PUSH2 0x512 DUP1 PUSH2 0x20 PUSH1 0x0 CODECOPY PUSH1 0x0 RETURN INVALID PUSH1 0x80 PUSH1 0x40 MSTORE CALLVALUE DUP1 ISZERO PUSH2 0x10 JUMPI PUSH1 0x0 DUP1 REVERT JUMPDEST POP PUSH1 0x4 CALLDATASIZE LT PUSH2 0x4C JUMPI PUSH1 0x0 CALLDATALOAD PUSH1 0xE0 SHR DUP1 PUSH4 0x22D18C4 EQ PUSH2 0x51 JUMPI DUP1 PUSH4 0xFC34D5D EQ PUSH2 0x6D JUMPI DUP1 PUSH4 0xC50BE469 EQ PUSH2 0x89 JUMPI DUP1 PUSH4 0xC8846751 EQ PUSH2 0xA5 JUMPI JUMPDEST PUSH1 0x0 DUP1 REVERT JUMPDEST PUSH2 0x6B PUSH1 0x4 DUP1 CALLDATASIZE SUB DUP2 ADD SWAP1 PUSH2 0x66 SWAP2 SWAP1 PUSH2 0x2C6 JUMP JUMPDEST PUSH2 0xC1 JUMP JUMPDEST STOP JUMPDEST PUSH2 0x87 PUSH1 0x4 DUP1 CALLDATASIZE SUB DUP2 ADD SWAP1 PUSH2 0x82 SWAP2 SWAP1 PUSH2 0x2C6 JUMP JUMPDEST PUSH2 0x12D JUMP JUMPDEST STOP JUMPDEST PUSH2 0xA3 PUSH1 0x4 DUP1 CALLDATASIZE SUB DUP2 ADD SWAP1 PUSH2 0x9E SWAP2 SWAP1 PUSH2 0x2C6 JUMP JUMPDEST PUSH2 0x19B JUMP JUMPDEST STOP JUMPDEST PUSH2 0xBF PUSH1 0x4 DUP1 CALLDATASIZE SUB DUP2 ADD SWAP1 PUSH2 0xBA SWAP2 SWAP1 PUSH2 0x2C6 JUMP JUMPDEST PUSH2 0x251 JUMP JUMPDEST STOP JUMPDEST PUSH1 0x0 DUP1 JUMPDEST DUP2 PUSH2 0x127 JUMPI PUSH32 0x7F01E027002983A61FC732573DBCD5CA1D39361DC45033701F7ED61CEE22E61E TIMESTAMP CALLER DUP7 DUP5 PUSH1 0x40 MLOAD PUSH2 0xFF SWAP5 SWAP4 SWAP3 SWAP2 SWAP1 PUSH2 0x367 JUMP JUMPDEST PUSH1 0x40 MLOAD DUP1 SWAP2 SUB SWAP1 LOG1 DUP1 DUP1 PUSH2 0x112 SWAP1 PUSH2 0x3F9 JUMP JUMPDEST SWAP2 POP POP DUP3 DUP2 EQ ISZERO PUSH2 0x122 JUMPI PUSH1 0x1 SWAP2 POP JUMPDEST PUSH2 0xC5 JUMP JUMPDEST POP POP POP POP JUMP JUMPDEST PUSH1 0x0 JUMPDEST DUP2 DUP2 LT ISZERO PUSH2 0x196 JUMPI PUSH1 0x5 DUP2 GT ISZERO PUSH2 0x146 JUMPI PUSH2 0x196 JUMP JUMPDEST PUSH32 0x7F01E027002983A61FC732573DBCD5CA1D39361DC45033701F7ED61CEE22E61E TIMESTAMP CALLER DUP6 DUP5 PUSH1 0x40 MLOAD PUSH2 0x17B SWAP5 SWAP4 SWAP3 SWAP2 SWAP1 PUSH2 0x367 JUMP JUMPDEST PUSH1 0x40 MLOAD DUP1 SWAP2 SUB SWAP1 LOG1 DUP1 DUP1 PUSH2 0x18E SWAP1 PUSH2 0x3F9 JUMP JUMPDEST SWAP2 POP POP PUSH2 0x130 JUMP JUMPDEST POP POP POP JUMP JUMPDEST PUSH1 0x0 DUP2 GT PUSH2 0x1DE JUMPI PUSH1 0x40 MLOAD PUSH32 0x8C379A000000000000000000000000000000000000000000000000000000000 DUP2 MSTORE PUSH1 0x4 ADD PUSH2 0x1D5 SWAP1 PUSH2 0x347 JUMP JUMPDEST PUSH1 0x40 MLOAD DUP1 SWAP2 SUB SWAP1 REVERT JUMPDEST PUSH1 0x0 DUP1 JUMPDEST PUSH32 0x7F01E027002983A61FC732573DBCD5CA1D39361DC45033701F7ED61CEE22E61E TIMESTAMP CALLER DUP7 DUP5 PUSH1 0x40 MLOAD PUSH2 0x217 SWAP5 SWAP4 SWAP3 SWAP2 SWAP1 PUSH2 0x367 JUMP JUMPDEST PUSH1 0x40 MLOAD DUP1 SWAP2 SUB SWAP1 LOG1 DUP1 DUP1 PUSH2 0x22A SWAP1 PUSH2 0x3F9 JUMP JUMPDEST SWAP2 POP POP PUSH1 0x0 DUP4 EQ DUP1 PUSH2 0x23B JUMPI POP DUP3 DUP2 EQ JUMPDEST ISZERO PUSH2 0x245 JUMPI PUSH1 0x1 SWAP2 POP JUMPDEST DUP2 ISZERO PUSH2 0x1E2 JUMPI POP POP POP POP JUMP JUMPDEST PUSH1 0x0 JUMPDEST DUP2 DUP2 LT ISZERO PUSH2 0x2AC JUMPI PUSH32 0x7F01E027002983A61FC732573DBCD5CA1D39361DC45033701F7ED61CEE22E61E TIMESTAMP CALLER DUP6 DUP5 PUSH1 0x40 MLOAD PUSH2 0x291 SWAP5 SWAP4 SWAP3 SWAP2 SWAP1 PUSH2 0x367 JUMP JUMPDEST PUSH1 0x40 MLOAD DUP1 SWAP2 SUB SWAP1 LOG1 DUP1 DUP1 PUSH2 0x2A4 SWAP1 PUSH2 0x3F9 JUMP JUMPDEST SWAP2 POP POP PUSH2 0x254 JUMP JUMPDEST POP POP POP JUMP JUMPDEST PUSH1 0x0 DUP2 CALLDATALOAD SWAP1 POP PUSH2 0x2C0 DUP2 PUSH2 0x4C5 JUMP JUMPDEST SWAP3 SWAP2 POP POP JUMP JUMPDEST PUSH1 0x0 DUP1 PUSH1 0x40 DUP4 DUP6 SUB SLT ISZERO PUSH2 0x2DD JUMPI PUSH2 0x2DC PUSH2 0x471 JUMP JUMPDEST JUMPDEST PUSH1 0x0 PUSH2 0x2EB DUP6 DUP3 DUP7 ADD PUSH2 0x2B1 JUMP JUMPDEST SWAP3 POP POP PUSH1 0x20 PUSH2 0x2FC DUP6 DUP3 DUP7 ADD PUSH2 0x2B1 JUMP JUMPDEST SWAP2 POP POP SWAP3 POP SWAP3 SWAP1 POP JUMP JUMPDEST PUSH2 0x30F DUP2 PUSH2 0x3BD JUMP JUMPDEST DUP3 MSTORE POP POP JUMP JUMPDEST PUSH1 0x0 PUSH2 0x322 PUSH1 0x22 DUP4 PUSH2 0x3AC JUMP JUMPDEST SWAP2 POP PUSH2 0x32D DUP3 PUSH2 0x476 JUMP JUMPDEST PUSH1 0x40 DUP3 ADD SWAP1 POP SWAP2 SWAP1 POP JUMP JUMPDEST PUSH2 0x341 DUP2 PUSH2 0x3EF JUMP JUMPDEST DUP3 MSTORE POP POP JUMP JUMPDEST PUSH1 0x0 PUSH1 0x20 DUP3 ADD SWAP1 POP DUP2 DUP2 SUB PUSH1 0x0 DUP4 ADD MSTORE PUSH2 0x360 DUP2 PUSH2 0x315 JUMP JUMPDEST SWAP1 POP SWAP2 SWAP1 POP JUMP JUMPDEST PUSH1 0x0 PUSH1 0x80 DUP3 ADD SWAP1 POP PUSH2 0x37C PUSH1 0x0 DUP4 ADD DUP8 PUSH2 0x338 JUMP JUMPDEST PUSH2 0x389 PUSH1 0x20 DUP4 ADD DUP7 PUSH2 0x306 JUMP JUMPDEST PUSH2 0x396 PUSH1 0x40 DUP4 ADD DUP6 PUSH2 0x338 JUMP JUMPDEST PUSH2 0x3A3 PUSH1 0x60 DUP4 ADD DUP5 PUSH2 0x338 JUMP JUMPDEST SWAP6 SWAP5 POP POP POP POP POP JUMP JUMPDEST PUSH1 0x0 DUP3 DUP3 MSTORE PUSH1 0x20 DUP3 ADD SWAP1 POP SWAP3 SWAP2 POP POP JUMP JUMPDEST PUSH1 0x0 PUSH2 0x3C8 DUP3 PUSH2 0x3CF JUMP JUMPDEST SWAP1 POP SWAP2 SWAP1 POP JUMP JUMPDEST PUSH1 0x0 PUSH20 0xFFFFFFFFFFFFFFFFFFFFFFFFFFFFFFFFFFFFFFFF DUP3 AND SWAP1 POP SWAP2 SWAP1 POP JUMP JUMPDEST PUSH1 0x0 DUP2 SWAP1 POP SWAP2 SWAP1 POP JUMP JUMPDEST PUSH1 0x0 PUSH2 0x404 DUP3 PUSH2 0x3EF JUMP JUMPDEST SWAP2 POP PUSH32 0xFFFFFFFFFFFFFFFFFFFFFFFFFFFFFFFFFFFFFFFFFFFFFFFFFFFFFFFFFFFFFFFF DUP3 EQ ISZERO PUSH2 0x437 JUMPI PUSH2 0x436 PUSH2 0x442 JUMP JUMPDEST JUMPDEST PUSH1 0x1 DUP3 ADD SWAP1 POP SWAP2 SWAP1 POP JUMP JUMPDEST PUSH32 0x4E487B7100000000000000000000000000000000000000000000000000000000 PUSH1 0x0 MSTORE PUSH1 0x11 PUSH1 0x4 MSTORE PUSH1 0x24 PUSH1 0x0 REVERT JUMPDEST PUSH1 0x0 DUP1 REVERT JUMPDEST PUSH32 0x616D6F756E742068617320746F2062652067726561746572207468616E207A65 PUSH1 0x0 DUP3 ADD MSTORE PUSH32 0x726F000000000000000000000000000000000000000000000000000000000000 PUSH1 0x20 DUP3 ADD MSTORE POP JUMP JUMPDEST PUSH2 0x4CE DUP2 PUSH2 0x3EF JUMP JUMPDEST DUP2 EQ PUSH2 0x4D9 JUMPI PUSH1 0x0 DUP1 REVERT JUMPDEST POP JUMP INVALID LOG2 PUSH5 0x6970667358 0x22 SLT KECCAK256 PUSH16 0x8F684E416CF289EECA494CF9F66C754F CREATE 0xE2 LOG0 0xF6 SELFDESTRUCT SELFBALANCE DUP14 0xC4 SWAP8 0xDA PUSH24 0xAE17C8F764736F6C63430008070033000000000000000000 "
				},
				"gasEstimates": {
					"creation": {
						"codeDepositCost": "259600",
						"executionCost": "300",
						"totalCost": "259900"
					},
					"external": {
						"doWhileLoopNumbers(uint256,uint256)": "infinite",
						"showNumbers(uint256,uint256)": "infinite",
						"showNumbersWithBreak(uint256,uint256)": "infinite",
						"whileLoopNumbers(uint256,uint256)": "infinite"
					}
				},
				"methodIdentifiers": {
					"doWhileLoopNumbers(uint256,uint256)": "c50be469",
					"showNumbers(uint256,uint256)": "c8846751",
					"showNumbersWithBreak(uint256,uint256)": "0fc34d5d",
					"whileLoopNumbers(uint256,uint256)": "022d18c4"
				}
			},
			"storageLayout": {
				"storage": [],
				"types": null
			},
			"userdoc": {
				"kind": "user",
				"methods": {},
				"version": 1
			}
		}
	}
}