{
	"contracts/visibility.sol": {
		"B": {
			"abi": [
				{
					"inputs": [],
					"name": "f2",
					"outputs": [
						{
							"internalType": "uint256",
							"name": "",
							"type": "uint256"
						}
					],
					"stateMutability": "view",
					"type": "function"
				},
				{
					"inputs": [],
					"name": "get_y",
					"outputs": [
						{
							"internalType": "uint256",
							"name": "",
							"type": "uint256"
						}
					],
					"stateMutability": "view",
					"type": "function"
				},
				{
					"inputs": [],
					"name": "x",
					"outputs": [
						{
							"internalType": "uint256",
							"name": "",
							"type": "uint256"
						}
					],
					"stateMutability": "view",
					"type": "function"
				}
			],
			"devdoc": {
				"kind": "dev",
				"methods": {},
				"version": 1
			},
			"evm": {
				"assembly": "    /* \"contracts/visibility.sol\":466:506  contract B is A{\r... */\n  mstore(0x40, 0x80)\n    /* \"contracts/visibility.sol\":108:110  25 */\n  0x19\n    /* \"contracts/visibility.sol\":92:110  uint public x = 25 */\n  0x00\n  sstore\n    /* \"contracts/visibility.sol\":126:128  12 */\n  0x0c\n    /* \"contracts/visibility.sol\":117:128  uint y = 12 */\n  0x01\n  sstore\n    /* \"contracts/visibility.sol\":498:502  f3() */\n  tag_1\n    /* \"contracts/visibility.sol\":498:500  f3 */\n  shl(0x20, tag_2)\n    /* \"contracts/visibility.sol\":498:502  f3() */\n  0x20\n  shr\n  jump\t// in\ntag_1:\n    /* \"contracts/visibility.sol\":488:502  uint xi = f3() */\n  0x02\n  sstore\n    /* \"contracts/visibility.sol\":466:506  contract B is A{\r... */\n  callvalue\n  dup1\n  iszero\n  tag_3\n  jumpi\n  0x00\n  dup1\n  revert\ntag_3:\n  pop\n  jump(tag_4)\n    /* \"contracts/visibility.sol\":387:455  function f3() internal view returns(uint){\r... */\ntag_2:\n    /* \"contracts/visibility.sol\":423:427  uint */\n  0x00\n    /* \"contracts/visibility.sol\":446:447  x */\n  dup1\n  sload\n    /* \"contracts/visibility.sol\":439:447  return x */\n  swap1\n  pop\n    /* \"contracts/visibility.sol\":387:455  function f3() internal view returns(uint){\r... */\n  swap1\n  jump\t// out\n    /* \"contracts/visibility.sol\":466:506  contract B is A{\r... */\ntag_4:\n  dataSize(sub_0)\n  dup1\n  dataOffset(sub_0)\n  0x00\n  codecopy\n  0x00\n  return\nstop\n\nsub_0: assembly {\n        /* \"contracts/visibility.sol\":466:506  contract B is A{\r... */\n      mstore(0x40, 0x80)\n      callvalue\n      dup1\n      iszero\n      tag_1\n      jumpi\n      0x00\n      dup1\n      revert\n    tag_1:\n      pop\n      jumpi(tag_2, lt(calldatasize, 0x04))\n      shr(0xe0, calldataload(0x00))\n      dup1\n      0x0c55699c\n      eq\n      tag_3\n      jumpi\n      dup1\n      0x28d69c6d\n      eq\n      tag_4\n      jumpi\n      dup1\n      0x9942ec6f\n      eq\n      tag_5\n      jumpi\n    tag_2:\n      0x00\n      dup1\n      revert\n        /* \"contracts/visibility.sol\":92:110  uint public x = 25 */\n    tag_3:\n      tag_6\n      tag_7\n      jump\t// in\n    tag_6:\n      mload(0x40)\n      tag_8\n      swap2\n      swap1\n      tag_9\n      jump\t// in\n    tag_8:\n      mload(0x40)\n      dup1\n      swap2\n      sub\n      swap1\n      return\n        /* \"contracts/visibility.sol\":137:206  function get_y() public view returns(uint){\r... */\n    tag_4:\n      tag_10\n      tag_11\n      jump\t// in\n    tag_10:\n      mload(0x40)\n      tag_12\n      swap2\n      swap1\n      tag_9\n      jump\t// in\n    tag_12:\n      mload(0x40)\n      dup1\n      swap2\n      sub\n      swap1\n      return\n        /* \"contracts/visibility.sol\":289:379  function f2() public view returns(uint){\r... */\n    tag_5:\n      tag_13\n      tag_14\n      jump\t// in\n    tag_13:\n      mload(0x40)\n      tag_15\n      swap2\n      swap1\n      tag_9\n      jump\t// in\n    tag_15:\n      mload(0x40)\n      dup1\n      swap2\n      sub\n      swap1\n      return\n        /* \"contracts/visibility.sol\":92:110  uint public x = 25 */\n    tag_7:\n      sload(0x00)\n      dup2\n      jump\t// out\n        /* \"contracts/visibility.sol\":137:206  function get_y() public view returns(uint){\r... */\n    tag_11:\n        /* \"contracts/visibility.sol\":174:178  uint */\n      0x00\n        /* \"contracts/visibility.sol\":197:198  y */\n      sload(0x01)\n        /* \"contracts/visibility.sol\":190:198  return y */\n      swap1\n      pop\n        /* \"contracts/visibility.sol\":137:206  function get_y() public view returns(uint){\r... */\n      swap1\n      jump\t// out\n        /* \"contracts/visibility.sol\":289:379  function f2() public view returns(uint){\r... */\n    tag_14:\n        /* \"contracts/visibility.sol\":323:327  uint */\n      0x00\n        /* \"contracts/visibility.sol\":339:345  uint a */\n      dup1\n        /* \"contracts/visibility.sol\":348:352  f1() */\n      tag_18\n        /* \"contracts/visibility.sol\":348:350  f1 */\n      tag_19\n        /* \"contracts/visibility.sol\":348:352  f1() */\n      jump\t// in\n    tag_18:\n        /* \"contracts/visibility.sol\":339:352  uint a = f1() */\n      swap1\n      pop\n        /* \"contracts/visibility.sol\":370:371  a */\n      dup1\n        /* \"contracts/visibility.sol\":363:371  return a */\n      swap2\n      pop\n      pop\n        /* \"contracts/visibility.sol\":289:379  function f2() public view returns(uint){\r... */\n      swap1\n      jump\t// out\n        /* \"contracts/visibility.sol\":214:281  function f1() private view returns(uint){\r... */\n    tag_19:\n        /* \"contracts/visibility.sol\":249:253  uint */\n      0x00\n        /* \"contracts/visibility.sol\":272:273  x */\n      dup1\n      sload\n        /* \"contracts/visibility.sol\":265:273  return x */\n      swap1\n      pop\n        /* \"contracts/visibility.sol\":214:281  function f1() private view returns(uint){\r... */\n      swap1\n      jump\t// out\n        /* \"#utility.yul\":7:125   */\n    tag_22:\n        /* \"#utility.yul\":94:118   */\n      tag_24\n        /* \"#utility.yul\":112:117   */\n      dup2\n        /* \"#utility.yul\":94:118   */\n      tag_25\n      jump\t// in\n    tag_24:\n        /* \"#utility.yul\":89:92   */\n      dup3\n        /* \"#utility.yul\":82:119   */\n      mstore\n        /* \"#utility.yul\":7:125   */\n      pop\n      pop\n      jump\t// out\n        /* \"#utility.yul\":131:353   */\n    tag_9:\n        /* \"#utility.yul\":224:228   */\n      0x00\n        /* \"#utility.yul\":262:264   */\n      0x20\n        /* \"#utility.yul\":251:260   */\n      dup3\n        /* \"#utility.yul\":247:265   */\n      add\n        /* \"#utility.yul\":239:265   */\n      swap1\n      pop\n        /* \"#utility.yul\":275:346   */\n      tag_27\n        /* \"#utility.yul\":343:344   */\n      0x00\n        /* \"#utility.yul\":332:341   */\n      dup4\n        /* \"#utility.yul\":328:345   */\n      add\n        /* \"#utility.yul\":319:325   */\n      dup5\n        /* \"#utility.yul\":275:346   */\n      tag_22\n      jump\t// in\n    tag_27:\n        /* \"#utility.yul\":131:353   */\n      swap3\n      swap2\n      pop\n      pop\n      jump\t// out\n        /* \"#utility.yul\":359:436   */\n    tag_25:\n        /* \"#utility.yul\":396:403   */\n      0x00\n        /* \"#utility.yul\":425:430   */\n      dup2\n        /* \"#utility.yul\":414:430   */\n      swap1\n      pop\n        /* \"#utility.yul\":359:436   */\n      swap2\n      swap1\n      pop\n      jump\t// out\n\n    auxdata: 0xa264697066735822122090c21365f5fe3b07f2b8f287026b6ef6f291ddc0f5de024121f62c28a0edb3e464736f6c63430008070033\n}\n",
				"bytecode": {
					"linkReferences": {},
					"object": "60806040526019600055600c60015561001c61003160201b60201c565b60025534801561002b57600080fd5b5061003a565b60008054905090565b610120806100496000396000f3fe6080604052348015600f57600080fd5b5060043610603c5760003560e01c80630c55699c14604157806328d69c6d14605b5780639942ec6f146075575b600080fd5b6047608f565b6040516052919060c7565b60405180910390f35b60616095565b604051606c919060c7565b60405180910390f35b607b609f565b6040516086919060c7565b60405180910390f35b60005481565b6000600154905090565b60008060a860b1565b90508091505090565b60008054905090565b60c18160e0565b82525050565b600060208201905060da600083018460ba565b92915050565b600081905091905056fea264697066735822122090c21365f5fe3b07f2b8f287026b6ef6f291ddc0f5de024121f62c28a0edb3e464736f6c63430008070033",
					"opcodes": "PUSH1 0x80 PUSH1 0x40 MSTORE PUSH1 0x19 PUSH1 0x0 SSTORE PUSH1 0xC PUSH1 0x1 SSTORE PUSH2 0x1C PUSH2 0x31 PUSH1 0x20 SHL PUSH1 0x20 SHR JUMP JUMPDEST PUSH1 0x2 SSTORE CALLVALUE DUP1 ISZERO PUSH2 0x2B JUMPI PUSH1 0x0 DUP1 REVERT JUMPDEST POP PUSH2 0x3A JUMP JUMPDEST PUSH1 0x0 DUP1 SLOAD SWAP1 POP SWAP1 JUMP JUMPDEST PUSH2 0x120 DUP1 PUSH2 0x49 PUSH1 0x0 CODECOPY PUSH1 0x0 RETURN INVALID PUSH1 0x80 PUSH1 0x40 MSTORE CALLVALUE DUP1 ISZERO PUSH1 0xF JUMPI PUSH1 0x0 DUP1 REVERT JUMPDEST POP PUSH1 0x4 CALLDATASIZE LT PUSH1 0x3C JUMPI PUSH1 0x0 CALLDATALOAD PUSH1 0xE0 SHR DUP1 PUSH4 0xC55699C EQ PUSH1 0x41 JUMPI DUP1 PUSH4 0x28D69C6D EQ PUSH1 0x5B JUMPI DUP1 PUSH4 0x9942EC6F EQ PUSH1 0x75 JUMPI JUMPDEST PUSH1 0x0 DUP1 REVERT JUMPDEST PUSH1 0x47 PUSH1 0x8F JUMP JUMPDEST PUSH1 0x40 MLOAD PUSH1 0x52 SWAP2 SWAP1 PUSH1 0xC7 JUMP JUMPDEST PUSH1 0x40 MLOAD DUP1 SWAP2 SUB SWAP1 RETURN JUMPDEST PUSH1 0x61 PUSH1 0x95 JUMP JUMPDEST PUSH1 0x40 MLOAD PUSH1 0x6C SWAP2 SWAP1 PUSH1 0xC7 JUMP JUMPDEST PUSH1 0x40 MLOAD DUP1 SWAP2 SUB SWAP1 RETURN JUMPDEST PUSH1 0x7B PUSH1 0x9F JUMP JUMPDEST PUSH1 0x40 MLOAD PUSH1 0x86 SWAP2 SWAP1 PUSH1 0xC7 JUMP JUMPDEST PUSH1 0x40 MLOAD DUP1 SWAP2 SUB SWAP1 RETURN JUMPDEST PUSH1 0x0 SLOAD DUP2 JUMP JUMPDEST PUSH1 0x0 PUSH1 0x1 SLOAD SWAP1 POP SWAP1 JUMP JUMPDEST PUSH1 0x0 DUP1 PUSH1 0xA8 PUSH1 0xB1 JUMP JUMPDEST SWAP1 POP DUP1 SWAP2 POP POP SWAP1 JUMP JUMPDEST PUSH1 0x0 DUP1 SLOAD SWAP1 POP SWAP1 JUMP JUMPDEST PUSH1 0xC1 DUP2 PUSH1 0xE0 JUMP JUMPDEST DUP3 MSTORE POP POP JUMP JUMPDEST PUSH1 0x0 PUSH1 0x20 DUP3 ADD SWAP1 POP PUSH1 0xDA PUSH1 0x0 DUP4 ADD DUP5 PUSH1 0xBA JUMP JUMPDEST SWAP3 SWAP2 POP POP JUMP JUMPDEST PUSH1 0x0 DUP2 SWAP1 POP SWAP2 SWAP1 POP JUMP INVALID LOG2 PUSH5 0x6970667358 0x22 SLT KECCAK256 SWAP1 0xC2 SGT PUSH6 0xF5FE3B07F2B8 CALLCODE DUP8 MUL PUSH12 0x6EF6F291DDC0F5DE024121F6 0x2C 0x28 LOG0 0xED 0xB3 0xE4 PUSH5 0x736F6C6343 STOP ADDMOD SMOD STOP CALLER "
				},
				"gasEstimates": {
					"creation": {
						"codeDepositCost": "57600",
						"executionCost": "infinite",
						"totalCost": "infinite"
					},
					"external": {
						"f2()": "2507",
						"get_y()": "2437",
						"x()": "2407"
					}
				},
				"methodIdentifiers": {
					"f2()": "9942ec6f",
					"get_y()": "28d69c6d",
					"x()": "0c55699c"
				}
			},
			"storageLayout": {
				"storage": [
					{
						"astId": 4,
						"contract": "contracts/visibility.sol:B",
						"label": "x",
						"offset": 0,
						"slot": "0",
						"type": "t_uint256"
					},
					{
						"astId": 7,
						"contract": "contracts/visibility.sol:B",
						"label": "y",
						"offset": 0,
						"slot": "1",
						"type": "t_uint256"
					},
					{
						"astId": 51,
						"contract": "contracts/visibility.sol:B",
						"label": "xi",
						"offset": 0,
						"slot": "2",
						"type": "t_uint256"
					}
				],
				"types": {
					"t_uint256": {
						"encoding": "inplace",
						"label": "uint256",
						"numberOfBytes": "32"
					}
				}
			},
			"userdoc": {
				"kind": "user",
				"methods": {},
				"version": 1
			}
		}
	}
}