{
	"contracts/error_handling.sol": {
		"ErrorHandling": {
			"abi": [
				{
					"inputs": [
						{
							"internalType": "uint256",
							"name": "num",
							"type": "uint256"
						}
					],
					"name": "func1",
					"outputs": [
						{
							"internalType": "uint256",
							"name": "",
							"type": "uint256"
						}
					],
					"stateMutability": "view",
					"type": "function"
				}
			],
			"devdoc": {
				"kind": "dev",
				"methods": {},
				"version": 1
			},
			"evm": {
				"assembly": "    /* \"contracts/error_handling.sol\":74:350  contract ErrorHandling{\r... */\n  mstore(0x40, 0x80)\n    /* \"contracts/error_handling.sol\":121:123  10 */\n  0x0a\n    /* \"contracts/error_handling.sol\":105:123  uint demo_var = 10 */\n  0x00\n  sstore\n    /* \"contracts/error_handling.sol\":74:350  contract ErrorHandling{\r... */\n  callvalue\n  dup1\n  iszero\n  tag_1\n  jumpi\n  0x00\n  dup1\n  revert\ntag_1:\n  pop\n  dataSize(sub_0)\n  dup1\n  dataOffset(sub_0)\n  0x00\n  codecopy\n  0x00\n  return\nstop\n\nsub_0: assembly {\n        /* \"contracts/error_handling.sol\":74:350  contract ErrorHandling{\r... */\n      mstore(0x40, 0x80)\n      callvalue\n      dup1\n      iszero\n      tag_1\n      jumpi\n      0x00\n      dup1\n      revert\n    tag_1:\n      pop\n      jumpi(tag_2, lt(calldatasize, 0x04))\n      shr(0xe0, calldataload(0x00))\n      dup1\n      0x254e43db\n      eq\n      tag_3\n      jumpi\n    tag_2:\n      0x00\n      dup1\n      revert\n        /* \"contracts/error_handling.sol\":150:304  function func1(uint num) public view returns(uint){\r... */\n    tag_3:\n      tag_4\n      0x04\n      dup1\n      calldatasize\n      sub\n      dup2\n      add\n      swap1\n      tag_5\n      swap2\n      swap1\n      tag_6\n      jump\t// in\n    tag_5:\n      tag_7\n      jump\t// in\n    tag_4:\n      mload(0x40)\n      tag_8\n      swap2\n      swap1\n      tag_9\n      jump\t// in\n    tag_8:\n      mload(0x40)\n      dup1\n      swap2\n      sub\n      swap1\n      return\n    tag_7:\n        /* \"contracts/error_handling.sol\":195:199  uint */\n      0x00\n        /* \"contracts/error_handling.sol\":237:238  0 */\n      dup1\n        /* \"contracts/error_handling.sol\":230:233  num */\n      dup3\n        /* \"contracts/error_handling.sol\":219:227  demo_var */\n      sload(0x00)\n        /* \"contracts/error_handling.sol\":219:233  demo_var % num */\n      tag_11\n      swap2\n      swap1\n      tag_12\n      jump\t// in\n    tag_11:\n        /* \"contracts/error_handling.sol\":219:238  demo_var % num == 0 */\n      eq\n        /* \"contracts/error_handling.sol\":211:239  require(demo_var % num == 0) */\n      tag_13\n      jumpi\n      0x00\n      dup1\n      revert\n    tag_13:\n        /* \"contracts/error_handling.sol\":250:258  uint div */\n      0x00\n        /* \"contracts/error_handling.sol\":272:275  num */\n      dup3\n        /* \"contracts/error_handling.sol\":261:269  demo_var */\n      sload(0x00)\n        /* \"contracts/error_handling.sol\":261:275  demo_var / num */\n      tag_14\n      swap2\n      swap1\n      tag_15\n      jump\t// in\n    tag_14:\n        /* \"contracts/error_handling.sol\":250:275  uint div = demo_var / num */\n      swap1\n      pop\n        /* \"contracts/error_handling.sol\":293:296  div */\n      dup1\n        /* \"contracts/error_handling.sol\":286:296  return div */\n      swap2\n      pop\n      pop\n        /* \"contracts/error_handling.sol\":150:304  function func1(uint num) public view returns(uint){\r... */\n      swap2\n      swap1\n      pop\n      jump\t// out\n        /* \"#utility.yul\":7:146   */\n    tag_17:\n        /* \"#utility.yul\":53:58   */\n      0x00\n        /* \"#utility.yul\":91:97   */\n      dup2\n        /* \"#utility.yul\":78:98   */\n      calldataload\n        /* \"#utility.yul\":69:98   */\n      swap1\n      pop\n        /* \"#utility.yul\":107:140   */\n      tag_19\n        /* \"#utility.yul\":134:139   */\n      dup2\n        /* \"#utility.yul\":107:140   */\n      tag_20\n      jump\t// in\n    tag_19:\n        /* \"#utility.yul\":7:146   */\n      swap3\n      swap2\n      pop\n      pop\n      jump\t// out\n        /* \"#utility.yul\":152:481   */\n    tag_6:\n        /* \"#utility.yul\":211:217   */\n      0x00\n        /* \"#utility.yul\":260:262   */\n      0x20\n        /* \"#utility.yul\":248:257   */\n      dup3\n        /* \"#utility.yul\":239:246   */\n      dup5\n        /* \"#utility.yul\":235:258   */\n      sub\n        /* \"#utility.yul\":231:263   */\n      slt\n        /* \"#utility.yul\":228:347   */\n      iszero\n      tag_22\n      jumpi\n        /* \"#utility.yul\":266:345   */\n      tag_23\n      tag_24\n      jump\t// in\n    tag_23:\n        /* \"#utility.yul\":228:347   */\n    tag_22:\n        /* \"#utility.yul\":386:387   */\n      0x00\n        /* \"#utility.yul\":411:464   */\n      tag_25\n        /* \"#utility.yul\":456:463   */\n      dup5\n        /* \"#utility.yul\":447:453   */\n      dup3\n        /* \"#utility.yul\":436:445   */\n      dup6\n        /* \"#utility.yul\":432:454   */\n      add\n        /* \"#utility.yul\":411:464   */\n      tag_17\n      jump\t// in\n    tag_25:\n        /* \"#utility.yul\":401:464   */\n      swap2\n      pop\n        /* \"#utility.yul\":357:474   */\n      pop\n        /* \"#utility.yul\":152:481   */\n      swap3\n      swap2\n      pop\n      pop\n      jump\t// out\n        /* \"#utility.yul\":487:605   */\n    tag_26:\n        /* \"#utility.yul\":574:598   */\n      tag_28\n        /* \"#utility.yul\":592:597   */\n      dup2\n        /* \"#utility.yul\":574:598   */\n      tag_29\n      jump\t// in\n    tag_28:\n        /* \"#utility.yul\":569:572   */\n      dup3\n        /* \"#utility.yul\":562:599   */\n      mstore\n        /* \"#utility.yul\":487:605   */\n      pop\n      pop\n      jump\t// out\n        /* \"#utility.yul\":611:833   */\n    tag_9:\n        /* \"#utility.yul\":704:708   */\n      0x00\n        /* \"#utility.yul\":742:744   */\n      0x20\n        /* \"#utility.yul\":731:740   */\n      dup3\n        /* \"#utility.yul\":727:745   */\n      add\n        /* \"#utility.yul\":719:745   */\n      swap1\n      pop\n        /* \"#utility.yul\":755:826   */\n      tag_31\n        /* \"#utility.yul\":823:824   */\n      0x00\n        /* \"#utility.yul\":812:821   */\n      dup4\n        /* \"#utility.yul\":808:825   */\n      add\n        /* \"#utility.yul\":799:805   */\n      dup5\n        /* \"#utility.yul\":755:826   */\n      tag_26\n      jump\t// in\n    tag_31:\n        /* \"#utility.yul\":611:833   */\n      swap3\n      swap2\n      pop\n      pop\n      jump\t// out\n        /* \"#utility.yul\":920:1105   */\n    tag_15:\n        /* \"#utility.yul\":960:961   */\n      0x00\n        /* \"#utility.yul\":977:997   */\n      tag_35\n        /* \"#utility.yul\":995:996   */\n      dup3\n        /* \"#utility.yul\":977:997   */\n      tag_29\n      jump\t// in\n    tag_35:\n        /* \"#utility.yul\":972:997   */\n      swap2\n      pop\n        /* \"#utility.yul\":1011:1031   */\n      tag_36\n        /* \"#utility.yul\":1029:1030   */\n      dup4\n        /* \"#utility.yul\":1011:1031   */\n      tag_29\n      jump\t// in\n    tag_36:\n        /* \"#utility.yul\":1006:1031   */\n      swap3\n      pop\n        /* \"#utility.yul\":1050:1051   */\n      dup3\n        /* \"#utility.yul\":1040:1075   */\n      tag_37\n      jumpi\n        /* \"#utility.yul\":1055:1073   */\n      tag_38\n      tag_39\n      jump\t// in\n    tag_38:\n        /* \"#utility.yul\":1040:1075   */\n    tag_37:\n        /* \"#utility.yul\":1097:1098   */\n      dup3\n        /* \"#utility.yul\":1094:1095   */\n      dup3\n        /* \"#utility.yul\":1090:1099   */\n      div\n        /* \"#utility.yul\":1085:1099   */\n      swap1\n      pop\n        /* \"#utility.yul\":920:1105   */\n      swap3\n      swap2\n      pop\n      pop\n      jump\t// out\n        /* \"#utility.yul\":1111:1188   */\n    tag_29:\n        /* \"#utility.yul\":1148:1155   */\n      0x00\n        /* \"#utility.yul\":1177:1182   */\n      dup2\n        /* \"#utility.yul\":1166:1182   */\n      swap1\n      pop\n        /* \"#utility.yul\":1111:1188   */\n      swap2\n      swap1\n      pop\n      jump\t// out\n        /* \"#utility.yul\":1194:1370   */\n    tag_12:\n        /* \"#utility.yul\":1226:1227   */\n      0x00\n        /* \"#utility.yul\":1243:1263   */\n      tag_42\n        /* \"#utility.yul\":1261:1262   */\n      dup3\n        /* \"#utility.yul\":1243:1263   */\n      tag_29\n      jump\t// in\n    tag_42:\n        /* \"#utility.yul\":1238:1263   */\n      swap2\n      pop\n        /* \"#utility.yul\":1277:1297   */\n      tag_43\n        /* \"#utility.yul\":1295:1296   */\n      dup4\n        /* \"#utility.yul\":1277:1297   */\n      tag_29\n      jump\t// in\n    tag_43:\n        /* \"#utility.yul\":1272:1297   */\n      swap3\n      pop\n        /* \"#utility.yul\":1316:1317   */\n      dup3\n        /* \"#utility.yul\":1306:1341   */\n      tag_44\n      jumpi\n        /* \"#utility.yul\":1321:1339   */\n      tag_45\n      tag_39\n      jump\t// in\n    tag_45:\n        /* \"#utility.yul\":1306:1341   */\n    tag_44:\n        /* \"#utility.yul\":1362:1363   */\n      dup3\n        /* \"#utility.yul\":1359:1360   */\n      dup3\n        /* \"#utility.yul\":1355:1364   */\n      mod\n        /* \"#utility.yul\":1350:1364   */\n      swap1\n      pop\n        /* \"#utility.yul\":1194:1370   */\n      swap3\n      swap2\n      pop\n      pop\n      jump\t// out\n        /* \"#utility.yul\":1562:1742   */\n    tag_39:\n        /* \"#utility.yul\":1610:1687   */\n      0x4e487b7100000000000000000000000000000000000000000000000000000000\n        /* \"#utility.yul\":1607:1608   */\n      0x00\n        /* \"#utility.yul\":1600:1688   */\n      mstore\n        /* \"#utility.yul\":1707:1711   */\n      0x12\n        /* \"#utility.yul\":1704:1705   */\n      0x04\n        /* \"#utility.yul\":1697:1712   */\n      mstore\n        /* \"#utility.yul\":1731:1735   */\n      0x24\n        /* \"#utility.yul\":1728:1729   */\n      0x00\n        /* \"#utility.yul\":1721:1736   */\n      revert\n        /* \"#utility.yul\":1871:1988   */\n    tag_24:\n        /* \"#utility.yul\":1980:1981   */\n      0x00\n        /* \"#utility.yul\":1977:1978   */\n      dup1\n        /* \"#utility.yul\":1970:1982   */\n      revert\n        /* \"#utility.yul\":1994:2116   */\n    tag_20:\n        /* \"#utility.yul\":2067:2091   */\n      tag_53\n        /* \"#utility.yul\":2085:2090   */\n      dup2\n        /* \"#utility.yul\":2067:2091   */\n      tag_29\n      jump\t// in\n    tag_53:\n        /* \"#utility.yul\":2060:2065   */\n      dup2\n        /* \"#utility.yul\":2057:2092   */\n      eq\n        /* \"#utility.yul\":2047:2110   */\n      tag_54\n      jumpi\n        /* \"#utility.yul\":2106:2107   */\n      0x00\n        /* \"#utility.yul\":2103:2104   */\n      dup1\n        /* \"#utility.yul\":2096:2108   */\n      revert\n        /* \"#utility.yul\":2047:2110   */\n    tag_54:\n        /* \"#utility.yul\":1994:2116   */\n      pop\n      jump\t// out\n\n    auxdata: 0xa2646970667358221220089031c88e8792e7dbdaa9578dbd64ef7d5f8f011ecdd994792d7b892e7b934964736f6c63430008070033\n}\n",
				"bytecode": {
					"linkReferences": {},
					"object": "6080604052600a60005534801561001557600080fd5b506101ef806100256000396000f3fe608060405234801561001057600080fd5b506004361061002b5760003560e01c8063254e43db14610030575b600080fd5b61004a600480360381019061004591906100ab565b610060565b60405161005791906100e7565b60405180910390f35b60008082600054610071919061013d565b1461007b57600080fd5b60008260005461008b9190610102565b905080915050919050565b6000813590506100a5816101a2565b92915050565b6000602082840312156100c1576100c061019d565b5b60006100cf84828501610096565b91505092915050565b6100e181610133565b82525050565b60006020820190506100fc60008301846100d8565b92915050565b600061010d82610133565b915061011883610133565b9250826101285761012761016e565b5b828204905092915050565b6000819050919050565b600061014882610133565b915061015383610133565b9250826101635761016261016e565b5b828206905092915050565b7f4e487b7100000000000000000000000000000000000000000000000000000000600052601260045260246000fd5b600080fd5b6101ab81610133565b81146101b657600080fd5b5056fea2646970667358221220089031c88e8792e7dbdaa9578dbd64ef7d5f8f011ecdd994792d7b892e7b934964736f6c63430008070033",
					"opcodes": "PUSH1 0x80 PUSH1 0x40 MSTORE PUSH1 0xA PUSH1 0x0 SSTORE CALLVALUE DUP1 ISZERO PUSH2 0x15 JUMPI PUSH1 0x0 DUP1 REVERT JUMPDEST POP PUSH2 0x1EF DUP1 PUSH2 0x25 PUSH1 0x0 CODECOPY PUSH1 0x0 RETURN INVALID PUSH1 0x80 PUSH1 0x40 MSTORE CALLVALUE DUP1 ISZERO PUSH2 0x10 JUMPI PUSH1 0x0 DUP1 REVERT JUMPDEST POP PUSH1 0x4 CALLDATASIZE LT PUSH2 0x2B JUMPI PUSH1 0x0 CALLDATALOAD PUSH1 0xE0 SHR DUP1 PUSH4 0x254E43DB EQ PUSH2 0x30 JUMPI JUMPDEST PUSH1 0x0 DUP1 REVERT JUMPDEST PUSH2 0x4A PUSH1 0x4 DUP1 CALLDATASIZE SUB DUP2 ADD SWAP1 PUSH2 0x45 SWAP2 SWAP1 PUSH2 0xAB JUMP JUMPDEST PUSH2 0x60 JUMP JUMPDEST PUSH1 0x40 MLOAD PUSH2 0x57 SWAP2 SWAP1 PUSH2 0xE7 JUMP JUMPDEST PUSH1 0x40 MLOAD DUP1 SWAP2 SUB SWAP1 RETURN JUMPDEST PUSH1 0x0 DUP1 DUP3 PUSH1 0x0 SLOAD PUSH2 0x71 SWAP2 SWAP1 PUSH2 0x13D JUMP JUMPDEST EQ PUSH2 0x7B JUMPI PUSH1 0x0 DUP1 REVERT JUMPDEST PUSH1 0x0 DUP3 PUSH1 0x0 SLOAD PUSH2 0x8B SWAP2 SWAP1 PUSH2 0x102 JUMP JUMPDEST SWAP1 POP DUP1 SWAP2 POP POP SWAP2 SWAP1 POP JUMP JUMPDEST PUSH1 0x0 DUP2 CALLDATALOAD SWAP1 POP PUSH2 0xA5 DUP2 PUSH2 0x1A2 JUMP JUMPDEST SWAP3 SWAP2 POP POP JUMP JUMPDEST PUSH1 0x0 PUSH1 0x20 DUP3 DUP5 SUB SLT ISZERO PUSH2 0xC1 JUMPI PUSH2 0xC0 PUSH2 0x19D JUMP JUMPDEST JUMPDEST PUSH1 0x0 PUSH2 0xCF DUP5 DUP3 DUP6 ADD PUSH2 0x96 JUMP JUMPDEST SWAP2 POP POP SWAP3 SWAP2 POP POP JUMP JUMPDEST PUSH2 0xE1 DUP2 PUSH2 0x133 JUMP JUMPDEST DUP3 MSTORE POP POP JUMP JUMPDEST PUSH1 0x0 PUSH1 0x20 DUP3 ADD SWAP1 POP PUSH2 0xFC PUSH1 0x0 DUP4 ADD DUP5 PUSH2 0xD8 JUMP JUMPDEST SWAP3 SWAP2 POP POP JUMP JUMPDEST PUSH1 0x0 PUSH2 0x10D DUP3 PUSH2 0x133 JUMP JUMPDEST SWAP2 POP PUSH2 0x118 DUP4 PUSH2 0x133 JUMP JUMPDEST SWAP3 POP DUP3 PUSH2 0x128 JUMPI PUSH2 0x127 PUSH2 0x16E JUMP JUMPDEST JUMPDEST DUP3 DUP3 DIV SWAP1 POP SWAP3 SWAP2 POP POP JUMP JUMPDEST PUSH1 0x0 DUP2 SWAP1 POP SWAP2 SWAP1 POP JUMP JUMPDEST PUSH1 0x0 PUSH2 0x148 DUP3 PUSH2 0x133 JUMP JUMPDEST SWAP2 POP PUSH2 0x153 DUP4 PUSH2 0x133 JUMP JUMPDEST SWAP3 POP DUP3 PUSH2 0x163 JUMPI PUSH2 0x162 PUSH2 0x16E JUMP JUMPDEST JUMPDEST DUP3 DUP3 MOD SWAP1 POP SWAP3 SWAP2 POP POP JUMP JUMPDEST PUSH32 0x4E487B7100000000000000000000000000000000000000000000000000000000 PUSH1 0x0 MSTORE PUSH1 0x12 PUSH1 0x4 MSTORE PUSH1 0x24 PUSH1 0x0 REVERT JUMPDEST PUSH1 0x0 DUP1 REVERT JUMPDEST PUSH2 0x1AB DUP2 PUSH2 0x133 JUMP JUMPDEST DUP2 EQ PUSH2 0x1B6 JUMPI PUSH1 0x0 DUP1 REVERT JUMPDEST POP JUMP INVALID LOG2 PUSH5 0x6970667358 0x22 SLT KECCAK256 ADDMOD SWAP1 BALANCE 0xC8 DUP15 DUP8 SWAP3 0xE7 0xDB 0xDA 0xA9 JUMPI DUP14 0xBD PUSH5 0xEF7D5F8F01 0x1E 0xCD 0xD9 SWAP5 PUSH26 0x2D7B892E7B934964736F6C634300080700330000000000000000 "
				},
				"gasEstimates": {
					"creation": {
						"codeDepositCost": "99000",
						"executionCost": "22253",
						"totalCost": "121253"
					},
					"external": {
						"func1(uint256)": "infinite"
					}
				},
				"methodIdentifiers": {
					"func1(uint256)": "254e43db"
				}
			},
			"storageLayout": {
				"storage": [
					{
						"astId": 4,
						"contract": "contracts/error_handling.sol:ErrorHandling",
						"label": "demo_var",
						"offset": 0,
						"slot": "0",
						"type": "t_uint256"
					}
				],
				"types": {
					"t_uint256": {
						"encoding": "inplace",
						"label": "uint256",
						"numberOfBytes": "32"
					}
				}
			},
			"userdoc": {
				"kind": "user",
				"methods": {},
				"version": 1
			}
		}
	}
}