{
	"contracts/error_handling.sol": {
		"ErrorHandling": {
			"abi": [
				{
					"inputs": [
						{
							"internalType": "uint256",
							"name": "num",
							"type": "uint256"
						}
					],
					"name": "func1",
					"outputs": [
						{
							"internalType": "uint256",
							"name": "",
							"type": "uint256"
						}
					],
					"stateMutability": "view",
					"type": "function"
				},
				{
					"inputs": [
						{
							"internalType": "uint256",
							"name": "num",
							"type": "uint256"
						}
					],
					"name": "func2",
					"outputs": [
						{
							"internalType": "uint256",
							"name": "",
							"type": "uint256"
						}
					],
					"stateMutability": "view",
					"type": "function"
				},
				{
					"inputs": [
						{
							"internalType": "uint256",
							"name": "num",
							"type": "uint256"
						}
					],
					"name": "func3",
					"outputs": [
						{
							"internalType": "uint256",
							"name": "",
							"type": "uint256"
						}
					],
					"stateMutability": "view",
					"type": "function"
				}
			],
			"devdoc": {
				"kind": "dev",
				"methods": {},
				"version": 1
			},
			"evm": {
				"assembly": "    /* \"contracts/error_handling.sol\":74:740  contract ErrorHandling{\r... */\n  mstore(0x40, 0x80)\n    /* \"contracts/error_handling.sol\":121:123  10 */\n  0x0a\n    /* \"contracts/error_handling.sol\":105:123  uint demo_var = 10 */\n  0x00\n  sstore\n    /* \"contracts/error_handling.sol\":74:740  contract ErrorHandling{\r... */\n  callvalue\n  dup1\n  iszero\n  tag_1\n  jumpi\n  0x00\n  dup1\n  revert\ntag_1:\n  pop\n  dataSize(sub_0)\n  dup1\n  dataOffset(sub_0)\n  0x00\n  codecopy\n  0x00\n  return\nstop\n\nsub_0: assembly {\n        /* \"contracts/error_handling.sol\":74:740  contract ErrorHandling{\r... */\n      mstore(0x40, 0x80)\n      callvalue\n      dup1\n      iszero\n      tag_1\n      jumpi\n      0x00\n      dup1\n      revert\n    tag_1:\n      pop\n      jumpi(tag_2, lt(calldatasize, 0x04))\n      shr(0xe0, calldataload(0x00))\n      dup1\n      0x16d93ade\n      eq\n      tag_3\n      jumpi\n      dup1\n      0x254e43db\n      eq\n      tag_4\n      jumpi\n      dup1\n      0x9a183afb\n      eq\n      tag_5\n      jumpi\n    tag_2:\n      0x00\n      dup1\n      revert\n        /* \"contracts/error_handling.sol\":350:557  function func2(uint num) public view returns(uint){\r... */\n    tag_3:\n      tag_6\n      0x04\n      dup1\n      calldatasize\n      sub\n      dup2\n      add\n      swap1\n      tag_7\n      swap2\n      swap1\n      tag_8\n      jump\t// in\n    tag_7:\n      tag_9\n      jump\t// in\n    tag_6:\n      mload(0x40)\n      tag_10\n      swap2\n      swap1\n      tag_11\n      jump\t// in\n    tag_10:\n      mload(0x40)\n      dup1\n      swap2\n      sub\n      swap1\n      return\n        /* \"contracts/error_handling.sol\":150:322  function func1(uint num) public view returns(uint){\r... */\n    tag_4:\n      tag_12\n      0x04\n      dup1\n      calldatasize\n      sub\n      dup2\n      add\n      swap1\n      tag_13\n      swap2\n      swap1\n      tag_8\n      jump\t// in\n    tag_13:\n      tag_14\n      jump\t// in\n    tag_12:\n      mload(0x40)\n      tag_15\n      swap2\n      swap1\n      tag_11\n      jump\t// in\n    tag_15:\n      mload(0x40)\n      dup1\n      swap2\n      sub\n      swap1\n      return\n        /* \"contracts/error_handling.sol\":580:733  function func3(uint num) public view returns(uint){\r... */\n    tag_5:\n      tag_16\n      0x04\n      dup1\n      calldatasize\n      sub\n      dup2\n      add\n      swap1\n      tag_17\n      swap2\n      swap1\n      tag_8\n      jump\t// in\n    tag_17:\n      tag_18\n      jump\t// in\n    tag_16:\n      mload(0x40)\n      tag_19\n      swap2\n      swap1\n      tag_11\n      jump\t// in\n    tag_19:\n      mload(0x40)\n      dup1\n      swap2\n      sub\n      swap1\n      return\n        /* \"contracts/error_handling.sol\":350:557  function func2(uint num) public view returns(uint){\r... */\n    tag_9:\n        /* \"contracts/error_handling.sol\":395:399  uint */\n      0x00\n        /* \"contracts/error_handling.sol\":432:433  0 */\n      dup1\n        /* \"contracts/error_handling.sol\":425:428  num */\n      dup3\n        /* \"contracts/error_handling.sol\":414:422  demo_var */\n      sload(0x00)\n        /* \"contracts/error_handling.sol\":414:428  demo_var % num */\n      tag_21\n      swap2\n      swap1\n      tag_22\n      jump\t// in\n    tag_21:\n        /* \"contracts/error_handling.sol\":414:433  demo_var % num != 0 */\n      eq\n        /* \"contracts/error_handling.sol\":411:493  if(demo_var % num != 0){\r... */\n      tag_23\n      jumpi\n        /* \"contracts/error_handling.sol\":449:481  revert(\"invalid number, revert\") */\n      mload(0x40)\n      0x08c379a000000000000000000000000000000000000000000000000000000000\n      dup2\n      mstore\n      0x04\n      add\n      tag_24\n      swap1\n      tag_25\n      jump\t// in\n    tag_24:\n      mload(0x40)\n      dup1\n      swap2\n      sub\n      swap1\n      revert\n        /* \"contracts/error_handling.sol\":411:493  if(demo_var % num != 0){\r... */\n    tag_23:\n        /* \"contracts/error_handling.sol\":503:511  uint div */\n      0x00\n        /* \"contracts/error_handling.sol\":525:528  num */\n      dup3\n        /* \"contracts/error_handling.sol\":514:522  demo_var */\n      sload(0x00)\n        /* \"contracts/error_handling.sol\":514:528  demo_var / num */\n      tag_26\n      swap2\n      swap1\n      tag_27\n      jump\t// in\n    tag_26:\n        /* \"contracts/error_handling.sol\":503:528  uint div = demo_var / num */\n      swap1\n      pop\n        /* \"contracts/error_handling.sol\":546:549  div */\n      dup1\n        /* \"contracts/error_handling.sol\":539:549  return div */\n      swap2\n      pop\n      pop\n        /* \"contracts/error_handling.sol\":350:557  function func2(uint num) public view returns(uint){\r... */\n      swap2\n      swap1\n      pop\n      jump\t// out\n        /* \"contracts/error_handling.sol\":150:322  function func1(uint num) public view returns(uint){\r... */\n    tag_14:\n        /* \"contracts/error_handling.sol\":195:199  uint */\n      0x00\n        /* \"contracts/error_handling.sol\":237:238  0 */\n      dup1\n        /* \"contracts/error_handling.sol\":230:233  num */\n      dup3\n        /* \"contracts/error_handling.sol\":219:227  demo_var */\n      sload(0x00)\n        /* \"contracts/error_handling.sol\":219:233  demo_var % num */\n      tag_29\n      swap2\n      swap1\n      tag_22\n      jump\t// in\n    tag_29:\n        /* \"contracts/error_handling.sol\":219:238  demo_var % num == 0 */\n      eq\n        /* \"contracts/error_handling.sol\":211:257  require(demo_var % num == 0, \"invalid number\") */\n      tag_30\n      jumpi\n      mload(0x40)\n      0x08c379a000000000000000000000000000000000000000000000000000000000\n      dup2\n      mstore\n      0x04\n      add\n      tag_31\n      swap1\n      tag_32\n      jump\t// in\n    tag_31:\n      mload(0x40)\n      dup1\n      swap2\n      sub\n      swap1\n      revert\n    tag_30:\n        /* \"contracts/error_handling.sol\":268:276  uint div */\n      0x00\n        /* \"contracts/error_handling.sol\":290:293  num */\n      dup3\n        /* \"contracts/error_handling.sol\":279:287  demo_var */\n      sload(0x00)\n        /* \"contracts/error_handling.sol\":279:293  demo_var / num */\n      tag_33\n      swap2\n      swap1\n      tag_27\n      jump\t// in\n    tag_33:\n        /* \"contracts/error_handling.sol\":268:293  uint div = demo_var / num */\n      swap1\n      pop\n        /* \"contracts/error_handling.sol\":311:314  div */\n      dup1\n        /* \"contracts/error_handling.sol\":304:314  return div */\n      swap2\n      pop\n      pop\n        /* \"contracts/error_handling.sol\":150:322  function func1(uint num) public view returns(uint){\r... */\n      swap2\n      swap1\n      pop\n      jump\t// out\n        /* \"contracts/error_handling.sol\":580:733  function func3(uint num) public view returns(uint){\r... */\n    tag_18:\n        /* \"contracts/error_handling.sol\":625:629  uint */\n      0x00\n        /* \"contracts/error_handling.sol\":666:667  0 */\n      dup1\n        /* \"contracts/error_handling.sol\":659:662  num */\n      dup3\n        /* \"contracts/error_handling.sol\":648:656  demo_var */\n      sload(0x00)\n        /* \"contracts/error_handling.sol\":648:662  demo_var % num */\n      tag_35\n      swap2\n      swap1\n      tag_22\n      jump\t// in\n    tag_35:\n        /* \"contracts/error_handling.sol\":648:667  demo_var % num == 0 */\n      eq\n        /* \"contracts/error_handling.sol\":641:668  assert(demo_var % num == 0) */\n      tag_36\n      jumpi\n      tag_37\n      tag_38\n      jump\t// in\n    tag_37:\n    tag_36:\n        /* \"contracts/error_handling.sol\":679:687  uint div */\n      0x00\n        /* \"contracts/error_handling.sol\":701:704  num */\n      dup3\n        /* \"contracts/error_handling.sol\":690:698  demo_var */\n      sload(0x00)\n        /* \"contracts/error_handling.sol\":690:704  demo_var / num */\n      tag_39\n      swap2\n      swap1\n      tag_27\n      jump\t// in\n    tag_39:\n        /* \"contracts/error_handling.sol\":679:704  uint div = demo_var / num */\n      swap1\n      pop\n        /* \"contracts/error_handling.sol\":722:725  div */\n      dup1\n        /* \"contracts/error_handling.sol\":715:725  return div */\n      swap2\n      pop\n      pop\n        /* \"contracts/error_handling.sol\":580:733  function func3(uint num) public view returns(uint){\r... */\n      swap2\n      swap1\n      pop\n      jump\t// out\n        /* \"#utility.yul\":7:146   */\n    tag_41:\n        /* \"#utility.yul\":53:58   */\n      0x00\n        /* \"#utility.yul\":91:97   */\n      dup2\n        /* \"#utility.yul\":78:98   */\n      calldataload\n        /* \"#utility.yul\":69:98   */\n      swap1\n      pop\n        /* \"#utility.yul\":107:140   */\n      tag_43\n        /* \"#utility.yul\":134:139   */\n      dup2\n        /* \"#utility.yul\":107:140   */\n      tag_44\n      jump\t// in\n    tag_43:\n        /* \"#utility.yul\":7:146   */\n      swap3\n      swap2\n      pop\n      pop\n      jump\t// out\n        /* \"#utility.yul\":152:481   */\n    tag_8:\n        /* \"#utility.yul\":211:217   */\n      0x00\n        /* \"#utility.yul\":260:262   */\n      0x20\n        /* \"#utility.yul\":248:257   */\n      dup3\n        /* \"#utility.yul\":239:246   */\n      dup5\n        /* \"#utility.yul\":235:258   */\n      sub\n        /* \"#utility.yul\":231:263   */\n      slt\n        /* \"#utility.yul\":228:347   */\n      iszero\n      tag_46\n      jumpi\n        /* \"#utility.yul\":266:345   */\n      tag_47\n      tag_48\n      jump\t// in\n    tag_47:\n        /* \"#utility.yul\":228:347   */\n    tag_46:\n        /* \"#utility.yul\":386:387   */\n      0x00\n        /* \"#utility.yul\":411:464   */\n      tag_49\n        /* \"#utility.yul\":456:463   */\n      dup5\n        /* \"#utility.yul\":447:453   */\n      dup3\n        /* \"#utility.yul\":436:445   */\n      dup6\n        /* \"#utility.yul\":432:454   */\n      add\n        /* \"#utility.yul\":411:464   */\n      tag_41\n      jump\t// in\n    tag_49:\n        /* \"#utility.yul\":401:464   */\n      swap2\n      pop\n        /* \"#utility.yul\":357:474   */\n      pop\n        /* \"#utility.yul\":152:481   */\n      swap3\n      swap2\n      pop\n      pop\n      jump\t// out\n        /* \"#utility.yul\":487:853   */\n    tag_50:\n        /* \"#utility.yul\":629:632   */\n      0x00\n        /* \"#utility.yul\":650:717   */\n      tag_52\n        /* \"#utility.yul\":714:716   */\n      0x0e\n        /* \"#utility.yul\":709:712   */\n      dup4\n        /* \"#utility.yul\":650:717   */\n      tag_53\n      jump\t// in\n    tag_52:\n        /* \"#utility.yul\":643:717   */\n      swap2\n      pop\n        /* \"#utility.yul\":726:819   */\n      tag_54\n        /* \"#utility.yul\":815:818   */\n      dup3\n        /* \"#utility.yul\":726:819   */\n      tag_55\n      jump\t// in\n    tag_54:\n        /* \"#utility.yul\":844:846   */\n      0x20\n        /* \"#utility.yul\":839:842   */\n      dup3\n        /* \"#utility.yul\":835:847   */\n      add\n        /* \"#utility.yul\":828:847   */\n      swap1\n      pop\n        /* \"#utility.yul\":487:853   */\n      swap2\n      swap1\n      pop\n      jump\t// out\n        /* \"#utility.yul\":859:1225   */\n    tag_56:\n        /* \"#utility.yul\":1001:1004   */\n      0x00\n        /* \"#utility.yul\":1022:1089   */\n      tag_58\n        /* \"#utility.yul\":1086:1088   */\n      0x16\n        /* \"#utility.yul\":1081:1084   */\n      dup4\n        /* \"#utility.yul\":1022:1089   */\n      tag_53\n      jump\t// in\n    tag_58:\n        /* \"#utility.yul\":1015:1089   */\n      swap2\n      pop\n        /* \"#utility.yul\":1098:1191   */\n      tag_59\n        /* \"#utility.yul\":1187:1190   */\n      dup3\n        /* \"#utility.yul\":1098:1191   */\n      tag_60\n      jump\t// in\n    tag_59:\n        /* \"#utility.yul\":1216:1218   */\n      0x20\n        /* \"#utility.yul\":1211:1214   */\n      dup3\n        /* \"#utility.yul\":1207:1219   */\n      add\n        /* \"#utility.yul\":1200:1219   */\n      swap1\n      pop\n        /* \"#utility.yul\":859:1225   */\n      swap2\n      swap1\n      pop\n      jump\t// out\n        /* \"#utility.yul\":1231:1349   */\n    tag_61:\n        /* \"#utility.yul\":1318:1342   */\n      tag_63\n        /* \"#utility.yul\":1336:1341   */\n      dup2\n        /* \"#utility.yul\":1318:1342   */\n      tag_64\n      jump\t// in\n    tag_63:\n        /* \"#utility.yul\":1313:1316   */\n      dup3\n        /* \"#utility.yul\":1306:1343   */\n      mstore\n        /* \"#utility.yul\":1231:1349   */\n      pop\n      pop\n      jump\t// out\n        /* \"#utility.yul\":1355:1774   */\n    tag_32:\n        /* \"#utility.yul\":1521:1525   */\n      0x00\n        /* \"#utility.yul\":1559:1561   */\n      0x20\n        /* \"#utility.yul\":1548:1557   */\n      dup3\n        /* \"#utility.yul\":1544:1562   */\n      add\n        /* \"#utility.yul\":1536:1562   */\n      swap1\n      pop\n        /* \"#utility.yul\":1608:1617   */\n      dup2\n        /* \"#utility.yul\":1602:1606   */\n      dup2\n        /* \"#utility.yul\":1598:1618   */\n      sub\n        /* \"#utility.yul\":1594:1595   */\n      0x00\n        /* \"#utility.yul\":1583:1592   */\n      dup4\n        /* \"#utility.yul\":1579:1596   */\n      add\n        /* \"#utility.yul\":1572:1619   */\n      mstore\n        /* \"#utility.yul\":1636:1767   */\n      tag_66\n        /* \"#utility.yul\":1762:1766   */\n      dup2\n        /* \"#utility.yul\":1636:1767   */\n      tag_50\n      jump\t// in\n    tag_66:\n        /* \"#utility.yul\":1628:1767   */\n      swap1\n      pop\n        /* \"#utility.yul\":1355:1774   */\n      swap2\n      swap1\n      pop\n      jump\t// out\n        /* \"#utility.yul\":1780:2199   */\n    tag_25:\n        /* \"#utility.yul\":1946:1950   */\n      0x00\n        /* \"#utility.yul\":1984:1986   */\n      0x20\n        /* \"#utility.yul\":1973:1982   */\n      dup3\n        /* \"#utility.yul\":1969:1987   */\n      add\n        /* \"#utility.yul\":1961:1987   */\n      swap1\n      pop\n        /* \"#utility.yul\":2033:2042   */\n      dup2\n        /* \"#utility.yul\":2027:2031   */\n      dup2\n        /* \"#utility.yul\":2023:2043   */\n      sub\n        /* \"#utility.yul\":2019:2020   */\n      0x00\n        /* \"#utility.yul\":2008:2017   */\n      dup4\n        /* \"#utility.yul\":2004:2021   */\n      add\n        /* \"#utility.yul\":1997:2044   */\n      mstore\n        /* \"#utility.yul\":2061:2192   */\n      tag_68\n        /* \"#utility.yul\":2187:2191   */\n      dup2\n        /* \"#utility.yul\":2061:2192   */\n      tag_56\n      jump\t// in\n    tag_68:\n        /* \"#utility.yul\":2053:2192   */\n      swap1\n      pop\n        /* \"#utility.yul\":1780:2199   */\n      swap2\n      swap1\n      pop\n      jump\t// out\n        /* \"#utility.yul\":2205:2427   */\n    tag_11:\n        /* \"#utility.yul\":2298:2302   */\n      0x00\n        /* \"#utility.yul\":2336:2338   */\n      0x20\n        /* \"#utility.yul\":2325:2334   */\n      dup3\n        /* \"#utility.yul\":2321:2339   */\n      add\n        /* \"#utility.yul\":2313:2339   */\n      swap1\n      pop\n        /* \"#utility.yul\":2349:2420   */\n      tag_70\n        /* \"#utility.yul\":2417:2418   */\n      0x00\n        /* \"#utility.yul\":2406:2415   */\n      dup4\n        /* \"#utility.yul\":2402:2419   */\n      add\n        /* \"#utility.yul\":2393:2399   */\n      dup5\n        /* \"#utility.yul\":2349:2420   */\n      tag_61\n      jump\t// in\n    tag_70:\n        /* \"#utility.yul\":2205:2427   */\n      swap3\n      swap2\n      pop\n      pop\n      jump\t// out\n        /* \"#utility.yul\":2514:2683   */\n    tag_53:\n        /* \"#utility.yul\":2598:2609   */\n      0x00\n        /* \"#utility.yul\":2632:2638   */\n      dup3\n        /* \"#utility.yul\":2627:2630   */\n      dup3\n        /* \"#utility.yul\":2620:2639   */\n      mstore\n        /* \"#utility.yul\":2672:2676   */\n      0x20\n        /* \"#utility.yul\":2667:2670   */\n      dup3\n        /* \"#utility.yul\":2663:2677   */\n      add\n        /* \"#utility.yul\":2648:2677   */\n      swap1\n      pop\n        /* \"#utility.yul\":2514:2683   */\n      swap3\n      swap2\n      pop\n      pop\n      jump\t// out\n        /* \"#utility.yul\":2689:2874   */\n    tag_27:\n        /* \"#utility.yul\":2729:2730   */\n      0x00\n        /* \"#utility.yul\":2746:2766   */\n      tag_75\n        /* \"#utility.yul\":2764:2765   */\n      dup3\n        /* \"#utility.yul\":2746:2766   */\n      tag_64\n      jump\t// in\n    tag_75:\n        /* \"#utility.yul\":2741:2766   */\n      swap2\n      pop\n        /* \"#utility.yul\":2780:2800   */\n      tag_76\n        /* \"#utility.yul\":2798:2799   */\n      dup4\n        /* \"#utility.yul\":2780:2800   */\n      tag_64\n      jump\t// in\n    tag_76:\n        /* \"#utility.yul\":2775:2800   */\n      swap3\n      pop\n        /* \"#utility.yul\":2819:2820   */\n      dup3\n        /* \"#utility.yul\":2809:2844   */\n      tag_77\n      jumpi\n        /* \"#utility.yul\":2824:2842   */\n      tag_78\n      tag_79\n      jump\t// in\n    tag_78:\n        /* \"#utility.yul\":2809:2844   */\n    tag_77:\n        /* \"#utility.yul\":2866:2867   */\n      dup3\n        /* \"#utility.yul\":2863:2864   */\n      dup3\n        /* \"#utility.yul\":2859:2868   */\n      div\n        /* \"#utility.yul\":2854:2868   */\n      swap1\n      pop\n        /* \"#utility.yul\":2689:2874   */\n      swap3\n      swap2\n      pop\n      pop\n      jump\t// out\n        /* \"#utility.yul\":2880:2957   */\n    tag_64:\n        /* \"#utility.yul\":2917:2924   */\n      0x00\n        /* \"#utility.yul\":2946:2951   */\n      dup2\n        /* \"#utility.yul\":2935:2951   */\n      swap1\n      pop\n        /* \"#utility.yul\":2880:2957   */\n      swap2\n      swap1\n      pop\n      jump\t// out\n        /* \"#utility.yul\":2963:3139   */\n    tag_22:\n        /* \"#utility.yul\":2995:2996   */\n      0x00\n        /* \"#utility.yul\":3012:3032   */\n      tag_82\n        /* \"#utility.yul\":3030:3031   */\n      dup3\n        /* \"#utility.yul\":3012:3032   */\n      tag_64\n      jump\t// in\n    tag_82:\n        /* \"#utility.yul\":3007:3032   */\n      swap2\n      pop\n        /* \"#utility.yul\":3046:3066   */\n      tag_83\n        /* \"#utility.yul\":3064:3065   */\n      dup4\n        /* \"#utility.yul\":3046:3066   */\n      tag_64\n      jump\t// in\n    tag_83:\n        /* \"#utility.yul\":3041:3066   */\n      swap3\n      pop\n        /* \"#utility.yul\":3085:3086   */\n      dup3\n        /* \"#utility.yul\":3075:3110   */\n      tag_84\n      jumpi\n        /* \"#utility.yul\":3090:3108   */\n      tag_85\n      tag_79\n      jump\t// in\n    tag_85:\n        /* \"#utility.yul\":3075:3110   */\n    tag_84:\n        /* \"#utility.yul\":3131:3132   */\n      dup3\n        /* \"#utility.yul\":3128:3129   */\n      dup3\n        /* \"#utility.yul\":3124:3133   */\n      mod\n        /* \"#utility.yul\":3119:3133   */\n      swap1\n      pop\n        /* \"#utility.yul\":2963:3139   */\n      swap3\n      swap2\n      pop\n      pop\n      jump\t// out\n        /* \"#utility.yul\":3145:3325   */\n    tag_38:\n        /* \"#utility.yul\":3193:3270   */\n      0x4e487b7100000000000000000000000000000000000000000000000000000000\n        /* \"#utility.yul\":3190:3191   */\n      0x00\n        /* \"#utility.yul\":3183:3271   */\n      mstore\n        /* \"#utility.yul\":3290:3294   */\n      0x01\n        /* \"#utility.yul\":3287:3288   */\n      0x04\n        /* \"#utility.yul\":3280:3295   */\n      mstore\n        /* \"#utility.yul\":3314:3318   */\n      0x24\n        /* \"#utility.yul\":3311:3312   */\n      0x00\n        /* \"#utility.yul\":3304:3319   */\n      revert\n        /* \"#utility.yul\":3517:3697   */\n    tag_79:\n        /* \"#utility.yul\":3565:3642   */\n      0x4e487b7100000000000000000000000000000000000000000000000000000000\n        /* \"#utility.yul\":3562:3563   */\n      0x00\n        /* \"#utility.yul\":3555:3643   */\n      mstore\n        /* \"#utility.yul\":3662:3666   */\n      0x12\n        /* \"#utility.yul\":3659:3660   */\n      0x04\n        /* \"#utility.yul\":3652:3667   */\n      mstore\n        /* \"#utility.yul\":3686:3690   */\n      0x24\n        /* \"#utility.yul\":3683:3684   */\n      0x00\n        /* \"#utility.yul\":3676:3691   */\n      revert\n        /* \"#utility.yul\":3826:3943   */\n    tag_48:\n        /* \"#utility.yul\":3935:3936   */\n      0x00\n        /* \"#utility.yul\":3932:3933   */\n      dup1\n        /* \"#utility.yul\":3925:3937   */\n      revert\n        /* \"#utility.yul\":3949:4113   */\n    tag_55:\n        /* \"#utility.yul\":4089:4105   */\n      0x696e76616c6964206e756d626572000000000000000000000000000000000000\n        /* \"#utility.yul\":4085:4086   */\n      0x00\n        /* \"#utility.yul\":4077:4083   */\n      dup3\n        /* \"#utility.yul\":4073:4087   */\n      add\n        /* \"#utility.yul\":4066:4106   */\n      mstore\n        /* \"#utility.yul\":3949:4113   */\n      pop\n      jump\t// out\n        /* \"#utility.yul\":4119:4291   */\n    tag_60:\n        /* \"#utility.yul\":4259:4283   */\n      0x696e76616c6964206e756d6265722c2072657665727400000000000000000000\n        /* \"#utility.yul\":4255:4256   */\n      0x00\n        /* \"#utility.yul\":4247:4253   */\n      dup3\n        /* \"#utility.yul\":4243:4257   */\n      add\n        /* \"#utility.yul\":4236:4284   */\n      mstore\n        /* \"#utility.yul\":4119:4291   */\n      pop\n      jump\t// out\n        /* \"#utility.yul\":4297:4419   */\n    tag_44:\n        /* \"#utility.yul\":4370:4394   */\n      tag_96\n        /* \"#utility.yul\":4388:4393   */\n      dup2\n        /* \"#utility.yul\":4370:4394   */\n      tag_64\n      jump\t// in\n    tag_96:\n        /* \"#utility.yul\":4363:4368   */\n      dup2\n        /* \"#utility.yul\":4360:4395   */\n      eq\n        /* \"#utility.yul\":4350:4413   */\n      tag_97\n      jumpi\n        /* \"#utility.yul\":4409:4410   */\n      0x00\n        /* \"#utility.yul\":4406:4407   */\n      dup1\n        /* \"#utility.yul\":4399:4411   */\n      revert\n        /* \"#utility.yul\":4350:4413   */\n    tag_97:\n        /* \"#utility.yul\":4297:4419   */\n      pop\n      jump\t// out\n\n    auxdata: 0xa264697066735822122028beb75e9f5d73913770b5178a73a3a1e9b23dcc592a54003f2a359dd91e643464736f6c63430008070033\n}\n",
				"bytecode": {
					"linkReferences": {},
					"object": "6080604052600a60005534801561001557600080fd5b50610459806100256000396000f3fe608060405234801561001057600080fd5b50600436106100415760003560e01c806316d93ade14610046578063254e43db146100765780639a183afb146100a6575b600080fd5b610060600480360381019061005b91906101fd565b6100d6565b60405161006d91906102bf565b60405180910390f35b610090600480360381019061008b91906101fd565b610142565b60405161009d91906102bf565b60405180910390f35b6100c060048036038101906100bb91906101fd565b6101ae565b6040516100cd91906102bf565b60405180910390f35b600080826000546100e79190610326565b14610127576040517f08c379a000000000000000000000000000000000000000000000000000000000815260040161011e9061029f565b60405180910390fd5b60008260005461013791906102eb565b905080915050919050565b600080826000546101539190610326565b14610193576040517f08c379a000000000000000000000000000000000000000000000000000000000815260040161018a9061027f565b60405180910390fd5b6000826000546101a391906102eb565b905080915050919050565b600080826000546101bf9190610326565b146101cd576101cc610357565b5b6000826000546101dd91906102eb565b905080915050919050565b6000813590506101f78161040c565b92915050565b600060208284031215610213576102126103b5565b5b6000610221848285016101e8565b91505092915050565b6000610237600e836102da565b9150610242826103ba565b602082019050919050565b600061025a6016836102da565b9150610265826103e3565b602082019050919050565b6102798161031c565b82525050565b600060208201905081810360008301526102988161022a565b9050919050565b600060208201905081810360008301526102b88161024d565b9050919050565b60006020820190506102d46000830184610270565b92915050565b600082825260208201905092915050565b60006102f68261031c565b91506103018361031c565b92508261031157610310610386565b5b828204905092915050565b6000819050919050565b60006103318261031c565b915061033c8361031c565b92508261034c5761034b610386565b5b828206905092915050565b7f4e487b7100000000000000000000000000000000000000000000000000000000600052600160045260246000fd5b7f4e487b7100000000000000000000000000000000000000000000000000000000600052601260045260246000fd5b600080fd5b7f696e76616c6964206e756d626572000000000000000000000000000000000000600082015250565b7f696e76616c6964206e756d6265722c2072657665727400000000000000000000600082015250565b6104158161031c565b811461042057600080fd5b5056fea264697066735822122028beb75e9f5d73913770b5178a73a3a1e9b23dcc592a54003f2a359dd91e643464736f6c63430008070033",
					"opcodes": "PUSH1 0x80 PUSH1 0x40 MSTORE PUSH1 0xA PUSH1 0x0 SSTORE CALLVALUE DUP1 ISZERO PUSH2 0x15 JUMPI PUSH1 0x0 DUP1 REVERT JUMPDEST POP PUSH2 0x459 DUP1 PUSH2 0x25 PUSH1 0x0 CODECOPY PUSH1 0x0 RETURN INVALID PUSH1 0x80 PUSH1 0x40 MSTORE CALLVALUE DUP1 ISZERO PUSH2 0x10 JUMPI PUSH1 0x0 DUP1 REVERT JUMPDEST POP PUSH1 0x4 CALLDATASIZE LT PUSH2 0x41 JUMPI PUSH1 0x0 CALLDATALOAD PUSH1 0xE0 SHR DUP1 PUSH4 0x16D93ADE EQ PUSH2 0x46 JUMPI DUP1 PUSH4 0x254E43DB EQ PUSH2 0x76 JUMPI DUP1 PUSH4 0x9A183AFB EQ PUSH2 0xA6 JUMPI JUMPDEST PUSH1 0x0 DUP1 REVERT JUMPDEST PUSH2 0x60 PUSH1 0x4 DUP1 CALLDATASIZE SUB DUP2 ADD SWAP1 PUSH2 0x5B SWAP2 SWAP1 PUSH2 0x1FD JUMP JUMPDEST PUSH2 0xD6 JUMP JUMPDEST PUSH1 0x40 MLOAD PUSH2 0x6D SWAP2 SWAP1 PUSH2 0x2BF JUMP JUMPDEST PUSH1 0x40 MLOAD DUP1 SWAP2 SUB SWAP1 RETURN JUMPDEST PUSH2 0x90 PUSH1 0x4 DUP1 CALLDATASIZE SUB DUP2 ADD SWAP1 PUSH2 0x8B SWAP2 SWAP1 PUSH2 0x1FD JUMP JUMPDEST PUSH2 0x142 JUMP JUMPDEST PUSH1 0x40 MLOAD PUSH2 0x9D SWAP2 SWAP1 PUSH2 0x2BF JUMP JUMPDEST PUSH1 0x40 MLOAD DUP1 SWAP2 SUB SWAP1 RETURN JUMPDEST PUSH2 0xC0 PUSH1 0x4 DUP1 CALLDATASIZE SUB DUP2 ADD SWAP1 PUSH2 0xBB SWAP2 SWAP1 PUSH2 0x1FD JUMP JUMPDEST PUSH2 0x1AE JUMP JUMPDEST PUSH1 0x40 MLOAD PUSH2 0xCD SWAP2 SWAP1 PUSH2 0x2BF JUMP JUMPDEST PUSH1 0x40 MLOAD DUP1 SWAP2 SUB SWAP1 RETURN JUMPDEST PUSH1 0x0 DUP1 DUP3 PUSH1 0x0 SLOAD PUSH2 0xE7 SWAP2 SWAP1 PUSH2 0x326 JUMP JUMPDEST EQ PUSH2 0x127 JUMPI PUSH1 0x40 MLOAD PUSH32 0x8C379A000000000000000000000000000000000000000000000000000000000 DUP2 MSTORE PUSH1 0x4 ADD PUSH2 0x11E SWAP1 PUSH2 0x29F JUMP JUMPDEST PUSH1 0x40 MLOAD DUP1 SWAP2 SUB SWAP1 REVERT JUMPDEST PUSH1 0x0 DUP3 PUSH1 0x0 SLOAD PUSH2 0x137 SWAP2 SWAP1 PUSH2 0x2EB JUMP JUMPDEST SWAP1 POP DUP1 SWAP2 POP POP SWAP2 SWAP1 POP JUMP JUMPDEST PUSH1 0x0 DUP1 DUP3 PUSH1 0x0 SLOAD PUSH2 0x153 SWAP2 SWAP1 PUSH2 0x326 JUMP JUMPDEST EQ PUSH2 0x193 JUMPI PUSH1 0x40 MLOAD PUSH32 0x8C379A000000000000000000000000000000000000000000000000000000000 DUP2 MSTORE PUSH1 0x4 ADD PUSH2 0x18A SWAP1 PUSH2 0x27F JUMP JUMPDEST PUSH1 0x40 MLOAD DUP1 SWAP2 SUB SWAP1 REVERT JUMPDEST PUSH1 0x0 DUP3 PUSH1 0x0 SLOAD PUSH2 0x1A3 SWAP2 SWAP1 PUSH2 0x2EB JUMP JUMPDEST SWAP1 POP DUP1 SWAP2 POP POP SWAP2 SWAP1 POP JUMP JUMPDEST PUSH1 0x0 DUP1 DUP3 PUSH1 0x0 SLOAD PUSH2 0x1BF SWAP2 SWAP1 PUSH2 0x326 JUMP JUMPDEST EQ PUSH2 0x1CD JUMPI PUSH2 0x1CC PUSH2 0x357 JUMP JUMPDEST JUMPDEST PUSH1 0x0 DUP3 PUSH1 0x0 SLOAD PUSH2 0x1DD SWAP2 SWAP1 PUSH2 0x2EB JUMP JUMPDEST SWAP1 POP DUP1 SWAP2 POP POP SWAP2 SWAP1 POP JUMP JUMPDEST PUSH1 0x0 DUP2 CALLDATALOAD SWAP1 POP PUSH2 0x1F7 DUP2 PUSH2 0x40C JUMP JUMPDEST SWAP3 SWAP2 POP POP JUMP JUMPDEST PUSH1 0x0 PUSH1 0x20 DUP3 DUP5 SUB SLT ISZERO PUSH2 0x213 JUMPI PUSH2 0x212 PUSH2 0x3B5 JUMP JUMPDEST JUMPDEST PUSH1 0x0 PUSH2 0x221 DUP5 DUP3 DUP6 ADD PUSH2 0x1E8 JUMP JUMPDEST SWAP2 POP POP SWAP3 SWAP2 POP POP JUMP JUMPDEST PUSH1 0x0 PUSH2 0x237 PUSH1 0xE DUP4 PUSH2 0x2DA JUMP JUMPDEST SWAP2 POP PUSH2 0x242 DUP3 PUSH2 0x3BA JUMP JUMPDEST PUSH1 0x20 DUP3 ADD SWAP1 POP SWAP2 SWAP1 POP JUMP JUMPDEST PUSH1 0x0 PUSH2 0x25A PUSH1 0x16 DUP4 PUSH2 0x2DA JUMP JUMPDEST SWAP2 POP PUSH2 0x265 DUP3 PUSH2 0x3E3 JUMP JUMPDEST PUSH1 0x20 DUP3 ADD SWAP1 POP SWAP2 SWAP1 POP JUMP JUMPDEST PUSH2 0x279 DUP2 PUSH2 0x31C JUMP JUMPDEST DUP3 MSTORE POP POP JUMP JUMPDEST PUSH1 0x0 PUSH1 0x20 DUP3 ADD SWAP1 POP DUP2 DUP2 SUB PUSH1 0x0 DUP4 ADD MSTORE PUSH2 0x298 DUP2 PUSH2 0x22A JUMP JUMPDEST SWAP1 POP SWAP2 SWAP1 POP JUMP JUMPDEST PUSH1 0x0 PUSH1 0x20 DUP3 ADD SWAP1 POP DUP2 DUP2 SUB PUSH1 0x0 DUP4 ADD MSTORE PUSH2 0x2B8 DUP2 PUSH2 0x24D JUMP JUMPDEST SWAP1 POP SWAP2 SWAP1 POP JUMP JUMPDEST PUSH1 0x0 PUSH1 0x20 DUP3 ADD SWAP1 POP PUSH2 0x2D4 PUSH1 0x0 DUP4 ADD DUP5 PUSH2 0x270 JUMP JUMPDEST SWAP3 SWAP2 POP POP JUMP JUMPDEST PUSH1 0x0 DUP3 DUP3 MSTORE PUSH1 0x20 DUP3 ADD SWAP1 POP SWAP3 SWAP2 POP POP JUMP JUMPDEST PUSH1 0x0 PUSH2 0x2F6 DUP3 PUSH2 0x31C JUMP JUMPDEST SWAP2 POP PUSH2 0x301 DUP4 PUSH2 0x31C JUMP JUMPDEST SWAP3 POP DUP3 PUSH2 0x311 JUMPI PUSH2 0x310 PUSH2 0x386 JUMP JUMPDEST JUMPDEST DUP3 DUP3 DIV SWAP1 POP SWAP3 SWAP2 POP POP JUMP JUMPDEST PUSH1 0x0 DUP2 SWAP1 POP SWAP2 SWAP1 POP JUMP JUMPDEST PUSH1 0x0 PUSH2 0x331 DUP3 PUSH2 0x31C JUMP JUMPDEST SWAP2 POP PUSH2 0x33C DUP4 PUSH2 0x31C JUMP JUMPDEST SWAP3 POP DUP3 PUSH2 0x34C JUMPI PUSH2 0x34B PUSH2 0x386 JUMP JUMPDEST JUMPDEST DUP3 DUP3 MOD SWAP1 POP SWAP3 SWAP2 POP POP JUMP JUMPDEST PUSH32 0x4E487B7100000000000000000000000000000000000000000000000000000000 PUSH1 0x0 MSTORE PUSH1 0x1 PUSH1 0x4 MSTORE PUSH1 0x24 PUSH1 0x0 REVERT JUMPDEST PUSH32 0x4E487B7100000000000000000000000000000000000000000000000000000000 PUSH1 0x0 MSTORE PUSH1 0x12 PUSH1 0x4 MSTORE PUSH1 0x24 PUSH1 0x0 REVERT JUMPDEST PUSH1 0x0 DUP1 REVERT JUMPDEST PUSH32 0x696E76616C6964206E756D626572000000000000000000000000000000000000 PUSH1 0x0 DUP3 ADD MSTORE POP JUMP JUMPDEST PUSH32 0x696E76616C6964206E756D6265722C2072657665727400000000000000000000 PUSH1 0x0 DUP3 ADD MSTORE POP JUMP JUMPDEST PUSH2 0x415 DUP2 PUSH2 0x31C JUMP JUMPDEST DUP2 EQ PUSH2 0x420 JUMPI PUSH1 0x0 DUP1 REVERT JUMPDEST POP JUMP INVALID LOG2 PUSH5 0x6970667358 0x22 SLT KECCAK256 0x28 0xBE 0xB7 0x5E SWAP16 0x5D PUSH20 0x913770B5178A73A3A1E9B23DCC592A54003F2A35 SWAP14 0xD9 0x1E PUSH5 0x3464736F6C PUSH4 0x43000807 STOP CALLER "
				},
				"gasEstimates": {
					"creation": {
						"codeDepositCost": "222600",
						"executionCost": "22369",
						"totalCost": "244969"
					},
					"external": {
						"func1(uint256)": "infinite",
						"func2(uint256)": "infinite",
						"func3(uint256)": "infinite"
					}
				},
				"methodIdentifiers": {
					"func1(uint256)": "254e43db",
					"func2(uint256)": "16d93ade",
					"func3(uint256)": "9a183afb"
				}
			},
			"storageLayout": {
				"storage": [
					{
						"astId": 4,
						"contract": "contracts/error_handling.sol:ErrorHandling",
						"label": "demo_var",
						"offset": 0,
						"slot": "0",
						"type": "t_uint256"
					}
				],
				"types": {
					"t_uint256": {
						"encoding": "inplace",
						"label": "uint256",
						"numberOfBytes": "32"
					}
				}
			},
			"userdoc": {
				"kind": "user",
				"methods": {},
				"version": 1
			}
		}
	}
}