{
	"data": {
		"bytecode": {
			"linkReferences": {},
			"object": "608060405234801561001057600080fd5b5060fb8061001f6000396000f3fe6080604052348015600f57600080fd5b506004361060285760003560e01c8063b583a20414602d575b600080fd5b60336035565b005b3373ffffffffffffffffffffffffffffffffffffffff16427fdceabb6a4a96d45aa6bd79278fb2c8f63d06b3d7cc21e1213dcd0a2fcb572a9f6037604051607b91906092565b60405180910390a3565b608c8160b5565b82525050565b600060208201905060a560008301846085565b92915050565b6000819050919050565b600060be8260ab565b905091905056fea26469706673582212205b207617f8ae1eef3dfed6e4bd44784816afee364098fdb06aca0199d4c6435164736f6c63430008070033",
			"opcodes": "PUSH1 0x80 PUSH1 0x40 MSTORE CALLVALUE DUP1 ISZERO PUSH2 0x10 JUMPI PUSH1 0x0 DUP1 REVERT JUMPDEST POP PUSH1 0xFB DUP1 PUSH2 0x1F PUSH1 0x0 CODECOPY PUSH1 0x0 RETURN INVALID PUSH1 0x80 PUSH1 0x40 MSTORE CALLVALUE DUP1 ISZERO PUSH1 0xF JUMPI PUSH1 0x0 DUP1 REVERT JUMPDEST POP PUSH1 0x4 CALLDATASIZE LT PUSH1 0x28 JUMPI PUSH1 0x0 CALLDATALOAD PUSH1 0xE0 SHR DUP1 PUSH4 0xB583A204 EQ PUSH1 0x2D JUMPI JUMPDEST PUSH1 0x0 DUP1 REVERT JUMPDEST PUSH1 0x33 PUSH1 0x35 JUMP JUMPDEST STOP JUMPDEST CALLER PUSH20 0xFFFFFFFFFFFFFFFFFFFFFFFFFFFFFFFFFFFFFFFF AND TIMESTAMP PUSH32 0xDCEABB6A4A96D45AA6BD79278FB2C8F63D06B3D7CC21E1213DCD0A2FCB572A9F PUSH1 0x37 PUSH1 0x40 MLOAD PUSH1 0x7B SWAP2 SWAP1 PUSH1 0x92 JUMP JUMPDEST PUSH1 0x40 MLOAD DUP1 SWAP2 SUB SWAP1 LOG3 JUMP JUMPDEST PUSH1 0x8C DUP2 PUSH1 0xB5 JUMP JUMPDEST DUP3 MSTORE POP POP JUMP JUMPDEST PUSH1 0x0 PUSH1 0x20 DUP3 ADD SWAP1 POP PUSH1 0xA5 PUSH1 0x0 DUP4 ADD DUP5 PUSH1 0x85 JUMP JUMPDEST SWAP3 SWAP2 POP POP JUMP JUMPDEST PUSH1 0x0 DUP2 SWAP1 POP SWAP2 SWAP1 POP JUMP JUMPDEST PUSH1 0x0 PUSH1 0xBE DUP3 PUSH1 0xAB JUMP JUMPDEST SWAP1 POP SWAP2 SWAP1 POP JUMP INVALID LOG2 PUSH5 0x6970667358 0x22 SLT KECCAK256 JUMPDEST KECCAK256 PUSH23 0x17F8AE1EEF3DFED6E4BD44784816AFEE364098FDB06ACA ADD SWAP10 0xD4 0xC6 NUMBER MLOAD PUSH5 0x736F6C6343 STOP ADDMOD SMOD STOP CALLER "
		},
		"gasEstimates": {
			"creation": {
				"codeDepositCost": "50200",
				"executionCost": "99",
				"totalCost": "50299"
			},
			"external": {
				"emit_event()": "2116"
			}
		},
		"methodIdentifiers": {
			"emit_event()": "b583a204"
		}
	},
	"abi": [
		{
			"anonymous": false,
			"inputs": [
				{
					"indexed": true,
					"internalType": "uint256",
					"name": "date",
					"type": "uint256"
				},
				{
					"indexed": true,
					"internalType": "address",
					"name": "sender",
					"type": "address"
				},
				{
					"indexed": false,
					"internalType": "uint256",
					"name": "number",
					"type": "uint256"
				}
			],
			"name": "Address_info",
			"type": "event"
		},
		{
			"inputs": [],
			"name": "emit_event",
			"outputs": [],
			"stateMutability": "nonpayable",
			"type": "function"
		}
	]
}