{
	"data": {
		"bytecode": {
			"linkReferences": {},
			"object": "608060405234801561001057600080fd5b50610392806100206000396000f3fe608060405234801561001057600080fd5b50600436106100415760003560e01c8063022d18c4146100465780630fc34d5d14610062578063c88467511461007e575b600080fd5b610060600480360381019061005b91906101e9565b61009a565b005b61007c600480360381019061007791906101e9565b610106565b005b610098600480360381019061009391906101e9565b610174565b005b6000805b81610100577f7f01e027002983a61fc732573dbcd5ca1d39361dc45033701f7ed61cee22e61e423386846040516100d89493929190610247565b60405180910390a180806100eb906102c8565b915050828114156100fb57600191505b61009e565b50505050565b60005b8181101561016f57600581111561011f5761016f565b7f7f01e027002983a61fc732573dbcd5ca1d39361dc45033701f7ed61cee22e61e423385846040516101549493929190610247565b60405180910390a18080610167906102c8565b915050610109565b505050565b60005b818110156101cf577f7f01e027002983a61fc732573dbcd5ca1d39361dc45033701f7ed61cee22e61e423385846040516101b49493929190610247565b60405180910390a180806101c7906102c8565b915050610177565b505050565b6000813590506101e381610345565b92915050565b60008060408385031215610200576101ff610340565b5b600061020e858286016101d4565b925050602061021f858286016101d4565b9150509250929050565b6102328161028c565b82525050565b610241816102be565b82525050565b600060808201905061025c6000830187610238565b6102696020830186610229565b6102766040830185610238565b6102836060830184610238565b95945050505050565b60006102978261029e565b9050919050565b600073ffffffffffffffffffffffffffffffffffffffff82169050919050565b6000819050919050565b60006102d3826102be565b91507fffffffffffffffffffffffffffffffffffffffffffffffffffffffffffffffff82141561030657610305610311565b5b600182019050919050565b7f4e487b7100000000000000000000000000000000000000000000000000000000600052601160045260246000fd5b600080fd5b61034e816102be565b811461035957600080fd5b5056fea2646970667358221220a54355c340aaa074945a3a8d366afe048f1767970de7b3ed69b3d5f0a65e7fe864736f6c63430008070033",
			"opcodes": "PUSH1 0x80 PUSH1 0x40 MSTORE CALLVALUE DUP1 ISZERO PUSH2 0x10 JUMPI PUSH1 0x0 DUP1 REVERT JUMPDEST POP PUSH2 0x392 DUP1 PUSH2 0x20 PUSH1 0x0 CODECOPY PUSH1 0x0 RETURN INVALID PUSH1 0x80 PUSH1 0x40 MSTORE CALLVALUE DUP1 ISZERO PUSH2 0x10 JUMPI PUSH1 0x0 DUP1 REVERT JUMPDEST POP PUSH1 0x4 CALLDATASIZE LT PUSH2 0x41 JUMPI PUSH1 0x0 CALLDATALOAD PUSH1 0xE0 SHR DUP1 PUSH4 0x22D18C4 EQ PUSH2 0x46 JUMPI DUP1 PUSH4 0xFC34D5D EQ PUSH2 0x62 JUMPI DUP1 PUSH4 0xC8846751 EQ PUSH2 0x7E JUMPI JUMPDEST PUSH1 0x0 DUP1 REVERT JUMPDEST PUSH2 0x60 PUSH1 0x4 DUP1 CALLDATASIZE SUB DUP2 ADD SWAP1 PUSH2 0x5B SWAP2 SWAP1 PUSH2 0x1E9 JUMP JUMPDEST PUSH2 0x9A JUMP JUMPDEST STOP JUMPDEST PUSH2 0x7C PUSH1 0x4 DUP1 CALLDATASIZE SUB DUP2 ADD SWAP1 PUSH2 0x77 SWAP2 SWAP1 PUSH2 0x1E9 JUMP JUMPDEST PUSH2 0x106 JUMP JUMPDEST STOP JUMPDEST PUSH2 0x98 PUSH1 0x4 DUP1 CALLDATASIZE SUB DUP2 ADD SWAP1 PUSH2 0x93 SWAP2 SWAP1 PUSH2 0x1E9 JUMP JUMPDEST PUSH2 0x174 JUMP JUMPDEST STOP JUMPDEST PUSH1 0x0 DUP1 JUMPDEST DUP2 PUSH2 0x100 JUMPI PUSH32 0x7F01E027002983A61FC732573DBCD5CA1D39361DC45033701F7ED61CEE22E61E TIMESTAMP CALLER DUP7 DUP5 PUSH1 0x40 MLOAD PUSH2 0xD8 SWAP5 SWAP4 SWAP3 SWAP2 SWAP1 PUSH2 0x247 JUMP JUMPDEST PUSH1 0x40 MLOAD DUP1 SWAP2 SUB SWAP1 LOG1 DUP1 DUP1 PUSH2 0xEB SWAP1 PUSH2 0x2C8 JUMP JUMPDEST SWAP2 POP POP DUP3 DUP2 EQ ISZERO PUSH2 0xFB JUMPI PUSH1 0x1 SWAP2 POP JUMPDEST PUSH2 0x9E JUMP JUMPDEST POP POP POP POP JUMP JUMPDEST PUSH1 0x0 JUMPDEST DUP2 DUP2 LT ISZERO PUSH2 0x16F JUMPI PUSH1 0x5 DUP2 GT ISZERO PUSH2 0x11F JUMPI PUSH2 0x16F JUMP JUMPDEST PUSH32 0x7F01E027002983A61FC732573DBCD5CA1D39361DC45033701F7ED61CEE22E61E TIMESTAMP CALLER DUP6 DUP5 PUSH1 0x40 MLOAD PUSH2 0x154 SWAP5 SWAP4 SWAP3 SWAP2 SWAP1 PUSH2 0x247 JUMP JUMPDEST PUSH1 0x40 MLOAD DUP1 SWAP2 SUB SWAP1 LOG1 DUP1 DUP1 PUSH2 0x167 SWAP1 PUSH2 0x2C8 JUMP JUMPDEST SWAP2 POP POP PUSH2 0x109 JUMP JUMPDEST POP POP POP JUMP JUMPDEST PUSH1 0x0 JUMPDEST DUP2 DUP2 LT ISZERO PUSH2 0x1CF JUMPI PUSH32 0x7F01E027002983A61FC732573DBCD5CA1D39361DC45033701F7ED61CEE22E61E TIMESTAMP CALLER DUP6 DUP5 PUSH1 0x40 MLOAD PUSH2 0x1B4 SWAP5 SWAP4 SWAP3 SWAP2 SWAP1 PUSH2 0x247 JUMP JUMPDEST PUSH1 0x40 MLOAD DUP1 SWAP2 SUB SWAP1 LOG1 DUP1 DUP1 PUSH2 0x1C7 SWAP1 PUSH2 0x2C8 JUMP JUMPDEST SWAP2 POP POP PUSH2 0x177 JUMP JUMPDEST POP POP POP JUMP JUMPDEST PUSH1 0x0 DUP2 CALLDATALOAD SWAP1 POP PUSH2 0x1E3 DUP2 PUSH2 0x345 JUMP JUMPDEST SWAP3 SWAP2 POP POP JUMP JUMPDEST PUSH1 0x0 DUP1 PUSH1 0x40 DUP4 DUP6 SUB SLT ISZERO PUSH2 0x200 JUMPI PUSH2 0x1FF PUSH2 0x340 JUMP JUMPDEST JUMPDEST PUSH1 0x0 PUSH2 0x20E DUP6 DUP3 DUP7 ADD PUSH2 0x1D4 JUMP JUMPDEST SWAP3 POP POP PUSH1 0x20 PUSH2 0x21F DUP6 DUP3 DUP7 ADD PUSH2 0x1D4 JUMP JUMPDEST SWAP2 POP POP SWAP3 POP SWAP3 SWAP1 POP JUMP JUMPDEST PUSH2 0x232 DUP2 PUSH2 0x28C JUMP JUMPDEST DUP3 MSTORE POP POP JUMP JUMPDEST PUSH2 0x241 DUP2 PUSH2 0x2BE JUMP JUMPDEST DUP3 MSTORE POP POP JUMP JUMPDEST PUSH1 0x0 PUSH1 0x80 DUP3 ADD SWAP1 POP PUSH2 0x25C PUSH1 0x0 DUP4 ADD DUP8 PUSH2 0x238 JUMP JUMPDEST PUSH2 0x269 PUSH1 0x20 DUP4 ADD DUP7 PUSH2 0x229 JUMP JUMPDEST PUSH2 0x276 PUSH1 0x40 DUP4 ADD DUP6 PUSH2 0x238 JUMP JUMPDEST PUSH2 0x283 PUSH1 0x60 DUP4 ADD DUP5 PUSH2 0x238 JUMP JUMPDEST SWAP6 SWAP5 POP POP POP POP POP JUMP JUMPDEST PUSH1 0x0 PUSH2 0x297 DUP3 PUSH2 0x29E JUMP JUMPDEST SWAP1 POP SWAP2 SWAP1 POP JUMP JUMPDEST PUSH1 0x0 PUSH20 0xFFFFFFFFFFFFFFFFFFFFFFFFFFFFFFFFFFFFFFFF DUP3 AND SWAP1 POP SWAP2 SWAP1 POP JUMP JUMPDEST PUSH1 0x0 DUP2 SWAP1 POP SWAP2 SWAP1 POP JUMP JUMPDEST PUSH1 0x0 PUSH2 0x2D3 DUP3 PUSH2 0x2BE JUMP JUMPDEST SWAP2 POP PUSH32 0xFFFFFFFFFFFFFFFFFFFFFFFFFFFFFFFFFFFFFFFFFFFFFFFFFFFFFFFFFFFFFFFF DUP3 EQ ISZERO PUSH2 0x306 JUMPI PUSH2 0x305 PUSH2 0x311 JUMP JUMPDEST JUMPDEST PUSH1 0x1 DUP3 ADD SWAP1 POP SWAP2 SWAP1 POP JUMP JUMPDEST PUSH32 0x4E487B7100000000000000000000000000000000000000000000000000000000 PUSH1 0x0 MSTORE PUSH1 0x11 PUSH1 0x4 MSTORE PUSH1 0x24 PUSH1 0x0 REVERT JUMPDEST PUSH1 0x0 DUP1 REVERT JUMPDEST PUSH2 0x34E DUP2 PUSH2 0x2BE JUMP JUMPDEST DUP2 EQ PUSH2 0x359 JUMPI PUSH1 0x0 DUP1 REVERT JUMPDEST POP JUMP INVALID LOG2 PUSH5 0x6970667358 0x22 SLT KECCAK256 0xA5 NUMBER SSTORE 0xC3 BLOCKHASH 0xAA LOG0 PUSH21 0x945A3A8D366AFE048F1767970DE7B3ED69B3D5F0A6 0x5E PUSH32 0xE864736F6C634300080700330000000000000000000000000000000000000000 "
		},
		"gasEstimates": {
			"creation": {
				"codeDepositCost": "182800",
				"executionCost": "226",
				"totalCost": "183026"
			},
			"external": {
				"showNumbers(uint256,uint256)": "infinite",
				"showNumbersWithBreak(uint256,uint256)": "infinite",
				"whileLoopNumbers(uint256,uint256)": "infinite"
			}
		},
		"methodIdentifiers": {
			"showNumbers(uint256,uint256)": "c8846751",
			"showNumbersWithBreak(uint256,uint256)": "0fc34d5d",
			"whileLoopNumbers(uint256,uint256)": "022d18c4"
		}
	},
	"abi": [
		{
			"anonymous": false,
			"inputs": [
				{
					"indexed": false,
					"internalType": "uint256",
					"name": "date",
					"type": "uint256"
				},
				{
					"indexed": false,
					"internalType": "address",
					"name": "add",
					"type": "address"
				},
				{
					"indexed": false,
					"internalType": "uint256",
					"name": "number",
					"type": "uint256"
				},
				{
					"indexed": false,
					"internalType": "uint256",
					"name": "i",
					"type": "uint256"
				}
			],
			"name": "Number",
			"type": "event"
		},
		{
			"inputs": [
				{
					"internalType": "uint256",
					"name": "number",
					"type": "uint256"
				},
				{
					"internalType": "uint256",
					"name": "amount",
					"type": "uint256"
				}
			],
			"name": "showNumbers",
			"outputs": [],
			"stateMutability": "nonpayable",
			"type": "function"
		},
		{
			"inputs": [
				{
					"internalType": "uint256",
					"name": "number",
					"type": "uint256"
				},
				{
					"internalType": "uint256",
					"name": "amount",
					"type": "uint256"
				}
			],
			"name": "showNumbersWithBreak",
			"outputs": [],
			"stateMutability": "nonpayable",
			"type": "function"
		},
		{
			"inputs": [
				{
					"internalType": "uint256",
					"name": "number",
					"type": "uint256"
				},
				{
					"internalType": "uint256",
					"name": "amount",
					"type": "uint256"
				}
			],
			"name": "whileLoopNumbers",
			"outputs": [],
			"stateMutability": "nonpayable",
			"type": "function"
		}
	]
}